:020000040800F2
:10000000000400202D4F0008A1440008A34400086C
:10001000A5440008A7440008A94400080000000007
:10002000000000000000000000000000AB440008D9
:10003000AD44000800000000AF440008B1440008CF
:100040008D4F0008914F0008954F0008994F000808
:100050009D4F0008A14F0008C9450008A94F00089E
:10006000AD4F0008B14F0008B54F0008B94F000868
:10007000BD4F0008C14F0008C54F0008C94F000818
:10008000CD4F0008D14F0008D54F0008D94F0008C8
:10009000DD4F0008E14F0008E54F0008B3440008B9
:1000A000ED4F0008F14F0008F54F0008CD4500085E
:1000B0004B45000801500008055000080950000891
:1000C0000D50000811500008155000081950000884
:1000D0001D500008C94400081545000829500008B3
:1000E0002D500008315000083550000838B5DFF8B1
:1000F000740C00218183DFF8704C251DA98161609B
:1001000004F22400018141F24730E8810320E874C1
:1001100003F018FA01206874FF2084F824008E2070
:10012000A87431BD10B5DFF8440C02210170012123
:100130004170DFF8340C4FF41671016000F00AF8DA
:1001400041F2473000F016F84FF6FF7002F0E5FA82
:10015000207A10BDDFF81C4C0120207060688008F8
:100160008000606002202072DFF80C0C0121017019
:1001700004F091BCDFF8F01B488202F0CDBADFF842
:10018000EC1B487002F0A3BA10B5044603F0E7F97F
:100190002046BDE8104002F0C0BA00002DE9F84347
:1001A000DFF8C44B4FF41670206004F074FC207923
:1001B000000648BF00F012FA00F00AFBDFF8BC5B53
:1001C000287818B1FFF7AEFF00202870DFF8945BA5
:1001D000A87FDFF89C8BDFF8A86B43F27109DFF88A
:1001E0008C7B697F0A2940D8DFE811F00B00810081
:1001F00057015C014B002D0140010C011C0128003E
:1002000065006068410530D5B17E32681268895C4E
:10021000012943D0062929D0072965D1C00763D514
:10022000F96801F0020040081FD141F00200F860B7
:1002300009206877606820F480606060DFF8440B14
:100240000078032824BF608A04F024FE00F0E6FB57
:100250000020A8738020E873B8F80000A881608AA5
:10026000688100F008FA0320687729E1F96801F055
:100270000202520812D141F00200F860042000F09E
:1002800037F906F1120003F00AFA002840F0108155
:100290006877F86820F00200F86011E1C00723D504
:1002A000F96801F002004008F7D141F00200F8605F
:1002B0000A2000F01DF900F0F6FC2320A873CC20E2
:1002C000E873B07CA870F07CE870307D2871707D98
:1002D0006871B07DA871F07DE871307E2872707E03
:1002E0006872608A2880BCE700F003F9E8E04FF606
:1002F000FF76DFF8948A287DC01E0528F6D8DFE84F
:1003000000F0070B57351703A87D28760020ABE7D0
:1003100000F0B1F90220A7E7606840F0800060605B
:100320000A20A87700F044FA04F0B5FB02209BE70E
:1003300000F0D3F8DAD000F0CBF80320A873C8207F
:10034000E8736E802E806E8108F27E007861062050
:1003500088F87E0001203876606820F4005040F470
:100360008040606000F087F905207DE7606820F438
:100370008070606000F0B1F8B8D000F0A9F8606853
:100380004FF4007108436060A87D02F0A0F908F204
:100390007E007861072088F87E00012038764320AF
:1003A000A8730820E8736E8041F24730288058E730
:1003B00000F093F89AD000F08BF8A87D02F087F94E
:1003C000606820F40060606008F27E007861A07DC3
:1003D00088F87E007869401E786101210170022052
:1003E00038762320A873C820E873E08C6880208DBD
:1003F0002880606840F4805060606E8100F03BF9B6
:10040000072031E7217909065AD4F96821F0020161
:10041000F96010B100F066F878E702F022F928627E
:10042000082021E76068000504D5002000F05AF894
:10043000002019E702F015F900F044F840D30D2030
:1004400000F050F862E72179090639D4F96821F003
:100450000201F96028B1616821F480416160287669
:10046000E6E702F0FEF828620620FDE660688004F8
:1004700006D500202876606820F4C040606045E71B
:1004800002F0EFF800F01EF81AD30E20287660680C
:1004900020F4804060600020E6E6217909060FD450
:1004A000287633E7217909060AD428760020EFE67A
:1004B00000780A2101FB0080008800F0CAFBFCE6FE
:1004C000BDE8F183296A401A0002000A48457047D6
:1004D000F86840F00200F8607047F868C0F3400028
:1004E000012870472876606820F48050606070476B
:1004F0006877606820F4806060607047704710B56E
:10050000DFF864280378052B0DD1437803F003034B
:10051000022B08D1C078117D884217D1506820F095
:100520004000506010BD02F214035C7E641C5C76D7
:10053000E4B20B2C01D100245C765C7E02EBC40497
:100540002063587E02EBC00080F8341010BDDFF845
:10055000180890F82D10491CC9B20B2908BF0021BA
:1005600090F82C00814201D1012070470020704793
:10057000DFF8F40790F82C1090F82D00814201D19B
:100580000120704700207047DFF8DC0790F82C103E
:1005900090F82D20914201D100207047491CC9B22A
:1005A0000B2908BF002100EBC1003030704780B537
:1005B000DFF8B41791F82C20521C81F82C20D2B20D
:1005C0000B2A04BF002281F82C2030B191F82C00B6
:1005D00001EBC000006B04F055F801BD38B5DFF841
:1005E0008847606801063FD5DFF88C170978002935
:1005F0003AD1DFF87057DFF87C170A7A002A11D059
:1006000094F82B00002807D000F02FF81EBF606878
:1006100020F04000606025D1606820F0C00060607C
:10062000AA7731BD400606D4606820F08000606083
:100630000020A87731BD02F014F82168E269801A21
:100640000002B1EB102F0FD294F82B00002802D03B
:1006500000F00BF806D10B20A877606820F080002E
:10066000606031BD00F007F831BD401E84F82B00FA
:10067000C0B2002870472DE9F843DFF8EC8698F8FF
:100680000400000600F18580DFF8D856EE7BC6F343
:100690008106E87B870908F10409DFF8D046B9F83C
:1006A0000E104FF6FE72914210D1022F0ED1032789
:1006B00040F0C000E8736069083802F01CF8207E42
:1006C000083020766069083860610EE0002F0CD099
:1006D000022F02D0032FEED007E000F060F8A989C6
:1006E00000F070F8A98900F05EF8A87B400608D4F5
:1006F0003FB100F054F8698900F064F8698900F0AE
:1007000052F830001CD0022E02D0032E0AD017E07F
:1007100000F045F8698800F055F869880170207E7E
:10072000801C0CE000206169491E6161424252193F
:10073000527A0A70401C0828F5DB207E08302076AB
:100740003EB100F02CF8298800F03CF8298800F030
:100750002AF801F08FFF89F810006169491E616174
:10076000087000F01CF8E97B00F02DF8A97B0170FF
:10077000207EC01C2076D8F8040020F0400040F015
:100780008000C8F8040099F8130088F82B000A20AC
:10079000A87700F00DF8BDE8F14304F07CB960697A
:1007A000401E606170470170207E801C207670477B
:1007B000DFF8C005022101700172DFF8BC050121DC
:1007C00001707047090A01706069401E60617047DE
:1007D0002DE9F845DFF89885DFF8A475DFF888453E
:1007E0006568DFF88065307F20B1022800F0AD80B9
:1007F0005DD3B1E0FFF7BCFE0028FAD1FFF7C4FEDD
:10080000824600F0ABF805D1A80503D40120FFF71C
:10081000CEFEA1E0487800F003000228F6D0C7F829
:1008200000A000F0A1F800F099F802D100F03CF926
:10083000ECE77879C0F38100032818D1387A0128D1
:10084000E4D1787A7928E1D1B87A5028DED1F87AE3
:100850004028DBD1387B3028D8D1787B2028D5D1EF
:10086000B87B1028D2D1F87B0028CFD10EE0022827
:1008700008D13889B8F80020904207D04FF6FF72AF
:100880009042F2E75FFA89F00028BFD0487800F084
:100890000300012833D12805B8D57879C0F3810049
:1008A00003280CD101F0DDFE20620120307700F03A
:1008B00083FC002850D100F085FC002048E07879C6
:1008C0008009022808D1788A218A8842EAD002F079
:1008D000CDFE00289AD0E5E7032897D10020C11962
:1008E000897C0219127A914202D1401C0828F6DB59
:1008F0000828D7D007F1120002F0D1FEE9E7B87E50
:1009000039680968405C012812D0022806D0062800
:100910000ED007280CD0082805D00EE0E80401D539
:1009200000F012F972E76804FCD500F044F96DE7B5
:1009300045F48060606002200DE0DFF8481409781B
:10094000032901D304F0A5FA60E7680504D4012067
:10095000FFF72DFE00203077BDE8F185DAF80010B2
:10096000487803221042704770B5DFF8140401681C
:1009700009684A1C12F8011B017112F8011B417130
:10098000C1F381048909521C042344B112F8013BCC
:10099000C38012F8015B03EB0523C3800623022CFE
:1009A00009D112F8014B048112F8015B04EB052414
:1009B00004819B1C0AE0032C09D10024251812F89D
:1009C000016B2E72641C082CF8DB0833DBB204794F
:1009D00064060AD449B112F8014B048212F8015B93
:1009E00004EB052404829B1CDBB2022908D1117898
:1009F000418212F8014F01EB042141829B1C0AE065
:100A0000032909D10024211812F8015B8D74641C9C
:100A1000082CF8DB0833DBB2837670BDD348DA49A3
:100A200001F27E024261002281F87E204169491E66
:100A3000416101F8012941610A704A1E4261CA49B7
:100A400091F88C30242B0CBF0023012302F80139CC
:100A500042614B7D02F80139426191F88D30042BDF
:100A60000CBF0023012302F801394261002302F880
:100A70000139426102F80139426102F801394261EB
:100A800002F801394261137000220979C90748BF91
:100A900080224169491E416101F801294161FF221B
:100AA0000A700D210176704770B5B548827E0168E5
:100AB0000B681C78A41AE41E0D2C44D1D21853786C
:100AC0001B0640D512F8043F002B3CD112F8013F21
:100AD000002B38D112F8013FABBB12F8013F93B3A2
:100AE0005278A14C04F2240594F82430FF2B03D053
:100AF000AB7909798B4221D284F8242001680979E5
:100B0000A971418A6980008AA8809E4E31780329A4
:100B100028BF04F0BFF93078032824BF688804F0A8
:100B2000B9F93078032824BFA87904F0B2F93078F5
:100B3000032824BF94F8240004F0ABF960684FF454
:100B400080710843606070BD70B500F07AF8042AC7
:100B500030D14018C178032211422BD110F8011F67
:100B600010F8012F01EB022080B2FFF70DFB7E4D44
:100B70002E1D208AF08101F0CFFDE88CB08195F820
:100B80002400401C7074A07C3071E07C7071207D6A
:100B9000B071607DF071A07D3072E07D7072207E5A
:100BA000B072607EF072306820F04000306040F437
:100BB0000060686070BD70B500F043F8082A3FD14E
:100BC0004518694E706820F04000706040F4205075
:100BD000706015F8010F15F8011F00EB012080B2BD
:100BE000FFF7C8FA15F8010F308215F8011F00EB66
:100BF0000120308215F8010FFFF7C1FAA07C307296
:100C0000E07C7072207DB072607DF072A07D3073E8
:100C1000E07D7073207EB073607EF07315F8010F75
:100C200015F8011F00EB0124A4B25148008884424A
:100C300003D002F087FC02F04FFD2046FFF7A4FA34
:100C400070BD4F4CA07E216809680A78121AD21E26
:100C5000704746494C4A02F27E034B61030A82F810
:100C60007E304A69521E4A611070501E48614A78AF
:100C700000F8012948613E4A13881B0A00F801392F
:100C80004861128800F801294861374A538A1B0AD3
:100C900000F801394861528A00F8012948610822A8
:100CA00002700A7670472DE9F0414FF6FF7844460E
:100CB0000225334F386800680078B97E401AC01E9C
:100CC000022831D107F1120002F0E9FC38B10078B6
:100CD0000A21274A01FB0020048800252BE0B87E6A
:100CE0003968096840184678314607F1120003F068
:100CF00047FAC8B11C48B10711D590F88D000428F7
:100D000011D0314607F1120002F003FD04464445BC
:100D100009D0002507F1120003F034FA0BE090F837
:100D20008C002428EDD1012516480078032824BF23
:100D3000284604F0AEF80D48134901F27E024261E4
:100D400081F87E50511E4161221201F80129416152
:100D500001F80149416102220A7004210176BDE8CF
:100D6000F0810000782C002090290020FC2C00202D
:100D700030240020642D0020182D0020922D00200A
:100D80001C2D0020942D0020A82A0020DFF8080840
:100D900000218176DFF8041800220A708A8002831D
:100DA0008A717047F8B5FFF7F9F900F07AF9DFF8C2
:100DB000F067DFF8F057DFF8F077DFF8DC47607EA8
:100DC0000E285FD8DFE800F008205CDD6DDD3E5CBA
:100DD0007A8189B5B9C06300DFF8C00741798079AD
:100DE000814200F0CE80DFF8C407C16801F0020242
:100DF000520879D141F00201C16000F0F3F90120FD
:100E000000F0CAF80E20BBE02878092802D00B2891
:100E100010D035E00020E075DFF880070079012868
:100E200018BF00F0D2FA00F01FFB002000F0B4F869
:100E3000022024E0687A98B1706820F40060706045
:100E40000620607600F09EF84ED107213970617659
:100E50000A21397101210170BDE8F140FFF79EB907
:100E60000420607603F008FEFFF740F902F034FC3E
:100E7000FFF758F985F830000028A0D000206076F0
:100E800000F085F87DD1387985F8300077E000F002
:100E90007EF876D1DFF81407C16821F00201C16045
:100EA0006DE0706820F0010070600120B8700320D0
:100EB000E076FF2086F824000820607600F062F8D3
:100EC0005FD1062139700921C1E700F060F858D1DF
:100ED00001F0C7FBE0610A2052E07068C00504D54C
:100EE000706820F480707060F1BD01F0BAFBE169B8
:100EF000401A0002000A43F27101884241D3E07EA9
:100F000020B1401EE076C0B20028D5D196F824006A
:100F1000FF2805D00C206076308DFFF72BF904E018
:100F2000102085F8300000206076706820F4407052
:100F3000D9E70120B8700C20607600F023F820D1AA
:100F4000052139700D2182E700F021F819D1387997
:100F500085F8300028B902F0C7FB706840F0010046
:100F6000706095F83000002809D102F0BAF8DFF877
:100F7000400602210171016841F001010160002079
:100F80006076F1BDDFF82C06017800297047DFF8A4
:100F900024060078002870472DE9F843DFF808465A
:100FA000DFF8FC154A68120503D40920A070082058
:100FB0006CE0DFF8E4556A7D0F231A4208BF122067
:100FC000F4D010BBDFF8E4054269521E42612B8861
:100FD00013704269521E42612B881B0A13704269CA
:100FE000521E42612B8A13704269521E42612B8A43
:100FF0001B0A13704269521E42616A7D521E6A7555
:1010000043691A70027E521D0276DFF8AC65488A89
:10101000308070812F884FF6FF784FF6FE70874240
:1010200007D1CC20F07308226968B01C01F0B2FA35
:101030001EE0DFF8889599F80000032824BF3846A1
:1010400003F028FF288840450FD002F0B8FB074680
:1010500099F80000032824BF384603F01BFF4745DA
:1010600002BF1120A070082010D0C820F073778034
:10107000F07B801000F00300022804D17088404506
:1010800008BF412000D06120B073032020700A20E7
:101090002071DFF8200501210170BDE8F143FFF761
:1010A0007DB870B5DFF81805DFF81845DFF8E854AB
:1010B000297E002904D0022934D002D303293AD052
:1010C00070BD217A226889180A7802F0C003802B4B
:1010D00003D1930601D5D20603D4206803F0D2FAD7
:1010E00067E011F8012F1202A28111F8013F9A184E
:1010F000A28111F8012F12026281628911F8013F69
:101100009918618161894FF6FF72914206D04FF6BE
:10111000FE72914202D0008881420AD100F0ABF801
:101120000220287601F004F9002844D101F005F9E5
:101130003FE003202876DFF884643078217A226843
:10114000895C0F22114205D10328C6D3608903F0C0
:10115000A1FEC2E7032824BF608903F09BFEDFF8ED
:101160003C048179491CC9B20A46052A08BF0022FD
:1011700043799A420ED13078032824BF687E03F069
:1011800088FE30780328A8D3DFF82804007803F01D
:1011900080FEA2E78171052904BF00218171817958
:1011A00000EBC10122688A60817900EBC100217ADD
:1011B00001730020287670BDDFF8DC03007E00B1EB
:1011C00001207047DFF800040168DFF8F8230B689E
:1011D000136009791171807E1072DFF8BC03012160
:1011E0000176704738B5DFF8C443DFF8E00360618B
:1011F000DFF8A80341798279914208BF002107D026
:10120000491CC9B2052908BF002100EBC101083102
:101210000A6813780979591AC91EC9B29A18D21ED8
:10122000217663695B1E636112F8015D1D70491EC2
:10123000C9B20029F5D14179491C4171C9B20529CA
:1012400004BF00214171417900EBC100806803F0C7
:1012500019FA6069C1780902DFF83C23118003792B
:10126000591811800178491E01706069007800F0FA
:101270000F00907431BD2DE9F041DFF84843207A2A
:101280002168411801F2050818F8011B2174412951
:1012900001D0422905D0801D60720020A074BDE8F5
:1012A000F08118F8010B607418F8010BE076032642
:1012B00048F2FE07607C000608D4002000F081F8A8
:1012C0000A77401C0828F9DB0B2603E0A7830020DF
:1012D000E0832062DFF8C852607C40060AD4002018
:1012E00000F06FF881F82420401C0828F8DB08364D
:1012F000F6B205E0A289698A04F11C0002F0F3F855
:10130000607C80060AD4002000F05BF881F82C2075
:10131000401C0828F8DB0836F6B203E0A785002059
:10132000E0852063607CC0060AD4002000F049F804
:1013300081F83420401C0828F8DB0836F6B205E0B6
:101340006289698A04F12C0002F0CDF8607C000704
:1013500012D418F8010BE07418F8010B0004606156
:1013600018F8011B00EB0120606118F8011B081838
:101370006061361DF6B202E00020E0746061607CBE
:10138000C0F3410028B998F80000A076761CF6B2A8
:101390000BE0012808BF112006D0022808BF3A2020
:1013A00002D0032801D10620A076207A3018401DF3
:1013B000607221680978C0B2081A401E208301209B
:1013C0006CE7011918F8012B704770B5724CE07D7D
:1013D000744D2E1D317A112908BF40F0020008D04B
:1013E0003A2908BF40F0040003D0062908BF40F0A6
:1013F0000600E075287928B9706818B9E07D40F0DA
:101400000800E075B07EFF2804BFE07D40F0C0001A
:1014100028D005F11E0001F0A0FF012823D1B07EE5
:10142000FE2806D1F07E802803D1E07D40F0A000A8
:10143000E075E07D40F04000E07505F22601CA78D5
:10144000FF2A08D10A79FE2A05D195F8262002F054
:101450000202521004D00978C1F34001012902D1DF
:1014600040F01000E07570BD30B550484A49CA7D63
:1014700012B941228A756DE042228A75426902F2F0
:1014800028024261027E283A0276464ACB7DC3F3A7
:1014900041033BB943695B1E4361147B1C70037EAF
:1014A0005B1C0376CB7D1B0712D400F070F800F0B4
:1014B0006DF8C4F3072400F069F8C4F303441C700A
:1014C00043695B1E436114791C70037E1B1D037608
:1014D000CB7DDB0609D4002300F052F895F82D509F
:1014E00000F046F8F8DB00F047F8CB7D9B0609D406
:1014F000002300F045F895F8255000F039F8F8DBA6
:1015000000F03AF8CB7D5B0608D4002300F038F8F1
:101510006D7F00F02DF8F9DB00F02EF8CB7D1B0677
:1015200008D4002300F02CF86D7D00F021F8F9DBE1
:1015300000F022F843695B1E4361527B1A70027E01
:10154000521C02764269521E4261CB7D1370027EAC
:10155000521C02764269521E42618B7D1370027EDC
:10156000521C0276164800880882BA20487530BDA1
:1015700025705B1C082B7047037E08330376704789
:101580004469641E44615D42AD1870471C70436934
:101590005B1E4361946870479C2C0020482C0020FF
:1015A00090290020E02B00208C2C0020FC2C002017
:1015B000382D0020952C0020782C0020942D002020
:1015C00030240020A42B00201C2D0020272B0020DD
:1015D00080B5DFF8580700210176DFF8540701775E
:1015E00081818173018043F2700101610A2181824E
:1015F000032101760021017103F03EFAFEF776FD2A
:10160000FFF7C4FB00F0E7FBBDE8014002F058BA69
:101610002DE9FF4700F0E8FBDFF8144720780007CA
:1016200048BF00F034FB00F051FADFF80C57DFF848
:101630000487DFF80867DFF8F47608F21C0A08F27E
:101640006409DFF8FC060178DFF8F8263B7E0B2BF7
:1016500000F2E080DFE813F00C00CC00AD002001C8
:1016600032014601DE00DE0011006B007D009600B5
:101670002078400744D50820387600F050F958D03B
:1016800000F048F908F29C0000210174C16060215B
:1016900089F806109AF81110C1709AF8101081702C
:1016A0009AF80F0089F808009AF80D0088F89C0055
:1016B000BAF80200A9F8300008F1740008F10C0132
:1016C000102203F004FBB8F81C00A9F83200002037
:1016D00088F864003076D8F8640040F00200C8F85A
:1016E0006400012000F02CF9D9F8000020F002007D
:1016F000C9F80000206820F004002060022088E083
:101700002878C00764D52879012804D0022843D05E
:1017100003285ED067E09AF8120000F00301012967
:101720000FD102F067FA00285DD00920387600F06A
:10173000F6F86FD000F0EEF802F087FA00F0F9F852
:10174000DCE7022914D102F05CFA00284BD00A2011
:10175000387600F0E4F85DD000F0DCF802F0C2FA70
:10176000286820F00100286000F0E7F8022050E02F
:1017700000F00300032836D102F04AFA002832D0E4
:101780000B20387600F0CBF844D000F0C3F802F01C
:10179000AAFA00F0CEF8B1E700F0B7F83AD100F0BD
:1017A000ACF800A80FC802F0C1F900F0C2F802209E
:1017B0003876207800072DD4607FB875F06820F067
:1017C0000200F060002038762078C0073FF550AF67
:1017D00020E000F09AF81DD100F08FF800A80FC8A3
:1017E00002F0D6F9E1E7286820F00100286011E056
:1017F0003B78122B04D0132B44D0142B28D009E0B3
:10180000206820F01000206098F86400C00703D51D
:101810000D203876BDE8FF8700F077F8FAD140F068
:101820000200F06000203076012000F089F8206886
:1018300040F010002060D9F80010C1F380010129A8
:10184000A9D120F0200040F0400020600320E0E714
:1018500000F05BF8DED140F00200F060B878642858
:1018600002D0652807D07FE700F05EF800A80FC817
:1018700002F05CF978E700F057F800A80FC802F012
:1018800087F971E70029C5D1132111750121017074
:1018900000F0AAFA0520BCE720780007BAD4F06867
:1018A00020F00200F060607F18B100F020F8002006
:1018B000AFE700F0D6FEF8610420AAE720788006A2
:1018C00001D50020F1E700F0CCFEF969401A0002D2
:1018D000000ADFF8741488429CD31D2000F007F83A
:1018E000002096E7002995D1107DB875DFE7B8751F
:1018F000206820F040002060704740F00200F06057
:1019000000A8A91D102203F0D5B9F06800F002016B
:1019100049087047F06840F00200F0607047F068D6
:10192000C0F340000128704700A8391D102203F0C1
:10193000CEB9286820F00100286000203076FFE74B
:101940002DE9F843DFF8FC83DFF8E893DFF8EC6378
:10195000317E002940F0978009F29C07397C0A46C5
:10196000DFF8E83380B103F27F007061F868101887
:101970003176317E69B17269521E7261491E3176CB
:1019800010F8011D1170F4E75042C01800F27F00FA
:101990007061387C30767069401E706199F89C10D7
:1019A00000F08CF809F26404217A00F087F8B97825
:1019B00000F084F8F97800F081F8A17900F07EF861
:1019C000002100F06EF80170307E801C3076716965
:1019D000491E7161801D08707069401E7061317E02
:1019E000891D0904090E00F061F8218E00F059F8F4
:1019F000218E090A00F05AF8618E00F052F8618ECB
:101A0000090A0170307E801C307699F86400C007A6
:101A100039D4CF4D06202870002068706860307E71
:101A200028811120A872CB480079E87205F11C00CA
:101A300009F17401102203F04AF905F11C0105F1C6
:101A40000C0001F0A8FC0C2088F80000B84DA0792B
:101A5000C006286808D540F00200286000F001FEAA
:101A6000A860A88AE88202E020F0020028602868C6
:101A700040F008002860287E687619206877307E5C
:101A800038717069B86099F86400C00707D41320F2
:101A900088F81400AA480121017000F0A5F9BDE8FA
:101AA000F18301707069401E706170470170307E73
:101AB000801C30767069401E706170470170307E06
:101AC000401C30767069401E706170472DE9F0410E
:101AD000984D994E964F387F002872D0012804D037
:101AE00003286BD0042865D06BE0287A2968401859
:101AF00000F090F805F2290461794A0905F29C008A
:101B0000032A1FD13978890716D5A17895F86C205A
:101B1000914211D195F8291095F89C2091420BD152
:101B2000E1788278914207D12179C078814203D14E
:101B3000386820F002003860286802F0A3FD002019
:101B400038773EE06AB94B070BD53B685FEA436CD8
:101B5000F2D594F803C080788445EDD143F020009D
:101B60003860A88B7C4B181811D1012A01D0022AA9
:101B700002D101F0B5FF0CE062B948070AD4012098
:101B80003071306840F0010030600320D8E702F087
:101B9000F5FA8046286802F075FD6079C006CED55A
:101BA0005FFA88F00028CAD1386840F00400386035
:101BB0000420C5E73878400703D4C0E73078C00771
:101BC000BAD5BDE8F0815A48007F00B101207047C6
:101BD00030B5584C614D2868206028792071687AAA
:101BE000207204F10C0005F11401102203F06FF8CB
:101BF000288A08382084E88EA086207A2168401838
:101C0000007A84F85700002084F824004848012115
:101C1000017730BD10B5474901F20A0210F8013BC7
:101C20001B029382938A10F8014BE318938210F8F9
:101C3000013B1B025382538A10F8014BE318538275
:101C400010F8013B1B02D382D38A10F8014BE31832
:101C5000D382D38A083BD382801C01F22B0310F875
:101C6000014BDC7010F8014B9C7010F8014B5C705C
:101C700010F8013BD37710F8013B81F82B300D238E
:101C80008B72D28A521F81F86020C86510BD38B5AA
:101C9000274C2068010748D529490978002944D1F3
:101CA0002849097D002904D020F00A0020606177CE
:101CB00031BD800706D4206820F008002060002095
:101CC000607731BD00F0CDFC2169A268801A000266
:101CD000B1EB102F29D2E08A38B1401EE08280B2E9
:101CE00018B100F0BEFCA06031BD607E401E607681
:101CF000C0B2002804D1206820F00800206031BD67
:101D00000E4D0C4890F8A0102976D0F8A400686118
:101D100000F0A7FCA060A08AE08268690021C17180
:101D2000686981710120FFF70BFE31BDBC2C0020DA
:101D3000DC2C002048280020382D0020FC2C00201E
:101D40002C2C0020142C002091D60200A82A002060
:101D5000602B00200C270020500FFFFF282B0020B5
:101D600010B55218521E0AE00B784C7804EB03238E
:101D70009BB2181880B29842B8BF401C891C91428F
:101D8000F2D307D1097810EB012080B2B0EB012F1C
:101D9000B8BF401C80B210BD70B50C46DFF800170C
:101DA000CD7E561BB6B2202204F10801801980B204
:101DB000FFF7D6FF324629192831FFF7D1FF08B9BE
:101DC0004FF6FF7070BD0A4601463A20E4E70A4626
:101DD00001461120E0E780B501F036F9DFF8C006D2
:101DE00000210184018301BD38B5FEF7DBFF00F05F
:101DF00046F9DFF8B056DFF8B006DFF8A44637E062
:101E000094F82010C90754D5697A2A68895C80291A
:101E100002D085291AD027E0C16801F002025208D9
:101E200014D141F00201C1600B20207601F0E3FFE4
:101E300005F1140001F058FF206A20F00100206233
:101E400000F0E2FA00F019F90F209DE0C16801F0FE
:101E50000202520808D141F00201C1600C20207634
:101E6000002001F032FDE7E7216A21F00101216243
:101E7000217E0F291DD802A232F91120974400BFFC
:101E800080FF20004000860158007401E6000C012C
:101E900032014E017401ACFFE0FFA601A6018A01E8
:101EA00021780C2906D00D291FD00E294BD00F29DF
:101EB00034D031BDB5F840002830A0830220207610
:101EC00000F0A2FA00F0D9F8206AC0F3401001280F
:101ED00040F08E8004202076DFF8D00500780028BE
:101EE000E7D100F0A9F802204EE0C168C1F340013B
:101EF0000129DED000F0B0F820F002002062608AF4
:101F000001F00FFFA01C01F0EFFE00F07DFA206A47
:101F100040F0040000F0B0F8062035E0C168C1F3DD
:101F20004001012931D000F097F820F0080020622C
:101F300001F08EFC00F068FA206A40F0100000F01A
:101F40009BF8082020E0DFF86405017800296AD1B9
:101F5000DFF85C150F2281F8302001210170FEF7B7
:101F600021FF0A2010E000F06DF85CD100F07AF853
:101F700006D02075206A20F004002062002003E0D3
:101F800000F06FFBE0620720207631BD94F820005E
:101F9000800701D50020ECE700F063FB00F044F877
:101FA00041D317202075206A20F004002062002011
:101FB000EAE700F047F836D100F054F802D000F01C
:101FC00046F8DAE700F04DFBE0620920DCE794F820
:101FD0002000000703D5002000F039F8E6E700F004
:101FE00040FB00F021F81ED3182000F030F8C4E7C1
:101FF00005202076DFF8B4040078002813D100F023
:102000001BF80020C0E70020BEE700F01BF80AD153
:10201000DFF89C1491F83010217500212176C168F9
:1020200021F00201C16031BDE16A401A0002000ADC
:102030004FF2312188427047DFF8740490F8300085
:1020400020757047DFF864140978002970472075FF
:10205000206A20F010007047C16841F00201C160A1
:10206000206A7047C16821F00201C160DFF84004B6
:1020700090F830000028704720620020B6E02DE97B
:10208000F041DFF830444FF6FF78DFF81864DFF8EE
:102090001074787E002805D0022861D003D303286D
:1020A00000F082809BE0B07A80B9307A31684118C4
:1020B00008780009062805D0306802F0E3FA00200D
:1020C00078768CE0084600F066F901E00128F3D14B
:1020D000307DFF2805D1306802F0D4FA0020B883A3
:1020E000EEE706F1240001F0DCF850B906F1240017
:1020F00001F00DF928B906F1240001F01CF90028BF
:10210000E9D0707A3168451806F212003863002071
:102110007883B07C112802D03A282BD0DBE7B07A44
:10212000E0B9A879E97901EB002085B2B5B100F0FA
:1021300058F8404512D02078032824BF284602F0E2
:10214000A9FE2078032803D300F04BF802F0A2FE8A
:10215000306802F097FA0020B883B1E70220787661
:10216000FFF731FD00283AD1FFF732FD00207876E5
:10217000B88334E0B07A38B9318A307A326880185E
:10218000FFF721FE4045E3D1287880281CD0812824
:102190001ED0852802D086280BD0D9E7386A40F0B7
:1021A000010038620320787697F82000C00716D423
:1021B00082E797F82000C006CAD501F0FDFB386A17
:1021C00040F008003862C3E7308A5028E6D3BFE702
:1021D00097F820004007BBD501F0EFFDB8E7BDE858
:1021E000F081318A307A32688018F0E5F8B5AD4C6C
:1021F00004F23805002858D1AB4E00F07CF892F874
:1022000063200A70401C1028F7DB002000F073F8F0
:1022100092F853200A70401C1028F7DB7069401EAA
:102220007061E97A00F06DF8A97A00F075F800F0B5
:1022300073F8090A00F065F8696800F067F8C1F3FF
:10224000072100F063F8C1F307416A7812010F32E9
:10225000114000F056F8697894F83820120102EB2A
:1022600011110170307E28303076A87A11280DD1F6
:10227000776929893846FFF7AAFD00F053F887F8F7
:102280002F007169001281F82E000EE03A280CD15F
:10229000776929893846FFF796FDC04380B287F8F1
:1022A0002B007169001281F82A007D48002181838A
:1022B0007F4E09203070E87A7073A87A307368789E
:1022C00030716868B06006F10E0004F1440110221C
:1022D00002F0F0FC06F11E0004F15401102202F09D
:1022E000E9FC0F2086F83000704801210170BDE83C
:1022F000F140FEF757BD7169491E716142421219E2
:10230000704701707069401E70617047017070699C
:10231000401E7061E16B704701707069401E706112
:1023200029897047C04380B208B94FF6FF707047E3
:102330005B48407E00B10120704730B5594C5E4D7E
:102340002868206028792071687A207228306072AD
:10235000A87CA072A889E086A87C012817D1E87C17
:10236000E0726869E060288B2082A87EA07404F186
:10237000140005F11C01102202F0A9FC04F1240054
:1023800005F12C01102202F0A2FC687A6072444828
:102390000121417630BD10B54249027843781B09CE
:1023A00043EA0212CA72401C10F8012B02F00F021D
:1023B0001204CA6010F8013B02EB0322CA6010F855
:1023C000013B9A18CA6010F8012B12020A820A8A8D
:1023D00010F8013B9A180A8210F8012B8A7410F841
:1023E000012BCA740022531810F8014B1C75521CA3
:1023F000102AF8DB0022531810F8014B83F8244010
:10240000521C102AF7DB10BD38B52C4C254D95F821
:102410005400FF2808BF4FF6FF703FD005F154006D
:1024200000F09BFF012838D105F25400C17AFF2942
:102430000CD1027BFE2A09D1027A02F0020252106C
:1024400002BF817BC07B40EA012027D095F85C2049
:10245000C2F34002012A20D14FF6FE722280027A96
:1024600082F002022272427A6272827AA272E1726F
:10247000017B2173417B6173817BA173C07BE0731E
:1024800004F1080060600B480078032807D304F1CA
:102490000800BDE8324002F0FFBC0020208031BDC2
:1024A000142C0020282B0020FC2C0020B52C002010
:1024B000E02B0020942D0020A42B00209C2C002039
:1024C00080B5DFF85006002101704FF4C06002F0C3
:1024D00079FB00F007F800F067F800F0F8FABDE8C3
:1024E00001401BE110B586B00121052002F0A5FADC
:1024F00001214FF4804002F0A0FA25208DF804005D
:1025000001208DF8050007208DF8060001208DF8C8
:10251000070001A802F05BFBDFF8FC050021017059
:1025200041704FF48060ADF8000004208DF8030086
:10253000DFF8E84500A9204602F0DCF84FF400700F
:10254000ADF8000003208DF8020018208DF803007C
:1025500000A9204602F0CEF84FF4E13002900020AE
:102560000390ADF81000ADF814000C20ADF8120087
:10257000DFF8AC4502A9204601F0F4FE012240F24A
:102580002551204601F043FF0121204601F036FF8E
:1025900006B010BD04E011F8013B00F8013B521EEB
:1025A000D2B2002AF7D1704710B588B04FF4A060BE
:1025B00002F000FA0121012002F048FA1C208DF8F7
:1025C000000000208DF801008DF8020001208DF838
:1025D000030000A802F0FBFADFF848050068C0001D
:1025E000DFF84415B0FBF1F0441EA4B24FF6FF70C3
:1025F000ADF8080000200190ADF80A0001A94FF0E5
:10260000804001F055FC012221464FF0804001F04E
:10261000F0FC0020ADF810000120ADF812004FF2E0
:102620002440ADF816000020ADF8180004A94FF0C2
:10263000804001F082FC00214FF0804001F0DCFC82
:10264000012203214FF0804001F0CBFCDFF8DC04D5
:102650000021017001214FF0804001F0B9FC08B069
:1026600010BD80B500F0ADF8DFF8C014097800EBBC
:10267000014002BD80B500F0A4F8C0B202BD10B5A3
:102680000C46022801D0012010BD042CFBD20323EC
:1026900000221F2103E0032300221F21022000F05B
:1026A00047FB012000F005FB00F00F000828F2D1E5
:1026B000600000F10B01C9B2132000F013FB0421EC
:1026C000142000F00FFB00F051FC002010BD01466B
:1026D0000220D4E700210170102141702021817077
:1026E0003021C170402101715021417179218171E6
:1026F0000121C17170470121017079214170502180
:1027000081704021C170302101712021417110215F
:1027100081710021C17170477047704780B500F02A
:1027200015FA00F034FA00F05AFA00F05BFBBDE84D
:10273000014000F085BA70B504460D46164600F01B
:1027400051FB29462046FFF79AFF38B900F00EFCEE
:10275000DFF8C003032101710660002070BDF8B5E9
:10276000002400251DE0E4B1204601267600401E2D
:10277000C0B20028FAD100F024F8711E0840C0B29F
:10278000002602E01436401EC0B20028FAD1FFF73E
:1027900068FF0746FFF765FFC01B0002000AB04252
:1027A000F8D300F01EFC002801D00120F2BD6D1C02
:1027B000EDB2641CE4B2062CA8BF0524052DD2DBC3
:1027C000F2BD4FF0804001F022BC38B504460D4602
:1027D000DFF860030078032824BF204602F059FB8D
:1027E0003E2C01D3042032BD00F0DFFB02E00923C0
:1027F00000F029F8012000F05CFA00F00F00092831
:10280000F5D1FFF7ACFFB0B100F0CFFB2946A01C1B
:10281000C0B200F0BDFA022300F015F8012000F06C
:1028200048FA00F00F000928F8D102F02EF9FDF760
:1028300065FE002400E00724002000F05BF900F0B2
:1028400095FB204632BD00221F21022000F070BA05
:102850002DE9FC41054600F08AFA0446802C69DA2D
:10286000A71CFF2D05D0C92D03D08F2D01D0192D08
:1028700008D10026FF2002F087FA701CC6B2BE42C3
:10288000F8DB57E0DFF8B0020188491C0180012025
:1028900000F030F9FDF75BFE00284BD1E01C80B260
:1028A00001F0B7FE050045D0A846A01C08F8010BB2
:1028B0000026FF2002F068FA08F8010B701CC6B26F
:1028C000BE42F6DB1021DFF8540201F07EFF6CB34C
:1028D00000A8052C13D18DF800400126715D3154FC
:1028E000761C06218E42F9DB417801F003010229B2
:1028F0001CD1611949780171FDF701FE16E0697874
:102900008DF80010A97841708909C1709DF80120E7
:10291000C2F38102827000D142B1FDF718FE02F0CD
:10292000B3F818F8011C2846FDF7E9FD01F05DFC3D
:1029300001F05CFCBDE8F38170B584B000208DF837
:10294000000001F05FFC3B2001F0A1FC04463B20AD
:1029500001F09DFC8442F9D1002C31D0012100A866
:1029600001F0BAFC9DF80000C01C844276D19DF8AD
:1029700000003E2872D2801C8DF8000001AC9DF84A
:10298000000005281DD18DF8040004210DF105007B
:1029900001F0A2FC01210DF1010001F09DFC9DF868
:1029A000010000065AD5607800F00300022855D1D6
:1029B000207900F077F82071217901A8FDF79FFDBB
:1029C0004CE0012101A801F087FC01210DF1050077
:1029D00001F082FC4F480078C0070AD46078800973
:1029E000E0709DF80510C1F38101A17001D10029AB
:1029F00034D0FDF7ACFD002830D19DF80000401C1C
:102A000080B201F006FE05462E0027D09DF800009A
:102A100006F8010B9DF8040000F030F8607800F033
:102A20002DF89DF80010304601F056FC9DF800008E
:102A3000861916F8010C00060DD516F8020C00F0E8
:102A400031F806F8020C02F01FF816F8021C2846AE
:102A5000FDF755FD02E0284601F014FE00F01FF8D6
:102A600000F01AF8F0210842FAD100F012F800F054
:102A70000DF801F0BAFB01F0B9FB7FBD06F8010BC0
:102A80009DF80000401E8DF800007047342001F0D2
:102A9000E5BB3A2001F0E2BB3D2001F0DFBB362070
:102AA00001F0DCBB802806D3A0F5807000B200EBFB
:102AB000D070401000E040084A386FF07F0100B24B
:102AC0008842B8BF084640B270470020704780B5C2
:102AD0000121102001F0B1FF3020ADF800001020DE
:102AE0008DF8030003208DF8020000A9104801F0C2
:102AF00001FE01BD1149002802D0012804D0704711
:102B0000086880F0100002E0086880F0200008608B
:102B100070470000702D0020902D0020000801401B
:102B2000003801402404002040420F00952D002071
:102B300000100140942D00208C2D00200C1001402D
:102B4000C0B200E0401E0128FCDA704780B500F0FA
:102B500042F84FF4807000F010F8DFF8FC0301F049
:102B6000C9FD0121082001F068FF012000F005F8EF
:102B7000DFF8E80301F0BEFD01BDADF80000032061
:102B80008DF8020010208DF8030000A9704710B5E1
:102B900082B000F020F800F04EF8E020ADF8000020
:102BA00018208DF8030003208DF80200DFF8A843F9
:102BB00000A9204601F09EFD0121DFF8A40302F0E8
:102BC00065F81020ADF800008DF8030000A920463C
:102BD00001F090FD13BD0121042001F02EBF10B5BE
:102BE00086B000F028F8DFF878430021204602F094
:102BF00040F80020ADF800004FF48270ADF80200FC
:102C000000200190ADF808004FF40070ADF80A0004
:102C10001820ADF80C000020ADF80E000720ADF82C
:102C2000100000A9204602F009F80121204602F018
:102C300020F806B010BD01214FF4805001F0FDBE18
:102C400000B585B0FFF7C7FF0120ADF804004820AC
:102C50008DF8070003208DF8060001A9DFF8F802BF
:102C600001F048FD0121012001F0E7FE00210846A6
:102C700001F0AFFD0120029000208DF80C0008202B
:102C80008DF80D0001208DF80E0002A801F052FF12
:102C900006208DF8000001208DF8010000208DF83D
:102CA000020001208DF8030000A801F090FF05B09C
:102CB00000BD38B50446DFF8A0521021284601F0C7
:102CC00086FD28694006FCD444F0800002F05CF8E0
:102CD000FF2002F059F804461021284601F075FD46
:102CE000E0B232BD70B500F06AF830694006FCD43D
:102CF00044F0C00002F048F8284602F045F81021E0
:102D00003046BDE8704001F060BDF8B500F062F8F3
:102D100038694006FCD444F08000FFF7CAFF04463F
:102D20001021384601F051FD05EA0400F040F2BDE3
:102D30002DE9F04104460D4617469846864E10216F
:102D4000304601F044FD30694006FCD42046FFF7D0
:102D5000B0FF08FA07F12940A84301432046FFF7D6
:102D6000C1FF10213046BDE8F04101F02EBD10B585
:102D7000794C1021204601F02AFD20694006FCD440
:102D8000202002F001F8FF2001F0FEFFC0B210BDCC
:102D9000F8B500F014F830694006FCD4602001F06A
:102DA000F3FF204601F0F0FF002703E0785D01F01B
:102DB000EBFF7F1CA742F9DB1021304606E00446FA
:102DC0000D46654E1021304601F001BDBDE8F440CE
:102DD00001F0FBBC04460D4616465F4F10213846F5
:102DE00001F0F5BC10B500F084F85B4C4FF4807135
:102DF000204601F0ECFC4FF48071204601F0DEFC2F
:102E00000028F3D10121554801F0E1FC022001F036
:102E1000D8FF00F069F8022001F0D3FF01E000F0D4
:102E200063F8E068C005FAD500F0D6F800F0B6F80F
:102E30000828FBD100F055F800F0B2F800231A463C
:102E4000012100F0B0F801230722802100F0ABF847
:102E500001230522202100F0A6F80123072280216A
:102E60000C20FFF765FF0D211320FFF73BFF042126
:102E70001420FFF737FFE7210520FFF733FF032179
:102E80001620FFF72FFF1620FFF713FF0328FAD1B4
:102E90007C210C20FFF726FF0C20FFF70AFF3149A9
:102EA00008700C20FFF705FF7C28FAD100230422CC
:102EB00030210320FFF73CFF0023002207210320DD
:102EC000FFF736FF0023032208211046FFF730FFEB
:102ED000092300F082F80F20FFF7EBFE0128FAD15A
:102EE00010BD0C210E20FDE64FF48071204601F04C
:102EF0006CBC012001F065BF10B5012001F04CFE53
:102F000048B3012001F056FE0F20FFF7D2FE044621
:102F1000C22C0BD0FF2C09D004F00F000F2805D0D5
:102F200004F0F000F02801D0C92C02D10E48012194
:102F30000170082C09D0C02C07D0282C05D08F2C6C
:102F400003D0192C01D00C2C05D10120FFF7F8FD7E
:102F50002046FFF77DFC10BD00080140000C014039
:102F600000300140932D0020922D002080B500F00C
:102F700033F800F013F8C007FBD4FFF7B2FF00F0FE
:102F80000FF800231A46012100F00DF8062300F087
:102F900024F800F003F8C007FBD401BD012088E647
:102FA0000123012202210420C2E610B501E000F055
:102FB00013F8FFF7F3FFC007F9D4092300F00DF869
:102FC00005E0092300F009F8FFF7E8FF044604F0E4
:102FD0000F000928F5D110BD032300221F21022074
:102FE000A6E680B505E0FFF7F7FFFFF7D7FF01F092
:102FF00050FFFFF7D3FFC007F5D40623FFF7EDFF1F
:10300000FFF7CCFF00F00F000628F9D101230722BB
:1030100080210820FFF78CFE072280210120FFF786
:1030200074FE0128F8D1FFF7B9FFC00702D5FFF7FA
:10303000D3FFF8E7062240210120FFF766FE0128B2
:1030400018BF002002BD000030B583B0DFF858542F
:103050004FF49E71284601F081FFDFF850446C2147
:1030600004F11C0001F07AFF7F20286040202871C5
:1030700047F23050E8604FF47A706861012028769A
:103080006876DFF82C047F21018000F03EF8019083
:103090000090002302464021204600F062F82046BE
:1030A00000F016FA03220021204600F0B0F840F2AA
:1030B000FF2500F00FF84FF48070E081204600F00B
:1030C00004F900F007F84FF40070E0812046BDE8F5
:1030D0003E40FAE02580002060806060A060A08112
:1030E000704710B5DFF8C44300F00FF8DFF8C403F1
:1030F0000288DFF8C403418A204600F0F4F9042274
:1031000000212046BDE8104081E048F2FE0020800A
:1031100000206080606070472DE9F04705468846D2
:1031200091469A46089C099E002030602F4601E097
:1031300037604F4409FB085087420BD2387800288B
:10314000F6D0E2085146B81C01F0ECFD0028F0D1A1
:10315000376004E03068002814BF01200220BDE879
:10316000F0872DE9FC4706460C46914698460A9F93
:10317000DDF82CA0DFF8345305F11800019000941D
:1031800033462422032105F11C00FFF7C5FF012867
:1031900026D1A86901210170A869801C314600F080
:1031A00051F9A8698474A86980F81390A86980F817
:1031B0002080A869C761A869C0F818A0DFF8FC6280
:1031C0003078032804D30021A869801C01F067FE31
:1031D0003078032824BF204601F05CFEA86900E097
:1031E0000020BDE8F6871CB5DFF8C04204F11802E4
:1031F0000192009103462422032104F11C00FFF7F1
:103200008BFF002801D1A06916BD002016BDF0B5C6
:1032100083B004460E461746A44D05F110000190F8
:1032200080200090234600F04CF801282AD128691C
:1032300001210170286900F003F92869C774286921
:1032400001218174701E8041C00F296908759B4E51
:103250003078032804D300212869801C01F01FFE68
:103260003078032803D32869C07C01F013FE00F0F6
:103270000BF8607B6873E089E881284600F025F848
:103280002869FEBD0020FEBDFF2028700221697064
:103290000021698069602981A9720121E97228737E
:1032A00070471CB5814C04F11001019180210091FF
:1032B000034600F006F8002801D1206916BD002061
:1032C00016BD1C2204217E4826E730B583B0054692
:1032D000764C04F114000190802000902B4600F001
:1032E00026F8616920B9887C401C887460693EBDFD
:1032F00001280AD108706069801C294600F0A2F8F4
:103300006069817C491C8174F0E700203EBD1CB5DA
:10331000664C04F11401019180210091034600F0F4
:1033200006F8002801D1606916BD002016BD1422E0
:1033300006216448F0E61CB5634C0194802100919D
:10334000034600F006F8002801D1206816BD0020D1
:1033500016BD122203215D48DEE638B50446534D02
:1033600005F21C0002E0A86900F22400A861A86927
:1033700005F1880188420CD201780029F3D0817CC4
:10338000CA082146801C01F0CDFC0028EBD10120A9
:1033900032BD002032BD2DE9F04704460D464FF006
:1033A0000008C2462878FE280BD1687880280FD103
:1033B000287AC0F3400001280EBF03210421012018
:1033C00027E0FF2804D1687800F00E000E28EFD126
:1033D000364EDFF8D49009F21C003061376909F1EC
:1033E0008C00874218D2387880B1B87C01280DD182
:1033F000B878FE2802D1F878802807D0B91C284672
:1034000000F083F84045A4BF8046BA4607F21C008E
:10341000E3E700F01AF88246BAF1000F09D1002064
:1034200020806080A080E08020816081A081E08198
:1034300004E020460AF1020100F004F8BDE8F0873C
:10344000801C2146102201F035BC30B500F027F871
:1034500001E002F21C0200F01CF818D21578002DD1
:10346000F7D04FF0FF35A84202D0957C8542F0D1CD
:103470004FF0FF35A94202D0D57C8D42E9D1957835
:10348000FE2DE6D1D578802DE3D1104630BD002049
:1034900030BD1A611A6904F18C05AA427047034BCA
:1034A000014C04F21C0270470C270020202A002047
:1034B000782D00203024002090290020942D002019
:1034C00028270020CE270020882D002098270020C4
:1034D00010B5044604F10800FFF7FCF8207A80F0EC
:1034E0000200207210BD0B0A03724172002181722A
:1034F000FF21C172FE21017300214173110A817302
:10350000C27303F0FD010172704730B50022002341
:1035100004E00832D2B25B1C102B10DA1C5C5D5C3C
:10352000AC42F6D02046294648400021030606D486
:10353000521CD2B24006000E491C0829F6DB104688
:1035400030BD00000020DFF8FC124FF6FF730A22A6
:1035500002FB00121380401C2928F8DB70471CB5C1
:10356000044600A8FFF7B6F8214600A800F024F8AA
:1035700013BDF0B50023B34C0A255D432E5B4FF617
:10358000FF77BE4213D08E4211D106462D19AD1CD5
:10359000002716F801CB15F801EBF44502D17F1C8A
:1035A000082FF6DB082F02D113700120F0BD5B1C41
:1035B000292BE1DB0020F0BDF8B506460F460A24B2
:1035C000A04D00AAFFF7D5FF002803D000F026F891
:1035D0000088F2BD8DF800004FF6FF709DF80010D6
:1035E00004FB01510988814208D09DF80010491C54
:1035F0008DF800109DF800102929EFD39DF80010D8
:1036000029290AD00822314600F008F8801CFEF76C
:10361000C1FF00F003F807800020F2BD9DF8000014
:1036200004FB005070470000401E092812D8DFE854
:1036300000F005080B0D0F111111111140F6495042
:10364000704740F249307047C920704729207047C1
:10365000012070470020704710B504460846FFF768
:10366000E3FF04EB8000243080B210BD30B500F0E1
:1036700012F80A250C79E40707D50C7805FB043409
:103680002488844201D1084630BD521C0831282AC2
:10369000F0DB002030BD6C4900226A4B704770B5EA
:1036A000FFF7F9FF0C79E40710D500240D780A26FE
:1036B00006FB05356519AD78265CB54202D1641C60
:1036C000082CF3DB082C01D1084670BD521C0831D0
:1036D000282AE7DB002070BD5B4828210022027108
:1036E0000830491EFBD12DE770B5584C04F288050F
:1036F0000020A88053480688607D401CC0B2FFF7B8
:1037000093FF06EB8000401CA4F88800701C6880C2
:1037100070BD2DE9F04180464B4D00222879C0074D
:1037200003D5521C0835282AF8DB4FF6FF70282AEB
:1037300043D000220A26434F06FB02731B888342B4
:1037400002D0521C292AF7DB292A36D02A70686851
:1037500020F0FE0040F00100686069702878704336
:103760003A4A02F2880489070DD56188C153507D19
:10377000401CC0B2FFF758FF618840186080607934
:10378000401C60710AE0B2F88810C153B2F888009A
:10379000401CA2F888002079401C2071287806FB84
:1037A0000070801C082118F8012B00F8012B491E1D
:1037B000F9D1287806FB00700088BDE8F0812DE97A
:1037C000F84380461F4D2F88B84502D14FF6FF7051
:1037D00035E01E4CB8F1000F01D1208A2FE0667D44
:1037E000711CC9B23846FFF737FF4745F5D240454F
:1037F000F3D3154F00244FF00A0906E0405B8045E3
:1038000019D0641C0837282CE0DA3879C007F8D5BD
:10381000387809FB00F079788907EFD5B11CC9B277
:10382000405BFFF719FF397809FB0151098888458A
:10383000E7D34045E5D3387809FB00500088BDE860
:10384000F283000030240020CC25002090290020A5
:103850008F48904901F27E024261002281F87E2069
:103860004169491E416101F80129416101F80129BD
:10387000416101F80129416101F80129416101F823
:103880000129416101F80129416185220A7008215D
:103890000176814A06211170002151705160082083
:1038A00010813A209072FF20D07240F2FF20908366
:1038B000D1831162516211854FF40070508502F17D
:1038C0001C0102F10C00FFF766BD70B57049734A28
:1038D0004A6100220A76724A134622E01C78F4B14B
:1038E000DC7CE4B100244D696D1E4D616642F61822
:1038F000767C2E70641C102CF5DB4C69641E4C61C8
:1039000093F8205000F04EF89D7C00F04BF8042511
:1039100000F048F8032525700C7E14340C7603F271
:10392000240302F16C04A342D8D35E4A13614A69AE
:10393000521E4A615C4B1B7900F039F8002300F0FD
:1039400036F800F034F800F032F8862313700A7E5F
:10395000521D0A76504C062222700022627062606C
:10396000097E21813A21A172FF21E17201280AD149
:1039700040F2FF20A083E2832262626222854FF43C
:103980008070608505E004F11C004849102201F0B8
:103990009EF948F2FE00A0810020E0812061606174
:1039A000A06170BD25704C69641E4C617047137036
:1039B0004A69521E4A6170472DE9F04F83B03C4C72
:1039C000607A216845180526DFF8E8B0DFF8D8806E
:1039D000DFF8D090DFF8E0A002E00020AAF80000B5
:1039E000208A864251DA751968788019C600F6B2C5
:1039F00028780328F1D12F1D3878FE2802D1787855
:103A00008028EDD0E878000614D5A9783846FFF76D
:103A1000EAFBC9F8100068B901900090C0230122A8
:103A2000A9783846FFF79DFBC9F81000A9783846F9
:103A300000F0CCFBE8784006D2D5A8784028CFD15A
:103A400048463946102201F035F998F81900012846
:103A500007D1BBF800201948418A4846FFF743FDCB
:103A600002E04846FFF734FD4846FFF71AFC0028FD
:103A7000B6D198F81900012805D104220021484642
:103A8000FFF7C5FBACE70322F8E7BDE8F78F0000BE
:103A9000FC2C0020A82A0020602B0020272B0020CF
:103AA0003C2A0020502D00200C2700203C2B002019
:103AB000282B002030240020302C002090290020CA
:103AC0007D4800210170818048F2FE01C180002103
:103AD0008160818100227949498A801DFFF703BDF9
:103AE000002070477FB50899099C0A98744D002200
:103AF0002A7000F0F1F87348427B8A70521C4273BE
:103B0000827BCA70511C8173E02028724FF2B0068C
:103B10002E8605F1100000A9102201F0D8F86E865B
:103B2000AC71286820F0010028607FBD7FB584B0AB
:103B3000FEF797FD0446FEF794FD001B0002000A05
:103B400040F61C418842F6D35F4C04F27005002019
:103B5000A8735A4EB07D687304F17500FEF7BAFD84
:103B6000308A2871000AE870707DA8705748008874
:103B70006870000A84F870000F20029040200190C5
:103B80006420009004A80FC8FFF7ACFF08B070BD18
:103B90003FB583B04E480021484C4A421219D27BAF
:103BA00000F8012D491C0829F7DB451E208A05F87D
:103BB0000109208A000A05F80109A07D05F8080915
:103BC0002846FEF787FD607D05F8010D3F48018816
:103BD00005F8011D0088000A05F8010C1620029066
:103BE000402001906520009003A80FC8FFF77AFFDE
:103BF00007B030BD3748C06D0078012818BF0020DD
:103C000070473448C06D0078012818BF0020704705
:103C10003048C06D0078012818BF0020704780B57B
:103C2000FEF753FF284901F278029071001250719B
:103C3000022010710020D070012090702020507060
:103C4000012081F87800072002BDF8B5214C94F8D6
:103C5000290006282FD1E06D407801282BD1FFF7ED
:103C6000DEFF40B3164D0021297094F8291000F0B2
:103C700033F804F22906F07888701248827BCA7003
:103C8000511C8173B07828724FF2B0072F8605F16E
:103C9000100004F10C01102201F019F86F860020C9
:103CA000A871707900F0030040F00400A871286842
:103CB00020F001002860F1BD382D0020902900205F
:103CC000AC280020DC2C0020A82A00203024002072
:103CD000272B00204828002085F8381005F23801ED
:103CE000087470477047704710B5664C0621217004
:103CF0000021617061606449097E21813A21A172CD
:103D000062490979E1721022014604F11C0000F0B9
:103D1000D1FF04F11C0104F10C00BDE81040FFF7D5
:103D20003ABB38B50446584D594868610020002117
:103D300006E01170FF29A8BF0021401C491CC9B230
:103D40006A69521EA0426A61F3DB00201070686944
:103D5000401E6861002101706869401E6861FEF7BD
:103D600089FC6969087069694A4811F801298280EB
:103D7000696166220A70818801F5CC418180696998
:103D8000491E6961002200F013F800F011F800F0FC
:103D90000FF880220A7004F1080129760021C18001
:103DA0003D49498A018104F130003C49088031BD18
:103DB0000A706969491E696170473948417A00682B
:103DC0000818001D10F8011B10F8012B12EB01213F
:103DD00089B2304A938899420CD1017810F8013F9A
:103DE00013EB0120D18880B2884203D1106840F0E3
:103DF000020010607047F0B52949487A0A688018B7
:103E0000021D1078537843EA002012F8023F5478DC
:103E100044EA0323941C098A083989B21A4A1C4DC2
:103E2000556100250C1905E06F42274417F8017C05
:103E300037706D1C5669761E8D425661F4DB337007
:103E40005469641E54611B12237053695B1E5361D5
:103E5000187053695B1E5361001218705069401E40
:103E60005061002300F01EF800F01CF800F01AF872
:103E70008123037001F10800107601F13000074939
:103E80000880F0BD602B0020FC2C00200C270020B7
:103E9000272B0020342C0020142C0020302C002054
:103EA000282B002003705069401E506170470000AD
:103EB00030B50488DFF89021DFF87431984210D0D3
:103EC00090420ED0B0F1804F0BD0DFF86851A8427D
:103ED00007D0DFF86451A84203D0DFF86051A84250
:103EE00004D14FF68F752C404D882C43DFF850518C
:103EF000A84208D0DFF84C51A84204D04FF6FF4545
:103F00002C40CD882C4304808C8884850C880485C3
:103F100098420DD090420BD0DFF83021904207D06C
:103F2000DFF82C21904203D0DFF82821904201D104
:103F3000097A01860121818230BD30B5028C22F0E0
:103F4000010200F041F8038B00F038F84FF6FD75E0
:103F50002C400D892C434D882C4300F02BF80ED0BB
:103F600000F024F80BD0DFF8E450A84207D0DFF8C7
:103F7000E050A84203D0DFF8DC50A84210D14FF641
:103F8000F7752C404D892C434FF6FB752C408D88DE
:103F90002C434FF6FF452A408D892A43CD892A4379
:103FA00082800383C9888186048430BDDFF89850FD
:103FB000A8427047DFF87850A84270474FF68C75DA
:103FC0002B400D882B4370470284048C82887047F5
:103FD0000029018814BF41F0010121F00101018095
:103FE0007047002A828914BF114322EA01018181AE
:103FF0007047018582827047028B4FF6F7731A4033
:1040000011430183704781867047808E7047808C92
:104010007047028A808908400A4202D010B101200C
:1040200000E00020C0B270470000C9430182704721
:10403000002C01400004004000080040000C00403B
:1040400000100040001400400034014000400140D6
:1040500000440140004801402DE9F843504C002045
:104060002060FEF72DFAFDF7B3FA00F01BFF4D4874
:104070000A210170DFF830814C4EDFF834914D4F4A
:104080004D4D01E0FDF7C4FA28780028FAD113203D
:1040900038700E2089F800000B2030704FF0FF3090
:1040A000706004203072002070721920B8750120F1
:1040B0002870FDF7ADFA28780028FAD1B87D80B9CC
:1040C0003E48008800F0E6FE00F0E2FE3C4E06F1BD
:1040D000080000F0E1FE308A00F0DCFE00F0D8FEBF
:1040E0000AE0FEF7BEFA2060FEF7BBFA00F040F8E7
:1040F000FAD3C9E7FDF78CFA28780028FAD1132003
:1041000038700F2089F800004FF47A70A9F8020087
:104110001920B87501202870FDF77AFA2878002850
:10412000FAD1B87DD8B9F075FEF79BFA6060254DDD
:10413000254EFDF76DFAFEF794FA6168401A000209
:10414000000A4FF231218842F3D3308808B90120A8
:10415000287000203080FEF784FA6060E9E7FEF7FF
:1041600080FA2060FEF77DFA00F002F8FAD3C3E788
:104170002168401A0002000A40457047002070473D
:104180000120704780B500F087FE00F081FE0548F1
:104190000078032828BF00F0ABFB012002BD00001F
:1041A000802D0020942D002060E40100E02B0020F1
:1041B000142C0020BC2C0020D42C00203024002003
:1041C00090290020922D00208C2D002010B50C4647
:1041D000012100F064FE00F05BFE204600F059FE75
:1041E00000F056FE012010BD7047704780B540209A
:1041F00000F0E0FC00F012F88DF8020001208DF8CC
:10420000030007E080B5402000F0D4FC00F006F881
:10421000ADF8020000A800F0DAFC01BD17208DF80F
:10422000000001208DF801000020704738B50446D9
:104230004B4D0221284600F032FD0028F9D02146DE
:10424000284600F01FFD0121284600F028FD002827
:10425000F9D0284600F018FDC0B232BD38B504468A
:104260003E4D0221284600F0B0FA0221284600F017
:10427000AEFA00F02DF80128FBD02046FFF7D6FF5C
:1042800004460221284600F0A0FA204632BDFF2154
:1042900040F0C000FFE770B504460D462F4E0221E6
:1042A000304600F092FA0221304600F090FA00F019
:1042B0000FF80128FBD02046FFF7B8FF2846FFF78C
:1042C000B5FF04460221304600F07FFA204670BD5B
:1042D0004021214800F06BBA0A460146FF202DE933
:1042E000F04104460D4616460027DFF87080022193
:1042F000404600F06AFA0221404600F068FA06E003
:104300000221404600F063FA0127F6B2DEB1FFF762
:10431000DFFF0128FBD02046FFF788FF200604D5E9
:10432000FF20FFF783FF287002E02878FFF77EFF69
:10433000761E6D1C0221404600F040FA0128DFD0B5
:10434000F6B2002EEAD10221404600F03EFA38468D
:10435000BDE8F0810000000000080140000C0140B1
:104360000030014030B585B004460D46208A4CF639
:10437000FF710840E98808432082A0894EF6F311B6
:104380000840A98808432989084369890843A0810E
:10439000A08A4FF6FF410840A9890843A08200A8DF
:1043A00000F00FFB144884420CBF03980298296860
:1043B00019225043A28912044CBF49008900B0FB66
:1043C000F1F16422B1FBF2F00001030902FB1311C9
:1043D000A3891B0406D5C9003231B1FBF2F101F00B
:1043E000070105E009013231B1FBF2F101F00F01E3
:1043F0000843208105B030BD003801400029818983
:1044000014BF41F4005121F400518181704710B56F
:104410000B065B0F012401F01F0104FA01F1012BCF
:1044200008BF0C3003D0022B0CBF10301430002A10
:10443000026814BF114322EA0101016010BD8088A7
:10444000C005C00D704700880140080018BF01205A
:10445000C0B2704721E010B50A06520F012301F0E7
:104460001F0403FA04F4012A08BF828903D0022A38
:104470000CBF028A828A2240090A03FA01F10088ED
:10448000084012B110B1012000E00020C0B210BD00
:104490000122090A02FA01F189B2C9430180704779
:1044A0007047FEE7FEE7FEE7FEE77047704770479C
:1044B000704780B5402000F06FFB20B1FEF73CFA5A
:1044C000402000F077FB01BD70B5394C00F037F8A3
:1044D00090B138480178491C0170C9B2962904BFCF
:1044E0000021017006782046FFF7A9FF3249705479
:1044F00029462046FFF7CCFF08212046FFF7A3FFFF
:10450000012806D108212046FFF7A4FF2046FFF727
:1045100096FF70BD38B5294C00F011F8012803D181
:1045200029462046FFF7B4FF08212046FFF78BFFFE
:10453000012803D108212046FFF78CFF31BD40F24E
:10454000255529462046FFF786BF80B501214FF04B
:104550008040FFF75EFD70B101214FF08040FFF712
:1045600064FD17480178491C0170C9B2FF291ED1AA
:104570000021017001BD02214FF08040FFF749FD8D
:10458000002814D002214FF08040FFF74EFD4FF07D
:104590008040FFF73AFD0B49088040F6DC31411AB4
:1045A00089B24FF08040FFF72EFDFFF71DFE01BDE1
:1045B00000380140902D0020F828002000440040E1
:1045C000952D00208E2D0020FEF796BCFEF794BCA2
:1045D0000178407801EB00204004400C704700F85F
:1045E000011B027802F0800212EB1121017070476A
:1045F00010B53E4C4FF40051204600F0AFFC6078FF
:1046000040F08000607041F6FE712046BDE8104029
:10461000E5E7F8B5050001D10020F2BD122D38BF45
:104620001225324E3446002709E02046FFF7D0FF1E
:104630003818871CBFB2B7F5005FEDDABC19607897
:104640000006F2D52046FFF7C3FFA842EDD320466F
:10465000FFF7BEFF461BB6B2122E0DD329462046E9
:10466000FFF7BDFF2819801C417841F0800141709F
:10467000B11E89B2FFF7B3FF607800F07F00607071
:10468000A01CF2BD2DE9F04168B3801E417841F0D5
:10469000800141700024154D2E460BE000F028F8F3
:1046A00080463846FFF794FF4044811C89B230466B
:1046B000FFF795FF707800060BD500F019F8201869
:1046C000801C80B2B0F5005F0DDA471978780006DB
:1046D000E4D400F00DF82018841CA4B2B4F5005FF7
:1046E000B8BF6619E6DBBDE8F081000030040020A9
:1046F00030466DE72DE9F041CB7803F00F02DB0681
:1047000044BF8B781A430B8801240F25DEB216B301
:10471000D0F800C0002604FA06F707EA0308B845F7
:1047200014D14FEA860E05FA0EF82CEA080C02FAAC
:104730000EFE4EEA0C0C91F803E0BEF1280F08BF04
:10474000476103D0BEF1480F08BF0761761C082EF1
:10475000E1D3C0F800C04FF48076B34225D3D0F83F
:1047600004C0002606F1080704FA07F707EA030861
:10477000B84515D14FEA860E05FA0EF82CEA080C5A
:1047800002FA0EFE4EEA0C0C91F803E0BEF1280F7F
:1047900008BF476191F803E0BEF1480F08BF076109
:1047A000761C082EDED3C0F804C0BDE8F081806816
:1047B0000140080018BF0120C0B27047C068014026
:1047C000080018BF0120C0B2704701617047416105
:1047D000704730B501F0030292008910074B53F87F
:1047E00021400F259540AC4343F8214053F8214028
:1047F0009040204343F8210030BD000008000140F4
:1048000082B03648016841F0010101604168344AD4
:10481000114041600168334A11400160016821F490
:1048200080210160416821F4FE0141604FF41F01C5
:104830008160002101910091016841F480310160A3
:10484000016801F4003100910199491C019100991E
:1048500019B90199B1F5A06FF2D1016811F40031D5
:1048600018BF0121C9B200910099012930D11E4918
:104870000A6842F010020A600A68920892000A6010
:104880000A6842F002020A60416841604168416082
:10489000416841F480614160416821F47C114160CC
:1048A000416841F4E8114160016841F080710160A4
:1048B00001688901FCD54168890889004160416827
:1048C00041F002014160416801F00C010829FAD170
:1048D00006484FF00061016002B0704700100240CE
:1048E0000000FFF8FFFFF6FE0020024008ED00E0A8
:1048F0002DE9F0412D4E3146002028220B79DB07AF
:1049000048BF401C0831521EF8D1C0B200F0C1FAB5
:1049100000F0BEFA012428274FF00A08244D307910
:10492000C00719D5E0B200F0B4FA641C307808FB77
:104930000050801C00F0AFFA307808FB005000886F
:1049400000F0A8FA707800F0A4FA7068C0F346008E
:1049500000F09FFA00F09CFA08367F1EDFD100209D
:1049600000214FF6FF7608FB01521288B24218BFB1
:10497000401C491C2929F6DBC0B200F08AFA00F07D
:1049800087FA002708FB07F4605BB04208D0601983
:10499000801C00F080FA605B00F07CFA00F078FA8E
:1049A0007F1C292FEEDBBDE8F0810000CC25002024
:1049B000302400202A490A6822F4E062104308608B
:1049C000704730B526490A68264B12F00C0203D016
:1049D000042A01D0082A20D003600B68224A046808
:1049E000C3F303139B5C24FA03F343600C68C4F322
:1049F0000224A45CE34083600B684468C3F3C223D1
:104A00009B5C24FA03F3C3600968C1F38131891800
:104A1000097CB3FBF1F1016130BD0A680C68C2F397
:104A20008342921C114D5543E40301D42B46D3E736
:104A30000C68A403FAD45343CEE70D4A0029116849
:104A400014BF084321EA000010607047094A00299A
:104A5000116814BF084321EA00001060704700008D
:104A60000410024000127A000004002000093D00FA
:104A7000181002401C10024080B5FFF7B9FD2A480B
:104A800000210177017301BD70472748C16841F0DB
:104A90000101C16070472DE9F041244C224D287F6F
:104AA00000283FD002282BD03CD22078012802D009
:104AB000022806D036E0626869782878FDF73BFE68
:104AC0002DE0E86820F00100E8606E690027DFF85B
:104AD000608009E098F80000032824BF307800F0D7
:104AE000D8F9761C7F1CBFB2287E8742F2DB696949
:104AF000FDF76BFE2072002814BF0020022010E09A
:104B0000287BC00748BF00200BD4FDF7AAFD296908
:104B1000401A0002000AB0F5967F03D906202072E1
:104B200000202877BDE8F081FC2C0020642D0020B7
:104B3000942D002030B50168CB43204982792AB3F7
:104B40000A4614682340136053680468A343536003
:104B50000379CC18236805682B43236093680468A5
:104B6000A3439360D3680468A343D3604379056883
:104B7000102B07D1916829439160D16800680843E0
:104B8000D06030BDCC182068284303E000790C18B1
:104B900020681840206030BD08490A680240496911
:104BA000014203D0100002D0012000E00020C0B27A
:104BB000704700000249086070470000000401408F
:104BC000140401401849084318490860704770B53B
:104BD00003781A460121C478ECB1144B1B6803F426
:104BE000E063C3F5E0631B0A4478C3F10405AC40FD
:104BF00085780F2626FA03F32B4023431B010C4C28
:104C00001355007842110B4B00F01F0001FA00F021
:104C100043F8220070BD5011074A03F01F0399406A
:104C200042F8201070BD00000000FA050CED00E015
:104C300000E400E000E100E080E100E0028802F42E
:104C400041520B881A434B881A438B881A43CB88EE
:104C50001A430B891A434B891A438B891A43CB8910
:104C60001A430280828B22F400628283098A0182C5
:104C700070470029018814BF41F0400121F0400134
:104C80000180704781817047808970470029818841
:104C900014BF41F0040121F00401818070470089B4
:104CA0000140080018BF0120C0B27047FFE7C943A8
:104CB000018170474AB38B0707D011F8013B00F818
:104CC000013B521E21D08B07F7D183071ED1103A2A
:104CD00007D330B4B1E83810103AA0E83810F9D250
:104CE00030BC530724BFB1E80810A0E8081044BF47
:104CF00051F8043B40F8043BD20724BF31F8022BA3
:104D000020F8022B44BF0B7803707047083A07D392
:104D1000B1E80810083A40F8043B40F804CBF7D259
:104D20005307E4E70300002013F0030F09D0521EDD
:104D300022BF13F8010B11F801CBB0EB0C00F3D03C
:104D40007047121F22BF53F8040B51F804CB604583
:104D5000F7D0121D0AD200BA9CFA8CFCB0EB0C0002
:104D600038BF6FF0000088BF01207047521E22BF7D
:104D700013F8010B11F801CBB0EB0C00F6D0521C6C
:104D800008BF10467047000038B50446DFF84050B1
:104D900002212846FFF783FF0028F9D02146284644
:104DA000FFF770FF02212846FFF780FF0121284608
:104DB000FFF775FF0028F9D02846BDE83240FFF71D
:104DC00063BF002100E0491C8142FCD37047000012
:104DD0000030014062F30F2262F31F4200B513005E
:104DE00096469446103928BFA0E80C50FAD85FEADE
:104DF000417C28BF0CC048BF40F8042BC90728BF1E
:104E000020F8022B48BF00F8012B00BD10B40FE0C2
:104E100001680918001D50F8042BD40744BFA9F1FC
:104E20000104A21851F8044B42F8044B1B1FF9D19E
:104E300050F8043B002BEBD110BC704710B508496B
:104E400079441C31074C7C441A34A14206D0081D19
:104E50000A68511888470146A142F8D110BD00BF29
:104E60007C0000009C00000038B500F073F80200E0
:104E7000022300240025ED431068A84203D011004E
:104E80000220ABBE1460121D5B1EF5D131BD0000C7
:104E90007047704770477047FDE77047704701B92A
:104EA000FBE7FBE700B583B000A8FDF713FC00A803
:104EB000FFF7F1FF07BD0BE050F8041BCB0744BF21
:104EC000A9F101035918002341F8043B121FFAD13C
:104ED00050F8042B002AEFD170470000DBFFFFFFE2
:104EE00068290000300400200000000021FFFFFFBF
:104EF0003000000048010000000400200000000015
:104F000000F09AF8002801D0FFF798FF0020FFF783
:104F1000A3F800F026F8000080B5FFF7A5FF024ACD
:104F200011001820ABBEFBE72600020001488047B5
:104F300001480047014800083D4F0008C046C046F0
:104F4000C046C046FFF7DCFF07463846FFF7E4FFE0
:104F5000FBE7000000487047280400200022FFF70C
:104F60003DBF80B5FFF7F0BFFFF79ABAFFF799BAD8
:104F7000FFF798BAFFF797BAFFF796BAFFF795BA17
:104F8000FFF794BAFFF793BAFFF792BAFFF7FEBFA5
:104F9000FFF7FEBFFFF7FEBFFFF7FEBFFFF7FEBF45
:104FA000FFF7FEBFFFF710BBFFF7FEBFFFF7FEBF27
:104FB000FFF7FEBFFFF7FEBFFFF7FEBFFFF7FEBF25
:104FC000FFF7FEBFFFF7FEBFFFF7FEBFFFF7FEBF15
:104FD000FFF7FEBFFFF7FEBFFFF7FEBFFFF7FEBF05
:104FE000FFF7FEBFFFF7FEBFFFF763BAFFF7FEBF95
:104FF000FFF7FEBFFFF7FEBFFFF7E8BAFFF7A5BA5E
:10500000FFF7FEBFFFF7FEBFFFF7FEBFFFF7FEBFD4
:10501000FFF7FEBFFFF7FEBFFFF7FEBFFFF7FEBFC4
:10502000FFF752BAFFF776BAFFF7FEBFFFF7FEBFF2
:10503000FFF7FEBFFFF7FEBF012070470000000032
:10504000010203040102030406070809020406081A
:105050000000000000000000010203040607080928
:0C50600000A24A04FFFFFFFFFFFFFFFF5C
:0400000508004F3D63
:00000001FF
