:020000040800F2
:10000000A02A002059650008956200089762000840
:10001000996200089B6200089D62000800000000D1
:100020000000000000000000000000009F620008C7
:10003000A162000800000000A3620008A562000899
:10004000996500089D650008A1650008A565000880
:10005000A9650008AD650008BD630008B565000826
:10006000B9650008BD650008C1650008C5650008E0
:10007000C9650008CD650008D1650008D565000890
:10008000D9650008DD650008E1650008E565000840
:10009000E9650008ED650008F1650008A762000841
:1000A000F9650008FD65000801660008C1630008E5
:1000B0003F6300080D660008116600081566000819
:1000C000196600081D6600082166000825660008FC
:1000D00029660008BD62000809630008356600084B
:1000E000396600083D6600084166000838B5DFF84B
:1000F000900B00218183DFF88C4B251DA981616065
:1001000004F22400018141F24730E8810320E874C1
:1001100000F0FAFF01206874FF2084F824008C208E
:10012000A87431BD10B5DFF8600B02210170012108
:100130004170DFF8500B4FF41671016000F00AF8BF
:1001400041F2473000F016F84FF6FF7001F06AF9FF
:10015000207A10BDDFF8384B0120207060688008DD
:100160008000606002202072DFF8280B01210170FE
:1001700001F0E5BBDFF80C1B488201F052B9DFF853
:10018000081B487001F028B910B5044600F0BCFF08
:10019000204600F0BEFF2046BDE8104001F042B905
:1001A000000000002DE9F041DFF8D84A4FF4167046
:1001B000206001F0C4FB2079000648BF00F0C4F9BC
:1001C00000F0CBFADFF8D05A287818B1FFF7AAFF71
:1001D00000202870DFF8A85AA97FDFF8AC6AF06821
:1001E00020F00202DFF8B47A387843F271086B7FAE
:1001F000082B1DD8DFE813F009002900240129018C
:100200003301ED000401BD00CD00616849050FD543
:10021000DFF88C1A8A7E09680968515C012903D0CD
:10022000062906D0072909D1606820F48060606043
:1002300015E1606820F480606060F5E70028F3D085
:100240000FF6742001F026FCEEE74FF6FF77DFF89B
:10025000548A287DC01E05280BD8DFE810F00B005B
:100260000F0060003A001B000600A87D28760020E1
:100270006877F4E000F0C5F90220F9E7606840F023
:10028000800060600A20A87700F057FA01F057FB61
:100290000220EDE7F0688107EBD440F00200F06047
:1002A0000320A873C820E8736F802F806F8108F245
:1002B0007E007061062088F87E000120307660683C
:1002C00020F4005040F48040606000F09AF905206E
:1002D000CEE7606820F480706060F0688107C8D461
:1002E00040F00200F06060684FF400710843606005
:1002F000A87D01F071F808F27E007061072088F88F
:100300007E00012030764320A8730820E8736F80B8
:1003100041F24730288000F074F90320A8E7F06824
:10032000810728D440F00200F060A87D01F054F865
:10033000606820F40060606008F27E007061A07D5B
:1003400088F87E0000F0F0F901210170022030767B
:100350002320A873C820E873E08C6880208D288053
:10036000606840F4805060606F8100F04AF90720B7
:100370007EE72079000672D4F26029B129766068A0
:1003800020F48050606072E700F0F0FF28620820DF
:100390006EE76068000506D500202876606820F4C6
:1003A0008050606063E700F0E1FF296A401A0002B4
:1003B000000A404553D30D2028763878032824BFFF
:1003C0000FF63C1001F066FB606820F4805060601E
:1003D0004DE723791B0642D4F26061B1032824BFA4
:1003E0000FF6381001F056FB606820F48040606022
:1003F000A87F28763BE700F0B9FF2862062037E7A0
:100400006068800406D500202876606820F4C0402B
:1004100060602CE700F0AAFF296A401A0002000A77
:1004200040451CD30E2028763878032824BF0FF6C9
:10043000081001F02FFB606820F48040606016E730
:10044000207900060BD4297611E72079000606D41E
:10045000297600206877F06820F00200F060BDE89F
:10046000F0817047DFF81C280378052B0DD1437805
:1004700003F00303022B08D1C078117D88421AD102
:10048000506820F040005060704792F82D305B1C9F
:1004900082F82D30DBB20B2B02D1002382F82D30F5
:1004A00092F82D3002EBC303186392F82D0002EB93
:1004B000C00080F834107047DFF8C80790F82D109E
:1004C000491CC9B20B2908BF002190F82C008142B9
:1004D00001D10120704700207047DFF8A80790F88D
:1004E0002C1090F82D00814201D10120704700208E
:1004F0007047DFF8900790F82C1090F82D2091426B
:1005000001D100207047491CC9B20B2908BF002146
:1005100000EBC10030307047DFF8681791F82C20ED
:10052000521C81F82C20D2B20B2A04BF002281F881
:100530002C2000B9704780B591F82C0001EBC00069
:10054000006B01F036FC01BD38B5DFF83847606854
:10055000010655D5DFF83C170978002950D1DFF89E
:100560002057DFF82C170A7A002A14D094F82B00B1
:1005700000280AD0401E84F82B00C0B200281EBFFD
:10058000606820F04000606038D1606820F0C000F2
:100590006060AA7731BD400606D4606820F0800014
:1005A00060600020A87731BD00F0E0FE2168E269BC
:1005B000801A0002B1EB102F22D20FF2947001F0DA
:1005C00069FA94F82B0020B1401E84F82B00C0B2C9
:1005D00080B90B20A877606820F080006060DFF8A9
:1005E000BC06007800280BD00FF27470BDE83240D2
:1005F00001F050BA0FF2807001F04CFA00F001F8EF
:1006000031BD2DE9F843DFF87C462079000600F182
:100610008580DFF86C56E87BC0F381084FEA9019BB
:10062000271DDFF86466F9894FF6FE72914231D1D9
:10063000B9F1020F2ED14FF0030940F0C000E8736A
:100640007069083800F0DCFE307E08303076706962
:1006500008387061A87B40060AD4B9F1000F07D0B2
:1006600000F062F8698900F072F8698900F060F8BA
:10067000B8F1020F03D0B8F1030F1AD027E000F051
:1006800053F8698800F063F869880170307E801C37
:1006900030761FE04846022802D00328D0D0D9E7A0
:1006A00000F042F8A98900F052F8A98900F040F85A
:1006B000D0E700207169491E716142425219527A95
:1006C0000A70401C0828F5D3307E0830E0E7B8F106
:1006D000000F07D000F028F8298800F038F82988A2
:1006E00000F026F800F04BFE38747169491E716104
:1006F000087000F019F8E97B00F02AF8A97B017076
:10070000307EC01C3076606820F0400040F08000F1
:100710006060F87C84F82B000A20A87700F00DF8C0
:10072000BDE8F14301F00BB97069401E706170477C
:100730000170307E801C30767047DFF8540502214E
:1007400001700172DFF84C05012101707047090A40
:1007500001707069401E706170472DE9F047DFF845
:100760003C45DFF83C55DFF81C65D6F804A0DFF8FF
:10077000108598F81C0028B1022800F00E81C0F006
:10078000D08013E1FFF7A9FE0028FAD1FFF7B1FEF0
:100790008146D9F8001027784878032210420CD1FE
:1007A0005FEA8A5009D4032F03D30FF2DC5001F023
:1007B00071F90120FFF7B0FEF8E0487800F003007F
:1007C000022804D1032FF4D30FF2E050EFE7C5F86D
:1007D000009000F0EDF8D9F800104878032210429C
:1007E00008D1032F24BF0FF2186001F053F900F075
:1007F00038F9DEE76879C0F38102032A11D0022AB2
:100800002BD12B89DFF884C4BCF800C0634528D005
:100810004FF6FF7C634524D0032FCAD30FF6B800F0
:10082000C5E72B7A762B13D16B7A782B10D1AB7A64
:10083000502B0DD1EB7A402B0AD12B7B302B07D1DB
:100840006B7B202B04D1AB7B102B01D1EB7B43B115
:10085000032FAED30FF65000A9E75FFA8BF3002BFE
:10086000A7D0497801F00301012962D15FEA0A515A
:100870002AD5032A10D0800902281CD003281ED1B3
:1008800000204119897C8219127A914202D1401CC0
:100890000828F6DB082812D100F068FD30622078C5
:1008A000032824BF0FF2B05001F0F4F8286806685E
:1008B0004FF0000A23E0688A318A8842ECD0032F87
:1008C00008D30FF2B47003E0032F03D30FF2747058
:1008D00001F0E0F820780328BBD30FF23C5066E724
:1008E000032824BF307801F0FCF82078032824BFC7
:1008F0000FF2805001F0CEF8761C07F1010A207843
:100900001FFA8AF7296809680978491E8F42E7DBD0
:10091000032824BF0FF2605001F0BCF8012088F8D2
:100920001C0001F04AFC002840D101F04CFC0020E2
:1009300037E0032F24BF0FF25C5001F0ABF8A87E24
:1009400029680968455C7068022D02D0082D05D021
:1009500009E0C00401D500F0FBF82AE74004FCD50B
:1009600000F045F925E72078032824BF0FF2505006
:1009700001F090F82078032824BF0FF29C5001F07A
:1009800089F82078032824BF284601F0AAF82078A7
:100990000328E7D30FF28C5009E75FEA4A5005D4E9
:1009A0000120FFF7B9FD002088F81C00BDE8F087A2
:1009B00070B5BB48016809684A1C12F8011B017137
:1009C00012F8011B4171C1F381048909521C0423EF
:1009D00044B112F8013BC38012F8015B03EB05231D
:1009E000C3800623022C09D112F8014B048112F8AE
:1009F000015B04EB052404819B1C0AE0032C09D154
:100A00000024251812F8016B2E72641C082CF8D3F0
:100A10000833DBB2047964060AD449B112F8014BF9
:100A2000048212F8015B04EB052404829B1CDBB2F8
:100A3000022908D11178418212F8014F01EB0421FB
:100A400041829B1C0AE0032909D10024211812F8D5
:100A5000015B8D74641C082CF8D30833DBB28376F9
:100A600070BD70B58E48827E01680B681C78A41A30
:100A7000641E0D2C6BD1D21853781B0667D512F863
:100A8000043F002B63D112F8013F002B5FD112F815
:100A9000013F002B5BD112F8023F12F8014F002CEE
:100AA00055D0784C04F2240594F82420FF2A03D072
:100AB000AA7909798A4245D284F8243001680979F3
:100AC000A971418A6980008AA880744E3078032811
:100AD00024BF0FF2544000F0DDFF3078032824BF1C
:100AE000A88801F006F83078032824BF0FF25040A0
:100AF00000F0D0FF3078032824BF688800F0F9FFA9
:100B00003078032824BF0FF2444000F0C3FF307850
:100B1000032824BFA87900F0E4FF3078032824BF1D
:100B20000FF2304000F0B6FF3078032824BF94F86D
:100B3000240000F0D6FF3078032824BF0FF22040B5
:100B400000F0A8FF60684FF480710843606070BDDA
:100B5000F8B5534CA07E21680968504D2A780B786F
:100B60001B1A5B1E042B04D0032A3FD30FF2F43070
:100B70003AE04018C1780323194204D0032A35D340
:100B80000FF2104030E010F8011F10F8012F01EBB8
:100B9000022080B2FFF7F8FA3A4E371D208AF8811A
:100BA00000F03FFCF08CB88196F82400401C78746B
:100BB000A07C3871E07C7871207DB871607DF8711F
:100BC000A07D3872E07D7872207EB872607EF87207
:100BD000706820F04000706040F400607060287819
:100BE000032803D30FF2DC3000F054FFF1BD70B5E1
:100BF0002B4CA07E21680968284A12780B781B1AB2
:100C00005B1E082B07D0032A38D30FF2E430BDE86F
:100C1000704000F03FBF4518032A24BF0FF2F830A0
:100C200000F038FF174E706820F04000706040F40C
:100C30002050706000F038F8FFF79CFA15F8010FAB
:100C4000308215F8011F00EB0120308215F8010FEA
:100C5000FFF795FAA07C3072E07C7072207DB07254
:100C6000607DF072A07D3073E07D7073207EB07384
:100C7000607EF07300F018F8FFF786FA70BD000090
:100C800054250020BC220020DC2500206C260020FA
:100C900078260020F8250020FB2500209B26002038
:100CA000FC2500204423002015F8010F15F8011F32
:100CB00000EB012080B270474D41433A20526563FA
:100CC0006569766564204D414320434D4420746836
:100CD0006174206973206E6F742063757272656E23
:100CE000746C7920696D706C656D656E7465642CCB
:100CF0002064697363617264696E672E0A00000084
:100D00004D41433A204173736F63696174696F6E3B
:100D10002074696D656F75740A0000004F72706809
:100D2000616E204E6F74696679205458206661693F
:100D30006C65640A000000004D41433A204F727018
:100D400068616E2074696D656F75740A000000003B
:100D500041434B2054696D656F757421200A000072
:100D60004D41432054582052657472792065786350
:100D700065656465640A00004D41432052657472E4
:100D8000792121200A0000004D41433A2052656339
:100D900065697665642042434E20706B742C206434
:100DA000697363617264696E672E0A004D41433A4C
:100DB0002052656365697665642041434B20706B02
:100DC0007420696E206D616353746172745278444B
:100DD00065636F64652C2064697363617264696E16
:100DE000672C20636865636B2061636B20706163AF
:100DF0006B65742070617273696E672E2E0A000035
:100E00004D41433A2050617273696E672042434EF0
:100E100020706B742E0A00004D41433A2052656ADF
:100E2000656374696E672044617461207061636BEF
:100E300065742066726F6D20756E6173736F636980
:100E400061746564206E6F64652C2072656A6563E9
:100E500074696E672E0A0000200A2A2A2A2A2A208C
:100E6000525820425546202A2A2A2A2A2A2A2A2A41
:100E70000A00000020202000200A2A2A2A2A2A20EC
:100E8000525820425546202A2A2A2A2A2A2A2A2A21
:100E90000A0000004D41433A20526563656976655A
:100EA00064204D414320636D64207061636B657401
:100EB0002C2070726F63656564696E672E0A00008E
:100EC0004D41433A205265636569766564204D4122
:100ED0004320434D442074686174206973206E6F11
:100EE0007420696D706C656D656E746564206F72D9
:100EF000206E6F742068616E646C65642062792076
:100F000074686973206E6F64652C20646973636113
:100F10007264696E672E0A00436D642069733A201B
:100F2000000000000A0000004D41433A2042636E79
:100F3000207273702069732050616E69643A2000DA
:100F40002C2053616464723A200000002C204C5124
:100F5000493A20002C20447074683A2000000000B8
:100F60000A0000004D41433A204661696C656420E7
:100F7000746F206A6F696E2C20696C6C6567616C98
:100F8000206173736F6320726573706F6E73650A8F
:100F9000000000004D41433A204661696C656420C1
:100FA000746F206A6F696E2C2072656D6F74652096
:100FB0006E6F64652072656A65637465642075731D
:100FC0002E0A00004D41433A5265636569766564B7
:100FD00020676F6F64206173736F63696174696FF9
:100FE0006E20726573706F6E7365210A00000000D9
:100FF0004D41433A20696C6C6567616C20436F6FAB
:10100000726420416C69676E6D656E7420706163F7
:101010006B65740A0000000052656365697665645B
:1010200020436F6F7264205265616C69676E20287F
:101030004F727068616E20726573706F6E73652990
:101040000A0000004D41433A2052656A65637469A5
:101050006E67206461746120706B74206173207707
:101060006520617265206E6F74206173736F6369B0
:10107000617465640A0000004D41433A2052656A7C
:10108000656374696E67206461746120706B74209D
:1010900066726F6D20756E6173736F6369617465DD
:1010A00064206E6F64650A004D41433A2052656AC0
:1010B000656374696E6720646174612E2044657392
:1010C00074206C6F6E672061646472206973206E97
:1010D0006F74206D650A00004D41433A2052656AE5
:1010E000656374696E6720646174612E2044657362
:1010F000742073686F727420616464722069732055
:101100006E6F74206D650A0027484FF6FF710180ED
:1011100070471CB5044600A800F061F9214600A8FC
:1011200000F01EF813BD30B51F4B1C884FF6FF753D
:10113000AC4213D08C4211D1991C002310F8014B02
:1011400011F8015BAC4203D15B1CDBB2082BF5D379
:10115000082B03D100201070012030BD002030BDCD
:10116000F8B507460E460A240F4D00AAFFF7DBFF2D
:10117000002805D09DF8000004FB00500088F2BD57
:101180008DF800004FF6FF70298881420AD10822AD
:101190003946A81C00F084F89DF8000004FB0050BC
:1011A00006800020F2BD00006C26002080B5DFF82C
:1011B000A406002101704FF4C06001F0B9FA00F0FC
:1011C00007F800F077F800F022FBBDE801402AE1C3
:1011D00010B586B00121052001F028FB01214FF454
:1011E000804001F023FB25208DF8040001208DF8BC
:1011F000050007208DF8060001208DF8070001A8E2
:1012000001F09BFADFF850060021017041704FF4A5
:101210008060ADF8000004208DF80300DFF83C4644
:1012200000A9204601F020FB4FF40070ADF800004B
:1012300003208DF8020018208DF8030000A9204635
:1012400001F012FB4FF4E130029000200390ADF862
:101250001000ADF814000C20ADF81200DFF80046C5
:1012600002A9204601F088FB012240F225512046C8
:1012700001F0D8FB0121204601F0CAFB06B010BDE9
:1012800010B5FFE7DFF8D84540B281B2204601F043
:10129000E1FB4021204601F0E5FB0028F9D010BD1C
:1012A00004E011F8013B00F8013B521ED2B2002AC3
:1012B000F7D1704710B588B04FF4A06001F074FA10
:1012C0000121012001F0BBFA1C208DF80000002054
:1012D0008DF801008DF8020001208DF8030000A8B0
:1012E00001F02BFADFF87C050068C000DFF8781504
:1012F000B0FBF1F0441E4FF6FF70ADF8080000207F
:101300000190ADF80A0001A94FF0804001F0E8FB20
:101310000122A1B24FF0804001F079FC0020ADF82D
:1013200010000120ADF812004FF22440ADF8160075
:101330000020ADF8180004A94FF0804001F015FC22
:1013400000214FF0804001F065FC012203214FF0A5
:10135000804001F054FCDFF81405002101700121E8
:101360004FF0804001F041FC08B010BD80B500F0A6
:10137000BFF8DFF8F814097800EB014002BD80B532
:1013800000F0B6F8C0B202BD10B50C46022801D07C
:10139000012010BD042CFBD2032300221F2103E0F7
:1013A000032300221F21022001F05CFD012001F037
:1013B0001AFD00F00F000828F2D1600000F10B01C7
:1013C000C9B2132001F028FD0421142001F024FDEE
:1013D00001F068FE002010BD01460220D4E7002184
:1013E000017010214170202181703021C170402195
:1013F000017150214171782181717621C17170474D
:101400007621017078214170502181704021C17096
:101410003021017120214171102181710021C171A0
:1014200070477047704780B501F02AFC01F049FC15
:1014300001F06FFC01F070FDBDE8014001F09ABCC5
:1014400070B504460D46164601F066FD2946204655
:10145000FFF79AFF0400DFF8185408D02878032813
:1014600024BF0FF21C4000F015FB204670BD01F0B8
:1014700019FEDFF8E00303210171066028780328D4
:1014800024BF0FF2244000F005FB002070BDF8B52A
:10149000002400251CE0DCB1204601267600401E19
:1014A000C0B20028FAD100F023F8711E08400026CF
:1014B00001E01436401EC0B20028FAD1FFF756FFF3
:1014C0000746FFF753FFC01B0002000AB042F8D3E3
:1014D00001F024FE002801D00120F2BD6D1C641C27
:1014E000E4B2062C28BF0524EDB2052DD3D3F2BDFE
:1014F0004FF0804001F099BB70B504460D46DFF80F
:1015000070633078032824BF0FF2C83000F0C2FAAD
:101510003078032824BF204600F0E3FA307803280F
:1015200024BF0FF2CC3000F0B5FA802C01D3042098
:1015300070BD01F0D6FD02E0092300F02FF8012074
:1015400001F051FC00F00F000928F5D1FFF79FFFD3
:10155000E0B101F0C6FD2946A01CC0B201F0B2FC0A
:10156000022300F01BF8012001F03DFC00F00F0009
:101570000928F8D13078042824BF2620FFF780FE00
:1015800000F0D7F9FEF76DFF002400E007240020EB
:1015900000F050F901F086FD204670BD00221F21A9
:1015A000022001F05FBCF0B583B0054601F079FC84
:1015B0000446802C61DAA71CFF2D05D0C92D03D06D
:1015C0008F2D01D0192D05D1FF2001F003FE7F1EC4
:1015D000FAD1F7BDDFF8A0020188491C0180012083
:1015E00000F028F9FEF768FF002846D1E01C80B221
:1015F00000F09DFB050040D02E4606F8014BFF2071
:1016000001F0E8FD06F8010B7F1EF8D11021DFF88C
:101610004C0201F096F964B300A8052C14D18DF8A2
:1016200000400122535D1354521CD2B206239A4249
:10163000F8DB417801F0030102291AD161194978D8
:101640000171FEF70FFF14E069788DF80010A9789A
:1016500041708A09C270C1F38101817000D141B12A
:10166000FEF72AFF00F064F916F8011C2846FEF781
:10167000F9FE01F0C0FF02F0CFF8F7BD70B584B0FD
:1016800000208DF8000002F0D3F83B2002F015F99D
:1016900004463B2002F011F98442F9D1002C7DD0A0
:1016A000012100A802F02EF99DF80000C01C844220
:1016B00074D19DF80000802870D2801C8DF8000045
:1016C00001AC9DF8000005281DD18DF8040004210F
:1016D0000DF1050002F016F901210DF1010002F0F3
:1016E00011F99DF80100000658D5607800F003005C
:1016F000022853D1207900F075F82071217901A8D2
:10170000FEF7B0FE4AE0012101A802F0FBF801213A
:101710000DF1050002F0F6F84E480078C00708D435
:1017200060788109E170C0F38100A07001D10028C8
:1017300034D0FEF7C1FE002830D19DF80000401CD7
:1017400080B200F0F4FA05462E0027D09DF8000084
:1017500006F8010B9DF8040000F030F8607800F006
:101760002DF89DF80010304602F0CCF89DF80000EE
:10177000861916F8010C00060DD516F8020C00F0BB
:1017800031F806F8020C00F0D3F816F8021C2846CF
:10179000FEF768FE02E0284600F00BFB00F01FF8A1
:1017A00000F01AF8F0210842FAD100F012F800F027
:1017B0000DF801F020FF02F02FF87FBD06F8010BB5
:1017C0009DF80000401E8DF800007047342002F0A4
:1017D0005BB83A2002F058B83D2002F055B83620E8
:1017E00002F052B8802806D3A0F5807000B200EB5A
:1017F000D070401000E040084A386FF07F0201B21C
:101800009142B8BF104640B270470020704780B583
:101810000121102001F00AF83020ADF8000010205E
:101820008DF8030003208DF8020000A9114801F093
:101830001BF801BD1149002802D0012804D07047CF
:10184000086880F0100002E0086880F0200008605E
:101850007047000084260020F92500200008014080
:10186000003801406C00002040420F009C26002000
:101870009B26002000100140DA2500200C100140BA
:101880004154383652463231323A205365747469C5
:101890006E67206368616E6E656C206661696C6559
:1018A000642E200A0000000041543836524632317E
:1018B000323A20526164696F20696E697469616CA3
:1018C000697A6174696F6E20697320646F6E652E2A
:1018D000200A00004154383652463231323A205400
:1018E0005820706B742053697A653A20000000001C
:1018F0000A0010B450F8041B81B102681218001DD0
:1019000050F8043BDC0744BFA9F10104E31852F886
:10191000044B43F8044B091FF9D1EBE710BC7047A7
:1019200080B500F0F3F93A4800210177017301BD59
:1019300070473748C16841F00101C16070472DE927
:10194000F843344C344D324E307F012802D0022807
:101950004AD03FE02078012802D0022807D039E0A1
:10196000626871783078FFF76BFD20723AE0F068BA
:1019700040084000F0602878032824BF0FF29C0044
:1019800000F088F877694FF000090FF2AC080DE01D
:10199000032824BF387800F0A4F82878032824BF4F
:1019A000404600F077F87F1C09F101092878317E64
:1019B0001FFA89F98945EBD3032824BF0FF27C0075
:1019C00000F068F87169307EFFF796FD207218B953
:1019D00002203077BDE8F183287818B10FF2780043
:1019E00000F058F80020F4E7307BC007FAD4FFF786
:1019F000BDFC3169401A0002000AB0F5967FE9D9B2
:101A0000287818B10FF2680000F044F80620ACE71F
:101A1000DC250020782600209B260020200A2A2A88
:101A20002A2A2A20545820425546202A2A2A2A2A7D
:101A30002A2A2A2A0A00000020200000200A2A2A36
:101A40002A2A2A20545820425546202A2A2A2A2A5D
:101A50002A2A2A2A0A0000005048593A20545820BD
:101A6000646964206E6F742073746172740A00007C
:101A70005048593A204D41585F54585F5452414E96
:101A8000534D49545F54494D452074696D656F75D8
:101A9000740A000010B5044608E00A2804BF0D20AF
:101AA000FFF7EEFB14F8010BFFF7EAFB20780028A4
:101AB000F3D110BD10B5044620090A282CBF3730D9
:101AC0003030C0B2FFF7DCFB04F00F000A282CBF57
:101AD00037303030C0B2FFF7D3FB10BD0FF23C10EF
:101AE000D8E710B504460FF23810FFF7D3FF2046B1
:101AF00019E010B504460FF22C10FFF7CBFF200AB7
:101B00000EE010B504460FF22010FFF7C3FF200EC1
:101B1000FFF7D0FF200CC0B2FFF7CCFF200AC0B205
:101B2000FFF7C8FFE0B2BDE81040C3E770B5044658
:101B300000250FF2F806285DFFF7BCFF3046FFF7DF
:101B4000A9FF6D1C082DF6D370BDEFE770B50446F4
:101B500000250FF2DC06285DFFF7ACFF3046FFF7EB
:101B600099FF6D1C102DF6D370BD70B5044600258D
:101B70000FF2C006285DFFF79DFF28194078FFF798
:101B800099FF3046FFF786FFAD1C102DF2DB70BDCC
:101B900001B9DBE7E9E71CB50FF29C00FFF77AFF1C
:101BA0000FF2B000FFF776FF0FF2BC00FFF772FFF5
:101BB0000FF2CC00FFF76EFF0FF2D400FFF76AFFC1
:101BC0000FF2580400F028F80FF2CC00FFF762FF84
:101BD0000FF2E000FFF75EFF0FF2E000FFF75AFFA1
:101BE00000A8FFF7FCFB00A8FFF7A0FF00F014F827
:101BF0000FF2D400FFF74EFF41F24730FFF781FFAD
:101C00000FF2D400FFF746FF0120FFF76AFF00F054
:101C100003F800F001F813BD20463BE70A0000007E
:101C2000307800003078000030780000203A200042
:101C3000203A2000203A20000A2A2A2A2A2A2A2A80
:101C40002A2A2A2A2A2A2A2A2A2A2A2A2A2A2A2AF4
:101C50002A2A0A002020202020364C6F57534E207D
:101C6000537461636B200A00202020202020202054
:101C70004351555054202020202020200A000000ED
:101C8000202020202056657273696F6E202000008E
:101C900073302E31330000002A2A2A2A2A2A2A2ABF
:101CA0002A2A2A2A2A2A2A2A2A2A2A2A2A2A2A2A94
:101CB0002A0A00005246442C20000000416464724D
:101CC0006573733A2000000044656661756C74208A
:101CD00050414E3A200000002C44656661756C74DA
:101CE000204368616E6E656C3A2000000178407890
:101CF00001EB00204004400C704700F8011B027803
:101D000002F0800212EB11210170704710B5444CB3
:101D10004FF40051204601F03BFE607840F0800017
:101D2000607041F6FE712046BDE81040E5E7F8B569
:101D3000050001D10020F2BD122D38BF1225384E0A
:101D40003446002700E0BC19607800060CD5204618
:101D5000FFF7CCFFA84207D32046FFF7C7FF461B7B
:101D6000B6B2122E11D21EE02046FFF7BFFF381880
:101D7000871CBFB2B7F5005FE5DB2A480078002872
:101D8000D8D05E20FFF77CFAD4E729462046FFF73B
:101D9000B4FF2819801C417841F080014170B11EC8
:101DA00089B2FFF7AAFF607800F07F006070A01C86
:101DB000F2BD00B970472DE9F041801E417841F035
:101DC000800141700024164D2E460CE03046FFF78E
:101DD0008DFF80463846FFF789FF4044811C89B259
:101DE0003046FFF78AFF707800060CD53046FFF7C3
:101DF0007DFF2018801C80B2B0F5005F0EDA471915
:101E000078780006E2D43046FFF770FF2018841C73
:101E1000A4B2B4F5005FB8BF6619E4DBBDE8F08199
:101E2000700000209B260020DFF82C070021817223
:101E30000170017101817047F8B5FEF7B3F900F048
:101E400060F9DFF81867DFF81857DFF80C47607A99
:101E5000401E0C286CD8DFE800F0074DE858E82554
:101E60004D67727CBFC5D0002878092802D00B28A6
:101E700010D03FE0DFF8EC060021C1752079012881
:101E800018BF00F07CFA00F0C6FA002000F0CEF88F
:101E900002202EE0687AB8B1706820F400607060AB
:101EA00006206072DFF8C0060178002961D1DFF8F2
:101EB000BC1607220A7062720A220A71012101709F
:101EC000BDE8F140FEF76EB904206072FFF728FD0F
:101ED000FEF70CF9FEF726F985F830000028B6D099
:101EE000DFF88C06007818B10FF2A060FFF7D2FD82
:101EF00000206072DFF870060078002839D1DFF822
:101F00006C06007985F830008DE07068400840006C
:101F10007060DFF85806012181700320E072FF2015
:101F200086F8240008206072DFF83C06017800295A
:101F30007BD1DFF8381606220A700922BBE7DFF8EA
:101F400028060078002870D1FFF710FAE0600A2018
:101F50006AE0DFF81C767068C0050BD53878032876
:101F600024BF0FF24460FFF795FD706820F4807085
:101F70007060F1BDFFF7FAF9E168401A0002000A4B
:101F800043F27101884250D3E07A20B1401EE072E2
:101F9000C0B20028C6D196F82400FF280CD00C202F
:101FA0006072308DFEF7E6F83878032810D30FF210
:101FB0000C60FFF76FFD0BE03878032824BF0FF2A9
:101FC0001460FFF767FD102085F830000020607274
:101FD000706820F44070CBE7DFF890050121817034
:101FE0000C206072DFF88005017800291DD1DFF830
:101FF0007C1505220A700D225DE7DFF86C0500787C
:10200000002812D1DFF86415087985F8300000281F
:1020100009D101F00EFDDFF85C05022101710168B4
:1020200041F00101016000206072F1BD38B5DFF8B8
:102030003C45DFF828154A68120503D40920A07032
:1020400008204DE0DFF81C355A7D0F252A4209D1C2
:10205000DFF81C05007818B10FF28C50FFF71AFD5D
:102060001220ECE7B8B9DFF8100500F046F81D883B
:1020700000F042F81D8800F03EF81D8A00F03CF8A0
:102080001D8A00F038F85A7D521E5A7545692A702B
:10209000027E521D0276DFF8E454488A2880688167
:1020A00018884FF6FE72904207D1CC20E8730822C0
:1020B0005968A81CFFF7F4F803E0C820E873088A01
:1020C0006880E87BC0F38100022806D168884FF65B
:1020D000FF71884208BF412000D06120A87303200F
:1020E00020700A202071DFF8800401210170BDE812
:1020F0003140FEF757B82D0A15704269521E4261F1
:10210000704738B5DFF87844DFF84C54287A012856
:1021100004D01DD3032848D03ED331BD207A216896
:102120004018017801F0C002802A03D18A0601D547
:10213000C9060ED4DFF838040078032803D30FF261
:10214000D440FFF7A7FC2068FFF733FE0020287279
:1021500031BD10F8011F0902A18110F8012F51189B
:10216000A18110F8011F09026181618910F8012F16
:102170005018608160894FF6FF71884208D04FF691
:10218000FE71884204D0DFF8FC13098888420AD126
:1021900000F029F80220287202F040FA0028D7D176
:1021A00002F041FAD2E703202872DFF8C403007876
:1021B0000328C8D30FF2A840C3E7DFF89C03007AD6
:1021C00000B101207047DFF8C0030168DFF8B023D9
:1021D0000B68136009791171807E1072DFF8780343
:1021E0000121017270472DE9F843DFF89443207A0A
:1021F0002168401800F2050818F8010B2074DFF878
:1022000070633078217C412902D042290DD0B0E0A2
:10221000032803D30FF27C40FFF73CFC207A801D9B
:1022200060720020A074BDE8F183032824BF0FF280
:102230009040FFF72FFC18F8010B607418F8010BA1
:10224000E076032748F2FE05607C000609D40020F2
:10225000011918F8012B0A77401C0828F8D30B271E
:1022600003E0A5830020E0832062DFF8F092607C29
:1022700040060BD40020011918F8012B81F8242006
:10228000401C0828F7D30837FFB206E0A289B9F846
:10229000121004F11C0001F0F6FD607C80060BD4E6
:1022A0000020011918F8012B81F82C20401C082867
:1022B000F7D30837FFB203E0A5850020E08520634F
:1022C000607CC0060BD40020011918F8012B81F89E
:1022D0003420401C0828F7D30837FFB206E0628993
:1022E000B9F8121004F12C0001F0CDFD607C01075B
:1022F00012D418F8011BE17418F8011B090461617C
:1023000018F8012B01EB0221616118F8012B51181B
:1023100061613F1DFFB202E00021E1746161C0F321
:10232000410129B998F80010A1767F1CFFB20BE09B
:10233000012908BF112106D0022908BF3A2102D085
:10234000032901D10621A176C00706D530780328DC
:1023500024BF0FF28C30FFF79DFB207A3818401D08
:10236000607221680978C0B2081A401E20830120DB
:1023700058E70328FFF452AF0FF280304CE770B5F6
:10238000784CE07D764D2E1D317A112908BF40F042
:10239000020008D03A2908BF40F0040003D0062903
:1023A00008BF40F00600E075287928B9706818B9B0
:1023B000E07D40F00800E075B07EFF2804BFE07DBE
:1023C00040F0C00025D005F11E0001F099FC012865
:1023D00020D1B07EFE2806D1F07E802803D1E07D9A
:1023E00040F0A000E075E07D40F04000E07505F2AF
:1023F0002601CA78FF2A06D10979FE2903D195F86A
:102400002610890703D595F82610890702D540F0D4
:102410001000E07570BD30B557485249CA7D12B9F9
:1024200041228A7589E042228A75426902F22802B5
:102430004261027E283A0276494ACB7DC3F34103CA
:102440003BB943695B1E4361147B1C70037E5B1CBC
:102450000376CB7D1B071AD443695B1E43619468E6
:102460001C7043695B1E43619468240A1C704369B5
:102470005B1E43619468240C04F00F041C704369D4
:102480005B1E436114791C70037E1B1D0376CB7D9C
:10249000DB060ED400234469641E44615D42AD181E
:1024A00095F82D5025705B1C082BF4D3037E083360
:1024B0000376CB7D9B060ED400234469641E4461E1
:1024C0005D42AD1895F8255025705B1C082BF4D3A0
:1024D000037E08330376CB7D5B060DD4002344696D
:1024E000641E44615D42AD186D7F25705B1C082B36
:1024F000F5D3037E08330376CB7D1B060DD4002372
:102500004469641E44615D42AD186D7D25705B1C9D
:10251000082BF5D3037E0833037643695B1E4361C2
:10252000527B1A70027E521C02764269521E426130
:10253000CB7D1370027E521C02764269521E4261AC
:102540008B7D1370027E521C02760E480088088232
:10255000BA20487530BD00005C260020BC22002057
:10256000EC2400201826002071250020682500207A
:102570009B26002030260020DC250020542500204A
:10258000B02400206C260020FC250020414450206F
:102590004A4F494E2F52454A4F494E206661696C59
:1025A0006564210A00000000476F742042434E20FA
:1025B000526573706F6E73650A00000041445020CD
:1025C000747279696E67206173736F63696174698E
:1025D0006F6E0A00414450204A6F696E2054696D45
:1025E000656F75740A0000004D65736820686F7030
:1025F000206C656674206973207A65726F2C206484
:10260000697363617264696E67207061636B65747E
:102610002E0A00004144503A205265636569766590
:102620006420414450207061636B65742077697445
:1026300068206C6F6E672061646472657373206FCD
:1026400072206E6F206D65736820747970652C2020
:1026500064697363617264696E672E0A000000002A
:102660004144503A2052464420726563656976655C
:10267000642073707572696F757320646174617022
:1026800061636B65742C2064697363617264696E45
:10269000672E0A004144503A2052656365697665A9
:1026A0006420756E636F6D70726573736564204925
:1026B000507636207061636B65742E0A000000004E
:1026C0004144503A20526563656976656420484309
:1026D000312049507636207061636B65742E0A0094
:1026E0004144503A204843322C206E6F7420737559
:1026F00070706F72742E200A000000004144503A3E
:1027000020526563656976656420756E7265636FD6
:10271000676E697A656420636F6D70726573736547
:10272000642049507636207061636B65742E0A0010
:102730001849084318490860704770B503781A466D
:102740000121C478ECB1144B1B6803F4E063C3F5BA
:10275000E0631B0A4478C3F10405AC4085780F267A
:1027600026FA03F32B4023431B010C4C135500782E
:1027700042110B4B00F01F0001FA00F043F8220059
:1027800070BD5011074A03F01F03994042F8201012
:1027900070BD00000000FA050CED00E000E400E070
:1027A00000E100E080E100E029490A6822F4E062EB
:1027B00010430860704730B525490A68254B02F080
:1027C0000C02082A0ED10A680C68C2F38342921CDC
:1027D000214D5543E40301D42B4603E00C68A403C8
:1027E000FAD4534303600B681C4A0468C3F3031311
:1027F0009B5C24FA03F343600B684468C3F3022331
:102800009B5C24FA03F383600B684468C3F3C22320
:102810009B5C24FA03F3C3600968C368C1F3813188
:102820008918097CB3FBF1F1016130BD0C4A002924
:10283000116814BF084321EA000010607047094A7C
:102840000029116814BF084321EA00001060704796
:102850000410024000127A0000093D0048000020E8
:10286000181002401C1002402DE9F041CB7803F013
:102870000F02DB0644BF8B781A430B8801240F2517
:10288000DEB21EB3D0F800C0002604FA06F7BE463A
:102890000EEA0308F04514D14FEA860E05FA0EF849
:1028A0002CEA080C02FA0EFE4EEA0C0C91F803E03A
:1028B000BEF1280F08BF476103D0BEF1480F08BF23
:1028C0000761761C082EE0D3C0F800C04FF4807674
:1028D000B34226D3D0F804C0002606F1080704FA54
:1028E00007F7BE460EEA0308F04515D14FEA860EFB
:1028F00005FA0EF82CEA080C02FA0EFE4EEA0C0C51
:1029000091F803E0BEF1280F08BF476191F803E09A
:10291000BEF1480F08BF0761761C082EDDD3C0F852
:1029200004C0BDE8F08180680140080018BF0120A4
:10293000C0B27047C0680140080018BF0120C0B293
:102940007047016170474161704730B501F0030283
:1029500092008910074B53F821400F259540AC4356
:1029600043F8214053F821409040204343F8210090
:1029700030BD00000800014030B585B004460D466A
:10298000208A4CF6FF710840E98808432082A0891C
:102990004EF6F3110840A98808432989084369893C
:1029A0000843A081A08A4FF6FF410840A989084347
:1029B000A08200A8FFF7FFFE144884420CBF0398D2
:1029C0000298296819225043A28912044CBF490079
:1029D0008900B0FBF1F16422B1FBF2F000010309C0
:1029E00002FB1311A3891B0406D5C9003231B1FBC8
:1029F000F2F101F0070105E009013231B1FBF2F11A
:102A000001F00F010843208105B030BD00380140BE
:102A10000029818912BF41F400514DF6FF72114027
:102A20008181704710B50B065B0F012401F01F0177
:102A300004FA01F1012B08BF0C3003D0022B0CBFAC
:102A400010301430002A026814BF114322EA010139
:102A5000016010BDC905C90D818070478088C0051F
:102A6000C00D704700880140080018BF0120C0B2A7
:102A7000704721E010B50A06520F012301F01F0430
:102A800003FA04F4012A08BF828903D0022A0CBF8A
:102A9000028A828A2240090A03FA01F1008808406A
:102AA00012B110B1012000E00020C0B210BD01221F
:102AB000090A02FA01F189B2C9430180704750F84E
:102AC000041B61B150F8042BD30744BFA9F10103E3
:102AD0009A18002342F8043B091FFAD1EFE7704728
:102AE00030B50488DFF87C21DFF86031984210D0DF
:102AF00090420ED0B0F1804F0BD0DFF85451A84275
:102B000007D0DFF85051A84203D0DFF84C51A8425B
:102B100004D14FF68F752C404D882C43DFF83C5183
:102B2000A84208D0DFF83851A84204D04FF6FF453C
:102B30002C40CD882C4304808C8884850C880485A7
:102B400098420DD090420BD0DFF81C21904207D064
:102B5000DFF81821904203D0DFF81421904201D110
:102B6000097A01860121818230BD30B5028C4FF691
:102B7000FE731A400284048C8288038B4FF68C7596
:102B80002B400D882B434FF6FD752C400D892C43AF
:102B90004D882C43DFF8B450A8420FD0DFF8C45062
:102BA000A8420BD0DFF8C050A84207D0DFF8BC50D5
:102BB000A84203D0DFF8B850A84210D14FF6F775FD
:102BC0002C404D892C434FF6FB752C408D882C43AF
:102BD0004FF6FF452A408D892A43CD892A438280BA
:102BE0000383C9888186048430BD0029018812BF0F
:102BF00041F001014FF6FE72114001807047002A3A
:102C0000828914BF114322EA010181817047018545
:102C100082827047028B4FF6F7731A40114301838B
:102C2000704781867047808E7047808C7047028A1B
:102C3000808908400A4202D010B1012000E0002043
:102C4000C0B270470000C94301827047002C0140A8
:102C50000004004000080040000C0040001000404C
:102C60000014004000340140004001400044014095
:102C70000048014000E0401EC0B20028FBD1704770
:102C800080B500F042F84FF4807000F010F8DFF8E3
:102C90000004FFF7E9FD01210820FFF7C7FD01202F
:102CA00000F005F8DFF8EC03FFF7DEFD01BDADF83D
:102CB000000003208DF8020010208DF8030000A909
:102CC000704710B582B000F020F800F04EF8E02018
:102CD000ADF8000018208DF8030003208DF80200E5
:102CE000DFF8AC4300A92046FFF7BEFD0121DFF865
:102CF000A80301F0A3FF1020ADF800008DF8030039
:102D000000A92046FFF7B0FD13BD01210420FFF705
:102D10008DBD10B586B000F028F8DFF87C430021A7
:102D2000204601F07DFF0020ADF800004FF48270D6
:102D3000ADF8020000200190ADF808004FF40070DB
:102D4000ADF80A001820ADF80C000020ADF80E0018
:102D50000720ADF8100000A9204601F045FF012131
:102D6000204601F05DFF06B010BD01214FF48050F8
:102D7000FFF75CBD00B585B0FFF7C7FF0120ADF8D8
:102D8000040048208DF8070003208DF8060001A9F3
:102D9000DFF8FC02FFF768FD01210120FFF746FD87
:102DA00000210846FFF7D1FD0120029000208DF898
:102DB0000C0008208DF80D0001208DF80E0002A8EF
:102DC00001F052FF06208DF8000001208DF801006F
:102DD00000208DF8020001208DF8030000A8FFF705
:102DE000ACFC05B000BD38B50446DFF8A452102194
:102DF0002846FFF7A8FD28694006FCD444F080006F
:102E000000F0E8F9FF2000F0E5F90446102128461B
:102E1000FFF797FDE0B232BD70B500F06AF8306997
:102E20004006FCD444F0C00000F0D4F9284600F07D
:102E3000D1F910213046BDE87040FFF782BDF8B5EA
:102E400000F062F838694006FCD444F08000FFF7D7
:102E5000CAFF044610213846FFF773FD05EA040057
:102E6000F040F2BD2DE9F04104460D461746984664
:102E7000874E10213046FFF766FD30694006FCD4CE
:102E80002046FFF7B0FF08FA07F12940A8430143A5
:102E90002046FFF7C1FF10213046BDE8F041FFF7A3
:102EA00050BD10B57A4C10212046FFF74CFD20692B
:102EB0004006FCD4202000F08DF9FF2000F08AF9B4
:102EC000C0B210BDF8B500F014F830694006FCD46B
:102ED000602000F07FF9204600F07CF9002703E035
:102EE000785D00F077F97F1CA742F9DB10213046AE
:102EF00006E004460D46664E10213046FFF723BD1E
:102F0000BDE8F440FFF71DBD04460D461646604F70
:102F100010213846FFF717BD10B500F084F85C4C5F
:102F20004FF480712046FFF70EFD4FF4807120466C
:102F3000FFF700FD0028F3D101215648FFF703FDFC
:102F4000022000F064F900F069F8022000F05FF957
:102F500001E000F063F8E068C005FAD500F0D9F8A8
:102F600000F0BDF80828FBD100F055F800F0B2F8E9
:102F700000231A46012100F0B0F801230722802126
:102F800000F0ABF801230522202100F0A6F8012370
:102F9000072280210C20FFF765FF0D211320FFF78A
:102FA0003BFF04211420FFF737FFE7210520FFF73F
:102FB00033FF03211620FFF72FFF1620FFF713FF23
:102FC0000328FAD17C210C20FFF726FF0C20FFF705
:102FD0000AFF324908700C20FFF705FF7C28FAD160
:102FE0000023042230210320FFF73CFF00230022AE
:102FF00007210320FFF736FF002303220821104694
:10300000FFF730FF092300F085F80F20FFF7EBFEF4
:103010000128FAD110BD0C210E20FDE64FF480717D
:103020002046FFF78EBC012000F0F1B810B501205A
:1030300001F04CFE48B3012001F056FE0F20FFF7CF
:10304000D2FE0446C22C0BD0FF2C09D004F00F0096
:103050000F2805D004F0F000F02801D0C92C02D1CF
:103060000F4801210170082C09D0C02C07D0282C52
:1030700005D08F2C03D0192C01D00C2C05D10120A8
:10308000FFF7F8FD2046FEF78EFA10BD00000000A5
:1030900000080140000C0140003001409A26002049
:1030A000FB25002080B500F034F800F018F8C007C8
:1030B000FBD4FFF7B0FF00F00DF800231A46012102
:1030C00000F00BF8062300F025F800F008F8C00720
:1030D000FBD401BD0123012202210420C2E601200C
:1030E00081E610B501E000F014F8FFF7F8FFC00723
:1030F000F9D4092300F00EF805E0092300F00AF8DE
:10310000FFF7EDFF0446E4B204F00F000928F4D104
:1031100010BD032300221F210220A3E680B505E095
:10312000FFF7F7FFFFF7DBFFFEF7DBFCFFF7D7FF4B
:10313000C007F5D40623FFF7EDFFFFF7D0FF00F03F
:103140000F000628F9D10123072280210820FFF76C
:1031500089FE072280210120FFF771FE0128F8D1A6
:10316000FFF7BDFFC00702D5FFF7D3FFF8E7062240
:1031700040210120FFF763FE012805D10FF218005E
:10318000FEF788FC012004E00FF22800FEF782FC25
:10319000002000F0010002BD4E6F772C20646F69A3
:1031A0006E672043434120202E2E2E20204F4B209F
:1031B000200A00004E6F772C20646F696E672043F1
:1031C000434120202E2E2E20206661696C656420EC
:1031D000200A000038B50446DFF840500221284696
:1031E00001F036FD0028F9D02146284601F022FDE5
:1031F0000221284601F033FD0121284601F028FD77
:103200000028F9D02846BDE8324001F015BD002164
:1032100000E0491C8142FCD37047000000300140AF
:10322000DFF868030178491C49B26529A8BF00216D
:10323000017090F900007047F0B58FB001F0D6FD35
:10324000DFF84C432078DFF84C53DFF84C63317DD6
:10325000062900F28480DFE801F0040A8082243A23
:103260007300FFF7DDFFF075012030757BE00FF292
:103270008830FEF70FFCF07DFEF733FC0FF2903044
:10328000FEF708FC0120307070700020B070012043
:10329000F0707820307176207071F07DB07104206C
:1032A000E3E700285FD1A87D40B90FF26830FEF750
:1032B000F1FBFEF75BF8F0620520D6E70FF2603015
:1032C000FEF7E8FBFEF752F8F0620520CDE7FEF7C7
:1032D0004DF8B16B3E225143F26A801A0002B1EB05
:1032E000102F38BF0220C0D3307E00283BD00020F2
:1032F0003076AA4F0AA83946102202F006FB787EE3
:103300000990387E089097F820000790F869069099
:1033100000200590F87D0490B87D0390B88A029053
:10332000B87C0190388A00900AA80FC801F00DFD02
:103330001920A8750120207001F058FD062094E79F
:1033400088B9A87D20B90FF2FC20FEF7A3FBB3E7F4
:103350000FF21030FEF79EFBB7E7002085E70FF273
:103360002430FEF797FB0FB0F0BD2DE9F84F8A4CE3
:103370000020E062FDF71AFF01F0BEFCFEF70BFC37
:1033800087480A210170DFF81C820FF28439DFF8C8
:1033900018A2864E7F4F7E4D01E001F027FD287870
:1033A0000028FAD1132038700E2030700B208AF8D4
:1033B00000004FF0FF30CAF8040004208AF808002B
:1033C00000208AF809001920B8750120287001F042
:1033D0000DFD28780028FAD1B87D48BB0FF2D8201F
:1033E000FEF758FB0FF2EC20FEF754FB7048008804
:1033F000FEF77FFBFEF772FB0FF2F020FEF74AFBB1
:10340000DFF8B09109F10800FEF79FFB0FF2EC2006
:10341000FEF740FBB9F81000FEF76BFBFEF75EFB12
:103420000FF2203A4FF47A7B5046FEF733FB0DE063
:103430004846FEF72FFBFDF799FFE062FDF796FF88
:1034400000F073F8FAD3AAE701F0D0FC287800283E
:10345000FAD1132038700F203070A6F802B019206E
:10346000B8750120287001F0C1FC28780028FAD135
:10347000B87D00284CD10FF2F020FEF70BFB0020A6
:1034800089F81700FDF772FF206348F2FE00A08361
:103490000020E08320620022B9F8121004F11C0021
:1034A00000F0F1FC0FF21030FEF7F4FA012104F104
:1034B0001C00FEF76DFB0FF21430FEF7EBFAC4F8B8
:1034C00034B041F27070A063002020764620607511
:1034D0000520A075002020750FF2F420FEF7DAFA1F
:1034E000354D364EFFF7A8FEFDF740FF216B401A21
:1034F0000002000A4FF231218842F3D3308808B924
:103500000120287000203080FDF730FF2063E9E7BC
:103510000FF26C20FEF7BEFAFDF728FFE062FDF720
:1035200025FF00F002F8FAD37EE7E16A401A0002B4
:10353000000A4045704730B5184C214D204605F132
:103540000C01102202F0E1F942F2B820208205F2CB
:1035500029008178A17495F82910A1754FF2B30163
:10356000A182C178E17501212176407900F0030044
:103570006076094800F23C01E1610B2184F82010DB
:1035800001210176002030BD000000009D260020B2
:10359000B42500209C250020000000207825002074
:1035A0009B26002060E40100EC2400202025002060
:1035B0006C260020BC220020FB250020DA250020FC
:1035C0007421002038B504460D460FF21820FEF78E
:1035D00061FA01212046FEF7DBFAFEF77FFA0FF2CF
:1035E0002820FEF757FA2846FEF77BFAFEF776FA10
:1035F000012032BD70477047537461727420746F3C
:103600002073656E642C206E756D3A2000000000FA
:103610002020000053656E74204F4B21200A0000CB
:1036200053656E736F7220446174612053656E64DC
:10363000206661696C65642120526574727921206D
:103640000A000000526573706F6E73652053656EDB
:1036500074205375636365737366756C6C79212090
:103660000A000000526573706F6E73652053656EBB
:1036700064206661696C65642120526574727921E9
:10368000200A00004E657665722072756E20746F98
:1036900020746869732073746174652C20736F6D76
:1036A000657468696E67206D757374206265207734
:1036B000726F6E6721200A004E6574776F726B20FF
:1036C0004A6F696E20737563636565646564210A7A
:1036D000000000004D792053686F72744164647279
:1036E0006573732069733A200000000050617265B1
:1036F0006E74204C414444523A2000002C2050610A
:1037000072656E742053414444523A200000000018
:103710004E6574776F726B204A6F696E204641491F
:103720004C4544212057616974696E672C20746888
:10373000656E20747279696E6720616761696E0ACF
:1037400000000000426567696E20746F2067657431
:10375000206120676C6F6162616C207072656669C0
:10376000782E200A00000000476574206120676CF5
:103770006F62616C20707265666978210A000000D2
:10378000507265666978206F627461696E696E67F0
:10379000204641494C4544212057616974696E6750
:1037A0002C207468656E20747279696E6720616779
:1037B00061696E0A00000000524644204F626A654B
:1037C00063742049502069733A200A000A000000FF
:1037D0004E6F64652046534D205374617274210A04
:1037E00000000000476574205072656669782053B8
:1037F00075636365737366756C6C792C20507265A4
:103800006669783A20000000507265666978204C3D
:10381000656E6774683A200080B5402001F064FA54
:1038200000F012F88DF8020001208DF8030007E087
:1038300080B5402001F058FA00F006F8ADF802001B
:1038400000A8FEF77AFF01BD17208DF800000120C7
:103850008DF801000020704738B504464B4D022119
:10386000284601F0F5F90028F9D02146284601F054
:10387000E1F90121284601F0EBF90028F9D02846AA
:1038800001F0DAF9C0B232BD38B504463E4D02212E
:103890002846FFF756F802212846FFF754F800F0B3
:1038A0002DF80128FBD02046FFF7D6FF0446022161
:1038B0002846FFF746F8204632BDFF2140F0C00001
:1038C000FFE770B504460D462F4E02213046FFF744
:1038D00038F802213046FFF736F800F00FF80128DB
:1038E000FBD02046FFF7B8FF2846FFF7B5FF044698
:1038F00002213046FFF725F8204670BD40212148BF
:10390000FFF711B80A460146FF202DE9F0410446B1
:103910000D4616460027DFF8708002214046FFF76B
:1039200010F802214046FFF70EF8FFF7E7FF0128E5
:10393000FBD02046FFF790FF200604D5FF20FFF7BD
:103940008BFF287002E02878FFF786FF761E6D1C3B
:1039500002214046FEF7EEFF012808D10221404631
:10396000FEF7F1FF0127F6B2002EDED102E0F6B23B
:10397000002EE1D102214046FEF7E3FF3846BDE8C4
:10398000F081000000080140000C014000300140BF
:10399000002201F0E9BF000038B5DFF8AC04007880
:1039A000032824BF0FF23450FEF774F8DFF89C446C
:1039B0004FF482712046FFF7EBFFDFF89454542157
:1039C00005F11C00FFF7E4FF7F20206040202071FC
:1039D00047F23050E0604FF47A7060610120207649
:1039E0006076DFF870047F21018048F2FE002880B5
:1039F00000206880686000224021284600F05FF8BF
:103A0000284600F035FA03220021284600F0B6F8D7
:103A100040F2FF202880002068806860A860A881AC
:103A20004FF48070E881284600F01CF90020607196
:103A300031BD10B5DFF810040078032824BF0FF261
:103A4000A840FEF727F8DFF8084448F2FE0020807F
:103A5000002060806060DFF800040288DFF8FC036B
:103A6000418A204600F00FFA04220021204600F08F
:103A700085F810BD2DE9F0470546884691469A46DF
:103A8000089C099E002030602F4601E037604F44BB
:103A900009FB085087420BD238780028F6D0E2089C
:103AA0005146B81C01F078FF0028F0D1376004E0DF
:103AB0003068002814BF01200220BDE8F087F0B56F
:103AC00083B007460C461646DFF8845305F118000C
:103AD000019000943B461C22032105F11C00FFF7D6
:103AE000C9FF012834D1A86901210170A869801C8F
:103AF0003946102201F0FCFEA8698474701E8041D2
:103B0000C00FA9690876DFF840633078032824BF26
:103B10000FF2F430FDF7BEFF3078032804D3002104
:103B2000A869801CFEF734F83078032824BF0FF210
:103B3000E830FDF7AFFF3078032824BF2046FDF7BB
:103B4000D8FF3078032824BF0FF2DC30FDF7A2FF46
:103B50000020FEBD1CB5DFF8F84204F11802019206
:103B6000009103461C22032104F11C00FFF782FF91
:103B7000002801D1A06916BD002016BDF0B583B0A4
:103B800004460E461746DFF8C85205F110000190B2
:103B900080200090234600F061F801283FD1286979
:103BA00001210170286900F094F82869C774286918
:103BB00001218174701E8041C00F29690875A24ED1
:103BC0003078032824BF0FF26430FDF763FF3078AC
:103BD000032804D300212869801CFDF7D9FF307821
:103BE000032824BF0FF25430FDF754FF3078032828
:103BF00003D32869C07CFDF77CFF3078032824BFFD
:103C00000FF24030FDF746FF00F00BF8607B687361
:103C1000E089E881284600F025F82869FEBD0020EB
:103C2000FEBDFF2028700221697000216980696053
:103C30002981A9720121E972287370471CB5844C4F
:103C400004F11001019180210091034600F006F873
:103C5000002801D1206916BD002016BD1C220421B8
:103C60007F4807E730B583B00546794C04F114006E
:103C70000190802000902B4600F027F8616920B960
:103C8000887C401C887460693EBD01280BD1087097
:103C90006069801C2946102201F02AFE6069817C3F
:103CA000491C8174EFE700203EBD1CB5684C04F14F
:103CB0001401019180210091034600F006F80028CC
:103CC00001D1606916BD002016BD1422052165488A
:103CD000D0E6801C2146102201F00ABE1CB5624CC1
:103CE000019480210091034600F006F8002801D1DC
:103CF000206816BD002016BD122201215B48B9E6DE
:103D000038B50446524D05F21C0002E0A86900F2E5
:103D10001C00A861A86905F1700188420CD20178E5
:103D20000029F3D0817CCA082146801C01F034FEB2
:103D30000028EBD1012032BD002032BD2DE9F04733
:103D400004460D464FF00008C2462878FE2808D1E8
:103D5000687880280CD1287A80074CBF0321042181
:103D600028E0FF2804D1687800F00E000E28F2D178
:103D7000374EDFF8D89009F21C0030613769387887
:103D800080B1B87C01280DD1B878FE2802D1F8782E
:103D9000802807D0B91C284600F087F8404524BF8A
:103DA0008046BA4607F21C00306109F18C01884256
:103DB000E4D303E0012000F01EF88246BAF1000FC0
:103DC00011D121480078032824BF0FF27C10FDF7A1
:103DD00061FE002020806080A080E08020816081E2
:103DE000A081E08105E020460AF10201102201F0E5
:103DF0007FFDBDE8F08730B5154B144C04F21C0272
:103E00001A611A691578ADB14FF0FF35A84202D09A
:103E1000957C85420ED14FF0FF35A94202D0D57C6A
:103E20008D4207D19578FE2D04D1D578802D01D112
:103E3000104630BD02F21C021A6104F18C05AA4240
:103E4000DFD3002030BD00009B2600207020002022
:103E5000402400208C2600206C260020BC2200205C
:103E60008C2000200E21002094260020FC20002021
:103E700010B5044604F10800FDF7B1FA207A80F08D
:103E80000200207210BD0B0A037241720021817280
:103E9000FF21C172FE21017300214173110A817358
:103EA000C27303F0FD010172704730B50022002398
:103EB0001C5C5D5CAC4204D108325B1C102BF7DB50
:103EC00009E02046294648400821030603D4521C35
:103ED0004000491EF9D1D0B230BD000064733620D5
:103EE000696E69742E200A00736574206969642004
:103EF00066726F6D2073686F72742061646472659E
:103F000073732E200A0000004164642061207072E7
:103F1000656669783A202000507265666978204CA1
:103F2000656E3A20000000000A0000004164642031
:103F3000612075616464723A2020000074797065B4
:103F40003A2000000A00000064733A2043616E20AA
:103F50006E6F742066696E64206D61746368656459
:103F6000207372632C2075736520756E73706563A2
:103F7000696669656420616464726573732E200AE2
:103F80002000000010B55218521E0AE00B784C7841
:103F900004EB03239BB2181880B2984238BF401C30
:103FA000891C9142F2D307D1097810EB012080B22D
:103FB000B0EB012F38BF401C80B210BD70B50C466D
:103FC000DFF83418CD7E561B202204F10801801939
:103FD00080B2FFF7D7FFB2B229192831FFF7D2FF1D
:103FE00008B94FF6FF7070BD0A4601463A20E5E772
:103FF0000A4601461120E1E780B5FFF7CDFCDFF866
:10400000F80700210184018301BD00002DE9F04182
:10401000FDF712FF00F05CF90FF2FC78DFF8DC77B7
:10402000DFF8DC67DFF8DC57DFF8CC4707E010B1DA
:104030004046FDF72FFD206A40084000206230789E
:10404000217E0E2937D8DFE811F00F003700470036
:10405000270152001C01A800C200E100F9001C0168
:1040600020003E013E012F0194F82010C90722D5FF
:10407000797A3A68895C8029D9D1E9688A07D6D4E7
:1040800041F00201E9600B212176032824BF0FF6DD
:104090005800FDF7FFFC01F04DFD07F1140001F0A1
:1040A000ADFC206A40084000206200F023FB00F0D5
:1040B0000DF90E20207606E121780C2906D0FAD3DE
:1040C0000E295AD01FD30F293CD0FCE0B7F840008E
:1040D0002830A0830220207600F00CFB00F0F6F8D8
:1040E00094F82000800640F1CA8004202076DFF892
:1040F000180700780028E8D1DFF8100790F83000A2
:1041000020750220D6E7032824BF0FF25870FDF770
:10411000C1FCE8688107D8D440F00200E860206A5A
:1041200020F002002062608A01F085FCA01C01F0F2
:1041300065FC00F0DFFA206A40F0040000F0C5F8EA
:104140000620B7E7032824BF0FF23470FDF7A2FC66
:10415000E8688107B9D440F00200E860206A20F0E6
:104160000800206201F080FD00F0C4FA206A40F0EF
:10417000100000F0AAF808209CE7DFF88C06017810
:10418000002947D1DFF884160F2281F83020012161
:104190000170FDF751FE0A208CE7DFF86C0600780D
:1041A000002837D1E86820F00200E860DFF85C06FC
:1041B00090F8300030B12075206A20F004002062B1
:1041C000002077E7FDF7D2F8E062072072E794F865
:1041D0002000800701D50020EDE7FDF7C7F8E16A70
:1041E000401A0002000A4FF2312188426BD3172097
:1041F00020753078032824BF0FF29460FDF74AFC45
:10420000206A20F004002062002053E7DFF8F80560
:104210000078002857D1E86820F00200E860DFF855
:10422000EC0590F8300020B12075206A20F01000D5
:10423000C5E7FDF79BF8E06209203BE794F8200012
:10424000000705D500202075206A20F01000DAE76D
:10425000FDF78CF8E16A401A0002000A4FF23121A2
:10426000884230D3182020753078032824BF0FF2FD
:104270003460FDF70FFC206A20F010009FE7052056
:104280002076DFF884050078E8B9DFF8800590F83B
:104290003000207500200DE7032824BF0FF21860BE
:1042A000FDF7F8FB002005E7DFF85C05007850B962
:1042B000DFF8580590F83000207500202076E86877
:1042C00020F00200E860BDE8F08120620020FBE001
:1042D0002DE9F8434FF6FF78DFF82455DFF81C6529
:1042E000DFF81475787E012806D004D3032800F087
:1042F000D280C0F08780D3E0B07A297828BB307AAA
:10430000326882181078000906280BD0032903D3DD
:104310000FF2F050FDF7BEFB3068FDF74AFD0020BC
:104320007876BDE0104600F0ACF9307DFF281AD158
:104330002878032803D30FF25460FDF7ABFB3068F5
:10434000FDF737FD0020B883EAE7012806D10329ED
:10435000EBD30FF2E050FDF79DFBE6E70329DBD33B
:104360000FF2F850D6E706F12400FFF767FC78B9A2
:1043700006F12400FFF799FC50B906F12400FFF77D
:10438000ADFC28B928780328D9D30FF23460D4E7DC
:10439000707A3168441806F212003863002078837E
:1043A00095F80090B07C112802D03A2834D080E0F3
:1043B000B07A28BBA079E17901EB002084B2FCB18E
:1043C00000F07DF840451BD0B9F1030F24BF0FF278
:1043D0002060FDF75FFB2878032824BF2046FDF707
:1043E00088FB2878032824BF0FF24060FDF752FBBA
:1043F00028780328A3D300F062F8FDF77AFB9EE744
:104400000220787601F036F8002849D101F037F81B
:1044100000207876B88343E0B07AA0B9318A307A48
:1044200032688018FFF7E0FD40450CD0B9F1030F6A
:1044300024BF0FF21460FDF72DFB287803281AD350
:104440000FF2306079E72078802815D0812829D0B4
:10445000862810D1B9F1030F24BF0FF23460FDF7A5
:1044600019FB97F82000C00605D501F040FC386A1A
:1044700040F00800386262E7308A502805D3B9F16D
:10448000030FF8D30FF21C6057E7386A40F00100C1
:1044900038620320787697F82000C0077FF53CAF9C
:1044A000BDE8F18397F82000400701D501F011FB2A
:1044B00045E7B9F1030FFBD30FF210603DE7318AF6
:1044C000307A3268801893E5F8B5CC4C04F23805A0
:1044D000002877D1CB4E7169491E71614242121991
:1044E00092F863200A70401C1028F4D300207169F0
:1044F000491E71614242121992F853200A70401C01
:104500001028F4D37069401E7061E97A01707069F7
:10451000401E7061A97A01707069401E706129891E
:1045200001707069401E70612989090A0170706903
:10453000401E7061696801707069401E7061696831
:10454000090A01707069401E706169686A78120119
:104550000F3212EA114101707069401E7061697872
:1045600094F83820120102EB11110170307E2830CE
:104570003076A87A11280DD1776929893846FFF756
:1045800037FD00F045F887F82F007169000A81F8BF
:104590002E0017E03A280DD1776929893846FFF7B0
:1045A00023FDC04380B287F82B007169000A81F8AF
:1045B0002A0007E092480078032824BF0FF2385001
:1045C000FDF768FA8C4800218183904E09203070F5
:1045D000E87A7073A87A3073687830716868B06070
:1045E00006F10E0004F14401102201F081F906F1F8
:1045F0001E0004F15401102201F07AF90F2086F810
:104600003000814801210170BDE8F140FDF714BC84
:10461000C04380B208B94FF6FF7070477648407EBD
:1046200000B10120704730B5744C794D2868206086
:1046300028792071687A207228306072A87CA07274
:10464000A889E086A87C012817D1E87CE072686917
:10465000E060288B2082A87EA07404F1140005F18C
:104660001C01102201F051F904F1240005F12C0184
:10467000102201F04AF9687A60725F4801214176A0
:1046800030BD10B55D49027843781B0943EA021238
:10469000CA72401C10F8012B02F00F021204CA600B
:1046A00010F8013B02EB0322CA6010F8013B9A1894
:1046B000CA6010F8012B12020A820A8A10F8013B24
:1046C0009A180A8210F8012B8A7410F8012BCA7408
:1046D0000022531810F8014B1C75521C102AF8D3F5
:1046E0000022531810F8014B83F82440521C102A62
:1046F000F7D310BD70B5414800F25404454D404E0B
:1047000090F85410FF2922D130786178022919D10C
:104710006188B9B9A188A9B9E18899B9218989B90C
:10472000618979B9A18969B9A17B59B9E17B02296C
:1047300008D1032803D30FF2FC30FDF7ABF94FF695
:10474000FF7057E00328FAD30FF22840F5E7543002
:10475000FFF7D6FA012845D1E07AFF280AD1217B5C
:10476000FE2907D1217A89075EBFA07BE17B41EA60
:1047700000203FD5217A8A072CD54FF6FE722A8079
:1047800081F002012972617A6972A17AA972E872D4
:10479000207B2873607B6873A07BA873E07BE87341
:1047A00005F1080068603078032824BF0FF2E0307C
:1047B000FDF770F93078032824BF05F10800FDF7F4
:1047C000C4F93078032816D30FF2D830BDE8704012
:1047D000FDF760B900202880307803280BD30FF252
:1047E000C830F3E73078032824BF0FF2D430FDF748
:1047F00051F90020288070BD20250020C42300200E
:104800009B260020DC25002065260020EC240020CB
:10481000B0240020182600204E574B3A20526563E2
:1048200065697665642049434D50207061636B650E
:10483000742074686174206973206E6F74206375CE
:104840007272656E746C7920696D706C656D656EE1
:104850007465642C2064697363617264696E672E89
:104860000A0000006E776B2073656E64206120651E
:1048700063686F20726571756573742E200A00007D
:104880006E776B2073656E642052532E200A0000F1
:104890004E574B3A2050696E672074696D656F758D
:1048A000740A00006E776B3A2052532074696D656C
:1048B0006F75740A000000004E574B5F535441540B
:1048C000455F414444525F5245534F4C5F535441FE
:1048D00052542C204E6F74207573656420696E20CD
:1048E0005750414E0A0000004E574B3A2053656E18
:1048F00064696E672070696E67207265706C792ECE
:104900000A0000004E574B3A205265636569766590
:1049100064206973206E6F74204950763620706170
:10492000636B65742C2064697363617264696E677C
:104930002E0A00004E574B3A205265636569766532
:104940006420636F6D7072657373656420495020D5
:104950007061636B65742E200A0000004E574B3A5D
:104960002052656365697665642077726F6E672093
:104970006863666C6167207061636B65742C20648A
:10498000697363617264696E672E0A004E574B3A11
:104990002044697363617264207468652070616388
:1049A0006B6574203A204D756C697469636173742A
:1049B0002073726320495020416464722E0A000003
:1049C0004E574B3A20446973636172642074686582
:1049D000207061636B6574203A204572726F72209B
:1049E0006465737420495020416464722E0A00008B
:1049F0004E574B3A207564703A20626164206368B8
:104A000065636B73756D2E0A2020436865636B20A8
:104A10004E756D2066726F6D2072637620646174CE
:104A200061206973203A20200000000020202052DD
:104A30006563616C63756C61746564204E756D624D
:104A40006572206973203A0044697363617264205F
:104A50007468652049434D50207061636B65742014
:104A60003A204572726F7220436865636B73756D8F
:104A70000D0A00004E574B3A2069636D703A206270
:104A8000616420636865636B73756D2E0A000000B6
:104A90006E776B3A20726563656976656420524172
:104AA0002E200A004E574B3A2069636D703A2065FC
:104AB00063686F2072657175657374206F766572B7
:104AC0006C656E6774682E0A000000004E574B3A02
:104AD00020756E7265636F67696E7A6564206E65B6
:104AE0007874206865616465722C2064726F702030
:104AF00069742E20200A00006E776B3A2063686587
:104B0000636B2073756D206973206E6F74207375ED
:104B100070706F7274656420666F72206375727254
:104B2000656E74206E657874206865616465722EA8
:104B3000206E00004E574B3A204465737420697311
:104B400020616C6C2D726F7574657273206D756C5D
:104B500074696361737420616464726573732C207B
:104B600073656E6420746F20636F6F72642E200A09
:104B7000000000004E574B3A20446573742069735F
:104B8000206D756C746920616464722E0A000000E7
:104B90000A20447374206C6F6E6720414444522095
:104BA0000A0000000A0000000A20447374206F6E9F
:104BB000204C494E4B20746F20302E200A000000FC
:104BC000447374206973206E6F74206D756C746902
:104BD00063617374206F72204F4E2D4C494E4B20F1
:104BE000616464722E0A0000028802F441520B884C
:104BF0001A434B881A438B881A43CB881A430B8974
:104C00001A434B891A438B891A43CB891A43028072
:104C1000828B4FF2FF731A408283098A01827047A8
:104C20000029018812BF41F040014FF6BF721140C8
:104C30000180704781817047808970470029818891
:104C400012BF41F004014FF6FB72114081807047A2
:104C500000890140080018BF0120C0B27047FFE77B
:104C6000C94301817047000030B50168CB4320493A
:104C700082792AB30A461468234013605368046893
:104C8000A34353600379CC18236805682B43236042
:104C900093680468A3439360D3680468A343D36014
:104CA00043790568102B07D1916829439160D16839
:104CB00000680843D06030BDCC182068284303E06A
:104CC00000790C1820681840206030BD08490A6837
:104CD00002404969014203D0100002D0012000E0E7
:104CE0000020C0B270470000024908607047000011
:104CF000000401401404014080B5DFF8FC080021E5
:104D00000176DFF8F808017781818173018043F231
:104D1000700101610A218182032101760021017164
:104D2000FCF7FEFDFBF7E2F9FDF77EF8FFF764F90B
:104D3000BDE8014001F09EB8B87105B0BDE8F08F44
:104D4000DFF8B408017E002970472DE9FF4F81B0DC
:104D5000119FDDF84880139CDDF850B0DDF85490C9
:104D6000169DDDF85CA001E000F040F8FFF7E8FFD9
:104D7000FAD112210170DFF88868002086F86400FB
:104D800086F89C7006F29C0080F81090C0F80CB079
:104D900080F80280DFF864188A7BC270501C887328
:104DA00006F264079DF83C003872BDF8380038867A
:104DB00006F1740001A900F0DAF9BDF84000788628
:104DC0005046012D08BF40F004000CB140F0100027
:104DD000B87135B9BAF1000F03D0706E40F004001D
:104DE0007066706E400840007066A6E72DE9FF47C8
:104DF000FFF70CF9DFF804482078000748BF00F0FF
:104E00009DFB00F07BFADFF8FC77DFF8F497DFF822
:104E1000F857DFF8E46709F21C0ADFF8F0070178B9
:104E2000DFF8EC87DFF8EC27337E0B2B00F29B8159
:104E3000DFE813F00C000D01F3005D017101940136
:104E400099019901110076009700BF002078400772
:104E50004DD508203076E868810700F1848140F064
:104E60000200E86009F29C0000210174C16009F2AF
:104E700064076021B9719AF81110C1709AF8101086
:104E800081709AF80F0038729AF80D0089F89C002A
:104E9000BAF80200388609F1740009F10C011022F9
:104EA00000F033FDB9F81C007886002089F8640012
:104EB00098F80000032824BF0FF6F810FCF7EAFD6D
:104EC00000202876D9F8640040F00200C9F8640098
:104ED000012000F05EF9D9F8640020F00200C9F862
:104EE0006400206820F00400206002203AE1387855
:104EF000C00740F138813879012806D004D303284F
:104F000000F09B80C0F07C8075E09AF8120000F001
:104F1000030101291ED101F05FF8A0B1092030760C
:104F2000E86881076BD440F00200E86098F8000060
:104F3000032824BF0FF27470FCF7ACFD01F095F864
:104F400000F020F9D1E798F80000032853D30FF2BE
:104F5000E0604EE0022923D101F04FF8C8B10A20E9
:104F60003076E86881074AD440F00200E86098F89B
:104F70000000032824BF0FF25070FCF78BFD01F0F6
:104F8000D5F8386840084000386000F0FFF802208B
:104F9000E8E098F8000003282DD30FF2B06028E075
:104FA00000F0030003281ED101F038F8A0B10B2057
:104FB0003076E868810722D440F00200E86098F873
:104FC0000000032824BF0FF21C70FCF763FD01F002
:104FD000AEF800F0D7F888E798F8000003280AD365
:104FE0000FF2886005E098F80000032803D30FF261
:104FF0009C60FCF74FFD3868400840003860B2E024
:10500000E8688107FBD400F0B5F800A80FC800F0ED
:1050100089FF00F0B7F802203076207800070BD423
:10502000607FB075E86820F00200E860002030760C
:105030002078C0073FF50AAF95E0E8688107FBD408
:1050400000F098F800A80FC800F094FFE1E733786B
:10505000122B04D002D3142B25D03ED383E020683A
:1050600020F01000206099F86400C00748BF0D20B0
:1050700078D4E868810776D440F00200E860002028
:105080002876012000F085F8206840F010002060AC
:1050900099F8641049079ED520F0200040F04000A8
:1050A000206003205EE0E86881075CD440F00200E5
:1050B000E860B078642802D0652807D065E700F082
:1050C00054F800A80FC800F02DFF5EE700F04DF87F
:1050D00000A80FC800F04EFF57E7002943D1132165
:1050E000117501210170FEF791FF05203AE020784B
:1050F000000738D4E86820F00200E860607F28B13B
:10510000B075206820F0400020602AE0FCF72EF9FE
:10511000F061042026E02078800606D50020B075D6
:10512000206820F0400020601BE0FCF71FF9F169C7
:10513000401A0002000ADFF8E014884213D31D2051
:10514000B07598F80000032824BF0FF2B850FCF7A0
:10515000A1FC206820F04000206002E019B9107D19
:10516000B07500203076BDE8FF8700A8311D102201
:1051700000F0CBBB40F00200E86000A8B91D10228F
:1051800000F0B6BB38684008400038600020287640
:10519000FFE72DE9F843DFF87C84DFF86494DFF85B
:1051A0006864317E002940F09B8009F2A007DFF897
:1051B0006C1488B101F27F007061387BB9684118C6
:1051C0003076307E70B17269521E7261401E307648
:1051D00011F8010D1070F4E7387B4042401800F2DE
:1051E0007F007061387B30767069401E70610021ED
:1051F00001707069401E70610170307E801C3076D5
:105200007169491E7161801D08707069401E70616E
:10521000317E891D0904090E0170307E801C3076B4
:105220007069401E706109F26404218E017070691A
:10523000401E7061218E090A0170307E801C30761C
:105240007069401E7061618E01707069401E7061EE
:10525000618E090A0170307E801C307699F86400F6
:10526000C0073DD4DFF8B8530620287000206870CE
:105270006860307E28811120A872DFF8A8030079C9
:10528000E87205F11C0009F17401102200F03DFBE9
:1052900005F11C0105F10C00FEF750FD0C2088F80B
:1052A0000000DFF85853A079C006286808D540F000
:1052B00002002860FCF75AF8A860A88AE88202E099
:1052C00020F002002860286840F008002860287E4E
:1052D000687619206877307E89F8A0007069786058
:1052E00099F86400C00707D4132088F81400C74851
:1052F00001210170FEF78AFEBDE8F1832DE9F0413E
:10530000BF4CC04FBD4D287F012806D0032800F0B8
:10531000AC80042800F0A580AAE0207A216840181B
:1053200000F0CFF894F82E104A09B94E3078032ACD
:1053300036D12978890704D4032820D30FF2F0301E
:105340001BE094F82B1094F86C20914211D194F842
:10535000291094F89C2091420BD194F82C1094F8C9
:105360009E20914205D194F82D1094F89F209142EF
:105370000BD0032803D30FF2FC30FCF78BFB206823
:10538000FCF717FD0020287772E0032824BF0FF2F6
:10539000CC30FCF77FFB286820F002002860EEE7A5
:1053A000CAB9490717D52978490629D594F82C1088
:1053B00094F89E20914204D00328E0D30FF20840D5
:1053C000DBE7032824BF0FF2D830FCF763FB286823
:1053D00040F020002860A08B934908182DD1307828
:1053E000032824BF0FF26840FCF754FB94F82E000A
:1053F0004109012901D0022907D100F04DFD1EE02D
:105400000328BCD30FF20040B7E7327881B94007D8
:1054100007D401203871386840F00100386003205B
:10542000B1E7032A0CD30FF24440FCF733FB07E04B
:10543000032A05D30FF26040F7E7FEF77CF88046B9
:105440002068FCF7B6FC94F82E00C0069AD55FFAE7
:1054500088F0002896D1286840F0040028600420D5
:1054600091E72878400703D48CE73878C00786D5C1
:10547000BDE8F0816148007F00B10120704730B580
:105480005F4C6A4D2868206028792071687A207204
:1054900004F10C0005F11401102200F036FA288AFC
:1054A00008382084E88EA086207A21684018007A87
:1054B00084F85700002084F8240050480121017727
:1054C00030BD10B54E4901F20A0210F8013B1B0233
:1054D0009382938A10F8014BE318938210F8013BF2
:1054E0001B025382538A10F8014BE318538210F8C1
:1054F000013B1B02D382D38A10F8014BE318D382FD
:10550000D38A083BD382801C01F22B0310F8014B95
:10551000DC7010F8014B9C7010F8014B5C7010F8B7
:10552000013BD37710F8013B81F82B300D238B72B0
:10553000D28A521F81F86020C86510BD38B52F4C43
:105540002068010756D531490978002952D13149DF
:10555000097D002904D020F00A002060617731BD68
:10556000800706D4206820F00800206000206077C3
:1055700031BDFBF7FBFE2169A268801A0002B1EB86
:10558000102F37D2E08A38B1401EE08280B218B1C5
:10559000FBF7ECFEA06031BD1D4D287818B10FF26D
:1055A0002830FCF777FA607E401E6076C0B260B9A2
:1055B000206820F008002060287800281AD00FF218
:1055C0001830BDE83240FCF765BA0F4D0C4890F832
:1055D000A0102976D0F8A4006861FBF7C7FEA06090
:1055E000A08AE08268690021C17168698171012027
:1055F000FFF7CFFD31BD00009C250020BC25002019
:105600007421002030260020DC25002038250020D1
:105610009B2600202025002091D602004423002054
:10562000FC23002070200020500FFFFFC423002027
:105630004D503A20496E76616C6964205245414470
:1056400020726571756573742E200A004D503A20E2
:10565000496E76616C6964205752495445207265E1
:1056600071756573742E200A000000004D503A20B9
:10567000496E76616C696420455845435554452010
:10568000726571756573742E200A00004D503A20C2
:10569000496E76616C6964206F7065726174696FC0
:1056A0006E206D6574686F642E200A0053656E6409
:1056B000696E67204D502052656164205265737099
:1056C0006F6E73650A00000053656E64696E672033
:1056D0004D5020577269746520526573706F6E73F8
:1056E000650A000053656E64696E67204D50204561
:1056F00078656375746520526573706F6E73650AA3
:10570000000000004150533A20436C69656E742FCD
:105710005365727665722077616974207265737063
:105720006F6E73652074696D656F75740A00000093
:105730004150533A20526563656976656420756E01
:1057400065787065637465642041434B2C206469FF
:105750007363617264696E672E0A00004150533AA8
:10576000205265636569766564204150532061630A
:105770006B0A00004150533A2052656365697665B3
:10578000642041434B2C20646964206E6F74206D4B
:10579000617463682065787065637465642E0A00BF
:1057A0004150533A20526563656976656420436CC5
:1057B00069656E742F5365727665722052657370D9
:1057C0006F6E7365210A00004150533A20526563A1
:1057D000656976656420436C69656E742F536572E4
:1057E00076657220526573706F6E732C206E6F74C5
:1057F000206D617463682C206469736361726469ED
:105800006E67210A000000004150533A2052656340
:10581000656976656420436C69656E742F536572A3
:1058200076657220526573706F6E732C206E6F7484
:105830002072657175657374206265666F72652C80
:105840002064697363617264696E67210A000000F5
:105850004150533A205265636569766564204D5026
:10586000206672616D652E0A000000004D503A20DE
:105870004E6F7420737570706F72742068616E64FF
:105880006C6520435320726573706F6E7365206E74
:105890006F772E0A000000004D503A2057726F6E4D
:1058A00067207365727669636520747970652E0A66
:1058B000000000004150533A466F726D6174746588
:1058C000642061636B0A00004150533A2054582011
:1058D00072657472790A0000415053205458205266
:1058E000657472792065786365656465640A000093
:1058F0004AB38B0707D0521E11F8013B00F8013B59
:1059000021D08B07F7D183071ED1103A07D330B4CB
:10591000B1E83810103AA0E83810F9D230BC53077B
:1059200024BFB1E80810A0E8081044BF51F8043BB8
:1059300040F8043BD20724BF31F8022B20F8022B99
:1059400044BF0B7803707047083A07D3B1E80810DA
:10595000083A40F8043B40F804CBF7D25307E4E799
:1059600062F30F2262F31F4200B51300964694467D
:10597000103928BFA0E80C50FAD85FEA417C28BF54
:105980000CC048BF40F8042BC90728BF20F8022BE1
:1059900048BF00F8012B00BD0300002013F0030FE7
:1059A00009D0521E22BF13F8010B11F801CBB0EB46
:1059B0000C00F3D07047121F22BF53F8040B51F8AC
:1059C00004CB6045F7D0121D0AD200BA9CFA8CFCB9
:1059D000B0EB0C0038BF6FF0000088BF01207047AB
:1059E000521E22BF13F8010B11F801CBB0EB0C00D3
:1059F000F6D0521C08BF10467047000010B5744C1A
:105A0000062121700021617061607249097E218147
:105A10003A21A17270490979E1721022014604F11C
:105A20001C00FFF765FF04F11C0104F10C00BDE848
:105A30001040FEF783B938B50446664D6748686183
:105A40000020002106E01170C9B2FF2908BF002123
:105A5000401C491C6A69521E80B2A0426A61F2D39E
:105A6000002010706869401E68610021017068693B
:105A7000401E6861FBF783FC6969087069695848D2
:105A800011F801298280696166220A70818801F516
:105A9000CC4181806969491E696100220A70696987
:105AA000491E69610A706969491E69610A706969FC
:105AB000491E696180220A7004F1080129760021DB
:105AC000C1804849498A018104F130004649088073
:105AD00031BD10B54548417A00680818001D10F81E
