:020000040800F2
:10000000C02F0020E1780008F9760008FB76000890
:10001000FD760008FF760008017700080000000068
:10002000000000000000000000000000037700084E
:10003000057700080000000007770008097700082E
:100040002179000825790008297900082D79000810
:1000500031790008357900083D7800083D790008BD
:100060004179000845790008497900084D79000870
:100070005179000855790008597900085D79000820
:100080006179000865790008697900086D790008D0
:100090007179000875790008797900080B770008F4
:1000A0008179000885790008897900084578000879
:1000B000B177000895790008997900089D790008C2
:1000C000A1790008A5790008A9790008AD79000890
:1000D000B17900082377000881770008BD7900080E
:1000E000C1790008C5790008C979000880B5DFF832
:1000F000CC0A00210170DFF8C80A00210170DFF886
:10010000280D00210182DFF8200D00214160DFF879
:10011000180D002180F82C10DFF80C0D002180F85C
:100120002D10DFF8040D41F247314182DFF8F80C61
:100130000321C17501F0D0FADFF8EC0C0021417504
:10014000DFF8E40CFF2180F82410DFF8DC0C00213C
:100150008175DFF8D40C807D50F00200DFF8C81CF8
:100160008875DFF8C40C807D50F00400DFF8B81CFF
:100170008875DFF8B40C807D50F00800DFF8A81C0B
:100180008875DFF8A40C807D50F08000DFF8981CA3
:10019000887501BD80B5DFF89C0C02210170DFF885
:1001A000940C01214170DFF88C0C40780B2805D2AB
:1001B000DFF8740C4FF41671016004E0DFF8680C8E
:1001C0004FF416710160DFF8640C01210170DFF853
:1001D0005C0C406840084000DFF8501C4860DFF8C5
:1001E0004C0C406850F00200DFF8401C4860DFF81B
:1001F0003C0C02210172DFF8380C0121017001F082
:10020000A5FC41F2473000F008F84FF6FF7001F00E
:100210005FFEDFF8180C007A02BD80B5DFF8081C1D
:100220004882DFF8040C408A01F051FE01BD80B520
:10023000DFF8001C4870C0B201F01FFE01BD10B510
:100240000400200080B201F057FA200080B201F0D3
:100250003FFE10BD80B5DFF8400D0078002805D1C5
:10026000DFF8C40B4FF41671016004E0DFF8B80B3F
:100270004FF41671016001F069FCDFF8AC0B4068C7
:10028000C0F3C010C00701D500F007FC00F0D6FD98
:10029000DFF8080D0078002821D0FFF77BFFDFF89A
:1002A000FC0C002101701AE0DFF8880BC068C0F375
:1002B0004000C00758D4DFF87C0BC06850F0020043
:1002C000DFF8701BC860DFF8F40809210170DFF85F
:1002D000580B406830F48060DFF84C1B4860DFF852
:1002E000DC080078002819D0022800F07C82C0F0D9
:1002F0008E80042800F0A482C0F08882062800F0D6
:100300003582C0F00182082800F0C981C0F09581D3
:100310000A2800F0D782C0F0AF8219E3DFF8080B9B
:100320004068C0F38020C00770D5DFF8740C807E71
:10033000DFF86C1C09680968405CC0B2012830D045
:10034000062812D0072859D1DFF8DC0A007910F00E
:100350000100C0B20028A7D1DFF8CC0A406830F411
:100360008060DFF8C41A486050E0DFF8C80AC0684F
:10037000C0F34000C00714D4DFF8B80AC06850F0DA
:100380000200DFF8B01AC860DFF8300804210170FD
:10039000DFF8940A406830F48060DFF88C1A486017
:1003A0009DE7DFF8840A007910F00100C0B2002850
:1003B0001BD0DFF8800AC068C0F34000C0071CD41F
:1003C000DFF8700AC06850F00200DFF8681AC860F1
:1003D000DFF8E8070A210170DFF84C0A406830F4C2
:1003E0008060DFF8441A486079E7DFF83C0A40682B
:1003F00030F48060DFF8301A486007E0DFF8280A40
:10040000406830F48060DFF8201A4860A0E2DFF82E
:10041000C40C0078032816D0C0F00E81052800F027
:10042000C58017D3072834D073D3082840F004813F
:10043000DFF8A00CDFF89C1C89780171DFF87C07DD
:1004400000210170F8E000F0BDFBDFF87007022129
:100450000170F1E0DFF8D009406850F08000DFF86B
:10046000C8194860DFF8700C0A210170DFF8BC0978
:1004700002210170DFF8B40902210172DFF8B0092E
:100480000121017001F062FBDFF8300702210170E9
:10049000D2E0DFF8A009C068C0F34000C00700F157
:1004A000CB80DFF89009C06850F00200DFF88419B3
:1004B000C860DFF8280C03218173DFF8200CC82105
:1004C000C173DFF8180C4FF6FF714180DFF80C0C98
:1004D0004FF6FF710180DFF8040C4FF6FF71418188
:1004E00000F07AFFDFF84009406830F40050DFF890
:1004F00038194860DFF83009406850F48040DFF870
:100500002819486000F05EFBDFF8B0060521017095
:1005100092E0DFF81409406830F48070DFF80819C1
:100520004860DFF81009C068C0F34000C00700F160
:100530008380DFF80009C06850F00200DFF8F4188B
:10054000C860DFF8E40840684FF400710843DFF842
:10055000D8184860DFF87C0B807801F08EFCDFF85B
:10056000D408DFF8101D4161DFF8C8084069072191
:100570000170DFF8C00801210176DFF8600B43212C
:100580008173DFF8580B0821C173DFF8500B4FF669
:10059000FF714180DFF8440B41F24731018000F0E8
:1005A00011FBDFF818060321017045E0DFF884082D
:1005B000C068C0F34000C0073ED4DFF87808C068C8
:1005C00050F00200DFF86C18C860DFF8080B807884
:1005D00001F053FCDFF85008406830F40060DFF8A9
:1005E0004818486000F0D4FEDFF8F00A2321817338
:1005F000DFF8E80AC821C173DFF8E00ADFF828183D
:10060000C98C4180DFF82008008DDFF8D01A0880FF
:10061000DFF81408406850F48050DFF80C18486088
:10062000DFF8B80A4FF6FF71418100F0CBFADFF82E
:100630008C0507210170FFE78AE1DFF8EC074068CD
:10064000C0F3C010C00700F18381DFF8E807C0687D
:1006500030F00200DFF8DC17C860DFF87C0A0078B1
:10066000002812D0DFF86C0ADFF86C1A09780171E3
:10067000DFF8B407406830F48050DFF8AC1748600A
:10068000DFF838050021017062E101F0B2FBDFF80C
:10069000FC1C0860DFF824050821017058E1DFF830
:1006A00088074068C0F3C020C00710D5DFF8240ACF
:1006B00000210171DFF87007406830F48050DFF8E6
:1006C00068174860DFF8F404002101701BE001F0B6
:1006D00090FBDFF8B81C0968401A0002000A43F2D8
:1006E000710188420FD3DFF8EC090D210171DFF8A9
:1006F0003807406830F48050DFF82C174860DFF886
:10070000BC040021017023E1DFF81C074068C0F33E
:10071000C010C00700F11C81DFF81807C06830F076
:100720000200DFF81017C860DFF8AC090078002875
:1007300012D0DFF8F406406830F48040DFF8E816A5
:100740004860DFF89009DFF8901909780171DFF847
:100750006C0400210170FBE001F04BFBDFF82C1C66
:100760000860DFF8580406210170F1E0DFF8B806F0
:100770004068C0F34030C00718D5DFF858090021A1
:100780000171DFF8A406406830F48040DFF8981665
:100790004860DFF89406406830F40050DFF88816AF
:1007A0004860DFF81804002101701BE001F021FB14
:1007B000DFF8D81B0968401A0002000A43F27101F1
:1007C00088420FD3DFF80C090E210171DFF85806BB
:1007D000406830F48040DFF850164860DFF8DC03F2
:1007E00000210170B4E0DFF840064068C0F3C0109B
:1007F000C00700F1AD80DFF8DC08DFF8DC1809780D
:100800000171DFF8B80300210170A1E0DFF81806DC
:100810004068C0F3C010C00700F19A80DFF8B40848
:10082000DFF8B41809780171E44800210170DFF89D
:100830000406C06830F00200DFF8F815C86087E0F1
:10084000DFF8540C01F03AF800280BD1DB48002106
:100850000170DFF8E005C06830F00200DFF8D41561
:10086000C86075E000780A21DFF8CC2501FB002084
:10087000008800F0BDFD27E0DFF81C0700780328A2
:1008800004D3DFF8A405408A01F0B9FD00F028FC8C
:10089000DFF8480800218173DFF840088021C17328
:1008A000DFF83808DFF8901509888181DFF82C0817
:1008B000DFF87415498A418100F084F9BF480321AB
:1008C000017045E000F0EAFDDFF810082321817394
:1008D000DFF80808CC21C173DFF80008DFF8C01684
:1008E000897C8170DFF8F407DFF8B416C97CC17029
:1008F000DFF8E807DFF8A816097D0171DFF8DC07EB
:10090000DFF89C16497D4171DFF8D007DFF89016BB
:10091000897D8171DFF8C407DFF88416C97DC17154
:10092000DFF8B807DFF87816097E0172DFF8AC0748
:10093000DFF86C16497E4172DFF8EC04408ADFF87C
:100940009C17088000F03EF99C4803210170FFE7E6
:1009500001BD70470278052A13D1427812F00302D4
:10096000022A0ED1C078DFF8C014097D88422FD149
:10097000DFF8B404406830F04000DFF8AC144860A1
:1009800026E0DFF8A42492F82D20521CDFF89834DA
:1009900083F82D20DFF8902492F82D200B2A04D123
:1009A000DFF88424002382F82D30DFF87C2492F8CD
:1009B0002D20DFF8743413EBC2021063DFF86804F3
:1009C00090F82D00DFF8602412EBC00080F834109E
:1009D0007047DFF8540490F82D00401CC0B20B287B
:1009E00000D10020DFF8401491F82C10C0B28842EA
:1009F00001D1012000E00020C0B27047DFF82804D8
:100A000090F82C00DFF8201491F82D10884201D1C5
:100A1000012000E00020C0B27047DFF8980C90F889
:100A20002C00DFF8901C91F82D10884201D1002095
:100A30000EE0DFF8800C90F82C00401CC0B20B28B0
:100A400000D10020C0B2DFF86C1C11EBC0003030C8
:100A5000704780B5DFF85C1C91F82C10491CDFF85A
:100A6000542C82F82C10DFF84C1C91F82C100B2918
:100A700004D1DFF8401C002281F82C20C0B20028ED
:100A80000AD0DFF8300C90F82C00DFF8281C11EBAE
:100A9000C000006B01F096FD01BD80B5DFF8140CBD
:100AA0004068C0F3C010C00740F18680DFF88003C3
:100AB0000078002840F08080DFF87003007A00287A
:100AC00035D0DFF8F00B90F82B00002808D0DFF8C5
:100AD000E40B90F82B00401EDFF8D81B81F82B00A8
:100AE000DFF8D00B90F82B0000280AD0DFF8C40BF9
:100AF000406830F04000DFF8BC1B486000F062F84E
:100B00005AE0DFF8B00B406830F04000DFF8A41B7B
:100B10004860DFF8A00B406830F08000DFF8941BDD
:100B20004860C248007ADFF8B015087044E0DFF88A
:100B3000840B4068C0F38010C0070CD4DFF8740B3E
:100B4000406830F08000DFF86C1B4860DFF88805F3
:100B50000021017030E001F04CF9DFF8581B096802
:100B6000DFF8502BD269801A0002000A814223D29A
:100B7000DFF8400B90F82B00002808D0DFF8340B8A
:100B800090F82B00401EDFF82C1B81F82B00DFF8BB
:100B9000240B90F82B0000280CD1DFF83C050B212A
:100BA0000170DFF8100B406830F08000DFF8041BA4
:100BB000486001E000F006F801BD0000B42B002001
:100BC000B32B002038B598484068C0F3C010C00768
:100BD00000F11D81DFF80405C07BC0F38104DFF85C
:100BE000FC04C07BC0B285098F48408A4FF6FE7175
:100BF000884213D1EDB2022D10D10325DFF8DC04B9
:100C0000C07B10F03F00DFF8D414C873DFF8CC04C9
:100C1000C07B50F0C000DFF8C414C873EDB22800E8
:100C2000002804D0022803D003281FD02EE02DE096
:100C300080484069401E7F494861DFF8A0048089F0
:100C400080B2000A7B49496908707A484069401EB1
:100C50007849486177484069DFF8801489890170D4
:100C60007448007E801C734908760FE07148406923
:100C7000083801F01AF96F48007E08306D4908768F
:100C80006C48406908386B494861FFE7DFF84C045D
:100C9000807B40061FD4EDB2002D1CD06548406912
:100CA000401E64494861DFF83404408980B2000A7C
:100CB0006049496908705F484069401E5D49486164
:100CC0005C484069DFF81414498901705948007E76
:100CD000801C58490876E4B22000002804D002287D
:100CE00003D003281FD038E037E052484069401E47
:100CF00050494861DFF8E403408880B2000A4D495A
:100D0000496908704B484069401E4A494861494852
:100D10004069DFF8C813498801704648007E801C8E
:100D20004449087619E000200EE042494969491E0D
:100D3000404A5161C0B24142DFF8A0238918497A84
:100D40003C4A52691170401CC0B20828EDD33948A2
:100D5000007E083037490876FFE7E4B2002C1BD04C
:100D600034484069401E3349486132484069DFF8E1
:100D70006C13098889B2090A01702E484069401E27
:100D80002C4948612B484069D44909880170294899
:100D9000007E801C2749087601F038F82249087542
:100DA00024484069401E23494861224840691E4941
:100DB000097D01701F484069401E1E4948611D4859
:100DC0004069C649C97B01701A484069401E1949EB
:100DD000486118484069C149897B01701548007E07
:100DE000C01C144908761048406830F040000E4995
:100DF00048600D48406850F080000B4948600A4840
:100E00000949C97D80F82B10B3480A2101700748B1
:100E1000022101700548022101720548012101707B
:100E200000F094FE31BD000034270020542B002038
:100E3000BA2B0020982A00201820002010B508E0C6
:100E400000F0D7FFDFF86C180862DFF86C080121AA
:100E50000170DFF864080078002804D0022800F050
:100E60008A807AD396E0FFF7C9FD002840F092808F
:100E7000FFF7D3FD040020684078032108420AD11F
:100E8000DFF830084068C0F34020C00703D40120D9
:100E9000FFF7DFFD7EE02068407810F003000228B5
:100EA00003D10120FFF7D5FD74E03D48046000F058
:100EB00079F8206840780321084205D100F0DCF978
:100EC0000120FFF7C6FD65E000F0B4FB002803D168
:100ED0000120FFF7BEFD5DE02068407810F00300C0
:100EE000012807D100F05EFB0028A9D10120FFF7FF
:100EF000B0FD4FE02A48807E294909680968405CB6
:100F0000C0B20100012910D0022906D006290CD058
:100F100007290AD0082904D014E00120FFF799FD21
:100F20001AE00120FFF795FD16E0DFF8880740681A
:100F300050F48060DFF87C174860DFF87C070221FE
:100F4000017009E014490978032902D3C0B201F005
:100F500051FA0120FFF77DFD1CE001F042FE002860
:100F600018D101F048FE0020FFF773FDDFF84807B5
:100F7000002101700EE0DFF83C074068C0F38020DC
:100F8000C00707D40120FFF764FDDFF82C0700211C
:100F90000170FFE710BD0000AE2B0020A62B002043
:100FA0007C2A002030B4DFF81407006800680121B3
:100FB000401CDFF8082703781371401CDFF8FC267B
:100FC00003785371401CDFF8F4265279C2F3810391
:100FD000DFF8E8265279D2B29209401CC91CDBB274
:100FE000002B0FD0DFF8D4460578E580401CDFF8F1
:100FF000CC46E488057814EB0524DFF8C056EC8075
:10100000401C891CDBB2022B10D1DFF8B03604780B
:101010001C81401CDFF8A4361B89047813EB0423E1
:10102000DFF898462381401C891C10E0DBB2032BBB
:101030000DD1002307E0DBB2DFF880461C190578EC
:101040002572401C5B1CDBB2082BF4D30831DFF89F
:101050006C361B795B0612D4D2B2002A0FD0DFF8AF
:101060005C3604781C82401CDFF850361B8A0478FA
:1010700013EB0423DFF844462382401C891CD2B2C0
:10108000022A10D1DFF8342603785382401CDFF89F
:101090002C26528A037812EB0322DFF820365A827C
:1010A000401C891C10E0D2B2032A0DD1002307E0B6
:1010B000DBB2DFF808269A1804789474401C5B1C95
:1010C000DBB2082BF4D30831DFF8F005817630BCB1
:1010D00070470000602B0020B52B0020142B00204F
:1010E000DFF8DC05DFF8DC154161DFF8D405406985
:1010F000401EDFF8CC154861DFF8C40540690021C7
:101100000170DFF8BC054069401EDFF8B415486186
:10111000DFF8AC05406900210170DFF8A4054069E3
:10112000401EDFF89C154861DFF8940540690021F6
:101130000170DFF88C054069401EDFF884154861B6
:10114000DFF8700590F88C00242805D1DFF87005D1
:1011500040690021017004E0DFF864054069012165
:101160000170DFF85C054069401EDFF854154861E6
:10117000DFF84C054069DFF83C15497D0170DFF868
:1011800040054069401EDFF838154861DFF8240546
:1011900090F88D00042805D1DFF82405406900216E
:1011A000017004E0DFF81805406901210170DFF8E3
:1011B00010054069401EDFF808154861DFF800059A
:1011C000406900210170DFF8F8044069401EDFF833
:1011D000F0144861DFF8E804406900210170DFF88D
:1011E000E0044069401EDFF8D8144861DFF8D004FD
:1011F000406900210170DFF8C8044069401EDFF833
:10120000C0144861DFF8B804406900210170DFF8BC
:10121000B0044069401EDFF8A8144861DFF8A0045C
:101220004069002101704020DFF88814097911F02D
:101230000101C9B2002901D050F08000DFF880140C
:101240004969491EDFF878245161DFF8741449694F
:101250000870DFF86C044069401EDFF864144861D0
:10126000DFF85C044069FF210170DFF854040D21B0
:10127000017670474228002080B5DFF840040068FE
:1012800000680078DFF83414897E401AC01E0D28EB
:101290007BD1DFF82804807EDFF820140968096814
:1012A00040184178090670D5001D017800296CD1DD
:1012B000401C0178002968D1401C0178002964D1C4
:1012C000401C0178002960D0401C0178401C401C63
:1012D00000F20300DFF8DC2392F82420FF2A09D073
:1012E000DFF8D00390F82A00DFF8D02312681279D3
:1012F000904241D2DFF8BC0380F82410DFF8B40339
:10130000DFF8B8130968097980F82A10DFF8A40318
:10131000DFF8A813498AC184DFF89803DFF89C132B
:10132000098A0185DFF8A0030078032804D3DFF8D9
:101330008403008D01F063F8DFF88C030078032844
:1013400004D3DFF87003C08C01F059F8DFF878039C
:101350000078032805D3DFF85C0390F82A0001F039
:1013600049F8DFF864030078032805D3DFF8440365
:1013700090F8240001F03EF8DFF8380340684FF49D
:1013800080710843DFF82C13486001BD882B0020D2
:10139000DFF82C03DFF82C134161DFF824034069E8
:1013A000401EDFF81C134861DFF814034069DFF8C2
:1013B0000413897D0170DFF808034069401EDFF8DF
:1013C00000134861DFF8F802406901210170DFF87D
:1013D000F002022101767047B948DFF8F01241614E
:1013E000B748406906210170B54801210176704770
:1013F000B349B64A4A61B249496980B2020A0A70E1
:10140000AF494969491EAE4A5161AD494969087001
:10141000AB484069401EAA494861A9484069A849AB
:1014200049780170A6484069401EA5494861A44812
:101430004069A749098889B2090A0170A048406932
:10144000401E9F4948619E484069A1490988017032
:101450009B484069401E9A4948619648408A80B23C
:10146000000A97494969087095484069401E9449A7
:101470004861934840698F49498A017090484069A2
:10148000401E8F4948618E484069082101708C4890
:1014900008210176704700008E2A002038B54FF6EB
:1014A000FF74022585480068006800788349897EBA
:1014B000401AC01E81490968096809787F4A927EEE
:1014C000891AC91E02293DD1824800F0F7F9002887
:1014D00007D000780A217E4A01FB002004880025FD
:1014E00030E07648807E754909680968401845787B
:1014F0002900C9B2774801F0FCFF002801D102257C
:1015000020E0A80704D56B4890F88D00042806D089
:10151000A80706D4674890F88C00242801D101253B
:1015200010E02900C9B26B4800F01EFA04004FF623
:10153000FF70A4B2844201D1012503E00025654873
:1015400001F0D9FFEDB2002D07D05F4800780328E5
:1015500003D32800C0B200F04DFF59485B494161F8
:1015600057484069057056484069401E54494861D3
:1015700053484069A4B2210A017051484069401E95
:101580004F4948614E48406904704D484069401ECB
:101590004B4948614A48406902210170484804218A
:1015A000017631BD80B545484079C0F38100C0B2B5
:1015B000032801D101203CE040484079C0B28009B5
:1015C000C0B2022807D13D49498A3A4A128A91425B
:1015D00019D101202DE0C0B2032814D1002100E070
:1015E000491CC9B2082909D2C9B2344A8A18927C66
:1015F000C9B2304BCB181B7A9A42F1D0C9B2082934
:1016000001D1012015E0C0B2022807D12B48408A41
:1016100000F037F900280BD001200AE0C0B20328FF
:1016200006D12C4800F04AF9002801D0012000E042
:10163000002002BD21484079C0F38100C0B20328D8
:1016400023D11E48007A00281BD11C48407A51281B
:1016500017D11A48807A502813D11848C07A4028E8
:101660000FD11648007B30280BD11448407B20282E
:1016700007D11248807B102803D11048C07B002876
:1016800001D0002014E0012012E0C0B202280FD1E6
:101690000A4800890E490988884207D0074800890E
:1016A0004FF6FF71884201D0002001E00120FFE7E2
:1016B0007047000034270020B32B00207C2A002034
:1016C000982A002043280020AE2B0020422800202A
:1016D000182000208E2A0020002009E0C0B20A2134
:1016E000DFF8382401FB00214FF6FF720A80401C0E
:1016F000C0B25028F2D370471CB5040000A800F017
:10170000C3FB210089B200A800F03BF813BDF0B480
:10171000002300E05B1CDBB2502B2FD2DBB20A248B
:10172000DFF8F85304FB035424884FF6FF75AC42EE
:10173000F0D0DBB20A24DFF8E45304FB035424881E
:1017400089B28C42E6D10500DBB20A24DFF8CC6313
:1017500004FB0364A61C002402E06D1C761C641CC0
:10176000E4B2082C04D22F7896F800C06745F4D074
:10177000E4B2082CCED11370012000E00020F0BCB0
:10178000704738B504000D0000AA290089B2200076
:10179000FFF7BDFF002808D09DF800000A21DFF800
:1017A0007C2301FB0020008833E000208DF800003E
:1017B00004E09DF80000401C8DF800009DF800003A
:1017C00050280BD29DF800000A21DFF8502301FBBE
:1017D000002000884FF6FF718842EAD19DF8000092
:1017E000502802D14FF6FF7013E0082221009DF827
:1017F00000000A23DFF8244303FB0040801C00F0B4
:101800008BFA9DF800000A21C44A01FB00200580E4
:10181000002032BDC0B201280FD024D3032812D03B
:101820000ED3052813D010D3072814D011D30928BC
:1018300015D012D30A2814D015E040F6495013E011
:1018400040F2493010E0C9200EE029200CE00120D0
:101850000AE0002008E0002006E0002004E000206C
:1018600002E0002000E00020704710B504000800EE
:10187000C0B2FFF7CFFF80B214EB8000243080B2FB
:1018800010BD30B4A649002201E0521C0831D2B28A
:10189000282A10D20B7913F00103DBB2002BF4D00D
:1018A0000B780A249D4D04FB03531B8880B28342AE
:1018B000EBD1080000E0002030BC704770B49849BC
:1018C000002201E0521C0831D2B2282A1CD20B7926
:1018D00013F00103DBB2002BF4D0002300E05B1C0B
:1018E000DBB2082B0BD2DBB20C780A258B4E05FB42
:1018F00004641C19A478DBB21D5CAC42EFD0DBB2EF
:10190000082BDFD1080000E0002070BC704780B5D4
:101910008348002103E000220271491C0830C9B24B
:101920002829F8D3FFF7D8FE01BD10B57D48002166
:1019300080F88C107B48002180F88D10774804884F
:101940007848407D401CC0B2FFF764FF80B214EBC2
:101950008000401C7349A1F8880072486F490988CB
:10196000491CA0F88A1010BD70B504006C4D002011
:1019700001E0401C0835C0B2282805D22A7912F0AF
:101980000102D2B2002AF4D1C0B2282802D14FF607
:10199000FF706CE0002000E0401CC0B2502809D26B
:1019A000C0B20A225D4B02FB003212884FF6FF7371
:1019B0009A42F1D1C0B2502802D14FF6FF7056E0E2
:1019C0002870686850F001006860686830F0FE00B8
:1019D0006860697088071DD528780A214F4A01FB85
:1019E00000205049B1F88A1001804E48B0F88A6052
:1019F0004C48407D401CC0B2FFF70CFF801949499C
:101A0000A1F88A00474890F88D00401C454981F8AC
:101A10008D0016E028780A21404A01FB0020414948
:101A2000B1F8881001803F48B0F88800401C3D495B
:101A3000A1F888003B4890F88C00401C394981F897
:101A40008C0028780A21354A01FB0020811C0020E7
:101A500004E022780A70491C641C401CC0B20828AB
:101A6000F7D328780A212D4A01FB0020008870BD99
:101A700070B5040029480088A4B2844202D14FF610
:101A8000FF7048E0A4B2002C02D12648008A42E050
:101A9000234E002501E06D1C0836EDB2282D38D20A
:101AA000307910F00100C0B20028F4D070788007BF
:101AB0001FD51C48407D811CC9B230780A22174BC3
:101AC00002FB00300088FFF7D0FE31780A22134B6A
:101AD00002FB01310988A4B28C42DCD380B2A4B2EB
:101AE000A042D8D330780A210C4A01FB002000889C
:101AF00011E030780A21094A01FB00200088A4B2D5
:101B00008442C8D130780A21044A01FB00200088B1
:101B100001E04FF6FF7070BD0000000018200020AB
:101B2000382300203427002080B500F0EFFC3C482B
:101B3000002101703B480021017301BD7047394805
:101B4000C06850F001003749C860704738B5344864
:101B50000078002803D0022845D001D35FE05EE082
:101B600031480078012802D002280ED03AE02E48F1
:101B700042682C4841782B48007800F0B6F92A4991
:101B800008722748002101702CE02648C0684008F0
:101B900040002449C86023484569002408E02348E0
:101BA0000078032802D3287800F024FC6D1C641C04
:101BB0001C48007EA4B280B28442F0D31948416927
:101BC0001848007E00F0E3F9174908721648007AB9
:101BD000002803D112480221017002E010480021C0
:101BE0000170FFE71BE00F48007B10F00100C0B25E
:101BF000002803D00A48002101700FE000F0F9F836
:101C000008490969401A0002000AB0F5967F05D913
:101C1000054806210172024800210170FFE731BD2D
:101C2000BA2B0020982A0020542B0020AE2B002035
:101C300080B5DFF88807002101704FF4C06001F023
:101C400083FC00F007F800F071F800F08EFB00F064
:101C500040F901BD00B587B00121052001F020FD4C
:101C600001214FF4804001F01BFD25208DF8040078
:101C700001208DF8050007208DF8060001208DF861
:101C8000070001A801F065FCDFF8340700210170AE
:101C9000DFF83007002101704FF48060ADF80000DC
:101CA00004208DF8030000A9DFF81C0701F026FDD1
:101CB0004FF40070ADF8000003208DF802001820EA
:101CC0008DF8030000A9DFF8000701F017FD5FF4AD
:101CD000E13002900020ADF80C000020ADF80E00BD
:101CE0000020ADF810000020ADF814000C20ADF875
:101CF000120002A9DFF8D40601F0ACFD012240F287
:101D00002551DFF8C80601F015FE0121DFF8BC06F9
:101D100001F002FE07B000BD04E00B780370401C28
:101D2000491C521ED2B2002AF7D1704710B588B0B4
:101D30004FF4A06001F04AFC0121012001F0C0FC39
:101D40001C208DF8000000208DF8010000208DF887
:101D5000020001208DF8030000A801F0FAFBDFF873
:101D600070060068C000DFF86C16B0FBF1F0441E8E
:101D70004FF6FF70ADF808000020ADF80400002019
:101D8000ADF80A000020ADF8060001A95FF0804020
:101D900001F054FE0122210089B25FF0804001F081
:101DA000FEFE0020ADF810000120ADF812004FF249
:101DB0002440ADF816000020ADF8180004A95FF02B
:101DC000804001F085FE00215FF0804001F0EAFED6
:101DD000012203215FF0804001F0D5FEDFF8F80515
:101DE0000021017001215FF0804001F0BEFE08B0CB
:101DF00010BD80B55FF0804001F0E1FEDFF8D8153E
:101E0000097810EB01400002000A02BD80B55FF0C6
:101E1000804001F0D4FEC0B202BD10B50C00C0B2CB
:101E2000022801D0012027E0E4B2042C01D30120D4
:101E300022E0032300221F21022002F01CF805E00B
:101E4000032300221F21022002F015F8012001F0D7
:101E5000B5FF10F00F000828F2D1E4B2600010F1D5
:101E60000B01C9B2132001F0C8FF0421142001F0B6
:101E7000C4FF02F041F9002010BD80B50100C9B2D5
:101E80000220FFF7CAFF02BD00210170102141703E
:101E9000202181703021C170402101715021417198
:101EA000512181710021C1717047002101705121C0
:101EB0004170502181704021C17030210171202179
:101EC0004171102181710021C171704770477047C5
:101ED000704780B501F0B2FE01F0D7FE01F0FEFEC2
:101EE00002F021F801F02FFF01BD70B504000D00D4
:101EF000160002F018F82900C9B22000C0B2FFF79E
:101F00008CFFC0B2002801D0C0B20BE002F0F4F8A0
:101F1000DFF8C80403210170DFF8A0040660FFF7B2
:101F2000D5FF002070BDF8B500240025E4B2002CD8
:101F30001CD02000012601E07600401EC0B200281F
:101F4000FAD1FFF763FF711E0840002601E0143646
:101F5000401EC0B20028FAD1FFF74BFF0700FFF781
:101F600048FFC01B0002000AB042F8D302F010F98B
:101F7000002801D0012009E06D1C641CE4B2062C8D
:101F800000D30524EDB2052DD0D30020F2BDF8B565
:101F900004000D0000262700DFF84804007803281D
:101FA00003D32000C0B200F025FAE4B2802C01D3A4
:101FB000042035E002F0C8F805E0092300221F21C3
:101FC000022001F058FF012001F0F8FE10F00F0090
:101FD0000928F2D1FFF7A7FF002819D002F0B4F8C2
:101FE0002900B81CC0B201F07CFF022300221F218F
:101FF000022001F040FF012001F0E0FE10F00F0090
:102000000928F8D1FFF79BFDFEF7A3FC002600E0AE
:102010000726002000F0BCF902F06EF83000C0B2D4
:10202000F2BD2DE9FC41804600270025002401F087
:1020300045FF0600F6B2802E80F0AC805FFA88F88B
:10204000B8F1FF0F0ED05FFA88F8B8F1C90F09D0C8
:102050005FFA88F8B8F18F0F04D05FFA88F8B8F10A
:10206000190F0ED15FF0000804E0FF2002F0DCF849
:1020700018F101085FFA88F8F6B2B01C8045F4DB6D
:1020800088E0DFF864030088401CDFF85C130880F8
:10209000012000F07DF9FEF79CFC002808D1F6B283
:1020A000F01C80B200F045FA0400002C01D171E070
:1020B00070E02500B01C28706D1C5FF0000806E081
:1020C000FF2002F0B1F828706D1C18F101085FFACA
:1020D00088F8F6B2B01C8045F2DB1021DFF8E80288
:1020E00001F088FBF6B2002E50D03700FFB2052F6A
:1020F00028D18DF800705FF001080AE05FFA88F8D7
:1021000018F804005FFA88F800A908F8010018F12F
:1021100001085FFA88F8FFB2781C8045EEDB9DF875
:1021200004009DF8011011F0030102292ED1F6B22E
:10213000301940788DF804009DF8041000A8FEF7CF
:1021400009FC23E060788DF80000A0788DF801008C
:102150009DF80100C0B280098DF803009DF80100D0
:10216000C0F381008DF802009DF80300002803D120
:102170009DF80200002809D0FEF72BFC0600FFF7AF
:10218000DDFC15F8011C2000FEF7E4FB01F0DBF993
:1021900002F07AF8BDE8F38170B584B000208DF8C4
:1021A0000000002402F084F83B2002F0CAF8060088
:1021B0003B2002F0C6F8F6B2C0B28642F7D1F6B2C2
:1021C000002E00F0A280012100A802F0E3F8F6B290
:1021D0009DF80000C01C864240F097809DF80000EA
:1021E000802880F092809DF80000801C8DF800000F
:1021F0009DF80000052823D19DF800008DF804000B
:1022000004210DF1050002F0C5F801210DF10100D6
:1022100002F0C0F89DF80100000676D59DF8050093
:1022200010F00300022870D19DF8080000F081F83A
:102230008DF808009DF8081001A8FEF78BFB64E0FC
:10224000012101A802F0A6F801210DF1050002F01C
:10225000A1F85A48007810F00100C0B2002813D14C
:102260009DF80500C0B280098DF807009DF80500B3
:10227000C0F381008DF806009DF80700002803D107
:102280009DF80600002840D0FEF7A3FB002807D1E8
:102290009DF80000401C80B200F04BF905002C00B6
:1022A000002C32D09DF800002070641C9DF80400C2
:1022B0002070641C9DF80000401E8DF800009DF801
:1022C00005002070641C9DF80000401E8DF8000081
:1022D0009DF80010200002F05DF89DF80000041940
:1022E00014F8010C00060DD514F8020C00F021F8CA
:1022F00004F8020CFFF722FC14F8021C2800FEF779
:1023000029FB02E0280000F05DF9362001F0FDFF16
:102310003D2001F0FAFFF0210842F9D13A2001F006
:10232000F4FF342001F0F1FF01F00DF901F0ACFFF2
:102330007FBDC0B2802808D3C0B2B0F5807000B2B3
:10234000022190FBF1F04A3804E0C0B2022190FB78
:10235000F1F04A387FF07F0100B2884201DA7FF065
:102360007F0040B270470020704780B501211020E7
:1023700001F096F93020ADF8000010208DF8030030
:1023800003208DF8020000A9154801F0B7F901BD3E
:10239000C0B2002802D0012807D00DE01348006821
:1023A00090F010001149086006E01048006890F0B5
:1023B00020000E490860FFE770470000842B0020D2
:1023C000B02B0020B12B0020000801400038014054
:1023D0001400002040420F00AF2B0020B22B002041
:1023E00000100140AE2B0020A02B00200C1001405B
:1023F0007047704780B5C0B2FFF7FAFF01BD10B556
:102400000400A4B2200AC0B2FFF7F2FF2000C0B25D
:10241000FFF7EEFF10BD10B50400200EC0B2FFF7AD
:10242000E7FF200CC0B2FFF7E3FF200AC0B2FFF7BE
:10243000DFFF2000C0B2FFF7DBFF10BD38B504009E
:10244000002504E0EDB2285DFFF7D2FF6D1CEDB270
:10245000082DF7D331BD80B5FFF7F0FF01BD38B5CA
:102460000400002504E0EDB2285DFFF7C1FF6D1CFC
:10247000EDB2102DF7D331BD38B50400002509E0C9
:10248000EDB2285DFFF7B4FFEDB228194078FFF7F1
:10249000AFFFAD1CEDB2102DF2D331BD80B5C9B286
:1024A000002902D1FFF7DBFF01E0FFF7E5FF01BDE7
:1024B00000B583B0FFF79DFF00A8FFF7E5FC00A87B
:1024C000FFF7BCFFFFF795FF41F24730FFF7A3FF8F
:1024D0000120FFF78FFFFFF78CFFFFF78AFF07BD93
:1024E000017889B2407811EB00214904490C0800B9
:1024F00080B270470170401C027812F080020270B6
:10250000027889B2090A89180170704780B54FF4C2
:10251000005200214A4801F089FF4948407850F0B4
:1025200080004749487041F6FE714548FFF7E2FFD9
:1025300001BD70B50500ADB2002D01D1002040E015
:10254000ADB2122D00D212253D4C002602E0B6B2EB
:102550003B4834186078000612D52000FFF7C0FF12
:10256000ADB2A8420CD32000FFF7BAFF461BB6B2AB
:10257000122E11D2607810F07F006070A01C20E055
:10258000B6B22000FFF7ACFF8019861CB6B2B6F5D4
:10259000005FDCD3002014E0290089B22000FFF79F
:1025A000A9FFADB22819801C417851F0800141701B
:1025B000B11E89B2FFF79EFF607810F07F00607057
:1025C000A01C70BDF8B50600002E23D0B41E6078A4
:1025D00050F0800060700025194C0EE02000FFF7DD
:1025E0007FFF07003000FFF77BFFBFB280B2C0194A
:1025F000811C89B22000FFF77DFF6078000610D5AE
:10260000ADB22000FFF76CFF4019801C80B2B0F51E
:10261000005F00D3F1BD80B209494618707800060A
:10262000DCD4ADB22000FFF75BFF4019851CADB2D2
:10263000B5F5005FEED2ADB201482C18DDE7000021
:1026400018000020DFF8C40A00210170DFF8C00A7A
:1026500000210170DFF8B80A00210171DFF8B40A27
:1026600000210170DFF8B00A00210170DFF8A00A34
:1026700000214171DFF8980A00218171704780B50F
:10268000FDF7E8FD00F0D9F903E0DFF8880A03213F
:102690000170DFF8800A007800280ED0012829D0C8
:1026A00002285BD0032800F0A580062879D00728EF
:1026B00000F08F800E2862D0C8E000F035FB0028C3
:1026C00017D1DFF8580AC068C0F34000C00710D423
:1026D000DFF8480AC06850F00200DFF8401AC8600E
:1026E00000F0C2FA012000F0B2F8DFF8280A0E214B
:1026F0000170ABE0DFF8280A0078092802D00A2828
:1027000015D02BE0DFF81C0A0021C175DFF8000AA4
:102710000079012801D000F080FC00F00BFD0020C2
:1027200000F095F8DFF8EC090221017016E0FFF7E0
:10273000FBF9FDF7DBFCFFF7EAF8FDF72BFDDFF80F
:10274000E01981F83000DFF8D80990F8300000284F
:102750009BD0DFF8C00900210170FFE7DFF8C8094E
:102760000078002872D1DFF8B809DFF8C0190979BC
:1027700080F83010DFF89C090021017066E0DFF876
:10278000A8090078002861D1DFF89009C06830F00E
:102790000200DFF88819C860DFF8780900210170AD
:1027A00054E0DFF88409007800284FD1DFF87C0975
:1027B00007210170DFF85C0907210170DFF86C095F
:1027C0000A210171DFF8600901210170FDF742FD66
:1027D0003CE0DFF854090078002837D1DFF84009E1
:1027E000DFF84819097980F83010DFF8280900214E
:1027F00001702BE00120FDF71AFD0020FDF71FFD01
:10280000FFF793F8DFF80809006850F00100DFF8DF
:1028100000190860DFF81809406850F40060DFF81C
:1028200010194860DFF80809406850F00100DFF82F
:1028300000194860DFF8E808002180F8301001F046
:10284000A1FEDFF8D00800210170FFE701BD10B53F
:10285000DFF8DC184968C1F3C021C90708D4DFF8E4
:10286000CC0809218170DFF8C40808210170D9E083
:10287000DFF8B018497D0F22114208D1DFF8AC080B
:1028800012218170DFF8A40808210170CAE0C0B2EB
:10289000002854D1DFF884084069401EDFF87C1816
:1028A0004861DFF878084069DFF878180988017016
:1028B000DFF868084069401EDFF860184861DFF8FB
:1028C0005C084069DFF85C18098889B2090A017060
:1028D000DFF848084069401EDFF840184861DFF81B
:1028E0003C084069DFF83C18098A0170DFF82C08C1
:1028F0004069401EDFF824184861DFF82808008A84
:1029000080B2000ADFF8141849690870DFF80C0873
:102910004069401EDFF804184861DFF80808407D70
:10292000401EDFF800184875DFF8F0174969087095
:10293000DFF8E807007E401DDFF8E0170876DFF8D3
:10294000F007408ADFF8301A0880DFF82C0ADFF839
:10295000E017498A4181DFF8CC0700884FF6FE7105
:1029600088420CD1DFF8100ACC21C1730822DFF8AD
:10297000B4074168DFF8040AFFF7CEF936E0DFF864
:10298000A4070488DFF8F8090078032803D320009F
:1029900080B2FFF734FDDFF88C0700884FF6FF7137
:1029A00088421CD0DFF87C070088FFF761F804003C
:1029B000DFF8CC090078032803D3200080B2FFF7AA
:1029C0001EFD4FF6FF70A4B2844208D1DFF85C0709
:1029D00011218170DFF854070821017022E0DFF82F
:1029E0009809C821C173DFF890094480DFF888098D
:1029F000C07BC0F38100C0B202280BD1DFF8780998
:102A000040884FF6FF71884204D1DFF86C094121FC
:102A1000817303E0DFF8600961218173DFF80C073F
:102A200003210170DFF804070A210171DFF8F806BD
:102A300001210170FDF70EFC10BD80B503E0DFF849
:102A4000D80603210170DFF8D0060078002805D0F1
:102A5000022845D003D303284DD0C1E0C0E0DFF801
:102A60002409007ADFF81C1909684018017811F070
:102A7000C00180290BD10178C1F34011C9B2C90747
:102A800005D50178C1F30011C9B2C90709D4DFF82F
:102A9000F4080068FFF796FDDFF87C06002101705E
:102AA0009EE000F0C1F8DFF8DC0840894FF6FF71C6
:102AB00088420ED0DFF8CC0840894FF6FE7188427C
:102AC00007D0DFF8C0084089DFF8BC1809888842C1
:102AD000B5D100F06EF9DFF8400602210170B2E7CF
:102AE00002F0B3FD00287BD102F0B8FDDFF8280624
:102AF0000021017074E0DFF88C08007ADFF8841898
:102B00000968405C0F21084213D1DFF8740800788F
:102B1000032804D3DFF86C084089FFF770FCDFF866
:102B200064080068FFF74EFDDFF8EC050021017036
:102B300056E0DFF84C080078032804D3DFF8440897
:102B40004089FFF75CFC00F0DCF800281DD0DFF8BE
:102B500030080078032804D3DFF8B8050078FFF7C1
:102B600049FCDFF81C080078032804D3DFF8B80517
:102B70000078FFF73FFCDFF80C080068FFF722FD44
:102B8000DFF894050021017029E0DFF884058079E1
:102B9000401CDFF87C158871DFF874058079052802
:102BA00003D1DFF86C0500218171DFF864058079BD
:102BB000DFF85C1511EBC000DFF8C8170968816009
:102BC000DFF84C058079DFF8481511EBC000DFF81D
:102BD000B417097A0173DFF8400500210170FFE79F
:102BE00001BDDFF834050078002801D0012000E0A5
:102BF0000020C0B27047DFF88C07DFF89017096833
:102C000009680160DFF87C07DFF880170968097937
:102C10000171DFF87007DFF87417897E0172DFF841
:102C2000F804012101707047401C01780902DFF8A7
:102C300054279181401CDFF84C178989027851187C
:102C4000DFF840279181401C01780902DFF8342722
:102C50005181401CDFF82C17498902785118DFF8A0
:102C600024275181401C704780B5DFF8B004DFF89D
:102C70002017416100F065F801680A780079101AA0
:102C8000C01E0A785118C91EDFF890241076491E1C
:102C9000DFF888245269521EDFF880345A61DFF869
:102CA0007C2452690B781370401EC0B20028EED10C
:102CB000012000F05FF8DFF864044069C07800028A
:102CC000DFF860140880DFF85C040088DFF84C143B
:102CD000496909790818DFF84C140880DFF83C04CA
:102CE00040690078401EDFF8341449690870DFF845
:102CF0002C044069007810F00F00DFF82814887465
:102D000001BDDFF80C048079401CC0B2052800D159
:102D10000020DFF8FC134979C0B2884201D10120BC
:102D200000E00020C0B27047DFF8E4034079DFF82C
:102D3000E0138979884201D1012000E00020C0B26F
:102D40007047DFF8CC034079DFF8C41389798842F3
:102D500001D100200DE0DFF8B8034079401CC0B27B
:102D6000052800D10020C0B2DFF8A41311EBC00089
:102D70000830704780B5DFF898134979491CDFF8AF
:102D800090235171DFF888134979052903D1DFF8C1
:102D9000801300224A71C0B2002809D0DFF8700306
:102DA0004079DFF86C1311EBC0008068FFF70AFC74
:102DB00001BD38B5DFF8CC05007ADFF8C815096821
:102DC000401800F20505DFF8BC05297801746D1C78
:102DD0000124DFF8B005007C412802D042280DD044
:102DE0000EE1DFF8A005007A2018401DDFF89415E9
:102DF0004872DFF89005002181740DE1DFF8840549
:102E0000297841746D1CDFF87C052978C1766D1C2A
:102E1000A41CDFF87005407C00060ED4002007E0FB
:102E2000C0B2DFF8601541182A780A776D1C401C83
:102E3000C0B20828F4D3083410E0DFF8480548F29F
:102E4000FE018183DFF83C050021C183DFF83405F2
:102E500000210184DFF82C0500214184DFF82405DE
:102E6000407C40060FD4002008E0C0B2DFF8141503
:102E700041182A7881F824206D1C401CC0B2082813
:102E8000F3D3083408E0DFF8FC048289A848418ABB
:102E9000DFF8000501F025FEDFF8E804407C80063D
:102EA0000FD4002008E0C0B2DFF8D81441182A7807
:102EB00081F82C206D1C401CC0B20828F3D30834C4
:102EC00010E0DFF8C00448F2FE018185DFF8B404A9
:102ED0000021C185DFF8AC0400210186DFF8A404DD
:102EE00000214186DFF89C04407CC0060FD40020FE
:102EF00008E0C0B2DFF88C1441182A7881F8342039
:102F00006D1C401CC0B20828F3D3083408E0DFF879
:102F1000740442898648418ADFF87C0401F0E1FDAF
:102F2000DFF86004407C00071FD4DFF858042978DC
:102F3000C1746D1C28780004DFF8481448616D1CCA
:102F4000DFF840044069297810EB0120DFF83414E1
:102F500048616D1CDFF82C04406929780818DFF8F7
:102F6000241448616D1C241D07E0DFF818040021BB
:102F7000C174DFF8100400214161DFF80804407CCF
:102F8000C0F34100C0B2002806D1DFF8F803297869
:102F900081766D1C641C16E0C0B2012804D1DFF8F4
:102FA000E403112181760EE0C0B2022804D1DFF8DB
:102FB000D4033A21817606E0C0B2032803D1DFF8BA
:102FC000C40306218176DFF8BC03407CC007DFF82C
:102FD000B403007A2018401DDFF8A8134872DFF808
:102FE000A40300680078DFF89C13497A401A401E59
:102FF000DFF890130883DFF88C03012181740BE064
:10300000DFF88003007A2018401DDFF8781348723B
:10301000DFF870030021817431BD80B54048007B2A
:10302000112806D13F48C07D50F002003D49C875C7
:1030300014E03B48007B3A2806D13A48C07D50F066
:1030400004003849C87509E03548007B062805D1D9
:103050003448C07D50F006003249C87530480079C8
:10306000002809D12E488068002805D12D48C07D50
:1030700050F008002B49C8752948807FFF280CD1E3
:103080002848C07D50F080002649C8752548C07D7D
:1030900050F040002349C87536E0DFF8000301F026
:1030A0001EFC012830D11E48807FFE280FD11C480D
:1030B000C07F80280BD11B48C07D50F0800019498B
:1030C000C8751848C07D50F020001649C8751448CE
:1030D00090F82900FF2809D1114890F82A00FE280D
:1030E00004D10F4890F82600800707D50C4890F8C7
:1030F0002600C0F34000C0B2002805D00948C07DBA
:1031000050F010000749C87501BD0000AA2B00202F
:103110004C2A0020A92B0020A82B0020982A002050
:10312000182A0020B42A0020B42B0020602B002095
:1031300034270020DFF86802C07D002804D1DFF8C2
:10314000600241218175EEE0DFF854024221817571
:10315000DFF85002406900F22800DFF848124861A9
:10316000DFF84002007E2838DFF838120876DFF8F2
:103170003002C07DC0F34100C0B200280ED18948A2
:103180004069401E87494861864840698649097BF5
:1031900001708448007E401C824908768048C07DCA
:1031A000000730D47F484069401E7E4948617D4811
:1031B00040697D49896801707A484069401E7949B3
:1031C000486179488068000A7649496908707548FD
:1031D0004069401E7349486173488068000C10F0D4
:1031E0000F007049496908706E484069401E6D497A
:1031F00048616C4840696C49097901706948007EF2
:10320000001D684908766648C07DC00618D40020B5
:103210000EE064494969491E624A5161C0B24142A7
:10322000614A891891F82D105E4A52691170401C4C
:10323000C0B20828EDD35B48007E083059490876B3
:103240005748C07D800618D400200EE055494969D2
:10325000491E544A5161C0B24142534A891891F8FB
:103260002510504A52691170401CC0B20828EDD395
:103270004C48007E08304B4908764948C07D4006DE
:1032800017D400200DE047494969491E454A51615C
:10329000C0B24142444A8918497F424A526911707A
:1032A000401CC0B20828EED33E48007E08303D499D
:1032B00008763B48C07D000617D400200DE0394950
:1032C0004969491E374A5161C0B24142364A89189C
:1032D000497D344A52691170401CC0B20828EED3AF
:1032E0003048007E08302F4908762E484069401E3D
:1032F0002C4948612B4840692B49497B017029487A
:10330000007E401C2749087626484069401E254912
:103310004861244840692249C97D01702148007EE6
:10332000401C204908761F484069401E1D494861DD
:103330001C4840691A49897D01701A48007E401C6A
:1033400018490876164810490988018214488021D6
:1033500041751348407D50F02000114948751048D0
:10336000407D50F010000E4948750D48407D50F0EA
:103370000A000B4948757047142B0020162B0020BB
:10338000AE2B0020A4290020182000207C2A002039
:1033900043280020C0290020D0290020362A002000
:1033A000B42A0020982A0020182A002000B583B0F3
:1033B000574800210160FEF73BFC02F0B7FAFFF727
:1033C00077F854480A21017053484FF4CC410180EA
:1033D00051484FF4EE4141804F4843F21241818001
:1033E0004D4847F65601C1804B48002101814A48AB
:1033F0000021418148480021818147480021C18145
:103400004648402101700020019000200090402398
:10341000012242480178404801F00CF901213E4860
:10342000FFF73CF83D480078FEF7E4FF01E002F0CA
:10343000BEFA3B4800780028F9D13A4813210170C0
:1034400039480E21017039480A21017037485FF070
:10345000FF314160354804210172324819218175DC
:103460002F480121017002F0A2FA01E002F09FFA58
:103470002B4800780028F9D12D480021C175FEF7AE
:10348000B8FC2C490860FEF7B4FC2149086002F042
:103490008EFAFEF7AEFC27490968401A0002000ABE
:1034A0004FF231218842F2D323480088002802D10C
:1034B000224801210170204800210180FEF799FC7B
:1034C0001C4908600020FEF763FFE0E738B51C48A0
:1034D000C46D1B4890F8605004E02078FEF78AFF26
:1034E000641C6D1EEDB2002DF7D1FEF782FF0020A7
:1034F00032BD0120704780B5FEF7ADFFFEF779FFC2
:1035000004480078032801D303F090F9012002BD9C
:10351000982B0020AE2B0020382B0020BB2B002046
:10352000AB2B0020CC2A0020FC2A0020182A0020E7
:10353000342700209C2B0020A02B0020A62B00204D
:10354000B0280020704770471B4908431B4908609A
:10355000704710B4002100220F23C478002C1ED025
:103560001649096811F4E061D1F5E061090AD1F169
:103570000402CB404178914082781A4011430901FE
:1035800002780F4BD154017849110E4A012300787B
:1035900010F01F0013FA00F042F821000AE0017851
:1035A0004911094A0123007810F01F0013FA00F0B6
:1035B00042F8210010BC70470000FA050CED00E055
:1035C00000E400E000E100E080E100E00021444A86
:1035D0001268110031F4E061014341480160704715
:1035E00030B400220021002300243D4D2D6815F049
:1035F0000C052A00002A04D0042A05D0082A06D087
:1036000021E03849016020E0364901601DE034497D
:10361000096811F47011324A126812F48033890C6F
:10362000891C002B03D1304A514301600AE02C4A27
:103630001268920303D52C4A5143016002E0294AE3
:103640005143016001E0274901602549096811F0F3
:10365000F00212092549545C0168E14041602049AB
:10366000096811F4E062120A2049545C4168E140A3
:1036700081601B49096811F46052D20A1B49545CED
:103680004168E140C1601649096811F44042920B5B
:103690001749545CC168B1FBF4F1016130BC70475B
:1036A000C9B2002905D013490968084311490860C7
:1036B00005E01049096831EA00000E4908607047CA
:1036C000C9B2002905D00C49096808430A490860B5
:1036D00005E00949096831EA0000074908607047B8
:1036E0000410024000127A0000093D000000002092
:1036F00010000020181002401C100240F0B40022FC
:103700000026002400250023002791F803C01CF0A8
:103710000F0C624691F803C05FEACC6C01D58B7840
:103720001A430B781B0621D00368002406E0CD78ED
:10373000482D02D10125A5400561641C082C14D236
:103740000125A5400E882E40AE42F6D1A5000F26D9
:1037500016FA05F7BB4312FA05F52B43CD78282D51
:10376000E5D10125A5404561E7E703600B884FF4EB
:103770008074A34226D34368002420E0012514F17D
:103780000806B5400E882E40AE4217D1A5000F2680
:1037900016FA05F7BB4312FA05F52B43CD78282D11
:1037A00004D1012514F10806B5404561CD78482DB6
:1037B00004D1012514F10806B5400561641C082CEC
:1037C000DCD34360F0BC70470022806880B20842BE
:1037D00001D0012200E000221000C0B27047002298
:1037E000C06880B2084201D0012200E0002210002F
:1037F000C0B2704789B20161704789B241617047B8
:1038000010B400220F2311F00304E4B2A400A3407B
:103810001A00C9B28B100E4C54F8233033EA02025E
:10382000C9B28B100A4C44F82320C9B28A10084B45
:1038300053F82220C0B211F00303DBB29B00984082
:103840001043C9B28910024A42F8210010BC7047E7
:1038500008000140F0B585B004000D0000200021F3
:10386000002200230026AF89002F2600208A4CF674
:10387000FF710840E98808432082A0894EF6F311C1
:103880000840A9882A8911436A8911430843A08105
:10389000A08A4FF6FF410840A9890843A08200A8EA
:1038A000FFF79EFE1B48864201D1039900E0029972
:1038B000A089000407D5192000FB01F02968490000
:1038C000B0FBF1F206E0192000FB01F02968890045
:1038D000B0FBF1F26420B2FBF0F0000101096423B7
:1038E00003FB1123A189090408D5D90032316422D0
:1038F000B1FBF2F111F00701084307E01901323181
:103900006422B1FBF2F111F00F010843208105B0F0
:10391000F0BD000000380140C9B2002904D08189FF
:1039200051F40051818104E081894DF6FF7211400C
:1039300081817047F0B4002300240025002640F662
:103940006A1789B2B94206000800C0B24309DBB267
:1039500089B211F01F04012010FA04F5012B01D1E6
:103960000C3604E0022B01D1103600E01436D2B23E
:10397000002A03D030682843306002E03068A84352
:103980003060F0BC70478088C005C00D70470022D1
:103990004FF4007389B299420088084201D0012295
:1039A00000E000221000C0B2704789B28A0589B2D7
:1039B000C9430180704770B4002300240025002211
:1039C00040F66A1689B2B1420A00D2B25509EDB288
:1039D00089B211F01F04012212FA04F4012D02D160
:1039E0008289144006E0022D02D1028A144001E0CF
:1039F000828A144089B20B0A9BB2012111FA03F3A7
:103A000000880340002C03D0002B01D0012200E0ED
:103A100000221000C0B270BC704710B40022002316
:103A200040F66A1489B2A14289B20A0A012111FA48
:103A300002F39BB2D943018010BC70470022038877
:103A40001A00DFF8B431984212D0DFF8C43198423E
:103A50000ED0B0F1804F0BD0DFF8A031984207D0E4
:103A6000DFF89C31984203D0DFF89831984204D1B6
:103A70004FF68F731A404B881A43DFF88C31984207
:103A800008D0DFF88831984204D04FF6FF431A403F
:103A9000CB881A4302808A8882850A880285DFF8EB
:103AA000582190420FD0DFF8682190420BD0DFF808
:103AB0006421904207D0DFF86021904203D0DFF804
:103AC0005C21904201D1097A0186012181827047EF
:103AD00070B4002300240022058C4FF6FE7635409A
:103AE0000584058C2C0085882A00058B2B004FF659
:103AF0008F752B404FF6FC752B400D882B434FF6EE
:103B0000FD752C400D892C434D882C43DFF8E8507F
:103B1000A8420FD0DFF8F850A8420BD0DFF8F450DD
:103B2000A84207D0DFF8F050A84203D0DFF8EC50ED
:103B3000A84213D14FF6F7752C404D892C434FF610
:103B4000FB752C408D882C434FF6FF652A404FF6BD
:103B5000FF552A408D892A43CD892A4382800383D9
:103B6000C9888186048470BC7047C9B2002904D01A
:103B7000018851F00101018004E001884FF6FE72D6
:103B8000114001807047D2B2002A03D082891143CC
:103B9000818103E0828932EA0101818170470185D8
:103BA000828270470022038B1A004FF6F7731A4087
:103BB0000A430283704781867047808E7047808CED
:103BC000704730B4002200230024058A0D402B00EA
:103BD0008089084004009BB2002B04D0A4B2002CC2
:103BE00001D0012200E000221000C0B230BC7047BA
:103BF00089B2C94301827047002C01400004004093
:103C000000080040000C004000100040001400407C
:103C100000340140004001400044014000480140A0
:103C200006E0491C4FF4487289B29142F9D3401E14
:103C3000C0B2012801D30021F4E7704780B501210B
:103C40000420FFF72DFD4FF48070ADF80000032035
:103C50008DF8020010208DF8030000A9DFF87C0425
:103C6000FFF74CFD01210820FFF71AFD0120ADF8F8
:103C7000000003208DF8020010208DF8030000A939
:103C8000DFF85C04FFF73AFD01BD80B50121042097
:103C9000FFF706FD01214FF48050FFF701FDE02002
:103CA000ADF8000018208DF8030003208DF8020005
:103CB00000A9DFF82804FFF721FD0121DFF8240423
:103CC00002F06EFE1020ADF8000010208DF8030009
:103CD00000A9DFF80804FFF711FD01BD00B585B0AC
:103CE00001214FF48050FFF7DBFC0021DFF8F403E3
:103CF00002F044FE0020ADF800004FF48270ADF8F1
:103D000002000020ADF804000020ADF806000020FD
:103D1000ADF808004FF40070ADF80A001820ADF8B7
:103D20000C000020ADF80E000720ADF8100000A92F
:103D3000DFF8B00302F002FE0121DFF8A80302F071
:103D40001DFE05B000BD00B585B001210420FFF7C0
:103D5000A7FC0120ADF8040048208DF807000320DF
:103D60008DF8060001A9DFF87403FFF7C7FC0121F5
:103D70000120FFF795FC00210020FFF741FD012005
:103D8000029000208DF80C0008208DF80D00012015
:103D90008DF80E0002A802F01FFE06208DF800002C
:103DA00001208DF8010000208DF8020001208DF81F
:103DB000030000A8FFF7CDFB05B000BD10B504005F
:103DC0001021DFF81803FFF718FDDFF81C03006867
:103DD0004006FAD454F08004E4B2200080B200F02F
:103DE00023FAFF2000F020FA04001021DFF8EC0293
:103DF000FFF700FD2000C0B210BD38B504000D0073
:103E00001021DFF8D802FFF7F8FCDFF8DC020068C9
:103E10004006FAD454F0C004E4B2200080B200F0AE
:103E200003FAEDB2280080B200F0FEF91021DFF8AD
:103E3000AC02FFF7DFFC31BD70B504000D001600C9
:103E40001021DFF89802FFF7D8FCDFF89C02006829
:103E50004006FAD454F080042000C0B2FFF7AEFF51
:103E600004002C40F4401021DFF87002FFF7C2FC80
:103E70002000C0B270BDF8B504000D0016001F0090
:103E80001021DFF85802FFF7B8FCDFF85C02006889
:103E90004006FAD42000C0B2FFF790FFA843B74015
:103EA0002F4007433900C9B22000C0B2FFF7A5FF79
:103EB0001021DFF82802FFF79DFCF1BD80B510212D
:103EC000DFF81802FFF799FCDFF81C0200684006D3
:103ED000FAD4202000F0A8F9FF2000F0A5F9C0B224
:103EE00002BD70B504000D0010217C48FFF785FC71
:103EF0007D4800684006FBD4602000F095F9E4B2EC
:103F0000200080B200F090F9002604E0705D80B2DD
:103F100000F08AF9761CE4B2A642F7DB10216F4864
:103F2000FFF768FC70BD80B5012000F09EF94FF4EA
:103F300080716A48FFF761FC04E04FF480716748C4
:103F4000FFF75BFC4FF480716448FFF748FC0028E2
:103F5000F3D101216248FFF750FC022000F085F9FF
:103F60004FF480715D48FFF745FC022000F07DF9B9
:103F700004E04FF480715948FFF73CFC5B4800684F
:103F8000C005F6D5032300221F210220FFF773FF8F
:103F90000120FFF713FF0828FAD10C210E20FFF7AC
:103FA0002CFF0123012202210420FFF764FF0023DC
:103FB000002201210420FFF75EFF01230722802158
:103FC0000420FFF758FF0123052220210420FFF7DA
:103FD00052FF0123072280210C20FFF74CFF0D2107
:103FE0001320FFF70AFF04211420FFF706FFE72143
:103FF0000520FFF702FF03211620FFF7FEFE162023
:10400000FFF7DCFE0328FAD17C210C20FFF7F5FE38
:104010000C20FFF7D3FE364908700C20FFF7CEFEC8
:104020007C28FAD10023042230210320FFF723FF4C
:104030000023002207210320FFF71DFF0023032296
:1040400008210320FFF717FF092300221F21022068
:10405000FFF711FF0F20FFF7B1FE0128FAD101BDD4
:1040600010B5012002F0FCFC002835D0012002F040
:1040700009FD0F20FFF7A2FE0400E4B2C22C0FD00E
:10408000E4B2FF2C0CD0E4B214F00F000F2807D0DC
:10409000E4B214F0F000F02802D0E4B2C92C02D14E
:1040A000144801210170E4B2082C0ED0E4B2C02CF7
:1040B0000BD0E4B2282C08D0E4B28F2C05D0E4B2A7
:1040C000192C02D0E4B20C2C06D10120FFF7A8FD78
:1040D000E4B22000FDF7A5FF10BD0000000801407C
:1040E000000C014000300140100801400C08014064
:1040F000A72B0020A62B002080B5032300221F2120
:104100000220FFF7B8FE0120FFF758FEC007FAD4DF
:104110000C210E20FFF771FE012301220221042051
:10412000FFF7A9FE0023002201210420FFF7A3FED0
:10413000062300221F210220FFF79DFE0120FFF72A
:104140003DFEC007FAD401BD10B505E003230022EF
:104150001F210220FFF78FFE0120FFF72FFEC0076F
:10416000F4D4092300221F210220FFF784FE09E076
:10417000092300221F210220FFF77DFE0120FFF707
:104180001DFE0400E4B214F00F000928F0D110BDA8
:1041900080B50BE0032300221F210220FFF76BFEF6
:1041A0000120FFF70BFEC0B2FEF724F90120FFF754
:1041B00005FEC007EED4062300221F210220FFF7D0
:1041C0005AFE0120FFF7FAFD10F00F000628F8D183
:1041D0000123072280210820FFF74DFE07228021BE
:1041E0000120FFF729FEC0B20128F7D10120FFF717
:1041F000E5FDC00706D5032300221F210220FFF79B
:104200003AFEF3E7062240210120FFF715FE0128C0
:1042100001D1012000E00020C0B2002801D001201F
:1042200000E00020C0B202BD10B504000221DFF89A
:10423000540002F0C3FB0028F8D0210089B2DFF857
:10424000440002F0A9FB0221DFF8380002F0C0FBB5
:104250000121DFF8300002F0B1FB0028F8D0DFF8D0
:10426000240002F09BFB80B210BD002105E0521C2F
:1042700042F6E0639A42FAD3491C814201D20022FD
:10428000F6E770470030014080B5402002F0FAFBAD
:1042900017208DF8000001208DF8010000208DF816
:1042A000020001208DF8030000A8FFF752F901BDBC
:1042B00080B5402002F0E6FB17208DF800000120B9
:1042C0008DF8010000208DF8020000208DF8030019
:1042D00000A8FFF73EF901BD10B5040002215248C5
:1042E00002F06CFB0028F9D0E4B2210089B24E48FC
:1042F00002F052FB01214C4802F060FB0028F9D08B
:10430000494802F04BFBC0B210BD10B504000221B9
:104310004448FFF76FFA02214248FFF76EFA402146
:104320003F48FFF751FA0128F9D02000C0B2FFF74B
:10433000D3FF040002213B48FFF75CFA2000C0B223
:1043400010BD80B5FF2150F0C000C0B200F001F8F0
:1043500002BD38B504000D0002213248FFF74AFAC9
:1043600002213048FFF749FA40212D48FFF72CFA87
:104370000128F9D02000C0B2FFF7AEFF2800C0B27C
:10438000FFF7AAFF040002212648FFF733FA2000B6
:10439000C0B232BD80B50A00D2B20100FF2000F0E9
:1043A00001F802BDF8B504000D0016000027022137
:1043B0001C48FFF71FFA02211A48FFF71EFA402196
:1043C0001748FFF701FA0128F9D02000C0B2FFF723
:1043D00083FF200604D5FF20FFF77EFF287002E050
:1043E0002878FFF779FF761E6D1C02210D48FFF734
:1043F000F6F9012805D102210A48FFF7FEF9012745
:1044000002E0F6B2002EE4D1F6B2002ED7D102219E
:104410000448FFF7EFF93800C0B2F2BD0000000019
:1044200000080140000C01400030014010B50400BC
:1044300010000A000100200002F032FB200010BD35
:1044400000B583B04FF49E720021DFF84406FFF7F9
:10445000EDFF6C220021DFF83C06FFF7E7FFDFF8F5
:1044600030067F210160DFF8280640210171DFF866
:10447000200647F23051C160DFF814064FF47A711C
:104480004161DFF80C0601210176DFF80406012105
:104490004176DFF80406DFF8F81509680180DFF8D7
:1044A000FC0548F2FE010180DFF8F00500214180A3
:1044B000DFF8E80500218180DFF8E0050021C180F8
:1044C0000020019000200090002300224021DFF80E
:1044D000CC0500F0AFF8DFF8C40500F0F7FA0322CE
:1044E0000021DFF8B80500F0FFF8DFF8B00540F272
:1044F000FF210180DFF8A40500214180DFF89C0541
:1045000000218180DFF894050021C180DFF88C054F
:1045100000210181DFF8840500214181DFF87C055D
:1045200000218181DFF874054FF48071C181DFF8CB
:104530006C0500F072F9DFF8640540F2FF2101809C
:10454000DFF8580500214180DFF850050021818007
:10455000DFF848050021C180DFF840050021018116
:10456000DFF8380500214181DFF830050021818125
:10457000DFF828054FF40071C181DFF8200500F055
:104580004CF907BD80B5DFF8140548F2FE01018043
:10459000DFF8080500214180DFF800050021818057
:1045A000DFF8F8040021C180DFF8F4040288DFF8A6
:1045B000F404418ADFF8E40400F093FA04220021B5
:1045C000DFF8D80400F090F801BD2DE9F0470500B0
:1045D0000E0017009846089CDDF824900020C9F8CA
:1045E0000000AA4604E0C9F800A0BFB217EB0A0A0F
:1045F000F6B2BFB207FB0650824511D29AF800000E
:104600000028F0D0E4B2E208D2B241461AF102002A
:1046100002F090FA0028E8D1C9F800A0002007E0D5
:10462000D9F80000002801D0012000E00220C0B22B
:10463000BDE8F0872DE9F04383B004000D001600BB
:104640001F00DDF82880DDF82C90DFF85C04019075
:10465000EDB20095230024220321DFF83804FFF790
:10466000B4FF01283DD1DFF840040068012101704A
:10467000DFF834040068801C2100102202F09CFA4C
:10468000DFF8240400688574DFF81C040068C67431
:10469000DFF81404006880F82070DFF80C0400686C
:1046A000C0F81C80DFF800040068C0F81890DFF83C
:1046B000FC030078032806D30021DFF8EC03006830
:1046C000801CFDF7EBFEDFF8E4030078032804D339
:1046D000EDB2280080B2FDF792FEDFF8CC0300684F
:1046E00000E00020BDE8FE837CB504000D0016004C
:1046F000DFF8BC0301908020009023001C220421DD
:10470000DFF8B003FFF761FF01286ED1DFF8A003E7
:10471000006801210170DFF898030068801C210007
:10472000102202F049FADFF888030068C674DFF847
:104730008003006801218174002D05D1DFF870032A
:1047400000680121017504E0DFF8640300680021BE
:104750000175DFF858030078032806D30021DFF83D
:1047600050030068801CFDF799FEDFF840030078D5
:10477000032806D3DFF838030068C07C80B2FDF759
:104780003EFEDFF81803FF210170DFF8100302215D
:104790004170DFF8080300214180DFF800030021A9
:1047A0008180DFF8F8020021C180DFF8F0020021EB
:1047B0000181DFF8E80200218172DFF8E0020121C7
:1047C000C172DFF8D802FF210173DFF8D002617BEC
:1047D0004173DFF8C802E189C181DFF8C00200F04F
:1047E0001CF8DFF8CC02006800E0002076BD00B5C0
:1047F00083B0DFF8BC1201918021009103001C22DC
:104800000421DFF8B002FFF7E0FE002803D1DFF853
:10481000A002006800E000200EBD1CB50400DFF817
:104820009802019080200090230014220621DFF8D6
:104830008C02FFF7CAFEC0B200280CD1DFF8780264
:104840000068807C401CDFF8701209688874DFF80B
:10485000680200681CE0C0B2012818D1DFF85802D5
:10486000006801210170DFF850020068801C2100FF
:10487000102202F0A1F9DFF840020068807C401CA1
:10488000DFF83412096888748B48006800E0002063
:1048900016BD00B583B088490191802100910300C5
:1048A000142206218548FFF790FE002802D1824895
:1048B000006800E000200EBD00B583B08049019182
:1048C000802100910300122203217E48FFF77DFE24
:1048D000002802D17A48006800E000200EBD10B523
:1048E000040071486B49016005E06F48006800F200
:1048F00024006D4908606C4800687349884214D2EE
:104900006948006800780028EFD067480068807C1C
:10491000C0B2C208D2B2210063480068801C02F015
:1049200009F90028E1D1012000E0002010BDF8B510
:1049300004000D000026002000272978FE2902D15E
:104940006878802802D02878FF2807D12878FF28A7
:1049500034D1687810F00E000E282FD154485549F4
:104960000160534800685749884238D2504800686F
:10497000007800281BD04E480068807C012816D1A2
:104980004B4800688078FE2804D149480068C07808
:1049900080280CD046480068811C280000F0B6F83A
:1049A000C0B2F6B2B04202D30600414807684048A0
:1049B000006800F21C003E490860D2E7287AC0F384
:1049C0004000C0B2002805D00321012000F020F8EB
:1049D000070004E00421012000F01AF80700002F6E
:1049E00010D100202080002060800020A0800020C6
:1049F000E08000202081002060810020A081002034
:104A0000E08104E02000B91C102202F0D5F8F1BDCD
:104A1000274A284B136005E0254A126802F21C025F
:104A2000234B1A60224A1268264B9A422DD2204A02
:104A300012681278002AEFD05FF0FF3240B2904245
:104A400008D01B4A1268927C03005BB212B21BB200
:104A50009A42E1D15FF0FF3249B2914208D0144A44
:104A60001268D27C0B005BB212B21BB29A42D3D155
:104A70000F4A12689278FE2ACED10D4A1268D27877
:104A8000802AC9D10A48006800E000207047000071
:104A90007824002044280020682B0020282B0020A8
:104AA0001820002034270020802B0020AE2B00206F
:104AB000742B002094240020782B00203A2500201D
:104AC0007C2B002004250020B028002010B5040015
:104AD00014F10800FDF7D8F9207A90F00200207256
:104AE00010BD89B20B0A0372417200218172FF214D
:104AF000C172FE2101730021417392B2110A8173C8
:104B0000C273017A11F0FD010172704730B40022C6
:104B1000002301E008325B1CDBB2102B14D2DBB2A5
:104B20001C5CDBB25D5CAC42F4D0DBB2185CDBB287
:104B3000595C4140002002E0521C4900401CC0B2B8
:104B4000082801D20B06F7D51000C0B230BC704760
:104B500010B492B25218531E0AE00A784C7814EB43
:104B60000222101880B292B2904200D2401C891CDE
:104B70009942F2D3994207D109780A02101880B2FB
:104B800092B2904200D2401C80B210BC704738B53F
:104B90000C00DFF8E41B0978551AC0B24019202236
:104BA00014F1080180B2FFF7D3FF2A0092B2DFF8B8
:104BB000C81B09780919283180B2FFF7C9FF80B2F4
:104BC000002802D14FF6FF70FFE780B232BD80B5FA
:104BD0000A0092B201003A20FFF7D9FF02BD80B56A
:104BE0000A0092B201001120FFF7D1FF02BD80B58B
:104BF000FFF726FCDFF8840B00210180DFF8800B33
:104C000000210170DFF8C00C0021017001BD10B55A
:104C10000024FDF734FD00F06BFA0BE0DFF8AC0C7C
:104C2000C06850F00200DFF8A41CC860DFF8500B29
:104C30000B210170DFF8480B0078002826D00128EE
:104C400066D0022800F0BE81032800F0D28104283B
:104C500000F0D481052800F0E281062800F0E4800D
:104C6000072800F01381082800F04581092800F08A
:104C700074810A2800F0E4810B2800F0F2810C28EE
:104C800000F007820F2800F0198230E2DFF8EC0A0A
:104C9000007810F00100C0B2002838D0DFF8300CE6
:104CA000407ADFF82C1C0968405CC0B2802802D032
:104CB000852807D01AE0DFF8140CC068C0F3400064
:104CC000C007ABD5DFF8040CC068C0F34000C007D4
:104CD0000CD4DFF8F80BC06850F00200DFF8EC1BD2
:104CE000C860DFF89C0A0C210170A3E7DFF88C0A8A
:104CF000006840084000DFF8841A0860DFF87C0A8A
:104D0000006840084000DFF8741A086092E7EEE19E
:104D1000DFF8C00B00780C2807D0C0F084800E2884
:104D20006CD00ED30F283ED07DE0DFF8AC0B0089AD
:104D30002830DFF8A81B0880DFF8440A0221017040
:104D400078E7DFF8880BC068C0F34000C0076AD47A
:104D5000DFF8780BC06850F00200DFF8701BC86005
:104D6000DFF8180A006830F00200DFF8101A086057
:104D7000DFF8600B408A01F076FFDFF8640B01F08A
:104D800053FF00F0FFFCDFF8F409006850F0040066
:104D9000DFF8E8190860002000F02EFBDFF8E009DA
:104DA000062101703FE0DFF8240BC068C0F340002B
:104DB000C00738D4DFF8140BC06850F00200DFF8E9
:104DC0000C1BC860DFF8B409006830F00800DFF899
:104DD000AC19086002F07CF800F0D4FCDFF89C0904
:104DE000006850F01000DFF894190860002000F00F
:104DF00003FBDFF88C090821017014E0DFF8E40AF6
:104E0000007800280FD1DFF8E00A0F2180F8301079
:104E1000DFF8D00A01210170FDF731FCDFF86009ED
:104E20000A210170FFE762E1DFF8B80A0078002884
:104E300040F05D81DFF8940AC06830F00200DFF8CE
:104E40008C1AC860DFF8A00A90F83000002813D050
:104E5000DFF8800ADFF8901A91F830100175DFF85A
:104E60001C09006830F00400DFF810190860DFF852
:104E70001009002101703AE1FCF7BBFFDFF86C1A62
:104E80000860DFF8FC080721017030E1DFF8EC086A
:104E90000068C0F34000C00710D5DFF8380A0021D1
:104EA0000175DFF8D808006830F00400DFF8CC188E
:104EB0000860DFF8CC08002101701BE0FCF799FFC7
:104EC000DFF8281A0968401A0002000A4FF231215F
:104ED00088420FD3DFF8FC0917210175DFF89C0821
:104EE000006830F00400DFF894180860DFF89008DC
:104EF00000210170FBE0DFF8EC090078002840F0A9
:104F0000F680DFF8C809C06830F00200DFF8BC198D
:104F1000C860DFF8D40990F83000002813D0DFF81B
:104F2000B409DFF8C41991F830100175DFF84C08A6
:104F3000006830F01000DFF844180860DFF840081F
:104F400000210170D3E0FCF754FFDFF8A0190860DE
:104F5000DFF82C0809210170C9E0DFF8200800689B
:104F6000C0F3C000C00710D5DFF868090021017543
:104F7000DFF80808006830F01000DFF8001808605B
:104F8000DFF8FC07002101701BE0FCF732FFDFF8BF
:104F90005C190968401A0002000A4FF23121884268
:104FA0000FD3DFF8300918210175DFF8D00700684A
:104FB00030F01000DFF8C4170860DFF8C4070021E4
:104FC000017094E0002400F0DDFB002000F014FAF2
:104FD000DFF8A8070068C0F34010C00704D5DFF869
:104FE000A0070421017003E0DFF894070521017098
:104FF00020E6DFF88C070021017078E0DFF8E40894
:105000000078002873D1DFF8CC08DFF8DC1891F8BD
:1050100030100175DFF868070221017067E0DFF8E2
:10502000C4080078002862D1DFF8A808DFF8B818B3
:1050300091F830100175DFF848070021017056E043
:10504000DFF8A0080078002851D1DFF88808DFF8E1
:10505000981891F830100175DFF8240700210170CD
:1050600045E001F0A1FEDFF8880801F0DDFDDFF882
:105070000C07006840084000DFF80017086000F0E7
:1050800081FB002000F0B8F9DFF8F4060F21017071
:105090002DE0002001F0C0FFDFF8E00600684008C6
:1050A0004000DFF8D816086000F06CFB002000F02C
:1050B000A3F9DFF8CC060F21017018E0DFF824080F
:1050C0000078002813D1DFF80C08DFF81C1891F8DD
:1050D00030100175DFF8A80600210170DFF8EC0739
:1050E000C06830F00200DFF8E417C860FFE710BDC9
:1050F00038B529E0DFF8FC070078032803D328003F
:1051000080B2FDF77CF9DFF8EC07007803280ED3B6
:10511000DFF8BC07018ADFF8B807007ADFF8B027AC
:1051200012688018FFF75BFD80B2FDF768F9DFF8C1
:10513000A0070068FDF746FADFF8A007002101800C
:10514000DFF8840700210170DFF87C070078002871
:1051500007D0022800F02E8104D3032800F0398103
:1051600049E148E1DFF86807807A00282BD1DFF8B1
:105170006007007ADFF85817096844182078C0B231
:105180000009062809D0DFF848070068FDF71AFA79
:10519000DFF83407002101702DE1200000F09EFAB5
:1051A000DFF82C07007DFF281CD1DFF824070068FA
:1051B000FDF708FADFF8240700210180DFF808076F
:1051C0000021017017E1DFF80807807A0128E7D095
:1051D000DFF8FC060068FDF7F5F9DFF8EC060021C2
:1051E000017008E1DFF81007FFF701FB002819D173
:1051F000DFF80407FFF74DFB002813D1DFF8F806AE
:10520000FFF75AFB00280DD1DFF8C4060068FDF750
:10521000D9F9DFF8C80600210180DFF8AC060021CB
:105220000170E8E0DFF8A806407ADFF8A416096804
:105230004418DFF8C806DFF8C8160160DFF8380543
:1052400000210170DFF8BC0600210170DFF8800644
:10525000807C112802D03A2822D09DE0DFF8700629
:10526000807A002817D1A0790502E0794519ADB2FE
:10527000002D10D0DFF85806018ADFF85406007AB6
:10528000DFF84C2612688018FFF7A9FC4FF6FF7173
:1052900088427FF42FAFDFF830060221017053E718
:1052A000DFF82C06807A00281DD1DFF82406018A59
:1052B000DFF81C06007ADFF8182612688018FFF75E
:1052C00086FC4FF6FF7188420DD0DFF804060068B7
:1052D000FDF778F9DFF8040600210180DFF8E80522
:1052E0000021017030E72078802810D081282ED04E
:1052F000852843D1DFF88404006850F00100DFF80E
:105300007C140860DFF8C005032101701CE7DFF89A
:10531000C005008A50280DD3DFF8B4050068FDF7FA
:1053200051F9DFF8B80500210180DFF89C05002164
:10533000017009E7DFF84404006850F00100DFF86D
:105340003C140860DFF8800503210170FCE6DFF8FB
:105350002C040068C0F38000C00701D501F001FDF6
:10536000DFF86C050068FDF72DF9DFF87005002106
:105370000180DFF8540500210170E5E6DFF85005F3
:105380000068FDF71FF9DFF8540500210180DFF800
:10539000380500210170D7E6DFF834050068FDF715
:1053A00011F9DFF8380500210180DFF81C05002124
:1053B000017020E001F0C7F800281CD101F0CDF801
:1053C000DFF8040500210170DFF8100500210180DD
:1053D00011E0DFF8A803007810F00100C0B2002847
:1053E00009D1DFF8EC040068FDF7ECF8DFF8D80429
:1053F00000210170FFE731BD80B5C0B2002840F048
:10540000F380002012E0DFF8C4144969491EDFF878
:10541000BC245161C0B24142DFF8BC24891891F824
:105420002B10DFF8A82452691170401CC0B210285C
:10543000E9D3002011E0DFF894144969491EDFF830
:105440008C245161C0B24142DFF88C248918C97E96
:10545000DFF8782452691170401CC0B21028EAD3DA
:10546000DFF868044069401EDFF860144861DFF827
:105470005C044069DFF86014C97A0170DFF84C04FD
:105480004069401EDFF844144861DFF84004406979
:10549000DFF84414897A0170DFF830044069401E57
:1054A000DFF828144861DFF824044069DFF8281485
:1054B00009890170DFF814044069401EDFF80C14FC
:1054C0004861DFF81404008980B2000ADFF8FC1399
:1054D00049690870DFF8F4034069401EDFF8EC13F7
:1054E0004861DFF8E8034069DFF8EC1349680170B0
:1054F000DFF8D8034069401EDFF8D0134861DFF8B9
:10550000D8034068000ADFF8C41349690870DFF85F
:10551000BC034069401EDFF8B4134861DFF8B803EC
:105520004068000CDFF8B013497809010F310840DA
:10553000DFF8981349690870DFF890034069401E4E
:10554000DFF888134861DFF890034078C0B2DFF8D5
:1055500088130978090111EB1010DFF870134969FD
:105560000870DFF86803007E2830DFF860130876E3
:105570000020DFF86413897A11291AD1DFF8580363
:105580000189DFF848034069FFF729FBC04380B277
:10559000002801D14FF6FF70DFF83013496981F818
:1055A0002F00DFF82813496980B2000A81F82E0025
:1055B0001AE0DFF82403807A3A2815D1DFF81803BF
:1055C0000189DFF808034069FFF701FBC043DFF8FA
:1055D000FC12496981F82B00DFF8F012496980B2AA
:1055E000000A81F82A00FFE7DFF8F00200210180BD
:1055F000DFF8F40209210170DFF8EC02DFF8D812BD
:10560000C97A4173DFF8E002B349897A0173B64879
:10561000B14949780171B448AF4949688160DFF800
:10562000E802DFF8E812102201F0C6FAB848B949DA
:10563000102201F0C1FAAC480F2180F83010A948BF
:1056400001210170FDF71BF801BD9F48007800287B
:1056500001D0012000E00020C0B2704700B59C4896
:10566000AD49096801609A48AB49097901719848C8
:10567000A949497A0172A848407A28309449487269
:105680009348A549897C81729148A3498989C1863B
:10569000A148807C01281DD18D489F49C97CC172D9
:1056A0008B489D494969C16089489B49098B0182A2
:1056B00087489949897E81748D489849102201F064
:1056C00088FA8D489649102201F083FA8048924961
:1056D000497A41727C480121017000BD017842780D
:1056E000D2B2120952EA0111794AD172401C0178F2
:1056F00011F00F010904764AD160401C7449C96851
:10570000027811EB0221724AD160401C7049C968CD
:10571000027851186E4AD160401C017809026C4A27
:105720001182401C6A49098A02785118684A11821C
:10573000401C674902788A74401C65490278CA7423
:10574000401C002106E0C9B2614A8A18037813752B
:10575000401C491CC9B21029F5D3002107E0C9B289
:105760005B4A8A18037882F82430401C491CC9B26D
:105770001029F4D370470000B92B0020482B0020DB
:10578000B62B002080B55448007FFF2833D1524803
:10579000007FFF282AD15048407F022826D14E485A
:1057A000C08B002822D14C48008C00281ED14A48CA
:1057B000408C00281AD14848808C002816D14648D1
:1057C000C08C002812D14448008D00280ED14248D8
:1057D00090F82A00002809D13F4890F82B000228B1
:1057E00004D150484FF6FF7101806BE04D484FF6F1
:1057F000FF71018066E04748FFF771F801285ED12C
:10580000354890F82700FF2814D1334890F8280035
:10581000FE280FD1304890F8240080070AD42E4883
:1058200090F82A002C4991F82B1051EA00203D49AC
:10583000088047E0284890F82400C0F34000C0B238
:10584000002838D037484FF6FE710180224890F882
:10585000240090F002003349087232481E4991F842
:10586000251041722F481C4991F8261081722D484D
:10587000194991F82710C1722A48174991F8281040
:1058800001732848144991F8291041732548124999
:1058900091F82A10817323480F4991F82B10C17396
:1058A00020482149416013480078032802D31E484C
:1058B000FCF7D1FD06E01B480021018002E01948F9
:1058C0000021018001BD0000B72B0020982A002094
:1058D000E0290020FC2A002060290020A22B0020C3
:1058E000FE2A0020A92B0020182A0020902B00203F
:1058F000F4290020AE2B0020042A0020942B002045
:10590000F2290020B82B0020262A00206C29002034
:10591000362A00207C290020A4290020C02900204C
:10592000D0290020B42A0020BC2A002080B5DFF84E
:10593000BC0900210170DFF8BC0900210170DFF80B
:10594000B80900218176DFF8B0090021C176DFF8BF
:10595000A80900210177DFF8A00900210173DFF811
:10596000980900214173DFF8900900218173DFF865
:10597000880900210180DFF8800943F2700101618C
:10598000DFF874090A218182DFF86C0903210176AE
:10599000DFF8640900210171FCF7C6F8FAF7A6FBED
:1059A000FCF750FEFFF723F901F030FC01BD00B514
:1059B00085B0FFF72CF9DFF840090068C0F3C0009C
:1059C000C00701D500F08CFE00F098FC03E0DFF882
:1059D0001C0909210170DFF81409007800281BD088
:1059E000012800F0D880022800F0B981032800F0D7
:1059F0004C82042800F07A82052800F0AB82092846
:105A000000F077810A2800F0CE810B2800F0F181A8
:105A10000C2800F01482ABE2DFF8DC080068C0F369
:105A20008000C007D3D4DFF8AC0C007810F0010080
:105A3000C0B2002800F0AE80DFF8980C0079012891
:105A400005D0C0F09F8003286ED03FD39AE0DFF8E6
:105A5000840D90F82E0010F00300012809D101F008
:105A600027FD002804D0DFF884080A210170B2E77E
:105A700023E0DFF8600D90F82E0010F003000228FC
:105A800009D101F01EFD002804D0DFF860080B21C9
:105A90000170A0E711E0DFF83C0D90F82E0010F047
:105AA0000300032809D101F015FD002804D0DFF818
:105AB0003C080C2101708EE7FFE7DFF8180C006846
:105AC00040084000DFF80C1C086063E0DFF8080CB9
:105AD000C068C0F34000C00725D4DFF8FC0BC068E5
