:020000040800F2
:1000000088300020E5960008099300080B9300084B
:1000100017930008239300082F93000800000000A6
:100020000000000000000000000000003B930008FA
:100030003D930008000000003F9300084193000832
:1000400025970008299700082D9700083197000888
:1000500035970008399700087994000841970008FF
:1000600045970008499700084D97000851970008E8
:1000700055970008599700085D9700086197000898
:1000800065970008699700086D9700087197000848
:1000900075970008799700087D970008439300083A
:1000A00085970008899700088D97000881940008BB
:1000B000EF930008999700089D970008A197000802
:1000C000A5970008A9970008AD970008B197000808
:1000D000B59700085B930008BF930008C19700081C
:1000E000C5970008C9970008CD9700080EB42DE900
:1000F000F04FC0B00700519C529DDDF84C81549EDA
:1001000020A8802101F05CFE00A8802101F058FEAB
:10011000FFB217F07F00012840F095819DF834016F
:10012000202840F090819DF83501022840F08B8115
:10013000002082461FFA8AFA20A860210AF80010DF
:100140001AF1010A1FFA8AFA20A800210AF8001001
:100150001AF1010A1FFA8AFA20A800210AF80010F1
:100160001AF1010A1FFA8AFA20A800210AF80010E1
:100170001AF1010AF6B216F1080080B2000A1FFA5D
:100180008AFA20A90AF801001AF1010A1FFA8AFA6C
:1001900020A816F108010AF800101AF1010A1FFA46
:1001A0008AFA20A811210AF800101AF1010A1FFA90
:1001B0008AFA20A840210AF800101AF1010A38062C
:1001C00040F181801FFA8AFA20A82F210AF8001036
:1001D0001AF1010A1FFA8AFA20A8FE210AF8001073
:1001E0001AF1010A1FFA8AFA20A800210AF8001061
:1001F0001AF1010A1FFA8AFA20A800210AF8001051
:100200001AF1010A1FFA8AFA20A800210AF8001040
:100210001AF1010A1FFA8AFA20A800210AF8001030
:100220001AF1010A1FFA8AFA20A800210AF8001020
:100230001AF1010A1FFA8AFA20A800210AF8001010
:100240001AF1010A1FFA8AFA20A800210AF8001000
:100250001AF1010A1FFA8AFA20A800210AF80010F0
:100260001AF1010A1FFA8AFA20A800210AF80010E0
:100270001AF1010A1FFA8AFA20A800210AF80010D0
:100280001AF1010A1FFA8AFA20A800210AF80010C0
:100290001AF1010A1FFA8AFA20A800210AF80010B0
:1002A0001AF1010A1FFA8AFA20A800210AF80010A0
:1002B0001AF1010A1FFA8AFA20A860210AF8001030
:1002C0001AF1010A15E0002083461FFA8BFBBBF1EF
:1002D000100F0ED21FFA8AFA20A81FFA8BFB49A929
:1002E0001BF801100AF800101AF1010A1BF1010BAA
:1002F000EBE7002083461FFA8BFBBBF1100F0ED2F9
:100300001FFA8AFA20A81FFA8BFB4DA91BF80110CF
:100310000AF800101AF1010A1BF1010BEBE71FFAB2
:100320008AFA20A8ADB2290A0AF800101AF1010AC7
:100330001FFA8AFA20A80AF800501AF1010A1FFAD7
:100340008AFA20A8A4B2210A0AF800101AF1010AB8
:100350001FFA8AFA20A80AF800401AF1010AF6B238
:1003600016F1080080B2000A1FFA8AFA20A90AF8DA
:1003700001001AF1010A1FFA8AFA20A816F10801F1
:100380000AF800101AF1010A1FFA8AFA20A80021BF
:100390000AF800101AF1010A1FFA8AFA20A80021AF
:1003A0000AF800101AF1010A002083463000C0B29A
:1003B0001FFA8BFB80B283450DD21FFA8BFB1BF813
:1003C00008001FFA8AFA20A90AF801001AF1010AA6
:1003D0001BF1010BEAE71FFA8AFA20A800210AF8AC
:1003E0000010002081469DF85401112819D1F6B261
:1003F00016F1300189B220A800F028FCC0438146E4
:100400001FFA89F9B9F1000F02D14FF6FF7081464A
:1004100048468DF8AF001FFA89F95FEA19208DF878
:10042000AE000022F6B216F1300189B220A801F028
:100430001AFDDFF8E00D406830F00200DFF8D41D4F
:1004400048600020A2E3FFB217F07F00022840F0CE
:1004500095819DF83401FE2840F090819DF835018A
:10046000802840F08B81002082461FFA8AFA00A87B
:1004700060210AF800101AF1010A1FFA8AFA00A88E
:1004800000210AF800101AF1010A1FFA8AFA00A8DE
:1004900000210AF800101AF1010A1FFA8AFA00A8CE
:1004A00000210AF800101AF1010AF6B216F108004C
:1004B00080B2000A1FFA8AFA00A90AF801001AF1AC
:1004C000010A1FFA8AFA00A816F108010AF80010BA
:1004D0001AF1010A1FFA8AFA00A811210AF800107D
:1004E0001AF1010A1FFA8AFA00A840210AF800103E
:1004F0001AF1010A380640F181801FFA8AFA00A831
:100500002F210AF800101AF1010A1FFA8AFA00A82E
:10051000FE210AF800101AF1010A1FFA8AFA00A84F
:1005200000210AF800101AF1010A1FFA8AFA00A83D
:1005300000210AF800101AF1010A1FFA8AFA00A82D
:1005400000210AF800101AF1010A1FFA8AFA00A81D
:1005500000210AF800101AF1010A1FFA8AFA00A80D
:1005600000210AF800101AF1010A1FFA8AFA00A8FD
:1005700000210AF800101AF1010A1FFA8AFA00A8ED
:1005800000210AF800101AF1010A1FFA8AFA00A8DD
:1005900000210AF800101AF1010A1FFA8AFA00A8CD
:1005A00000210AF800101AF1010A1FFA8AFA00A8BD
:1005B00000210AF800101AF1010A1FFA8AFA00A8AD
:1005C00000210AF800101AF1010A1FFA8AFA00A89D
:1005D00000210AF800101AF1010A1FFA8AFA00A88D
:1005E00000210AF800101AF1010A1FFA8AFA00A87D
:1005F00060210AF800101AF1010A15E00020834674
:100600001FFA8BFBBBF1100F0ED21FFA8AFA00A85B
:100610001FFA8BFB49A91BF801100AF800101AF108
:10062000010A1BF1010BEBE7002083461FFA8BFB4D
:10063000BBF1100F0ED21FFA8AFA00A81FFA8BFB2B
:100640004DA91BF801100AF800101AF1010A1BF15C
:10065000010BEBE71FFA8AFA00A8ADB2290A0AF8E3
:1006600000101AF1010A1FFA8AFA00A80AF80050CD
:100670001AF1010A1FFA8AFA00A8A4B2210A0AF89C
:1006800000101AF1010A1FFA8AFA00A80AF80040BD
:100690001AF1010AF6B216F1080080B2000A1FFA38
:1006A0008AFA00A90AF801001AF1010A1FFA8AFA67
:1006B00000A816F108010AF800101AF1010A1FFA41
:1006C0008AFA00A800210AF800101AF1010A1FFA9C
:1006D0008AFA00A800210AF800101AF1010A002085
:1006E00083463000C0B21FFA8BFB80B283450DD227
:1006F0001FFA8BFB1BF808001FFA8AFA00A90AF8F8
:1007000001001AF1010A1BF1010BEAE71FFA8AFA4C
:1007100000A800210AF80010002081469DF854012D
:10072000112819D1F6B216F1300189B200A800F0F3
:100730008DFAC04381461FFA89F9B9F1000F02D141
:100740004FF6FF70814648468DF82F001FFA89F951
:100750005FEA19208DF82E000022F6B216F1300162
:1007600089B200A801F07FFBDFF8A80A406830F0EA
:100770000200DFF8A01A4860002007E2FFB217F07D
:100780007F00032840F0F981002082461FFA8AFA90
:1007900000A860210AF800101AF1010A1FFA8AFA6B
:1007A00000A800210AF800101AF1010A1FFA8AFABB
:1007B00000A800210AF800101AF1010A1FFA8AFAAB
:1007C00000A800210AF800101AF1010AF6B216F189
:1007D000080080B2000A1FFA8AFA00A90AF801008C
:1007E0001AF1010A1FFA8AFA00A816F108010AF89C
:1007F00000101AF1010A1FFA8AFA00A811210AF85A
:1008000000101AF1010A1FFA8AFA00A840210AF81A
:1008100000101AF1010A380640F181801FFA8AFAA5
:1008200000A82F210AF800101AF1010A1FFA8AFA0B
:1008300000A8FE210AF800101AF1010A1FFA8AFA2C
:1008400000A800210AF800101AF1010A1FFA8AFA1A
:1008500000A800210AF800101AF1010A1FFA8AFA0A
:1008600000A800210AF800101AF1010A1FFA8AFAFA
:1008700000A800210AF800101AF1010A1FFA8AFAEA
:1008800000A800210AF800101AF1010A1FFA8AFADA
:1008900000A800210AF800101AF1010A1FFA8AFACA
:1008A00000A800210AF800101AF1010A1FFA8AFABA
:1008B00000A800210AF800101AF1010A1FFA8AFAAA
:1008C00000A800210AF800101AF1010A1FFA8AFA9A
:1008D00000A800210AF800101AF1010A1FFA8AFA8A
:1008E00000A800210AF800101AF1010A1FFA8AFA7A
:1008F00000A800210AF800101AF1010A1FFA8AFA6A
:1009000000A800210AF800101AF1010A1FFA8AFA59
:1009100000A860210AF800101AF1010A15E0002071
:1009200083461FFA8BFBBBF1100F0ED21FFA8AFA17
:1009300000A81FFA8BFB49A91BF801100AF8001048
:100940001AF1010A1BF1010BEBE71FFA8AFA00A862
:100950003F210AF800101AF1010A1FFA8AFA00A8CA
:10096000FE210AF800101AF1010A1FFA8AFA00A8FB
:1009700000210AF800101AF1010A1FFA8AFA00A8E9
:1009800000210AF800101AF1010A1FFA8AFA00A8D9
:1009900000210AF800101AF1010A1FFA8AFA00A8C9
:1009A00000210AF800101AF1010A1FFA8AFA00A8B9
:1009B00000210AF800101AF1010A1FFA8AFA00A8A9
:1009C00000210AF800101AF1010A1FFA8AFA00A899
:1009D00000210AF800101AF1010A1FFA8AFA00A889
:1009E00000210AF800101AF1010A1FFA8AFA00A879
:1009F00000210AF800101AF1010A1FFA8AFA00A869
:100A000000210AF800101AF1010A1FFA8AFA00A858
:100A10009DF834110AF800101AF1010A1FFA8AFA37
:100A200000A89DF835110AF800101AF1010A1FFA02
:100A30008AFA00A89DF836110AF800101AF1010A86
:100A40001FFA8AFA00A89DF837110AF800101AF167
:100A5000010A1FFA8AFA00A8ADB2290A0AF80010A2
:100A60001AF1010A1FFA8AFA00A80AF800501AF1CE
:100A7000010A1FFA8AFA00A8A4B2210A0AF8001093
:100A80001AF1010A1FFA8AFA00A80AF800401AF1BE
:100A9000010AF6B216F1080080B2000A1FFA8AFABB
:100AA00000A90AF801001AF1010A1FFA8AFA00A83F
:100AB00016F108010AF800101AF1010A1FFA8AFA61
:100AC00000A800210AF800101AF1010A1FFA8AFA98
:100AD00000A800210AF800101AF1010A002083463C
:100AE0003000C0B21FFA8BFB80B283450DD21FFAD3
:100AF0008BFB1BF808001FFA8AFA00A90AF801000C
:100B00001AF1010A1BF1010BEAE71FFA8AFA00A8A1
:100B100000210AF80010002081469DF85401112898
:100B200019D1F6B216F1300189B200A800F08EF8A2
:100B3000C04381461FFA89F9B9F1000F02D14FF67F
:100B4000FF70814648468DF82F001FFA89F95FEA49
:100B500019208DF82E000022F6B216F1300189B26C
:100B600000A801F080F9DFF8AC06406830F0020020
:100B7000DFF8A0164860002008E0DFF8980640681B
:100B800030F00200DFF88C164860002040B0BDE86D
:100B9000F00F5DF810FBF0B40C0092B25618761E00
:100BA0003500AC420CD22678677817EB0626330066
:100BB000181880B29BB2984200D2401CA41CF0E7E7
:100BC000AC4208D1267836023300181880B29BB2A6
:100BD000984200D2401C80B2F0BC70472DE9F04131
:100BE00004000D001600DFF8500D0078301A0700E1
:100BF000E4B2E0198046202215F10801404680B297
:100C0000FFF7C9FF80463A0092B2DFF82C0D00785A
:100C1000401910F12801404680B2FFF7BCFF804622
:100C20001FFA88F8B8F1000F02D14FF6FF78FFE7FE
:100C3000404680B2BDE8F08138B504000D002A00BE
:100C400092B221003A20FFF7C9FF32BD38B5040047
:100C50000D002A0092B221001120FFF7BFFF32BD24
:100C600080B501F079FBDFF8280C00210180DFF866
:100C7000240C00210170DFF8640D0021017001BD1A
:100C800038B5002401F02BFF00F0C6FADFF8040CA1
:100C9000007800282AD0012800F09780022800F070
:100CA000EE81032800F01282042800F01482052847
:100CB00000F02382062800F01481072800F0438109
:100CC000082800F07581092800F0A4810A2800F0A6
:100CD00047820B2800F055820C2800F06A820D280C
:100CE00000F01D820F2800F0798290E2DFF8A00B5F
:100CF000007810F00100C0B2002847D0DFF8E00C07
:100D0000407ADFF8DC1C0968405C0500EDB2280081
:100D1000802802D0852814D027E0DFF8940DC06821
:100D2000C0F34000C0070CD4DFF8840DC06850F059
:100D30000200DFF87C1DC860DFF8580B0B21017042
:100D4000A4E7DFF86C0DC068C0F34000C0070CD406
:100D5000DFF85C0DC06850F00200DFF8541DC86079
:100D6000DFF8300B0C21017090E7DFF8240B0068EE
:100D700040084000DFF8181B0860DFF8140B00681B
:100D800040084000DFF8081B08607FE7DFF8000B31
:100D90000068C0F38010C00716D5DFF8140DC068D6
:100DA000C0F34000C00700F13282DFF8040DC068D4
:100DB00050F00200DFF8F81CC86000F0D5FEDFF844
:100DC000D40A0221017061E721E2DFF8180C0078F3
:100DD0000C2807D0C0F084800E286CD00ED30F28CA
:100DE0003ED07DE0DFF8CC0C00892830DFF8C81C4D
:100DF0000880DFF8A00A0221017047E7DFF8B00C95
:100E0000C068C0F34000C0076AD4DFF8A40CC06813
:100E100050F00200DFF8981CC860DFF8740A006820
:100E200030F00200DFF8681A0860DFF8B80B408A7B
:100E300002F02CFDDFF8840C02F008FD00F0F2FE59
:100E4000DFF84C0A006850F00400DFF8441A08602C
:100E5000002000F0F3FBDFF83C0A062101703FE0C0
:100E6000DFF84C0CC068C0F34000C00738D4DFF88E
:100E7000400CC06850F00200DFF8341CC860DFF896
:100E8000100A006830F00800DFF8041A086002F069
:100E90003DFE00F0C7FEDFF8F809006850F01000D2
:100EA000DFF8EC190860002000F0C8FBDFF8E40967
:100EB0000821017014E0DFF8640D007800280FD1DC
:100EC000DFF8000D0F2180F83010DFF8500D012100
:100ED000017001F004FEDFF8BC090A210170FFE790
:100EE00095E1DFF8380D0078002840F09081DFF8B8
:100EF000C00BC06830F00200DFF8B41BC860DFF838
:100F0000C40C90F83000002813D0DFF8D80ADFF8BE
:100F1000B41C91F830100175DFF87409006830F0E6
:100F20000400DFF86C190860DFF86809002101701F
:100F30006DE103F0C1F8DFF82C1C0860DFF85409FC
:100F40000721017063E1DFF848090068C0F3400041
:100F5000C00710D5DFF88C0A00210175DFF83009D1
:100F6000006830F00400DFF828190860DFF8240971
:100F7000002101701BE003F09FF8DFF8E81B09680F
:100F8000401A0002000A4FF2312188420FD3DFF8E5
:100F9000540A17210175DFF8F808006830F00400E2
:100FA000DFF8EC180860DFF8EC08002101702EE192
:100FB000DFF8680C0078002840F02981DFF8F00A9B
:100FC000C06830F00200DFF8E81AC860DFF8F40B00
:100FD00090F83000002813D0DFF8080ADFF8E41B8F
:100FE00091F830100175DFF8A808006830F01000A3
:100FF000DFF89C180860DFF89C080021017006E10A
:1010000003F05AF8DFF85C1B0860DFF88808092154
:101010000170FCE0DFF878080068C0F3C000C0078A
:1010200010D5DFF8C00900210175DFF864080068F9
:1010300030F01000DFF858180860DFF85808002179
:1010400001701BE003F038F8DFF8181B0968401A3C
:101050000002000A4FF2312188420FD3DFF88409E1
:1010600018210175DFF82808006830F01000DFF85B
:1010700020180860DFF81C0800210170C7E000207C
:10108000040000F0CFFDDFF808080068C0F380100E
:10109000C00707D5012000F0D1FADFF8F8070D21CD
:1010A0000170F3E5002000F0C9FADFF8E4070068FA
:1010B000C0F34010C00704D5DFF8D8070421017041
:1010C00003E0DFF8D00705210170DFE5DFF8C40792
:1010D000002101709BE0DFF8440B0078002840F00D
:1010E0009680DFF80009DFF8DC1A91F830100175FE
:1010F000DFF8A0070221017089E0DFF8200B0078FB
:10110000002840F08480DFF8DC08DFF8B81A91F896
:1011100030100175DFF87C070021017077E0DFF8FF
:10112000FC0A0078002872D1DFF8F40ADFF8941A7C
:1011300091F830100171DFF85807006830F0400076
:10114000DFF84C170860DFF86809C06830F002006B
:10115000DFF85C19C860DFF83C070021017056E039
:10116000DFF8B80A0078002851D1DFF87808DFF8F6
:10117000541A91F830100175DFF81807002101703A
:1011800045E002F02AFCDFF8E00B02F05FFBDFF83D
:101190000007006840084000DFF8F416086000F01F
:1011A00041FD002000F04AFADFF8E8060F21017047
:1011B0002DE0002002F050FDDFF8D4060068400862
:1011C0004000DFF8CC16086000F02CFD002000F095
:1011D00035FADFF8C0060F21017018E0DFF83C0A8D
:1011E0000078002813D1DFF8FC07DFF8D81991F850
:1011F00030100175DFF89C0600210170DFF8B0089F
:10120000C06830F00200DFF8A818C860FFE731BD01
:1012100000000000102C002038B5DFF8C00700786F
:10122000002809D0022800F097812ED3042800F06E
:10123000A281C0F0B18100E2DFF854060068C0F37B
:10124000C010C00720D500F0BFFC002810D1DFF887
:10125000D00900210171DFF83806006830F0800005
:10126000DFF82C160860DFF8740701210170D4E75D
:10127000DFF8AC091E210171DFF81406006830F0B8
:101280008000DFF80C160860D7E1DFF85407807A99
:1012900000281AD1DFF84807007ADFF844170968F8
:1012A000401804002078C0B20009062809D0DFF8F1
:1012B0003007006803F0A7FADFF82007002101706B
:1012C000BBE1200000F03AFB0EE0DFF81407807A63
:1012D000012809D0DFF80807006803F094FADFF866
:1012E000FC0600210170A8E1DFF8F406007DFF286C
:1012F0000DD1DFF8EC06006803F085FADFF8B807D7
:1013000000210180DFF8D4060021017095E1DFF8AB
:101310005C0A01F0F8F900282AD1DFF8500A01F040
:1013200047FA002824D1DFF8440A01F054FA0028D3
:101330001ED1DFF83C0A007A02280BD1DFF8A006A4
:10134000807A012801D100F04FFBDFF890060321DD
:10135000017062E7DFF88806006803F054FADFF8EE
:10136000580700210180DFF874060021017064E154
:10137000DFF86C06407ADFF8681609684018040048
:10138000DFF8F009DFF8F0190160DFF8AC050021A3
:101390000170DFF8E80900210170DFF84406807C65
:1013A000112802D03A284DD0C8E0DFF83406807A00
:1013B000002842D1A07900020500E0794519ADB2BC
:1013C000002D3AD0DFF81806018ADFF81406007AFB
:1013D000DFF80C2612688018FFF738FC4FF6FF7113
:1013E00088422AD0DFF898090078032803D3280020
:1013F00080B203F06DFADFF88809007803280ED375
:10140000DFF8DC05018ADFF8D805007ADFF8D0259F
:1014100012688018FFF71AFC80B203F059FADFF85F
:10142000C005006803F0EFF9DFF88C0600210180A9
:10143000DFF8A80500210170EFE6DFF8A005022122
:101440000170EAE6DFF89805807A00281DD1DFF800
:101450009005018ADFF88805007ADFF88425126894
:101460008018FFF7E9FB4FF6FF7188420DD0DFF8D7
:101470007005006803F0C7F9DFF83C060021018021
:10148000DFF8580500210170C7E62078802810D0C9
:1014900081282ED0852843D1DFF8F403006850F06E
:1014A0000100DFF8EC130860DFF83005042101705B
:1014B000B3E6DFF82C05008A50280DD3DFF82005AD
:1014C000006803F0A0F9DFF8F00500210180DFF8E3
:1014D0000C0500210170A0E6DFF8B403006850F0AD
:1014E0000100DFF8AC130860DFF8F004042101709C
:1014F00093E6DFF89C030068C0F38000C00701D5C5
:1015000002F045FADFF8D804006803F07CF9DFF850
:10151000A80500210180DFF8C404002101707CE6E9
:10152000DFF8BC04006803F06EF9DFF88C050021D9
:101530000180DFF8A804002101706EE6DFF8A00446
:10154000006803F060F9DFF8700500210180DFF822
:101550008C040021017070E004F007FB00286CD1BE
:1015600004F012FBDFF8740400210170DFF8480575
:101570000021018061E0C648007810F00100C0B28F
:1015800000285AD1DFF85804006803F03CF9DFF86E
:101590004C040021017050E0DFF8D4074068C0F32C
:1015A0004000C00749D4DFF8C807406850F0020087
:1015B000DFF8BC174860C02002F0CFFCDFF8200441
:1015C000807A012813D103222821DFF8B80700F020
:1015D0004AFC0122DFF80804018ADFF80404407A9B
:1015E000DFF8FC331B68C01800F03DFC0FE001225F
:1015F000DFF8EC03008A10F1280189B2DFF8E0037C
:10160000007ADFF8DC331B68C01800F02CFCDFF830
:101610006007406830F00200DFF854174860DFF8D8
:10162000C003006803F0EFF8DFF88C0400210180AC
:10163000DFF8A80300210170FFE731BD70B5040099
:10164000E4B2002C40F0E68000200500EDB2102D41
:1016500013D2DFF85C044069401EDFF8541448617F
:10166000EDB26842DFF84C14401890F82B00DFF818
:101670004014496908706D1CE8E700200500EDB2D0
:10168000102D12D2DFF828044069401EDFF8201424
:101690004861EDB26842DFF81C144018C07EDFF8E4
:1016A0001014496908706D1CE9E7DFF8040440690B
:1016B000401EDFF8FC134861DFF8F4034069DFF8EF
:1016C000F413C97A0170DFF8E8034069401EDFF8BF
:1016D000E0134861DFF8D8034069DFF8D813897A4E
:1016E0000170DFF8CC034069401EDFF8C413486185
:1016F000DFF8BC034069DFF8BC1309890170DFF82B
:10170000B0034069401EDFF8A8134861DFF8A40366
:10171000008980B2000ADFF8981349690870DFF881
:1017200090034069401EDFF888134861DFF88003AA
:101730004069DFF8801349680170DFF8740340697D
:10174000401EDFF86C134861DFF868034068000A48
:10175000DFF85C1349690870DFF854034069401EE4
:10176000DFF84C134861DFF84C034068000CD149A6
:10177000497809010F310840CD4949690870CC48C2
:101780004069401ECA494861CA484078C0B2C94948
:101790000978090111EB1010C54949690870C4485E
:1017A000007E2830C249087600200600C148807AB1
:1017B000112818D1BF480189BD484069FFF746FA92
:1017C000C0430600B6B2002E02D14FF6FF700600ED
:1017D000B748406980F82F60B5484069B6B2310A11
:1017E00080F82E1016E0B348807A3A2812D1B1481A
:1017F0000189AF484069FFF71FFAC0430600AC48B3
:10180000406980F82B60AA484069B6B2310A80F876
:101810002A10FFE7A84800210180DFF8A80309216A
:101820000170DFF8A003A349C97A4173DFF894037C
:10183000A049897A0173DFF88C039E4949780171C8
:10184000DFF880039B4949688160DFF83C05DFF8D9
:101850003C15102204F016FBDFF83405DFF83415D0
:10186000102204F00FFBDFF85C030F2180F830102A
:10187000DFF8A8030121017001F031F970BD57486C
:101880000078002801D0012000E00020C0B270479D
:10189000F82B00207A2C002000B55148DFF8F8140E
:1018A000096801604E48DFF8F014097901714C486D
:1018B000DFF8E414497A0172DFF8DC04407A28305A
:1018C000474948724648DFF8D014897C8172444801
:1018D000DFF8C4148989C186DFF8BC04807C012844
:1018E00026D13F48DFF8B014C97CC1723C48DFF80C
:1018F000A8144969C1603A48DFF89C14098B018239
:101900003748DFF89414897E8174DFF85C04DFF8CF
:101910008C14102204F0C3FADFF85004DFF88014AE
:10192000102204F0BCFA2E48DFF86C14497A417298
:101930002A480121017000BD7D2C002002784378E7
:10194000DBB21B0953EA0212254BDA72401C027803
:1019500012F00F021204224BDA60401C204AD268B7
:10196000037812EB03221E4BDA60401C1C4AD2683B
:1019700003789A181A4BDA60401C02781202184B4E
:101980001A82401C164A128A03789A18144B1A823B
:10199000401C134A03789374401C114A0378D37493
:1019A000401C00221100C9B2102907D2C9B20C4A4A
:1019B0008A1803781375401C491CF4E700221100B3
:1019C000C9B2102908D2C9B2054A8A18037882F828
:1019D0002430401C491CF3E7704700007B2C00209A
:1019E000442A0020AC2B002000210800C0B2282887
:1019F00006D2C0B2DFF88C1300224254401CF5E737
:101A0000DFF8A013C97AC9B209096031DFF874237D
:101A10001170DFF89013C968090CDFF88823D27AB7
:101A200012010F321140DFF85C235170DFF874139C
:101A3000C968090ADFF84C239170DFF84813DFF812
:101A40006423D268CA70DFF85C13098A89B2090A74
:101A5000DFF830231171DFF82C13DFF84823128AE6
:101A60004A71DFF82013DFF83C23927C8A71DFF89B
:101A70001413DFF83023D27CCA7100210800C0B2F1
:101A8000102813D2C0B2BF494118C0B2DFF81423E6
:101A90008218127D0A72C0B2BA494118C0B2C14A56
:101AA000821892F824200A76401CE8E7704700006C
:101AB000482B0020C4290020662C0020AE2B0020DB
:101AC000B94A0623137002784378DBB21B0953EA44
:101AD0000212B54B5A70401C027812F00F02120429
:101AE000B14B5A60401CB04A5268037812EB032293
:101AF000AD4B5A60401CAC4A526803789A18AA4B06
:101B00005A60401C02781202A74B1A81401CA64A58
:101B1000128903789A18A44B1A81401CA24A0378B0
:101B20009372401CA04A0378D372401C002211001B
:101B3000C9B2102907D2C9B29B4A8A180378137315
:101B4000401C491CF4E700221100C9B2102907D239
:101B5000C9B2954A8A1803781377401C491CF4E7E8
:101B600070470000542C002010B59048FFF7A8FFE4
:101B70008F48904941618C4800898C49401800F297
:101B80002800040088480089283089490876884858
:101B9000007E00280FD0641E85484069401E84499D
:101BA00048618348007E401E81490876804840692C
:101BB00021780170EBE77C48008928307C49087661
:101BC00010BD00007C2A002010B5784800797749C4
:101BD000497951EA002028300400200080B202F048
:101BE000BBFD704908606F480068002801D10120E2
:101BF00013E02200D2B26D496A48006802F0EEF9A3
:101C00006848002101726748282141726548002117
:101C100081726448FF210171002010BD6D2C0020ED
:101C20002C2C002080B56048007FFF2833D15E480F
:101C3000007FFF282AD15C48407F022826D15A48DD
:101C4000C08B002822D15848008C00281ED156484D
:101C5000408C00281AD15448808C002816D1524854
:101C6000C08C002812D15048008D00280ED14E485B
:101C700090F82A00002809D14B4890F82B00022840
:101C800004D14D484FF6FF7101806BE04A484FF692
:101C9000FF71018066E03F4800F0B0FD01285ED191
:101CA000414890F82700FF2814D13F4890F82800B9
:101CB000FE280FD13C4890F8240080070AD43A4807
:101CC00090F82A00384991F82B1051EA00203A493F
:101CD000088047E0344890F82400C0F34000C0B2C8
:101CE000002838D034484FF6FE7101802E4890F815
:101CF000240090F00200304908722F482A4991F8D8
:101D0000251041722C48284991F8261081722A48E2
:101D1000254991F82710C1722748234991F82810C6
:101D200001732548204991F82910417322481E4922
:101D300091F82A10817320481B4991F82B10C17328
:101D40001D481E4941600E480078032802D31B48F5
:101D500002F0F7FD06E018480021018002E0164875
:101D60000021018001BD0000582A0020682A0020BF
:101D7000102C0020582C0020562A00207C2C0020FB
:101D8000722C0020E02A00208A2A0020D02900207E
:101D90009A2A0020E0290020082A0020242A002076
:101DA000342A0020442A0020C429002014290020BD
:101DB000482B002043280020642B00206C2B00209F
:101DC000002204F09BB810B450F8041B81B10268E3
:101DD0001218001D50F8043BDC0744BFA9F10104B0
:101DE000E31852F8044B43F8044B091FF9D1EBE711
:101DF00010BC704738B5040002F0E1F8002804D0A8
:101E000002F0BCF82070012017E002F055F905003F
:101E100002F0D5F8002804D002F0B0F820700120BC
:101E20000BE002F049F9401B0002000A46F2E00113
:101E30008842EDD300202070002032BD80B5DFF84D
:101E4000EC0400210171DFF8E40402210172DFF8E3
:101E5000DC0401214172642000F088F8DFF8D0042E
:101E60000021017001BD70B504000D001600ADB277
:101E7000812D34D2F6B2042E01D300200600F6B232
:101E8000002E02D0F6B2022E02D1C02002F065F878
:101E90002800451E80B2002818D02078C02802D023
:101EA000DB2807D00DE0DB2002F057F8DC2002F041
:101EB00054F809E0DB2002F050F8DD2002F04DF884
:101EC00002E0207802F049F8641CE1E7F6B2002E47
:101ED00002D0F6B2012E02D1C02002F03EF870BD51
:101EE00038B5002502F0E8F8040000A8FFF782FFEB
:101EF00001282BD19DF80000C02802D0DB2806D095
:101F000016E0002D02D0280080B22DE01EE000A8CF
:101F1000FFF770FF9DF80000DC2802D0DD2804D018
:101F200006E0C0208DF8000002E0DB208DF8000004
:101F3000642D06DADFF8FC039DF8001029546D1CAF
:101F400004E0632000F012F800200DE002F0B4F885
:101F5000001B0002000ADFF8E0138842C5D3280006
:101F600080B200F003F8002032BD7047002211005B
:101F700089B280B2814206D289B2DFF8B823002349
:101F80008B54491CF4E7704770B596B0DFF8A00396
:101F9000007800280AD0022800F0A181C0F0B181A9
:101FA000042800F0C880C0F08A81BCE102F007F884
:101FB000002800F0BF80FFF793FF0400A4B2002CBC
:101FC00000F0B880DFF86C0300783F2804D0DFF819
:101FD00064030078212804D1200080B2FFF7C5FFF8
:101FE000A8E0DFF850030078C0B2000906285AD1F3
:101FF000DFF840030079DFF83C13497951EA00200B
:102000002830A4B2A04204D0200080B2FFF7AEFF77
:1020100089E1A4B2652C04D3200080B2FFF7A6FFAB
:1020200081E100200500EDB2102D10D2EDB2DFF8F5
:1020300004032818007AEDB212A96854EDB2BD4825
:102040002818007EEDB20AA968546D1CEBE79DF8D4
:102050004800FF2804D1200080B2FFF787FF62E12B
:102060000AA800F050FB002813D10AA800F0A0FB3A
:1020700000280ED10AA800F0AEFB002809D1AF4815
:10208000006850F04000AD490860A9480121017086
:1020900049E1AA48006850F08000A8490860A448B7
:1020A0000221017072E7A3480078A12831D1A1482C
:1020B0004078A2282DD19F488078012804D02000A4
:1020C00080B2FFF753FF2EE19A48C07F994991F8FB
:1020D000201051EA00202130A4B2A04204D02000F8
:1020E00080B2FFF743FF1EE19248C078022803D177
:1020F0008F480421017049E78E48C078012803D138
:102100008B480421017041E7200080B2FFF72EFFC9
:1021100009E188480078B72808D186484078B8286F
:1021200004D1200080B2FFF721FF03E0200080B23D
:10213000FFF71CFFF7E082480078002840F0F380AA
:102140007C48C07EFF2808D17E48407B06007D4841
:10215000407B401C7B49487302E07648C07E060005
:102160007448007900286BD0022835D080F0A28016
:102170000EA87549102203F085FE6E4890F82000E5
:102180000790724806906B48007F0590F6B204965F
:102190006848807E03906748007E6649497E51EA20
:1021A000002080B202906348C07D01906148407D6C
:1021B0006049897D51EA002080B200900EA80FC8C6
:1021C00002F04FFC6248192181755D4801210170C0
:1021D000574803210170D9E60EA85B49102203F08D
:1021E00051FE544890F820000790584806905148F6
:1021F000007F0590F6B204964E48807E03904D48CD
:10220000007E4C49497E51EA002080B20290494844
:10221000C07D01904748407D4649897D51EA0020B4
:1022200080B200900EA80FC802F08BFC484819211C
:1022300081754348012101703D4803210170A5E6E5
:102240000EA84149102203F01DFE3A48807F0990F4
:102250003848407F0890374890F8200007903B4866
:1022600006903448007F0590F6B204963148807E8F
:1022700003903048007E2F49497E51EA002080B209
:1022800002902C48C07D01902A48407D2949897DD3
:1022900051EA002080B200900EA80FC802F0C1FCE5
:1022A0002B481921817526480121017020480321FE
:1022B00001706BE6200080B2FFF758FE33E0204843
:1022C000007800282FD12248807D002803D11848AB
:1022D0000021017002E016480021017023E0174838
:1022E0000068C0F3C010C0071DD41A480079002848
:1022F00003D10F480021017002E00D480021017058
:1023000011E00E480068C0F38010C0070BD41148DC
:102310000079002803D106480021017002E004483A
:1023200000210170FFE716B070BD0000102C0020E6
:102330007F2C002014290020E1750900F82B0020D3
:102340006F2C0020B42500201929002035290020F9
:102350007C2B00202C2C002000B583B04FF49E7203
:102360000021DFF8580603F0E1FD6C220021DFF8C0
:10237000500603F0DBFDDFF844067F210160DFF843
:102380003C0640210171DFF8340647F23051C1604C
:10239000DFF828064FF47A714161DFF82006012149
:1023A0000176DFF8180601214176DFF81806DFF81C
:1023B0000C1609680180DFF8100648F2FE01018062
:1023C000DFF8040600214180DFF8FC050021818050
:1023D000DFF8F4050021C18000200190002000906A
:1023E000002300224021DFF8E00500F0AFF8DFF81D
:1023F000D80500F001FB03220021DFF8CC0500F036
:10240000FFF8DFF8C40540F2FF210180DFF8B805CE
:1024100000214180DFF8B00500218180DFF8A805A8
:102420000021C180DFF8A00500210181DFF89805B7
:1024300000214181DFF8900500218181DFF88805C6
:102440004FF48071C181DFF8800500F072F9DFF888
:10245000780540F2FF210180DFF86C050021418002
:10246000DFF8640500218180DFF85C050021C18070
:10247000DFF8540500210181DFF84C05002141817E
:10248000DFF8440500218181DFF83C054FF400713D
:10249000C181DFF8340500F04CF907BD80B5DFF8E5
:1024A000280548F2FE010180DFF81C05002141806B
:1024B000DFF8140500218180DFF80C050021C180C0
:1024C000DFF808050288DFF80805418ADFF8F8041C
:1024D00000F09DFA04220021DFF8EC0400F090F8EF
:1024E00001BD2DE9F04705000E0017009846089C35
:1024F000DDF824900020C9F80000AA46F6B2BFB269
:1025000007FB0650824517D29AF8000000280DD02C
:10251000E4B2E208D2B241461AF1020003F012FD21
:10252000002805D1C9F800A000200DE0C9F800A0DE
:10253000BFB217EB0A0AE1E7D9F80000002801D082
:10254000012000E00220C0B2BDE8F0872DE9F04391
:1025500083B004000D0016001F00DDF82880DDF8B0
:102560002C90DFF870040190EDB200952300242236
:102570000321DFF84C04FFF7B4FF01283DD1DFF859
:102580005404006801210170DFF848040068801CD1
:102590002100102203F076FCDFF83804006885740F
:1025A000DFF830040068C674DFF82804006880F89B
:1025B0002070DFF820040068C0F81C80DFF81404E5
:1025C0000068C0F81890DFF810040078032806D3DC
:1025D0000021DFF800040068801C02F0DAF9DFF85F
:1025E000F8030078032804D3EDB2280080B202F08B
:1025F0006FF9DFF8E003006800E00020BDE8FE832B
:102600007CB504000D001600DFF8D0030190802097
:10261000009023001C220421DFF8C403FFF761FFB0
:1026200001286ED1DFF8B403006801210170DFF8E2
:10263000AC030068801C2100102203F023FCDFF8AB
:102640009C030068C674DFF894030068012181745C
:10265000002D05D1DFF8840300680121017504E035
:10266000DFF87803006800210175DFF86C0300785B
:10267000032806D30021DFF864030068801C02F001
:1026800088F9DFF854030078032806D3DFF84C03F9
:102690000068C07C80B202F01BF9DFF82C03FF2138
:1026A0000170DFF8240302214170DFF81C030021D0
:1026B0004180DFF8140300218180DFF80C03002142
:1026C000C180DFF8040300210181DFF8FC02002152
:1026D0008172DFF8F4020121C172DFF8EC02FF2100
:1026E0000173DFF8E402617B4173DFF8DC02E1890A
:1026F000C181DFF8D40200F01CF8DFF8E0020068C6
:1027000000E0002076BD1CB50400DFF8D002019087
:102710008020009023001C220421DFF8C402FFF770
:10272000E0FE002803D1DFF8B402006800E00020DA
:1027300016BD30B583B00400DFF8A80201908020F8
:102740000090230014220621DFF89C02FFF7C9FE47
:102750000500EDB2002D0CD1DFF888020068807C06
:10276000401CDFF8801209688874DFF8780200687E
:102770001DE0EDB2012D19D1DFF8680200680121DA
:102780000170DFF860020068801C2100102203F055
:1027900079FBDFF850020068807C401CDFF84412AF
:1027A00009688874DFF83C02006800E000203EBD44
:1027B0001CB504008B480190802000902300142257
:1027C00006218948FFF78DFE002802D18548006860
:1027D00000E0002016BD1CB5040084480190802054
:1027E00000902300122203218148FFF77AFE00287F
:1027F00002D17E48006800E0002016BD10B504003C
:1028000074486F490160734800687A4988421BD256
:1028100070480068007800280FD06E480068807CFF
:10282000C0B2C208D2B221006A480068801C03F01E
:1028300089FB002801D1012007E06648006800F20A
:10284000240064490860DEE7002010BD2DE9F04156
:1028500004000D00002600275FF000082878FE28FD
:1028600002D16878802802D02878FF2807D12878FC
:10287000FF2836D1687810F00E000E2831D1574865
:102880005749016055480068594988423AD253482F
:102890000068007800281DD050480068807C01281E
:1028A00018D14E4800688078FE2804D14B48006853
:1028B000C07880280ED049480068811C280000F0AC
:1028C000BBF80700FFB2F6B2B74203D33E0043485D
:1028D000006880464148006800F21C003F490860DB
:1028E000D0E7287AC0F34000C0B2002805D0032109
:1028F000012000F023F8804604E00421012000F0CC
:102900001DF88046B8F1000F10D100202080002073
:1029100060800020A0800020E08000202081002036
:1029200060810020A0810020E08105E0200018F1F6
:102930000201102203F0A6FABDE8F0810200274848
:10294000274B036025480068294B984234D223481E
:1029500000680078002828D05FF0FF3052B2824231
:1029600008D01E480068807C13005BB200B21BB226
:1029700098421AD15FF0FF3049B2814208D017481F
:102980000068C07C0B005BB200B21BB298420CD155
:10299000124800688078FE2807D110480068C07887
:1029A000802802D10D48006807E00C48006800F25A
:1029B0001C000A4B1860C5E70020704778240020EF
:1029C00044280020242C0020D82B00201820002090
:1029D00034270020442C0020722C0020382C0020AA
:1029E000942400203C2C00203A250020402C00207C
:1029F00004250020B028002010B5040014F10800C0
:102A000001F0A8FB207A90F00200207210BD89B27C
:102A10000B0A0372417200238372FF23C372FE23E9
:102A200003730023437392B2130A8373C273037A4E
:102A300013F0FD0303727047F0B40200002000267B
:102A40003300DBB2102B19D2DBB29E5CDBB25F5CD1
:102A5000BE4202D108305B1CF3E7DBB29E5CDBB206
:102A60005F5C7E40350000263400E4B2082C05D2BD
:102A70002E0603D4401C6D00641CF6E7C0B2F0BC07
:102A8000704750F8041B61B150F8042BD30744BFC2
:102A9000A9F101039A18002342F8043B091FFAD157
:102AA000EFE77047DFF8FC0900210170DFF8F40A56
:102AB00000210170DFF8EC0A00210171DFF8E80A5B
:102AC00000210170DFF8E40A00210170DFF8D40A68
:102AD00000214171DFF8CC0A00218171704780B577
:102AE00003F019FB00F0DCF9DFF8BC0A00780028DD
:102AF0000FD001282AD0022861D0032800F0AB8033
:102B0000062800F07F80072800F094800E2867D008
:102B1000CDE000F043FB002817D1DFF8940AC0682D
:102B2000C0F34000C00710D4DFF8840AC06850F03A
:102B30000200DFF87C1AC86000F0CBFA012000F038
:102B4000B7F8DFF8640A0E210170B0E0DFF8640A1C
:102B50000078092802D00A2815D030E0DFF8580A9A
:102B60000021C175DFF83C0A0079012801D000F08E
:102B70009BFC00F029FD002000F09AF8DFF8280AFD
:102B8000022101701BE004F077FD03F00DFA04F060
:102B900024FF03F05DFADFF81C1A81F83000DFF83B
:102BA000140A90F83000002804D0DFF8FC09002156
:102BB000017004E0DFF8F0090321017094E7DFF809
:102BC000FC090078002872D1DFF8E809DFF8F01975
:102BD000097980F83010DFF8D0090021017066E033
:102BE000DFF8D8090078002861D1DFF8C409C0688F
:102BF00030F00200DFF8B819C860DFF8AC09002136
:102C0000017054E0DFF8B409007800284FD1DFF8F4
:102C1000B00907210170DFF8900907210170DFF882
:102C2000A0090A210171DFF894090121017003F064
:102C300072FA3CE0DFF884090078002837D1DFF829
:102C40007409DFF87C19097980F83010DFF8580929
:102C5000002101702BE0012003F048FA002003F06E
:102C60004FFA04F0CAFEDFF83C09006850F001009A
:102C7000DFF830190860DFF84C09406850F4006054
:102C8000DFF840194860DFF83C09406850F0010067
:102C9000DFF830194860DFF81C09002180F8301097
:102CA000FFF7FCFBDFF8000900210170FFE701BD21
:102CB00038B50400DFF80C094068C0F3C020C00735
:102CC00008D4DFF8FC0809218170DFF8F408082136
:102CD0000170DAE0DFF8E008407D0F21084208D1FA
:102CE000DFF8DC0812218170DFF8D40808210170B8
:102CF000CBE0E4B2002C54D1DFF8B4084069401EA8
:102D0000DFF8AC184861DFF8A8084069DFF8A818B8
:102D100009880170DFF898084069401EDFF89018B4
:102D20004861DFF88C084069DFF88C18098889B29F
:102D3000090A0170DFF878084069401EDFF8701852
:102D40004861DFF86C084069DFF86C18098A017087
:102D5000DFF85C084069401EDFF854184861DFF86E
:102D60005808008A80B2000ADFF8441849690870E0
:102D7000DFF83C084069401EDFF834184861DFF88E
:102D80003808407D401EDFF830184875DFF82018FD
:102D900049690870DFF81808007E401DDFF8101838
:102DA0000876DFF82008408ADFF86C1A0880DFF820
:102DB000680ADFF81018498A4181DFF8FC070088AB
:102DC0004FF6FE7188420CD1DFF84C0ACC21C1735A
:102DD0000822DFF8E4074168DFF8400A01F0FEF856
:102DE00037E0DFF8D40700880500DFF8340A007800
:102DF000032803D3280080B201F06AFDDFF8B8078A
:102E000000884FF6FF7188421CD0DFF8AC070088BD
:102E100004F0A1FE0500DFF8080A0078032803D3B8
:102E2000280080B201F054FD4FF6FF70ADB285422C
:102E300008D1DFF88C0711218170DFF884070821A1
:102E4000017022E0DFF8D009C821C173DFF8C8099A
:102E50004580DFF8C409C07BC0F38100C0B20228FE
:102E60000BD1DFF8B40940884FF6FF71884204D1D6
:102E7000DFF8A4094121817303E0DFF89C09612197
:102E80008173DFF83C0703210170DFF834070A2162
:102E90000171DFF828070121017003F03CF931BD11
:102EA00010B5DFF808070078002805D002284CD0BC
:102EB00003D3032854D0C8E0C7E0DFF86809007ADC
:102EC000DFF86019096840180400207810F0C0008D
:102ED00080280BD12078C0F34010C0B2C00705D5C0
:102EE0002078C0F30010C0B2C00709D4DFF834095D
:102EF000006801F088FCDFF8B40600210170A4E04E
:102F0000200000F0C6F8DFF81C0940894FF6FF7179
:102F100088420ED0DFF80C0940894FF6FE718842D6
:102F200007D0DFF800094089DFF8FC1809888842DB
:102F300006D100F07BF9DFF874060221017003E08E
:102F4000DFF8680603210170ABE7FEF798FC002864
:102F50007BD1FEF7A1FCDFF854060021017074E07C
:102F6000DFF8C008007ADFF8BC180968405C0F2160
:102F7000084213D1DFF8A8080078032804D3DFF84B
:102F8000A408408901F0A4FCDFF89808006801F06B
:102F90003AFCDFF818060021017056E0DFF88008DF
:102FA0000078032804D3DFF87C08408901F090FC06
:102FB00000F0DFF800281DD0DFF86408007803284F
:102FC00004D3DFF8E405007801F07BFCDFF850085B
:102FD0000078032804D3DFF8E405007801F071FCE1
:102FE000DFF84008006801F00EFCDFF8C0050021A2
:102FF000017029E0DFF8AC058079401CDFF8A415EA
:103000008871DFF8A0058079052803D1DFF89405E1
:1030100000218171DFF88C058079DFF8881511EBCC
:10302000C000DFF8001809688160DFF87805807952
:10303000DFF8701511EBC000DFF8E817097A0173AB
:10304000DFF8680500210170FFE710BDDFF85C05BF
:103050000078002801D0012000E00020C0B27047B5
:10306000DFF8C007DFF8C417096809680160DFF8F6
:10307000B407DFF8B817096809790171DFF8A40708
:10308000DFF8A817897E0172DFF8200501210170A1
:103090007047401C01780902DFF888279181401CA5
:1030A000DFF88017898902785118DFF87827918135
:1030B000401C01780902DFF86C275181401CDFF8C1
:1030C0006417498902785118DFF858275181401C4C
:1030D000704770B5DFF8D804DFF85417416100F08D
:1030E0006AF806003068040020783179401AC01E62
:1030F000050020780019C41EDFF8B4040576641EAC
:10310000DFF8AC044069401EDFF8A4144861DFF822
:10311000A0044069217801706D1EEDB2002DEED142
:10312000012000F063F8DFF888044069C0780002ED
:10313000DFF884140880DFF880040088DFF870145A
:10314000496909790818DFF870140880DFF860040D
:1031500040690078401EDFF8581449690870DFF8AC
:1031600050044069007810F00F00DFF84C148874A8
:1031700070BDDFF830148979491C0800C0B20528F9
:1031800001D100210800DFF81C144979C0B288423F
:1031900001D1012000E00020C0B27047DFF8040434
:1031A0004079DFF800148979884201D1012000E0DC
:1031B0000020C0B27047DFF8EC034079DFF8E42369
:1031C0009279904201D100200FE0DFF8D8034079D6
:1031D000401C0100C9B2052901D100200100C9B27B
:1031E000DFF8C00310EBC1000830704710B50400D1
:1031F000DFF8B0034079401CDFF8A8134871DFF80E
:10320000A4034079052803D1DFF898030021417118
:10321000E4B2002C09D0DFF88C034079DFF8841386
:1032200011EBC000806801F0EEFA10BDF8B5DFF8D0
:10323000F405007ADFF8EC150968401800F2050083
:103240000600DFF8E00531780174761C01200400E7
:10325000DFF8D005007C412802D042280DD013E1D0
:10326000DFF8C005007A2018401DDFF8B815487255
:10327000DFF8B0050021817412E1DFF8A80531788C
:103280004174761CDFF89C053178C176761CA41C4D
:10329000DFF89005407C00060FD400200700FFB245
:1032A000082F08D2FFB2DFF87C0538183178017793
:1032B000761C7F1CF3E7083410E0DFF8680548F25D
:1032C000FE018183DFF85C050021C183DFF854052E
:1032D00000210184DFF84C0500214184DFF844051A
:1032E000407C400610D400200700FFB2082F09D20E
:1032F000FFB2DFF830053818317880F82410761CDA
:103300007F1CF2E7083408E0DFF818058289AD4831
:10331000418ADFF82005FFF77AFBDFF80805407CDB
:10332000800610D400200700FFB2082F09D2FFB298
:10333000DFF8F0043818317880F82C10761C7F1CE8
:10334000F2E7083410E0DFF8DC0448F2FE01818582
:10335000DFF8D0040021C185DFF8C8040021018610
:10336000DFF8C00400214186DFF8B804407CC006C5
:1033700010D400200700FFB2082F09D2FFB2DFF8F7
:10338000A4043818317880F83410761C7F1CF2E7DA
:10339000083408E0DFF88C0442898A48418ADFF863
:1033A0009804FFF734FBDFF87C04407C00071FD44F
:1033B000DFF870043178C174761C30780004DFF8CF
:1033C00064144861761CDFF85C044069317810EBC6
:1033D0000120DFF850144861761CDFF8480440698A
:1033E00031780818DFF83C144861761C241D07E08A
:1033F000DFF830040021C174DFF8280400214161A6
:10340000DFF82004407CC0F341000500EDB2002D40
:1034100006D1DFF8100431788176761C641C16E042
:10342000EDB2012D04D1DFF8FC03112181760EE00D
:10343000EDB2022D04D1DFF8EC033A21817606E0EB
:10344000EDB2032D03D1DFF8DC0306218176DFF82E
:10345000D403407CC007DFF8CC03007A2018401D5D
:10346000DFF8C0134872DFF8BC0300680078DFF8AB
:10347000B413497A401A401EDFF8A8130883DFF816
:10348000A403012181740BE0DFF89803007A20186F
:10349000401DDFF890134872DFF888030021817423
:1034A000F1BD00006E2C002080B54248007B112841
:1034B00006D14148C07D50F002003F49C87514E074
:1034C0003C48007B3A2806D13B48C07D50F00400C0
:1034D0003949C87509E03748007B062805D13648C8
:1034E000C07D50F006003449C87532480079002884
:1034F00009D130488068002805D12F48C07D50F0A0
:1035000008002D49C8752B48807FFF280CD12A4818
:10351000C07D50F080002849C8752748C07D50F014
:1035200040002549C8753CE0DFF81003FFF766F955
:10353000012836D11F48807FFE280FD11D48C07F4B
:1035400080280BD11C48C07D50F080001A49C875F6
:103550001948C07D50F020001749C8751648C07D35
:1035600050F040001449C875124890F82900FF280F
:1035700009D1104890F82A00FE2804D10D4890F88F
:103580002600800707D50B4890F82600C0F34000BE
:10359000C0B2002805D00848C07D50F01000064990
:1035A000C87501BDB02A00206D2C00206C2C0020B5
:1035B000482B00207C2A0020642B0020782C00203F
:1035C0001C2C002034270020DFF87412C97D00294C
:1035D00004D1DFF86C1241228A75F3E0DFF8601243
:1035E00042228A75DFF85C12496901F22801DFF88E
:1035F00054225161DFF84C12097E2839DFF8442249
:103600001176DFF83C12C97DC1F34101C9B200292E
:103610000FD1DFF830124969491E8A4A5161894940
:103620004969894A127B0A708649097E491C854A84
:1036300011768349C97D090730D482494969491EF9
:10364000804A51617F4949697F4A92680A707D4981
:103650004969491E7B4A51617B498968090A794A4F
:103660005269117077494969491E764A5161764914
:103670008968090C11F00F01724A52691170714981
:103680004969491E6F4A51616E4949696E4A12790A
:103690000A706C49097E091D6A4A11766849C97D1C
:1036A000C90619D400210800C0B208280FD2654904
:1036B0004969491E634A5161C0B24142624A891850
:1036C00091F82D105F4A52691170401CECE75D497A
:1036D000097E08315B4A11765949C97D890619D49A
:1036E00000210800C0B208280FD256494969491E76
:1036F000544A5161C0B24142534A891891F8251089
:10370000504A52691170401CECE74E49097E08315D
:103710004C4A11764A49C97D490618D4002108004F
:10372000C0B208280ED247494969491E454A51612D
:10373000C0B24142444A8918497F424A52691170D5
:10374000401CEDE73F49097E08313E4A11763C496D
:10375000C97D090618D400210800C0B208280ED27D
:1037600038494969491E374A5161C0B24142364A17
:103770008918497D334A52691170401CEDE731497F
:10378000097E08312F4A11762E494969491E2D4A72
:1037900051612C4949692C4A527B0A702949097E9A
:1037A000491C284A117627494969491E254A516111
:1037B00024494969224AD27D0A702249097E491C5E
:1037C000204A11761F494969491E1E4A51611D4907
:1037D00049691B4A927D0A701A49097E491C194A97
:1037E00011761749104A12880A82154980224A75B3
:1037F0001349497D51F02001114A51751049497D05
:1038000051F010010E4A51750D49497D51F00A01E0
:103810000B4A517570470000C42B0020C62B0020B6
:10382000722C0020082A0020182000202C2B0020B9
:1038300043280020242A0020342A00209A2A00202D
:10384000642B0020482B00207C2A002010B50400A7
:10385000A44806210170A34800214170A14800211D
:103860004160A048A049097E01819E483A218172A9
:103870009C489E490979C172102221009C4804F09D
:10388000C9F99B499B48FEF7E1FF10BD70B50400E4
:103890009548994941610020050000200600ADB21D
:1038A000A4B2A5420FD290484069401E8E4948619B
:1038B0008D4840690670F6B2FF2E01D30020060045
:1038C0006D1C761CEBE788484069401E86494861BC
:1038D000854840690021017083484069401E824943
:1038E000486181484069002101707F484069401E5D
:1038F0007D49486100F0EEFB7B49496908707F48CB
:10390000794949690978818077484069401E76493C
:10391000486175484069662101707848808810F5D3
:10392000CC407649888070484069401E6E494861A5
:103930006D484069002101706B484069401E6A492A
:103940004861694840690021017067484069401E2C
:1039500065494861644840690021017062484069D6
:10396000401E61494861604840698021017014F13E
:1039700008005D49087661480021C1805F486049C0
:10398000498A018114F130005E49088070BD5E4AA9
:10399000527A5D4B1B68D2181000001D027812028B
:1039A0001100401C02785118401C544A928889B278
:1039B000914211D1027812021100401C0278511874
:1039C000401C4E4AD28889B2914205D14B4A1268B6
:1039D00052F00202494B1A60704770B44A4D6D7A3A
:1039E000494E3668AD192C00241D2578667856EAB4
:1039F00005252800A41C2578667856EA05252900A7
:103A0000A41C414D2D8A083D2A00374D3A4E6E6167
:103A100000252B009BB292B2934210D2324D6D69B9
:103A20006D1E314E75619BB25D4292B21619AD1991
:103A300015F8015C2C4E766935705B1CEAE72A4D5F
:103A40006D696D1E284E7561274D6D692970264D73
:103A50006D696D1E244E7561234D6D6989B20E0A24
:103A60002E70214D6D696D1E1F4E75611E4D6D6965
:103A700028701D4D6D696D1E1B4E75611A4D6D6967
:103A800080B2060A2E70184D6D696D1E164E756156
:103A9000154D6D6900262E70134D6D696D1E124E09
:103AA0007561114D6D6900262E700F4D6D696D1E8B
:103AB0000D4E75610C4D6D6900262E700A4D6D69B5
:103AC0006D1E094E7561084D6D6981262E7012F1CB
:103AD0000805054E357612F130050A4E358070BC6A
:103AE00070470000C4290020482B002078240020C3
:103AF000E0290020D029002043280020F82B0020B6
:103B0000AC2B0020662C0020442A002080B5DFF872
:103B10001803DFF818134161DFF80C034069401EF9
:103B2000DFF804134861DFF80003406900210170E9
:103B3000DFF8F4024069401EDFF8EC124861DFF85C
:103B4000E802406900210170DFF8DC024069401E94
:103B5000DFF8D4124861DFF8D0024069002101701B
:103B6000DFF8C4024069401EDFF8BC124861DFF88C
:103B7000B802406900210170DFF8AC024069401EC4
:103B8000DFF8A4124861DFF8A0024069002101704B
:103B9000DFF894024069401EDFF88C124861DFF8BC
:103BA0008802406900210170DFF87C024069401EF4
:103BB000DFF874124861DFF870024069002101707B
:103BC000DFF864024069401EDFF85C124861DFF8EC
:103BD0005802406985210170DFF84C020821017606
:103BE000DFF84C0206210170DFF844020021417029
:103BF000DFF83C0200214160DFF83402DFF82812D0
:103C0000097E0181DFF828023A218172DFF8200263
:103C1000FF21C172DFF8180240F2FF218183DFF833
:103C200010020021C183DFF80802002101848048CE
:103C3000002141847E48002181847D480021C18487
:103C40007B48002101857A484FF40071418579490C
:103C50007948FEF7FBFD01BD30B504007248734999
:103C600041617148002101767448754901607348CB
:103C700000687449884253D2704800680078002870
:103C800047D06E480068C07C002842D00020050064
:103C9000EDB2102D0FD264484069401E6249486160
:103CA000EDB26842654909684018407C5E4949693F
:103CB00008706D1CECE75C484069401E5A49486139
:103CC000594840695D49096891F8201001705648CB
:103CD0004069401E54494861534840695749096842
:103CE000897C017050484069401E4F4948614E48E8
:103CF0004069042101704C484069401E4A494861AE
:103D000049484069032101704748007E1430464904
:103D100008764A48006800F2240048490860A6E78F
:103D200041484069401E404948613F484069464912
:103D3000097901703C484069401E3B4948613A4856
:103D400040690021017038484069401E3649486189
:103D5000354840690021017033484069401E3249AE
:103D6000486131484069002101702F484069401E78
:103D70002D4948612C484069862101702A48007EFF
:103D8000401D294908762A4806210170284800214B
:103D9000417027480021416025482349097E01815F
:103DA00023483A2181722248FF21C172E4B2012CDA
:103DB0001AD11F4840F2FF2181831D480021C18391
:103DC0001B48002101841A48002141841848002121
:103DD000818417480021C1841548002101851448B9
:103DE0004FF48071418504E012481849102202F016
:103DF00056F80F4848F2FE0181810D480021C1812B
:103E00000B48002101820A48002141820848002114
:103E1000818207480021C1820548002101830448AE
:103E20000021418330BD0000482B002043280020A2
:103E3000C4290020E0290020D0290020502C002097
:103E400044280020B028002078240020582A002090
:103E500080B5DFF87808002101704FF4C06003F0EE
:103E6000E5FE00F007F800F0C3F800F006FC00F0F3
:103E700096F901BD00B587B00121052003F092FF3E
:103E800001214FF4804003F08DFF25208DF80400C0
:103E900001208DF8050007208DF8060001208DF81F
:103EA000070001A803F0C7FEDFF824080021017015
:103EB000DFF82008002101704FF48060ADF80000A9
:103EC00004208DF8030000A9DFF80C0803F096FF2A
:103ED0004FF40070ADF8000003208DF802001820A8
:103EE0008DF8030000A9DFF8F00703F087FF5FF407
:103EF000E13002900020ADF80C000020ADF80E007B
:103F00000020ADF810000020ADF814000C20ADF832
:103F1000120002A9DFF8C40704F056F8012240F2AB
:103F20002551DFF8B80704F0CFF80121DFF8AC071E
:103F300004F0BCF807B000BD10B5040064B2210065
:103F400089B2DFF8980704F0EAF84021DFF88C071F
:103F500004F0EDF80028F8D010BD10B5040064B2EC
:103F6000210089B2DFF8740704F0D9F84021DFF8A6
:103F70006C0704F0DCF80028F8D010BDDFF850071B
:103F800000780100DFF84C070078C9B28842F5D00C
:103F9000DFF840070078401CDFF838271070DFF8A2
:103FA00034070078962803D1DFF828070022027032
:103FB000DFF820070078DFF82827805C7047DFF8FB
:103FC000101709780800DFF80C170978C0B2814291
:103FD00001D0012000E00020C0B27047D2B2002A18
:103FE00005D00B780370401C491C521EF6E7704741
:103FF00010B588B04FF4A06003F05CFE01210120F1
:1040000003F0DFFE1C208DF8000000208DF8010079
:1040100000208DF8020001208DF8030000A803F0B5
:104020000AFEDFF8C0060068C000DFF8BC16B0FB6F
:10403000F1F0401E04004FF6FF70ADF808000020BC
:10404000ADF804000020ADF80A000020ADF806002D
:1040500001A95FF0804004F0C9F80122210089B273
:104060005FF0804004F072F90020ADF810000120EC
:10407000ADF812004FF22440ADF816000020ADF864
:10408000180004A95FF0804004F0FAF800215FF006
:10409000804004F05EF9012203215FF0804004F0CB
:1040A0004AF9DFF848060021017001215FF08040E5
:1040B00004F033F908B010BD10B55FF0804004F093
:1040C00055F90400DFF82406007814EB00442002C0
:1040D000000A10BD80B55FF0804004F047F9C0B21F
:1040E00002BD38B504000D00E4B2022C01D001205D
:1040F00027E0EDB2042D01D3012022E003230022AA
:104100001F21022004F094FA012004F034FA10F088
:104110000F00082806D0032300221F21022004F0EC
:1041200087FAF1E7EDB2680010F10B01C9B2132074
:1041300004F040FA0421142004F03CFA04F0C0FB1F
:10414000002032BD10B504002100C9B20220FFF7E3
:10415000C8FF10BD00210170102141702021817025
:104160003021C170402101715021417100218171C4
:104170000021C17170470021017000214170502160
:1041800081704021C17030210171202141711021C5
:1041900081710021C171704770477047704780B5C9
:1041A00004F029F904F04EF904F075F904F09FFACF
:1041B00004F0A6F901BDF8B504000D00160004F0E6
:1041C00096FA2900C9B22000C0B2FFF78AFF0700A3
:1041D000FFB2002F02D03800C0B20BE004F070FB39
:1041E000DFF80C0503210170DFF8E0040660FFF73B
:1041F000D3FF0020F2BD2DE9F84300200400002089
:104200000500E4B2002C23D0260001208046F6B23F
:10421000002E03D05FEA4808761EF8E7FFF75AFF42
:104220004146491E0840070000208046FFB2002F8B
:1042300003D018F114087F1EF8E7FFF73DFF814611
:10424000FFF73AFFB0EB09000002000A4045F7D340
:1042500004F082FB002801D001200AE06D1C641CE0
:10426000E4B2062C01D305200400EDB2052DC8D31D
:104270000020BDE8F283F8B504000D0000262700F9
:10428000DFF874040078032803D32000C0B200F0E4
:1042900018FBE4B23E2C01D3042037E004F038FBD5
:1042A000012004F068F910F00F00092806D0092356
:1042B00000221F21022004F0BBF9F1E7FFF79BFF6A
:1042C00000281AD004F024FB2900B81CC0B204F066
:1042D000ECF9022300221F21022004F0A9F9012099
:1042E00004F049F910F00F000928F8D103F0CFF9D4
:1042F00002F095FA0020060001E0072006000020E9
:1043000000F0CEF904F0DCFA3000C0B2F2BD2DE9C5
:10431000F04F83B0040000255FF00009002604F090
:10432000AFF980465FFA88F8B8F1800F80F0B58069
:10433000E4B2FF2C08D0E4B2C92C05D0E4B28F2C33
:1043400002D0E4B2192C10D1002082465FFA8AFA1A
:104350005FFA88F818F10200824505DAFF2004F0C0
:104360004BFB1AF1010AF1E797E0DFF890030088B0
:10437000401CDFF888130880012000F091F902F05A
:104380008EFA00280AD15FFA88F818F1030080B28B
:1043900000F0E2F90600002E02D100E07DE07CE0B2
:1043A000B14618F1020089F8000019F10109002056
:1043B00082465FFA8AFA5FFA88F818F102008245AD
:1043C00009DAFF2004F018FB89F8000019F101094F
:1043D0001AF1010AEDE71021DFF8FC0203F0C4FD39
:1043E0005FFA88F8B8F1000F53D04546EDB2052DBD
:1043F0002BD18DF80050012082465FFA8AFAEDB287
:10440000681C82450BDA5FFA8AFA1AF806005FFA2E
:104410008AFA00A90AF801001AF1010AEDE79DF8ED
:10442000040007009DF8010010F00300022830D1BD
:104430005FFA88F818EB060040788DF804009DF8C4
:10444000041000A802F0ECF923E070788DF8000069
:10445000B0788DF801009DF80100C0B280098DF898
:1044600003009DF80100C0F381008DF802009DF863
:104470000300002803D19DF80200002809D002F0B3
:104480000EFA834603F002F919F8011C300002F01D
:10449000C7F904F09AFB04F099FBBDE8F78FFEB56D
:1044A00000208DF80000002404F0A4FB3B2004F061
:1044B000EAFB07003E003B2004F0E5FB0700F6B2F4
:1044C000FFB2BE42F6D1F6B2002E00F0A28001216A
:1044D00000A804F002FCF6B29DF80000C01C864261
:1044E00040F097809DF800003E2880F092809DF873
:1044F0000000801C8DF800009DF80000052823D1E5
:104500009DF800008DF8040004210DF1050004F071
:10451000E4FB01210DF1010004F0DFFB9DF8010037
:10452000000676D59DF8050010F00300022870D132
:104530009DF8080000F081F88DF808009DF808103B
:1045400001A802F06DF964E0012101A804F0C5FBA7
:1045500001210DF1050004F0C0FB5C48007810F06B
:104560000100C0B2002813D19DF80500C0B2800937
:104570008DF807009DF80500C0F381008DF8060056
:104580009DF80700002803D19DF80600002840D0C0
:1045900002F085F9002807D19DF80000401C80B288
:1045A00000F0DAF805002C00002C32D09DF8000055
:1045B0002070641C9DF804002070641C9DF80000AD
:1045C000401E8DF800009DF805002070641C9DF8C9
:1045D0000000401E8DF800009DF80010200004F03F
:1045E0007CFB9DF80000041914F8010C00060DD5A1
:1045F00014F8020C00F021F804F8020C03F046F85D
:1046000014F8021C280002F00BF902E0280000F068
:10461000FAF8362004F01BFB3D2004F018FBF021D3
:104620000842F9D13A2004F012FB342004F00FFBC9
:1046300004F0CBFA04F0CAFAF7BD0100C9B2802930
:1046400009D3C9B2B1F5807212B2022392FBF3F220
:104650004A3A100005E0C9B2022291FBF2F24A3A4E
:1046600010007FF07F0200B2904202DA7FF07F02FA
:10467000100040B270470020704780B50121102023
:1046800003F090FB3020ADF8000010208DF80300FF
:1046900003208DF8020000A9164803F0AFFB01BD0E
:1046A000C0B2002802D0012807D00DE014490968E3
:1046B00091F01001124A116006E01149096891F069
:1046C00020010F4A1160FFE770470000482C0020CE
:1046D000742C0020752C0020000801400038014097
:1046E0009C2600201400002040420F00732C002064
:1046F000762C002000100140722C0020642C002039
:104700000C10014001000A78100080B24A7810EBCA
:1047100002204004400C80B270470170401C0278B7
:1047200012F080020270027889B20B0A9A180270A5
:10473000704780B54FF400520021574801F0F6FB56
:104740005548407850F080005349487041F6FE715A
:104750005148FFF7E2FF01BD2DE9F0410400A4B28A
:10476000002C01D100204CE0A4B2122C01D2122066
:10477000040049480500002007006878000610D5AD
:104780002800FFF7BFFFA4B2A0420AD32800FFF71A
:10479000B9FF001B80461FFA88F8B8F1120F18D233
:1047A00011E0BFB22800FFF7ADFFC019801C070061
:1047B000BFB2B7F5005F01D3002022E0BFB2364898
:1047C00038180500D9E7687810F07F006870A81CD9
:1047D00017E0210089B22800FFF79FFFA4B26019FB
:1047E000801C0600707850F080007070B8F10201F3
:1047F00089B23000FFF791FF687810F07F00687091
:10480000A81CBDE8F0812DE9F0410400002C40D047
:10481000A01E0500687850F0800068700020060037
:104820001D4805006878000623D5B6B22800FFF7BA
:1048300069FF8019801C0700BFB2B7F5005F28D25E
:10484000BFB21548381804006078000611D528005A
:10485000FFF758FF80462000FFF754FF1FFA88F843
:1048600080B210EB0800811C89B22800FFF755FFC9
:10487000D8E7B6B22800FFF745FF8019801C060074
:10488000B6B2B6F5005F04D2B6B2034830180500E0
:10489000C8E7BDE8F08100001800002010B5040052
:1048A000207800280AD020780A2802D10D20FFF7AE
:1048B00043FB2078FFF740FB641CF1E710BD704715
:1048C000704710B504002000C0B2FFF7F8FF10BD1C
:1048D00038B50400A4B2200A05002800C0B2FFF7D2
:1048E000EEFF200005002800C0B2FFF7E8FF31BD51
:1048F00038B50400200E05002800C0B2FFF7DFFF26
:10490000200C05002800C0B2FFF7D9FF200A0500DF
:104910002800C0B2FFF7D3FF200005002800C0B276
:10492000FFF7CDFF31BD38B5040000200500EDB222
:10493000082D05D2EDB2285DFFF7C1FF6D1CF6E72B
:1049400031BD38B5040025002800FFF7ECFF31BD6C
:1049500038B5040000200500EDB2102D05D2EDB2EF
:10496000285DFFF7ACFF6D1CF6E731BD38B50400DC
:1049700000200500EDB2102D0AD2EDB2285DFFF740
:104980009EFFEDB228194078FFF799FFAD1CF1E7C3
:1049900031BD70B504000D002600EDB2002D03D12D
:1049A0003000FFF7D5FF02E03000FFF7DFFF70BDFA
:1049B00000B583B0FFF784FF00A8FFF7CBFB00A88A
:1049C000FFF7B1FFFFF77CFF41F24730FFF790FFA1
:1049D0000120FFF776FFFFF773FFFFF771FF07BDB9
:1049E00080B5DFF8980C00210170DFF8980C0021E9
:1049F0000170DFF8940C00218176DFF88C0C002127
:104A0000C176DFF8840C00210177DFF87C0C0021EF
:104A10000173DFF8740C00214173DFF86C0C002186
:104A20008173DFF8640C00210180DFF85C0C43F235
:104A300070010161DFF8500C0A218182DFF8480C17
:104A400003210176DFF8400C0021017102F014FE11
:104A500001F0AAFAFEF726F8FCF702F904F08CF947
:104A600001BD2DE9FF4F81B00E9C0F9D109E119F3F
:104A7000DDF84880DDF84C90DDF850B0DDF854A04A
:104A8000DFF8F80B0078002802D000F061F9F7E7B2
:104A9000DFF8EC0B12210170DFF8F00B0021017040
:104AA000DFF8E80B80F83870DFF8E00B80F848A0FA
:104AB000DFF8D80BC0F844B0DFF8D00B80F83A80AC
:104AC000DFF8C80BDFF8C01B897B80F83B10DFF8EC
:104AD000B80B807B401CDFF8B01B8873DFF8AC0B91
:104AE0000572DFF8A80B0486DFF8A40B01A91022D9
:104AF00001F0D5F9DFF8940B4686DFF8900B002122
:104B00008171DFF8880B807950F02000DFF87C1B82
:104B10008871DFF8780B006840084000DFF86C1BF4
:104B200008605FFA89F9B9F1000F07D0DFF85C0B74
:104B3000807950F01000DFF8541B887105B0BDE893
:104B4000F08F2DE9FF4F81B00E9C0F9D109E119F9D
:104B5000DDF84880DDF84C90DDF850B0DDF854A069
:104B6000DFF8180B0078002802D000F0F1F8F7E722
:104B7000DFF80C0B12210170DFF8100B002101701F
:104B8000DFF8080B80F83870DFF8000B80F848A0D9
:104B9000DFF8F80AC0F844B0DFF8F00A80F83A808D
:104BA000DFF8E80ADFF8E01A897B80F83B10DFF8CD
:104BB000D80A807B401CDFF8D01A8873DFF8CC0A53
:104BC0000572DFF8C80A0486DFF8C40A01A91022BA
:104BD00001F065F9DFF8B40A4686DFF8B00A002173
:104BE0008171DFF8A80A807950F04000DFF89C1A44
:104BF0008871DFF8980A006840084000DFF88C1AD6
:104C000008605FFA89F9B9F1000F07D0DFF87C0A74
:104C1000807950F01000DFF8741A887105B0BDE893
:104C2000F08F2DE9FF4F81B0109C119D129E139FB4
:104C3000DDF850B0DDF85480DDF85890DDF85CA068
:104C4000DFF8380A0078002802D000F081F8F7E792
:104C5000DFF82C0A12210170DFF8300A0021017000
:104C6000DFF8280A80F83850DFF8200A80F84880FA
:104C7000DFF8180AC0F844B0DFF8100A80F83A608C
:104C8000DFF8080ADFF8001A897B80F83B10DFF8AC
:104C9000F809807B401CDFF8F0198873DFF8EC0915
:104CA0009DF83C100172DFF8E409BDF83810018668
:104CB000DFF8DC0901A9102201F0F1F8DFF8CC09D6
:104CC0004486DFF8C80900218171DFF8C009DFF8E8
:104CD000BC1989798171DFF8B40980795AEA00003A
:104CE000DFF8A81988715FFA89F9B9F1010F07D1C6
:104CF000DFF89809807950F00400DFF89019887186
:104D0000FFB2002F07D0DFF88409807950F010003F
:104D1000DFF8781988715FFA89F9B9F1000F0CD1C1
:104D20005FFA8AFABAF1000F07D0DFF8600900686D
:104D300050F00400DFF854190860DFF850090068EB
:104D400040084000DFF84419086005B0BDE8F08F66
:104D500000B585B0FBF794FFDFF82C090068C0F3BD
:104D6000C000C00701D500F0E5FF00F093FCDFF8BC
:104D70000C09007800281BD0012800F0DC800228F4
:104D800000F0BD81032800F05082042800F07E82EC
:104D9000052800F0AF82092800F07B810A2800F086
:104DA000D2810B2800F0F5810C2800F01882AFE2C8
:104DB000DFF8D4080068C0F38000C00704D5DFF82E
:104DC000BC0809210170D2E7DFF87C0C007810F0F4
:104DD0000100C0B2002800F0AD80DFF86C0C007953
:104DE000012804D0022841D003286DD09AE0DFF8D2
:104DF0005C0C90F82E0010F00300012809D104F09B
:104E00001EF9002804D0DFF874080A210170AEE70B
:104E100023E0DFF8380C90F82E0010F00300022891
:104E200009D104F016F9002804D0DFF850080B214E
:104E300001709CE711E0DFF8140C90F82E0010F0E0
:104E40000300032809D104F00EF9002804D0DFF88C
:104E50002C080C2101708AE7FFE7DFF8EC0B0068F3
:104E600040084000DFF8E01B086063E0DFF8100D49
:104E7000C068C0F34000C00725D4DFF8040DC06847
:104E800050F00200DFF8F81CC86000A8DFF8F41C3E
:104E9000102200F0F7FF00A80FC804F048F8DFF870
:104EA000A80B006840084000DFF89C1B0860DFF892
:104EB000D00C00210176002000F02CFADFF8BC07AE
:104EC0000221017053E735E0DFF8B40CC068C0F38D
:104ED0004000C00725D4DFF8A80CC06850F00200DD
:104EE000DFF89C1CC86000A8DFF8981C102200F0B6
:104EF000C9FF00A80FC804F05AF8DFF84C0B00688F
:104F000040084000DFF8401B0860DFF8740C002107
:104F10000176002000F0FEF9DFF860070221017041
:104F200025E707E0DFF8200B006840084000DFF8C5
:104F3000181B0860ECE1DFF848070078122806D05B
:104F4000C0F0A680142856D0C0F08E80A0E0DFF814
:104F50003807006830F01000DFF82C170860DFF821
:104F60002C07007810F00100C0B2002804D0DFF850
:104F70000C070E210170FAE6DFF8040CC068C0F3DC
:104F80004000C00736D4DFF8F80BC06850F00200CC
:104F9000DFF8EC1BC860DFF8E80B00210176012088
:104FA00000F0B8F9DFF8E006006850F01000DFF814
:104FB000D8160860DFF8D4060068C0F38000C00788
:104FC00014D5DFF8C406006830F02000DFF8B8160A
:104FD0000860DFF8B406006850F04000DFF8A8165B
:104FE0000860DFF898060321017003E0DFF88C0603
:104FF000022101704CE0DFF8880BC068C0F340006C
:10500000C00730D4DFF8780BC06850F00200DFF83A
:10501000701BC860DFF868068078642802D06528B5
:105020000BD015E000A8DFF8841C102200F037FF39
:1050300000A80FC803F07BFF0AE000A8DFF86C1C93
:10504000102200F02CFF00A80FC803F0B0FFFFE70C
:10505000DFF82C0B00210176002000F05BF9DFF86F
:105060001C060221017013E0DFF8BC0C0078002858
:105070000ED1DFF8B80C13210175DFF8AC0C01215B
:105080000170FBF7FDFDDFF8F40505210170FFE776
:105090003EE1DFF8EC0AC068C0F34000C00700F151
:1050A0003781DFF8DC0AC06850F00200DFF8D01A60
:1050B000C86000F0FFFDDFF8C80A00210176DFF8C4
:1050C000CC05006850F00200DFF8C0150860012030
:1050D00000F020F9DFF8B405006830F00200DFF8D6
:1050E000AC150860DFF8A005006830F00400DFF8B8
:1050F00098150860DFF884050221017008E1DFF8E7
:1051000088050068C0F3C000C00700F10181DFF826
:105110007005DFF81C1C09788175DFF8640AC06827
:1051200030F00200DFF8581AC860DFF8500500219F
:105130000170DFF85405007810F00100C0B20028BB
:105140007FF415AEE4E0DFF8380AC068C0F3400031
:10515000C00700F1DD80DFF8280AC06850F00200C7
:10516000DFF81C1AC86003F0ABFFDFF8DC0800684A
:1051700040084000DFF8D0180860DFF8040A00217A
:105180000176002000F0C6F8DFF8F004022101707B
:10519000BEE0DFF8EC09C068C0F34000C00700F1D2
:1051A000B780DFF8DC09C06850F00200DFF8D019E2
:1051B000C86003F0A2FFDFF89008006840084000D4
:1051C000DFF884180860DFF8B809002101760020B4
:1051D00000F0A0F8DFF8A4040221017098E0DFF8E5
:1051E000A009C068C0F34000C00700F19180DFF85B
:1051F0009009C06850F00200DFF88419C86003F01D
:1052000080FFDFF84408006840084000DFF83818E5
:105210000860DFF86C0900210176002000F07AF8C0
:10522000DFF858040221017072E0DFF85C040068C6
:10523000C0F3C000C0076BD4DFF84409C06830F089
:105240000200DFF83C19C860DFF8E40A00780028A3
:1052500012D0DFF82C04DFF8D81A09788175DFF84E
:105260002804006830F04000DFF81C140860DFF804
:105270000C04002101704BE0FEF71EFFDFF8A81BB5
:105280000860DFF8F8030421017041E0DFF8F8035B
:105290000068C0F34010C00710D5DFF8E403002118
:1052A0008175DFF8E403006830F04000DFF8D813C0
:1052B0000860DFF8C803002101701AE0FEF7FCFE69
:1052C000DFF8641B0968401A0002000ADFF85C1B63
:1052D00088420ED3DFF8A8031D218175DFF8A803EB
:1052E000006830F04000DFF8A0130860E3480021B8
:1052F00001700DE0DFF8300A0078002808D1E0489E
:10530000DFF8281A097D8175DC4800210170FFE76C
:1053100005B000BD38B50400DFF86408007E002841
:1053200040F09981E4B2002C2BD0DFF85408DFF86C
:10533000001B4161D54890F84800D449496C401899
:105340000500DFF83C08D14991F848100176DFF8F4
:105350003008007E002820D06D1EDFF82408406948
:10536000401EDFF81C184861DFF81408007E401E5C
:10537000DFF80C180876DFF8080840692978017012
:10538000E5E7C24890F848004042DFF8A81A401804
:1053900000F27F00DFF8E8174861DFF8E407BB4957
:1053A00091F848100176DFF8D8074069401EDFF811
:1053B000D0174861DFF8C8074069B44991F8381040
:1053C0000170DFF8BC07007E401CDFF8B4170876D8
:1053D000DFF8AC074069401EDFF8A4174861DFF82A
:1053E000A0074069A949097A0170DFF89407007E97
:1053F000401CDFF88C170876DFF884074069401EF0
:10540000DFF87C174861DFF8780740699F4991F819
:105410003A100170DFF86807007E401CDFF8601763
:105420000876DFF85C074069401EDFF854174861D2
:10543000DFF84C074069954991F83B100170DFF89F
:105440004007007E401CDFF838170876DFF8300789
:105450004069401EDFF828174861DFF824074069DB
:105460008A4989790170DFF81807007E401CDFF84F
:1054700010170876DFF808074069401EDFF80017AC
:105480004861DFF8FC06406900210170DFF8F00692
:105490004069401EDFF8E8164861DFF8E40640691D
:1054A00000210170DFF8D806007E801CDFF8D016DE
:1054B0000876DFF8CC064069401EDFF8C416486164
:1054C000DFF8BC06007E801DDFF8B416496908705D
:1054D000DFF8AC064069401EDFF8A4164861DFF82B
:1054E000A006007E801D80B2000ADFF8941649698C
:1054F0000870DFF88C06007E801CDFF884160876C2
:10550000DFF87C064069401EDFF874164861DFF85A
:10551000700640695D49098E0170DFF864064069D4
:10552000401EDFF85C1648615848008E80B2000AC1
:10553000DFF84C1649690870DFF84406007E801CCD
:10554000DFF83C160876DFF838064069401EDFF8C1
:1055500030164861DFF8280640694C49498E0170D1
:10556000DFF81C064069401EDFF814164861474802
:10557000408E80B2000ADFF8081649690870DFF82B
:105580000006007E801CDFF8F81508763F4800789A
:1055900010F00100C0B200285DD1DFF89C080621A0
:1055A0000170DFF8940800214170DFF88C080021B9
:1055B0004160DFF88408DFF8C815097E0181DFF853
:1055C000780811218172DFF87008DFF87018097906
:1055D000C172DFF86C082E49102200F060FCDFF881
:1055E0006018DFF86008FDF731F9DFF840070C219B
:1055F000017026488079C0060ED52348006850F017
:10560000020021490860FEF757FD1F4988601E48C7
:105610001D49898AC18205E01B48006830F00200FC
:10562000194908601848006850F0080016490860D9
:1056300015481549097E4176DFF8F40619210170F5
:105640001248DFF83C15097E80F83C100F48DFF85F
:105650003015496901640D48007810F00100C0B2AE
:10566000002809D1DFF8C40613210175DFF8B80658
:1056700001210170FBF704FB31BD00006F2C0020FD
:105680007C2B0020702C0020B425002078290020DD
:105690008829002070B5B2B0DFF8AC070078002888
:1056A0000BD001280AD0032800F0DA80042800F08B
:1056B000E880052800F0C78094E193E1DFF88C03CF
:1056C000007ADFF888130968401800F09AFADFF8CA
:1056D0007C0390F82E00C0B2400903281CD1DFF8EB
:1056E0006C070068C0F34000C0070CD500F07CF9DF
:1056F000002808D0DFF85407006830F00200DFF817
:105700004C170860FFE7D1480068FFF77CF8DFF826
:1057100038070021017065E1CC4890F82E00C0B236
:10572000400900282DD1C94890F82E00C0F3800010
:10573000C0B2002825D0DFF814070068C0F380103D
:10574000C00715D500F073F9002808D0DFF8FC0673
:10575000006850F02000DFF8F416086011E0BB4844
:105760000068FFF750F8DFF8E0060021017039E12A
:10577000B6480068FFF747F8DFF8CC060021017053
:1057800030E1DFF8CC06407A012806D100F060F95C
:10579000DFF8B406042101707EE7AC48808BDFF8A7
:1057A000B416081800282DD1A84890F82E00C0B2D1
:1057B0004009012806D0A54890F82E00C0B2400943
:1057C000022803D103F0FFFA06001AE09F4890F880
:1057D0002E00C0B24009002813D19C4890F82E003A
:1057E00040070DD49848012101719748006850F096
:1057F000010095490860DFF8500603210170F1E0CF
:10580000FFE702E003F0BBF9060090480068FEF7EE
:10581000FAFF8E4890F82E00C0060FD5F6B2002E83
:105820000CD1DFF82806006850F00400DFF81C16E1
:105830000860DFF8140605210170D3E0DFF80806E0
:1058400000210170CEE0DFF804060068C0F380009C
:10585000C00700F1C780DFF8F00500210170C1E04A
:105860007948007810F00100C0B2002840F0BA80FA
:1058700076480068FEF7C7FFDFF8CC05002101700D
:10588000B0E0DFF8CC054068C0F34000C00700F18D
:10589000A980DFF8BC05406850F00200DFF8B015C1
:1058A000486000200400212C06DA12A8DFF8A815B1
:1058B000615C2154641CF6E7644890F86000152888
:1058C00010D362480068FEF79EFFDFF87C050021D8
:1058D0000170DFF87C05406830F00200DFF87015D9
:1058E00048607FE000200500584890F8600085423D
:1058F00007DA5648C06D285C12A96054641C6D1C00
:10590000F2E712A800212154FE208DF82800802003
:105910008DF8290000208DF82A0000208DF82B003A
:1059200000208DF82C0000208DF82D0000208DF82F
:105930002E0000208DF82F0000208DF83000002070
:105940008DF8310000208DF8320000208DF83300F2
:10595000AC208DF8340016208DF835008C208DF8A1
:10596000360060208DF83700652C10DB3748006862
:10597000FEF749FFDFF8D00400210170DFF8D00402
:10598000406830F00200DFF8C81448602AE01120B7
:1059900009902000C0B2089012A807904FF2B300FF
:1059A00006904FF2B40005900AA801AA0AC80AC2DC
:1059B0000AC80AC21038103A0EA883B069460CC84B
:1059C0000CC10CC80CC1103810390EBC8220FAF77B
:1059D0008DFB1E480068FEF716FFDFF86C040021FF
:1059E0000170FFE732B070BD184890F82B00B04945
:1059F000097A884219D1154890F82900AC4991F8E4
:105A00003810884211D1114890F82C00A84991F81B
:105A10003A10884209D10D4890F82D00A44991F818
:105A20003B10884201D1012000E000207047074868
:105A300090F82C009E4991F83A10884201D101203B
:105A400000E0002070470000942B0020B0280020C8
:105A5000DFF80414A1220A70DFF8FC13A2224A70B6
:105A6000DFF8F41300228A70DFF8F013898BDFF877
:105A7000E4235118002904D1DFF8DC130122CA7095
:105A800003E0DFF8D4130222CA70DFF8D01391F8D4
:105A90002E10C9B24909DFF8C02311710021080096
:105AA000C0B210280BD2C0B2DFF8AC134118C0B29C
:105AB000DFF8A8238218127B4A71401CF0E7DFF858
:105AC0009C13C98B89B2090ADFF88C235175DFF862
:105AD0008813DFF88823D28B8A75DFF87C13DFF810
