:020000040800F2
:10000000000400200D4B0008A5400008A740000890
:10001000A9400008AB400008AD4000080000000007
:10002000000000000000000000000000AF400008D9
:10003000B140000800000000B3400008B5400008CF
:100040006D4B0008714B0008754B0008794B000898
:100050007D4B0008814B0008CD410008894B00080A
:100060008D4B0008914B0008954B0008994B0008F8
:100070009D4B0008A14B0008A54B0008A94B0008A8
:10008000AD4B0008B14B0008B54B0008B94B000858
:10009000BD4B0008C14B0008C54B0008B740000825
:1000A000CD4B0008D14B0008D54B0008D1410008CA
:1000B0004F410008E14B0008E54B0008E94B000800
:1000C000ED4B0008F14B0008F54B0008F94B000818
:1000D000FD4B0008CD40000819410008094C0008FC
:1000E0000D4C0008114C0008154C000838B5DFF81D
:1000F000C00900218183DFF8BC49251DA981616009
:1001000004F22400018141F24730E8810320E874C1
:1001100004F0B0FA01206874FF2084F824008C20D9
:10012000A87431BD10B5DFF89009022101700121DA
:100130004170DFF880094FF41671016000F00AF891
:1001400041F2473000F016F84FF6FF7002F043F925
:10015000207A10BDDFF868490120207060688008AF
:100160008000606002202072DFF8580901210170D0
:1001700004F031BADFF83C19488202F02BB9DFF8FD
:100180003819487002F001B910B5044604F072FA4B
:10019000204604F074FA2046BDE8104002F01BB976
:1001A000000000002DE9F041DFF808494FF4167017
:1001B000206004F010FA2079000648BF00F0A3F98F
:1001C00000F09BFADFF80059287818B1FFF7AAFF72
:1001D00000202870DFF8D858A87F43F27107DFF8B5
:1001E000D868697F08291BD8DFE811F009002000D2
:1001F000FB0000010A01D200E500B200C200606805
:1002000040050DD5DFF8C408817E00680068085CF1
:10021000012801D0062804D0606820F48060606066
:10022000EEE0606820F480606060F5E7F068C0F39D
:1002300040004FF6FF77DFF89888297DC91E052911
:10024000EED8DFE801F0080C5C351803A87D2876AD
:1002500000206877D4E000F0A3F90220F9E7606895
:1002600040F0800060600A20A87700F036FA04F0C1
:10027000B2F90220EDE70128ECD000F0C9F8032024
:10028000A873C820E8736F802F806F8108F27E000A
:100290007061062088F87E0001203076606820F4C6
:1002A000005040F48040606000F07AF90520D0E70B
:1002B000606820F480706060F068C0F3400001283E
:1002C000C8D000F0A5F860684FF400710843606082
:1002D000A87D02F05AF808F27E007061072088F8C5
:1002E0007E00012030764320A8730820E8736F80D9
:1002F00041F24730288000F053F90320A9E7012894
:10030000A8D000F085F8A87D02F03FF8606820F4DE
:100310000060606008F27E007061A07D88F87E0059
:100320007069401E70610121017002203076232027
:10033000A873C820E873E08C6880208D28806068EE
:1003400040F4805060606F8100F02AF9072080E758
:100350002179090654D4F16821F00201F16010B14D
:1003600000F05BF874E701F0DAFF2862082070E71C
:100370006068000503D5002000F04FF868E701F041
:10038000CEFF00F03FF83BD30D2000F046F85FE7CA
:100390002179090634D4F16821F00201F16028B115
:1003A000616821F480416160287651E701F0B7FF70
:1003B000286206204DE76068800406D50020287674
:1003C000606820F4C040606042E701F0A8FF00F0E0
:1003D00019F815D30E202876606820F480406060FC
:1003E00036E7217909060BD4287631E72179090609
:1003F00006D4287600206877F06820F00200F060CC
:10040000BDE8F081296A401A0002000AB84270472C
:10041000F06840F00200F06070472876606820F4D1
:10042000805060607047704710B5DFF88826037809
:10043000052B0DD1437803F00303022B08D1C078BC
:10044000117D884217D1506820F04000506010BDE7
:1004500002F214035C7E641C5C76E4B20B2C01D1C6
:1004600000245C765C7E02EBC4042063587E02EBC1
:10047000C00080F8341010BDDFF8380690F82D1059
:10048000491CC9B20B2908BF002190F82C008142F9
:1004900001D10120704700207047DFF8180690F85E
:1004A0002C1090F82D00814201D1012070470020CE
:1004B0007047DFF8000690F82C1090F82D2091423C
:1004C00001D100207047491CC9B20B2908BF002187
:1004D00000EBC1003030704780B5DFF8D81591F8D7
:1004E0002C20521C81F82C20D2B20B2A04BF0022EF
:1004F00081F82C2030B191F82C0001EBC000006B8A
:1005000003F0C2FE01BD38B5DFF8A84560680106FA
:100510003FD5DFF8B015097800293AD1DFF89055BA
:10052000DFF89C150A7A002A11D094F82B000028D5
:1005300007D000F02FF81EBF606820F04000606018
:1005400025D1606820F0C0006060AA7731BD400608
:1005500006D4606820F0800060600020A87731BD7C
:1005600001F0DDFE2168E269801A0002B1EB102F74
:100570000FD294F82B00002802D000F00BF806D11F
:100580000B20A877606820F08000606031BD00F02B
:1005900007F831BD401E84F82B00C0B20028704718
:1005A0002DE9F843DFF80C8598F80400000600F107
:1005B0008580DFF8FC54EE7BC6F38106E87B870973
:1005C00008F10409DFF8F044B9F80E104FF6FE7296
:1005D000914210D1022F0ED1032740F0C000E873E2
:1005E0006069083801F0E5FE207E083020766069F9
:1005F000083860610EE0002F0CD0022F02D0032FCC
:10060000EED007E000F060F8A98900F070F8A98941
:1006100000F05EF8A87B400608D43FB100F054F823
:10062000698900F064F8698900F052F830001CD044
:10063000022E02D0032E0AD017E000F045F8698898
:1006400000F055F869880170207E801C0CE00020C5
:100650006169491E616142425219527A0A70401C16
:100660000828F5DB207E083020763EB100F02CF81B
:10067000298800F03CF8298800F02AF801F058FE9B
:1006800089F810006169491E6161087000F01CF86A
:10069000E97B00F02DF8A97B0170207EC01C20763C
:1006A000D8F8040020F0400040F08000C8F80400B2
:1006B00099F8130088F82B000A20A87700F00DF8AD
:1006C000BDE8F14303F087BF6069401E6061704779
:1006D0000170207E801C20767047DFF8E403022141
:1006E00001700172DFF8DC03012101707047090A13
:1006F00001706069401E606170472DE9F845DFF8C0
:10070000BC83DFF8C853DFF8AC637768DFF8A04339
:10071000207F20B1022800F098805DD39CE0FFF795
:10072000BCFE0028FAD1FFF7C4FE824600F096F81E
:1007300005D1B80503D40120FFF7CEFE8CE0487840
:1007400000F003000228F6D0C5F800A000F08CF8F5
:1007500000F084F802D100F0E0F8ECE76879C0F32B
:100760008100032818D1287A7628E4D1687A78287D
:10077000E1D1A87A5028DED1E87A4028DBD1287B65
:100780003028D8D1687B2028D5D1A87B1028D2D199
:10079000E87B0028CFD10EE0022808D12889B8F8DC
:1007A0000020904207D04FF6FF729042F2E75FFAC6
:1007B00089F00028BFD0487800F0030001282AD132
:1007C0003805B8D56879C0F3810003280CD101F051
:1007D000A6FD30620120207701F00EFB00283BD1FE
:1007E00001F010FB002033E068798009022804D171
:1007F000688A318A88429ED1E9E703289BD100208C
:100800004119897C8219127A914202D1401C082830
:10081000F6DB0828EFE7A87E29680968405C022813
:1008200002D0082805D009E0F80484D500F0C6F805
:1008300081E77804FCD500F0F8F87CE7A549097851
:100840000329FAD304F015F975E7780504D40120DB
:10085000FFF742FE00202077BDE8F185DAF80010AE
:10086000487803221042704770B5984801680968BB
:100870004A1C12F8011B017112F8011B4171C1F3EE
:1008800081048909521C042344B112F8013BC3803E
:1008900012F8015B03EB0523C3800623022C09D168
:1008A00012F8014B048112F8015B04EB052404816A
:1008B0009B1C0AE0032C09D10024251812F8016BB7
:1008C0002E72641C082CF8DB0833DBB20479640652
:1008D0000AD449B112F8014B048212F8015B04EB0F
:1008E000052404829B1CDBB2022908D111784182C5
:1008F00012F8014F01EB042141829B1C0AE00329FD
:1009000009D10024211812F8015B8D74641C082C95
:10091000F8DB0833DBB2837670BD70B56B48827E3E
:1009200001680B681C78A41AE41E0D2C45D1D2185E
:1009300053781B0641D512F8043F002B3DD112F825
:10094000013F002B39D112F8013FB3BB12F8023F2F
:1009500012F8014F8CB3574C04F2240594F824206C
:10096000FF2A03D0AA7909798A4221D284F8243057
:1009700001680979A971418A6980008AA880554E69
:100980003178032928BF04F075F83078032824BF94
:10099000688804F06FF83078032824BFA87904F041
:1009A00068F83078032824BF94F8240004F061F834
:1009B00060684FF480710843606070BD70B500F0EE
:1009C0006FF8042A30D14018C178032211422BD18C
:1009D00010F8011F10F8012F01EB022080B2FFF781
:1009E000D3FB344D2E1D208AF08101F0F3FCE88CFE
:1009F000B08195F82400401C7074A07C3071E07CBC
:100A00007071207DB071607DF071A07D3072E07DED
:100A10007072207EB072607EF072306820F040000C
:100A2000306040F40060686070BD70B500F038F868
:100A3000082A2CD145181F4E706820F040007060C5
:100A400040F42050706000F023F8FFF793FB15F896
:100A5000010F308215F8011F00EB0120308215F8DC
:100A6000010FFFF78CFBA07C3072E07C7072207D60
:100A7000B072607DF072A07D3073E07D7073207E77
:100A8000B073607EF07300F003F8FFF77DFB70BD7C
:100A900015F8010F15F8011F00EB012080B2704717
:100AA0000A4CA07E216809680A78121AD21E704783
:100AB000142900207C260020C02900207C2A002048
:100AC000882A0020DC290020AE2A0020E02900200E
:100AD00004270020B02A002080B5DFF8C4080021D8
:100AE0000176DFF8C008017781818173018043F2CC
:100AF000700101610A2181820321017600210171C7
:100B000003F05AFDFFF7F2FA00F0F6FF00F09DFC4B
:100B1000BDE8014002F0F4BD2DE9FF4F81B000F0C7
:100B200032F801E000F0AEF800F028F8FAD100F059
:100B300037F87E86202000F01AF818BF302012E027
:100B40002DE9FF4F81B000F01EF801E000F09AF8A7
:100B500000F014F8FAD100F023F87E86402000F06F
:100B600006F818BF5020B87105B0BDE8F08F39689D
:100B700021F001013960B9F1000F7047DFF820085A
:100B8000017E002970470E9C0F9D109E119FDDF87D
:100B90004880DDF84C90DDF850B0DDF854A0704787
:100BA00012210170DFF80008002180F8641080F83D
:100BB0009C7000F29C0181F810A0C1F80CB081F883
:100BC0000280DFF8E027937BCB70591C917300F211
:100BD00064073D723C86743001A9102203F067BEA1
:100BE0002DE9FF4F81B0119FDDF84880139CDDF89F
:100BF00050B0DDF85490169D179E01E000F042F8C9
:100C0000FFF7BCFFFAD112210170DFF89CA700208A
:100C10008AF864008AF89C700AF29C0080F81090B0
:100C2000C0F80CB080F80280DFF878178A7BC270B9
:100C3000501C88730AF264079DF83C003872BDF8B6
:100C4000380038860AF1740001A900F0A9F9BDF84E
:100C5000400078863046012D08BF40F004000CB1FA
:100C600040F01000B87135B92EB1DAF8640040F0E8
:100C70000400CAF86400386820F00100386073E7A7
:100C8000000000002DE9FF4700F0EAFBDFF8144701
:100C90002078000748BF00F034FB00F051FADFF87D
:100CA0000C57DFF80487DFF80867DFF8F47608F2FE
:100CB0001C0A08F26409DFF8FC060178DFF8F82660
:100CC0003B7E0B2B00F2E080DFE813F00C00CC0041
:100CD000AD00200132014601DE00DE0011006B0094
:100CE0007D0096002078400744D50820387600F033
:100CF00050F958D000F048F908F29C000021017426
:100D0000C160602189F806109AF81110C1709AF834
:100D1000101081709AF80F0089F808009AF80D00F9
:100D200088F89C00BAF80200A9F8300008F17400B5
:100D300008F10C01102203F0BAFDB8F81C00A9F864
:100D40003200002088F864003076D8F8640040F063
:100D50000200C8F86400012000F02CF9D9F8000066
:100D600020F00200C9F80000206820F00400206094
:100D7000022088E02878C00764D52879012804D0AB
:100D8000022843D003285ED067E09AF8120000F0F2
:100D9000030101290FD102F045FD00285DD0092093
:100DA000387600F0F6F86FD000F0EEF802F065FD4E
:100DB00000F0F9F8DCE7022914D102F03AFD00282E
:100DC0004BD00A20387600F0E4F85DD000F0DCF873
:100DD00002F0A0FD286820F00100286000F0E7F88C
:100DE000022050E000F00300032836D102F028FD75
:100DF000002832D00B20387600F0CBF844D000F039
:100E0000C3F802F088FD00F0CEF8B1E700F0B7F8C3
:100E10003AD100F0ACF800A80FC802F0A9FC00F02D
:100E2000C2F802203876207800072DD4607FB8758C
:100E3000F06820F00200F060002038762078C007CB
:100E40003FF550AF20E000F09AF81DD100F08FF888
:100E500000A80FC802F0B4FCE1E7286820F0010008
:100E6000286011E03B78122B04D0132B44D0142BB4
:100E700028D009E0206820F01000206098F8640075
:100E8000C00703D50D203876BDE8FF8700F077F85E
:100E9000FAD140F00200F06000203076012000F02E
:100EA00089F8206840F010002060D9F80010C1F3E4
:100EB00080010129A9D120F0200040F040002060ED
:100EC0000320E0E700F05BF8DED140F00200F060C4
:100ED000B878642802D0652807D07FE700F05EF874
:100EE00000A80FC802F044FC78E700F057F800A80B
:100EF0000FC802F065FC71E70029C5D113211175F7
:100F00000121017000F0ACFA0520BCE72078000751
:100F1000BAD4F06820F00200F060607F18B100F0F1
:100F200020F80020AFE701F0FAF9F8610420AAE701
:100F30002078800601D50020F1E701F0F0F9F96989
:100F4000401A0002000ADFF8741488429CD31D2066
:100F500000F007F8002096E7002995D1107DB875BC
:100F6000DFE7B875206820F040002060704740F04F
:100F70000200F06000A8A91D102203F08BBCF068ED
:100F800000F0020149087047F06840F00200F0608C
:100F90007047F068C0F340000128704700A8391D71
:100FA000102203F084BC286820F001002860002093
:100FB0003076FFE72DE9F843DFF8FC83DFF8E893AC
:100FC000DFF8EC63317E002940F0978009F29C073E
:100FD000397C0A46DFF8E83380B103F27F007061A4
:100FE000F86810183176317E69B17269521E7261EB
:100FF000491E317610F8011D1170F4E75042C018F7
:1010000000F27F007061387C30767069401E70613C
:1010100099F89C1000F08CF809F26404217A00F031
:1010200087F8B97800F084F8F97800F081F8A179B0
:1010300000F07EF8002100F06EF80170307E801C18
:1010400030767169491E7161801D08707069401E9B
:101050007061317E891D0904090E00F061F8218E4E
:1010600000F059F8218E090A00F05AF8618E00F05C
:1010700052F8618E090A0170307E801C307699F832
:101080006400C00739D4CF4D062028700020687056
:101090006860307E28811120A872CB480079E87200
:1010A00005F11C0009F17401102203F000FC05F1A8
:1010B0001C0105F10C0002F04BFA0C2088F800002E
:1010C000B84DA079C006286808D540F00200286015
:1010D00001F025F9A860A88AE88202E020F0020069
:1010E0002860286840F008002860287E687619206B
:1010F0006877307E38717069B86099F86400C0070D
:1011000007D4132088F81400AA480121017000F0C8
:10111000A7F9BDE8F18301707069401E70617047E6
:101120000170307E801C30767069401E706170479F
:101130000170307E401C30767069401E70617047CF
:101140002DE9F041984D994E964F387F002872D086
:10115000012804D003286BD0042865D06BE0287ADE
:101160002968401800F090F805F2290461794A09CD
:1011700005F29C00032A1FD13978890716D5A1787A
:1011800095F86C20914211D195F8291095F89C2082
:1011900091420BD1E1788278914207D12179C078D0
:1011A000814203D1386820F002003860286803F0DB
:1011B0006BF8002038773EE06AB94B070BD53B68E7
:1011C0005FEA436CF2D594F803C080788445EDD192
:1011D00043F020003860A88B7C4B181811D1012AED
:1011E00001D0022A02D102F09DFA0CE062B9480750
:1011F0000AD401203071306840F0010030600320D3
:10120000D8E701F0C1FC8046286803F03DF860791A
:10121000C006CED55FFA88F00028CAD1386840F001
:10122000040038600420C5E73878400703D4C0E7DD
:101230003078C007BAD5BDE8F0815A48007F00B1C8
:101240000120704730B5584C614D286820602879DE
:101250002071687A207204F10C0005F1140110224B
:1012600003F025FB288A08382084E88EA086207A9F
:1012700021684018007A84F85700002084F8240080
:1012800048480121017730BD10B5474901F20A02F3
:1012900010F8013B1B029382938A10F8014BE3186C
:1012A000938210F8013B1B025382538A10F8014BC2
:1012B000E318538210F8013B1B02D382D38A10F843
:1012C000014BE318D382D38A083BD382801C01F2FE
:1012D0002B0310F8014BDC7010F8014B9C7010F8D8
:1012E000014B5C7010F8013BD37710F8013B81F89B
:1012F0002B300D238B72D28A521F81F86020C86573
:1013000010BD38B5274C2068010748D52949097810
:10131000002944D12849097D002904D020F00A0081
:101320002060617731BD800706D4206820F0080076
:1013300020600020607731BD00F0F1FF2169A268D4
:10134000801A0002B1EB102F29D2E08A38B1401E7A
:10135000E08280B218B100F0E2FFA06031BD607E93
:10136000401E6076C0B2002804D1206820F008003A
:10137000206031BD0E4D0C4890F8A0102976D0F8B1
:10138000A400686100F0CBFFA060A08AE0826869D9
:101390000021C171686981710120FFF70BFE31BD29
:1013A00080290020A029002034250020142A0020B4
:1013B000C0290020F8280020E028002091D6020053
:1013C00004270020BC27002030240020500FFFFFFE
:1013D0008427002010B55218521E0AE00B784C7872
:1013E00004EB03239BB2181880B29842B8BF401C8C
:1013F000891C9142F2D307D1097810EB012080B209
:10140000B0EB012FB8BF401C80B210BD70B50C46C8
:10141000DFF8C416CD7E561BB6B2202204F10801B7
:10142000801980B2FFF7D6FF324629192831FFF71D
:10143000D1FF08B94FF6FF7070BD0A4601463A2049
:10144000E4E70A4601461120E0E780B501F0F2FE2C
:10145000DFF8840600210184018301BD0000000043
:1014600038B500F051FB00F02AF9DFF87056DFF8CC
:101470007006DFF8644603E0216A21F00101216271
:10148000217E0E2935D8DFE801F0082B3BDE47D559
:101490008EA1B4C2D51BEEEEE00094F82010C9076F
:1014A00027D5697A2A68895C8029E5D1C16801F06D
:1014B00002025208E0D141F00201C1600B20207607
:1014C00002F0B1FA05F1140002F026FA206A20F0C9
:1014D0000100206200F0B3FA00F0EFF80E2073E094
:1014E00021780C2906D00D291FD00E294BD00F29A9
:1014F00034D031BDB5F840002830A08302202076DA
:1015000000F09DFA00F0D9F8206AC0F340100128DD
:1015100040F08E8004202076DFF8C805007800288F
:10152000E7D100F0A1F802204EE0C168C1F340010C
:101530000129DED000F0B0F820F002002062608ABD
:1015400002F007FAA01C02F0E7F900F078FA206A2E
:1015500040F0040000F0B0F8062035E0C168C1F3A7
:101560004001012931D000F097F820F008002062F6
:1015700002F046FC00F063FA206A40F0100000F030
:101580009BF8082020E0DFF85C05017800296AD18B
:10159000DFF854150F2281F830200121017000F08E
:1015A000B3FA0A2010E000F065F85CD100F07AF898
:1015B00006D02075206A20F004002062002003E09D
:1015C00000F0ADFEE0620720207631BD94F82000E7
:1015D000800701D50020ECE700F0A1FE00F054F8F0
:1015E00041D317202075206A20F0040020620020DB
:1015F000EAE700F03FF836D100F054F802D000F0EE
:101600003EF8DAE700F08BFEE0620920DCE794F8B0
:101610002000000703D5002000F031F8E6E700F0D5
:101620007EFE00F031F81ED3182000F028F8C4E741
:1016300005202076DFF8AC040078002813D100F0F4
:1016400013F80020C0E70020BEE700F013F80AD12D
:10165000DFF8941491F83010217500212176C168CB
:1016600021F00201C16031BDDFF87C0490F8300048
:1016700020757047DFF86C140978002970472075D1
:10168000206A20F010007047E16A401A0002000A48
:101690004FF2312188427047C16841F00201C160B8
:1016A000206A7047C16821F00201C160DFF8380488
:1016B00090F830000028704720620020B1E02DE94A
:1016C000F041DFF828444FF6FF78DFF81064DFF8C8
:1016D0000874787E002805D0022861D003D303283F
:1016E00000F08C8096E0B07A80B9307A3168411889
:1016F00008780009062805D0306802F0C5FD0020F2
:10170000787687E0084600F061F901E00128F3D11E
:10171000307DFF2805D1306802F0B6FD0020B88387
:10172000EEE706F1240001F099FE50B906F124001D
:1017300001F0CAFE28B906F1240001F0D9FE002804
:10174000E9D0707A3168451806F21200386300203B
:101750007883B07C112802D03A282AD0DBE7B07A0F
:10176000E0B9A879E97901EB002085B2B5B100F0C4
:1017700053F8404512D02078032824BF284603F0B0
:1017800079F92078032803D300F046F803F072F9C2
:10179000306802F079FD0020B883B1E70220787646
:1017A000FFF74BFDB0BBFFF74DFD00207876B88307
:1017B00030E0B07A38B9318A307A32688018FFF771
:1017C0003CFE4045E4D1287880280ED081281AD0EC
:1017D0008628DDD197F82000C006D9D502F04DFB50
:1017E000386A40F008003862D2E7308A5028CFD2F9
:1017F000386A40F0010038620320787697F82000BC
:10180000C00707D478E797F820004007C0D502F05A
:10181000ECF8BDE7BDE8F081318A307A3268801893
:101820000FE6F8B5AD4C04F23805002858D1AC4E9F
:1018300000F07CF892F863200A70401C1028F7DB57
:10184000002000F073F892F853200A70401C102812
:10185000F7DB7069401E7061E97A00F06DF8A97AD3
:1018600000F075F800F073F8090A00F065F869688F
:1018700000F067F8C1F3072100F063F8C1F30741F6
:101880006A7812010F32114000F056F8697894F826
:101890003820120102EB11110170307E28303076B1
:1018A000A87A11280DD1776929893846FFF7C9FD33
:1018B00000F053F887F82F007169001281F82E00AC
:1018C0000EE03A280CD1776929893846FFF7B5FD33
:1018D000C04380B287F82B007169001281F82A009A
:1018E0007D4800218183804E09203070E87A707332
:1018F000A87A3073687830716868B06006F10E00BD
:1019000004F14401102202F0C5FF06F11E0004F1AB
:101910005401102202F0BEFF0F2086F830007148FB
:1019200001210170BDE8F14000F0EEB87169491E77
:10193000716142421219704701707069401E7061F6
:10194000704701707069401E7061E16B70470170F3
:101950007069401E706129897047C04380B208B920
:101960004FF6FF7070475C48407E00B10120704721
:1019700030B55A4C5E4D2868206028792071687A0D
:10198000207228306072A87CA072A889E086A87CAA
:10199000012817D1E87CE0726869E060288B20821A
:1019A000A87EA07404F1140005F11C01102202F0BD
:1019B0007EFF04F1240005F12C01102202F077FFD4
:1019C000687A607244480121417630BD10B54349C0
:1019D000027843781B0943EA0212CA72401C10F8CD
:1019E000012B02F00F021204CA6010F8013B02EB57
:1019F0000322CA6010F8013B9A18CA6010F8012B44
:101A000012020A820A8A10F8013B9A180A8210F818
:101A1000012B8A7410F8012BCA740022531810F895
:101A2000014B1C75521C102AF8DB0022531810F8C9
:101A3000014B83F82440521C102AF7DB10BD38B547
:101A40002C4C264D95F85400FF2808BF4FF6FF7028
:101A50003FD005F1540001F05DFD012838D105F2B9
:101A60005400C17AFF290CD1027BFE2A09D1027AE7
:101A700002F00202521002BF817BC07B40EA0120CB
:101A800027D095F85C20C2F34002012A20D14FF6FE
:101A9000FE722280027A82F002022272427A62721E
:101AA000827AA272E172017B2173417B6173817B37
:101AB000A173C07BE07304F1080060600B480078FC
:101AC000032807D304F10800BDE8324002F0D4BF78
:101AD0000020208031BD0000E02800208427002065
:101AE000C0290020752A0020AC280020B02A002040
:101AF00070280020FC290020DFF8500600218172A8
:101B00000170017101817047F8B5FEF74BFB00F0E1
:101B100025F9DFF83C66DFF83C56DFF83C76DFF865
:101B20002C46607A0D286CD8DFE800F0AF0741AF93
:101B300048AF2541555C6490949B2878092802D0D1
:101B40000B2810D033E0DFF814060021C17520798E
:101B5000012818BF00F00FFA00F05CFA002000F036
:101B60009FF8022022E0687A98B1706820F4006043
:101B700070600620607200F08EF842D10721397043
:101B800061720A21397101210170BDE8F140FEF74F
:101B900009BB0420607202F00FFDFEF7A7FAFEF702
:101BA000C1FA85F830000028BBD00020607200F038
:101BB0006DF86AD1387985F8300064E0706820F0FB
:101BC000010070600120B8700320E072FF2086F8E9
:101BD00024000820607200F05EF856D106213970AA
:101BE0000921CDE700F052F84FD100F098FBE060FA
:101BF0000A2049E07068C00504D5706820F4807040
:101C00007060F1BD00F08BFBE168401A0002000A31
:101C100043F27101884238D3E07A20B1401EE0726D
:101C2000C0B20028D5D196F82400FF2805D00C209A
:101C30006072308DFEF79EFA04E0102085F83000C7
:101C400000206072706820F44070D9E70120B870FD
:101C50000C20607200F01FF817D1052139700D219A
:101C60008EE700F013F810D1387985F8300000289D
:101C700009D101F023FBDFF8E804022101710168BA
:101C800041F00101016000206072F1BDDFF8D40471
:101C9000007800287047DFF8CC04017800297047ED
:101CA00038B5DFF8B444DFF8A8144A68120503D445
:101CB0000920A070082046E0DFF8A0345A7D0F25E7
:101CC0002A4208BF1220F4D0B8B9DFF89C0400F013
:101CD00039FA1D8800F035FA1D8800F031FA1D8AA6
:101CE00000F02FFA1D8A00F02BFA5A7D521E5A7509
:101CF00045692A70027E521D0276DFF87054488AC8
:101D00002880688118884FF6FE72904207D1CC2057
:101D1000E87308225968A81C00F09AFA03E0C8206A
:101D2000E873088A6880E87B801000F003000228CE
:101D300006D168884FF6FF71884208BF412000D065
:101D40006120A873032020700A202071DFF814049A
:101D500001210170BDE83140FEF724BA38B5DFF843
:101D60001004DFF81014DFF8E443227A002A42D08E
:101D7000022A36D002D3032A0CD031BD0A7A0B686E
:101D8000D218137803F0C005802D03D19D0601D52C
:101D9000DB0605D4086802F077FA0020207231BD16
:101DA00012F8013F1B028B8112F8015FEB188B8147
:101DB00012F8013F1B024B814B8912F8015FEA18B0
:101DC0004A814A894FF6FF739A4206D04FF6FE7356
:101DD0009A4202D0008882420AD100F023F8022001
:101DE0002072FFF7C0FD002805D1FFF7C1FDD4E741
:101DF00003202072CEE731BDDFF85003007A00B136
:101E000001207047DFF870030168DFF868230B6872
:101E1000136009791171807E1072DFF8300301219F
:101E2000017270472DE9F041DFF84843207A2168BC
:101E3000411801F2050818F8011B2174412901D04D
:101E4000422905D0801D60720020A074BDE8F08199
:101E500018F8010B607418F8010BE076032648F2BD
:101E6000FE07607C000608D4002000F080F80A77A6
:101E7000401C0828F9DB0B2603E0A7830020E08341
:101E80002062B34D607C40060AD4002000F06FF859
:101E900081F82420401C0828F8DB0836F6B205E05B
:101EA000A289698A04F11C0001F0FBFB607C8006BA
:101EB0000AD4002000F05BF881F82C20401C082890
:101EC000F8DB0836F6B203E0A7850020E085206342
:101ED000607CC0060AD4002000F049F881F8342064
:101EE000401C0828F8DB0836F6B205E06289698AEA
:101EF00004F12C0001F0D5FB607C000712D418F827
:101F0000010BE07418F8010B0004606118F8011B64
:101F100000EB0120606118F8011B08186061361D94
:101F2000F6B202E00020E0746061607CC0F3410022
:101F300028B998F80000A076761CF6B20BE00128CC
:101F400008BF112006D0022808BF3A2002D003287B
:101F500001D10620A076207A3018401D60722168D9
:101F60000978C0B2081A401E208301206DE70119CC
:101F700018F8012B704770B5784CE07D754D2E1D1B
:101F8000317A112908BF40F0020008D03A2908BF71
:101F900040F0040003D0062908BF40F00600E075B9
:101FA000287928B9706818B9E07D40F00800E0751C
:101FB000B07EFF2804BFE07D40F0C00028D005F1CE
:101FC0001E0001F0A7FA012823D1B07EFE2806D119
:101FD000F07E802803D1E07D40F0A000E075E07D38
:101FE00040F04000E07505F22601CA78FF2A08D1CA
:101FF0000A79FE2A05D195F8262002F00202521035
:1020000004D00978C1F34001012902D140F0100049
:10201000E07570BD30B554485049CA7D12B94122AF
:102020008A756CE042228A75426902F22802426196
:10203000027E283A0276474ACB7DC3F341033BB97F
:1020400043695B1E4361147B1C70037E5B1C03763B
:10205000CB7D1B0712D400F068F800F065F8C4F3DC
:10206000072400F061F8C4F303441C7043695B1E4D
:10207000436114791C70037E1B1D0376CB7DDB0648
:1020800009D4002300F056F895F82D5000F044F8DC
:10209000F8DB00F045F8CB7D9B0609D4002300F067
:1020A00049F895F8255000F037F8F8DB00F038F8DB
:1020B000CB7D5B0608D4002300F03CF86D7F00F078
:1020C0002BF8F9DB00F02CF8CB7D1B0608D400239D
:1020D00000F030F86D7D00F01FF8F9DB00F020F81B
:1020E00043695B1E4361527B1A70027E521C02766A
:1020F00000F028F8CB7D1370027E521C027600F0AF
:1021000021F88B7D1370027E521C027618480088DD
:102110000882BA20487530BD25705B1C082B7047BB
:10212000037E0833037670471C7043695B1E43616E
:10213000946870474469641E44615D42AD187047FD
:102140002D0A15704269521E426170476C2A0020A8
:102150007C260020AC28002028290020FC29002013
:10216000142A002031290020C02900201429002031
:102170007C2A002070280020E029002080B5DFF8AC
:102180005006002101704FF4C06002F00BFB00F01C
:1021900007F800F067F800F0F8FABDE801401BE12D
:1021A00010B586B00121052002F0E7F901214FF4B6
:1021B000804002F0E2F925208DF8040001208DF81E
:1021C000050007208DF8060001208DF8070001A802
:1021D00002F0EDFADFF8FC050021017041704FF4C8
:1021E0008060ADF8000004208DF80300DFF8E845BA
:1021F00000A9204602F080F84FF40070ADF800000E
:1022000003208DF8020018208DF8030000A9204655
:1022100002F072F84FF4E130029000200390ADF824
:102220001000ADF814000C20ADF81200DFF8AC453A
:1022300002A9204601F098FE012240F225512046D5
:1022400001F0E7FE0121204601F0DAFE06B010BDE4
:1022500004E011F8013B00F8013B521ED2B2002A03
:10226000F7D1704710B588B04FF4A06002F042F982
:102270000121012002F08AF91C208DF800000020C5
:102280008DF801008DF8020001208DF8030000A8F0
:1022900002F08DFADFF848050068C000DFF8441549
:1022A000B0FBF1F0441EA4B24FF6FF70ADF8080089
:1022B00000200190ADF80A0001A94FF0804001F024
:1022C0000FFC012221464FF0804001F0AAFC0020C3
:1022D000ADF810000120ADF812004FF22440ADF827
:1022E00016000020ADF8180004A94FF0804001F05E
:1022F0003CFC00214FF0804001F096FC01220321BC
:102300004FF0804001F085FCDFF8DC040021017013
:1023100001214FF0804001F073FC08B010BD80B582
:1023200000F0ADF8DFF8C014097800EB014002BD01
:1023300080B500F0A4F8C0B202BD10B50C4602286A
:1023400001D0012010BD042CFBD2032300221F2149
:1023500003E0032300221F21022000F0DFFD012003
:1023600000F09DFD00F00F000828F2D1600000F1A0
:102370000B01C9B2132000F0ABFD0421142000F0C2
:10238000A7FD00F0E9FE002010BD01460220D4E7C1
:102390000021017010214170202181703021C17015
:1023A0004021017150214171782181717621C171E3
:1023B0007047762101707821417050218170402151
:1023C000C1703021017120214171102181710021E2
:1023D000C17170477047704780B500F0ADFC00F0E8
:1023E000CCFC00F0F2FC00F0F3FDBDE8014000F091
:1023F0001DBD70B504460D46164600F0E9FD2946A0
:102400002046FFF79AFF38B900F0A6FEDFF8C003B8
:10241000032101710660002070BDF8B5002400257D
:102420001DE0E4B1204601267600401EC0B200281F
:10243000FAD100F024F8711E0840C0B2002602E074
:102440001436401EC0B20028FAD1FFF768FF0746D5
:10245000FFF765FFC01B0002000AB042F8D300F08E
:10246000B6FE002801D00120F2BD6D1CEDB2641C47
:10247000E4B2062CA8BF0524052DD2DBF2BD4FF037
:10248000804001F0DCBB38B504460D46DFF8600340
:102490000078032824BF204602F0EBFA3E2C01D33B
:1024A000042032BD00F077FE02E0092300F029F895
:1024B000012000F0F4FC00F00F000928F5D1FFF72F
:1024C000ACFFB0B100F067FE2946A01CC0B200F01E
:1024D00055FD022300F015F8012000F0E0FC00F0AB
:1024E0000F000928F8D102F070F8FDF79CFF0024D6
:1024F00000E00724002000F05BF900F02DFE2046EC
:1025000032BD00221F21022000F008BD2DE9FC4150
:10251000054600F022FD0446802C69DAA71CFF2D39
:1025200005D0C92D03D08F2D01D0192D08D100263B
:10253000FF2002F019FA701CC6B2BE42F8DB57E069
:10254000DFF8B0020188491C0180012000F030F959
:10255000FDF792FF00284BD1E01C80B201F05BFE3A
:10256000050045D0A846A01C08F8010B0026FF2056
:1025700002F0FAF908F8010B701CC6B2BE42F6DB95
:102580001021DFF8540201F022FF6CB300A8052CE3
:1025900013D18DF800400126715D3154761C06215F
:1025A0008E42F9DB417801F0030102291CD1611947
:1025B00049780171FDF738FF16E069788DF8001051
:1025C000A97841708909C1709DF80120C2F3810288
:1025D000827000D142B1FDF74FFF01F0F5FF18F80E
:1025E000011C2846FDF720FF00F09FFB01F04CFB8B
:1025F000BDE8F38170B584B000208DF8000001F0D3
:102600004FFB3B2001F091FB04463B2001F08DFB8A
:102610008442F9D1002C31D0012100A801F0AAFB9D
:102620009DF80000C01C844276D19DF800003E2831
:1026300072D2801C8DF8000001AC9DF800000528C6
:102640001DD18DF8040004210DF1050001F092FB6D
:1026500001210DF1010001F08DFB9DF80100000644
:102660005AD5607800F00300022855D1207900F097
:1026700077F82071217901A8FDF7D6FE4CE0012101
:1026800001A801F077FB01210DF1050001F072FBBB
:102690004F480078C0070AD460788009E0709DF840
:1026A0000510C1F38101A17001D1002934D0FDF7DB
:1026B000E3FE002830D19DF80000401C80B201F0FC
:1026C000AAFD05462E0027D09DF8000006F8010B54
:1026D0009DF8040000F030F8607800F02DF89DF8C7
:1026E0000010304601F046FB9DF80000861916F8F0
:1026F000010C00060DD516F8020C00F031F806F8B2
:10270000020C01F061FF16F8021C2846FDF78CFE52
:1027100002E0284601F0B8FD00F01FF800F01AF8BA
:10272000F0210842FAD100F012F800F00DF800F0A4
:10273000FCFA01F0A9FA7FBD06F8010B9DF8000034
:10274000401E8DF800007047342001F0D5BA3A20C1
:1027500001F0D2BA3D2001F0CFBA362001F0CCBA58
:10276000802806D3A0F5807000B200EBD070401036
:1027700000E040084A386FF07F0100B28842B8BFDD
:10278000084640B270470020704780B501211020F4
:1027900001F0F3FE3020ADF8000010208DF80300AA
:1027A00003208DF8020000A9104801F0A5FD01BD2D
:1027B0001149002802D0012804D07047086880F031
:1027C000100002E0086880F02000086070470000F8
:1027D000942A0020AC2A0020000801400038014063
:1027E0002404002040420F00B12A002000100140C4
:1027F000B02A0020A82A00200C100140DFF8C804ED
:102800000178491C49B26529A8BF0021017090F9DF
:10281000000070472DE9F0478EB0FEF733FADFF87D
:10282000ACA49AF80000DFF8A874DFF8A854DFF829
:10283000A864317C06293BD8DFE801F004097F81D8
:1028400039437800FFF7DAFF3875012076E0387DEC
:1028500002F00FF90120387078700020B870012064
:10286000F870782038717620787197F91400B87173
:102870004FF2B2084FF2B309DFF8601496F9112055
:10288000904203DA96F91220824206DB00F061F8EA
:1028900000F067F8FEF754F905E000F05AF800F090
:1028A00060F8FEF739F900F04DF8042046E0002802
:1028B00045D1A87D20B9FFF732FD706105203DE0CC
:1028C000F9E7FFF72CFD316A3E2251437269801A05
:1028D0000002B1EB102F38BF02202FD3F07C70B371
:1028E0000020F074DFF8F8730AA83946102201F0CE
:1028F000DEFF787E0990387E089097F820000790D8
:10290000F869069000200590F87D0490B87D03904A
:10291000B88A0290B87C0190388A00900AA80FC843
:10292000FEF75EF900F00EF8062007E038B9A87D42
:10293000002814BF0520052000E0002030740EB0F0
:10294000BDE8F0871920A87501208AF80000FEF77D
:1029500099B94C7B601C487308A83146102201F0DD
:10296000A6BF072007900697002005900494012039
:102970000390CDF808900190CDF8008008A80FC80A
:10298000704780B5FFF73AFFDFF8581301220A704D
:1029900020224A7001228A700022CA7001220A7124
:1029A0004871062002BDCF480121017020214170ED
:1029B000022181700021C17001210171C649497C49
:1029C0000CE0C84801210170202141700321817071
:1029D0000021C17001210171BF49897C417106202C
:1029E0007047C04801210170202141700121817090
:1029F0000021C17004210171B749CA690AE0B948D0
:102A00000121017020214170022181700421017196
:102A1000B1490A6A130E4371C2F307438371C2F3CB
:102A20000721C1710272092070472DE9F047AA4CB5
:102A300000206061FFF7A2FBFEF74EF802F022F8DB
:102A4000A9480A210170DFF8A482A94EDFF8A492F8
:102A5000A04F9E4D01E0FEF715F928780028FAD125
:102A6000132038700E2089F800000B2030704FF0D2
:102A7000FF30706004203072002070721920B87529
:102A800001202870FEF7FEF828780028FAD1B87DDA
:102A900090B99948008801F0EDFF01F0E9FF974EE9
:102AA00006F1080001F0E8FF308A01F0E3FF01F0D1
:102AB000DFFF4FF47A7A0AE0FFF731FC6061FFF73D
:102AC0002EFC00F05BF8FAD3C7E7FEF7DBF82878B6
:102AD0000028FAD1132038700F2089F80000A9F8D7
:102AE00002A01920B87501202870FEF7CBF82878CD
:102AF0000028FAD1B87D002837D1F075FFF70FFC18
:102B0000A06148F2FE00208000206080606000220A
:102B1000718A204600F0C5FD0121204601F0AFFF7B
:102B2000C4F81CA041F2707020620020E0744620BE
:102B300060740520A07400202074714D714EFFF761
:102B400069FEFFF7ECFBA169401A0002000A4FF290
:102B500031218842F3D3308808B901202870002041
:102B60003080FFF7DCFBA061E9E7FFF7D8FB60618D
:102B7000FFF7D5FB00F002F8FAD3A8E76169401A25
:102B80000002000A404570472DE9F0415E4901F21C
:102B90001C06346C70884FF2B202904204D14FF29E
:102BA000B307888BB84202D00020BDE8F081B07C2A
:102BB0004009F9D14A4D28460C31102201F077FE28
:102BC00070882882F07BA874707BA875AF82307CF7
:102BD000E87501202876B07C00F003006876DFF805
:102BE00004813D4F012802D0022829D0DCE720785B
:102BF0000128D9D1707B01280FD16078012802D13A
:102C0000FFF7BFFE15E0022802D1FFF7CCFE10E06F
:102C10000328C9D1FFF7D5FE0BE00C28C4D160789A
:102C2000012802D1FFF7DDFE03E00228BCD1FFF747
:102C3000E6FEC5F81C8085F820000120F874B3E793
:102C400020780128B0D1707B01280CD1607802284F
:102C500004BF94F9040078742BD00328A4D194F90C
:102C60000400B87425E002289ED00C2821D1607899
:102C700001280ED120790006F86161790818000456
:102C8000F861A17908180002F861E1790818F86183
:102C90000FE0022888D1207900063862617908188F
:102CA00000043862A179081800023862E179081836
:102CB0003862012088F80000202088F80100C5F85B
:102CC0001C800220B7E70000B22A002098290020CB
:102CD0002C2A00208029002038290020A02900204B
:102CE0005C290020582A0020B02A002060E401005E
:102CF000AC280020E02800207C2A00207C26002030
:102D0000AE2A0020A82A00203425002010B50C4649
:102D1000012101F0B4FE01F0ABFE204601F0A9FE56
:102D200001F0A6FE012010BD70477047C0B200E060
:102D3000401E0128FCDA704780B500F042F84FF4DD
:102D4000807000F010F8DFF8FC0301F0D5FA0121E3
:102D5000082001F012FC012000F005F8DFF8E8037C
:102D600001F0CAFA01BDADF8000003208DF80200A1
:102D700010208DF8030000A9704710B582B000F054
:102D800020F800F04EF8E020ADF8000018208DF893
:102D9000030003208DF80200DFF8A84300A92046B5
:102DA00001F0AAFA0121DFF8A40301F05FFD102071
:102DB000ADF800008DF8030000A9204601F09CFA50
:102DC00013BD0121042001F0D8BB10B586B000F07E
:102DD00028F8DFF878430021204601F03AFD002072
:102DE000ADF800004FF48270ADF8020000200190B1
:102DF000ADF808004FF40070ADF80A001820ADF8E7
:102E00000C000020ADF80E000720ADF8100000A95E
:102E1000204601F003FD0121204601F01AFD06B015
:102E200010BD01214FF4805001F0A7BB00B585B063
:102E3000FFF7C7FF0120ADF8040048208DF8070018
:102E400003208DF8060001A9DFF8F80201F054FA1A
:102E50000121012001F091FB0021084601F0BBFA9D
:102E60000120029000208DF80C0008208DF80D0044
:102E700001208DF80E0002A801F04CFC06208DF810
:102E8000000001208DF8010000208DF802000120D3
:102E90008DF8030000A801F08AFC05B000BD38B52C
:102EA0000446DFF8A0521021284601F092FA286962
:102EB0004006FCD444F0800001F056FDFF2001F0F4
:102EC00053FD04461021284601F081FAE0B232BDDC
:102ED00070B500F06AF830694006FCD444F0C000D8
:102EE00001F042FD284601F03FFD10213046BDE8CB
:102EF000704001F06CBAF8B500F062F8386940062D
:102F0000FCD444F08000FFF7CAFF04461021384685
:102F100001F05DFA05EA0400F040F2BD2DE9F04150
:102F200004460D4617469846864E1021304601F05D
:102F300050FA30694006FCD42046FFF7B0FF08FA8B
:102F400007F12940A84301432046FFF7C1FF1021A4
:102F50003046BDE8F04101F03ABA10B5794C102185
:102F6000204601F036FA20694006FCD4202001F00A
:102F7000FBFCFF2001F0F8FCC0B210BDF8B500F07A
:102F800014F830694006FCD4602001F0EDFC2046C6
:102F900001F0EAFC002703E0785D01F0E5FC7F1C0E
:102FA000A742F9DB1021304606E004460D46654E87
:102FB0001021304601F00DBABDE8F44001F007BA27
:102FC00004460D4616465F4F1021384601F001BAFF
:102FD00010B500F084F85B4C4FF48071204601F08E
:102FE000F8F94FF48071204601F0EAF90028F3D196
:102FF0000121554801F0EDF9022001F0D2FC00F06A
:1030000069F8022001F0CDFC01E000F063F8E0680F
:10301000C005FAD500F0D6F800F0B6F80828FBD1C4
:1030200000F055F800F0B2F800231A46012100F034
:10303000B0F801230722802100F0ABF8012305221C
:10304000202100F0A6F80123072280210C20FFF7A1
:1030500065FF0D211320FFF73BFF04211420FFF72C
:1030600037FFE7210520FFF733FF03211620FFF785
:103070002FFF1620FFF713FF0328FAD17C210C2025
:10308000FFF726FF0C20FFF70AFF314908700C20DC
:10309000FFF705FF7C28FAD100230422302103200A
:1030A000FFF73CFF0023002207210320FFF736FF34
:1030B0000023032208211046FFF730FF092300F008
:1030C00082F80F20FFF7EBFE0128FAD110BD0C218A
:1030D0000E20FDE64FF48071204601F078B9012002
:1030E00001F05FBC10B5012001F046FB48B30120A0
:1030F00001F050FB0F20FFF7D2FE0446C22C0BD08C
:10310000FF2C09D004F00F000F2805D004F0F000C8
:10311000F02801D0C92C02D10E4801210170082CE1
:1031200009D0C02C07D0282C05D08F2C03D0192C07
:1031300001D00C2C05D10120FFF7F8FD2046FFF748
:10314000E5F910BD00080140000C014000300140CD
:10315000AF2A0020AE2A002080B500F033F800F03E
:1031600013F8C007FBD4FFF7B2FF00F00FF80023FD
:103170001A46012100F00DF8062300F024F800F0B3
:1031800003F8C007FBD401BD012088E6012301221A
:1031900002210420C2E610B501E000F013F8FFF7A9
:1031A000F3FFC007F9D4092300F00DF805E0092367
:1031B00000F009F8FFF7E8FF044604F00F000928C3
:1031C000F5D110BD032300221F210220A6E680B501
:1031D00005E0FFF7F7FFFFF7D7FF01F04AFCFFF725
:1031E000D3FFC007F5D40623FFF7EDFFFFF7CCFFB1
:1031F00000F00F000628F9D10123072280210820C2
:10320000FFF78CFE072280210120FFF774FE0128C2
:10321000F8D1FFF7B9FFC00702D5FFF7D3FFF8E7F2
:10322000062240210120FFF766FE012818BF00207A
:1032300002BD000038B5DFF82C444FF482712046FF
:1032400001F07CFCDFF82054542105F11C0001F052
:1032500075FC7F2020604020207147F23050E060F4
:103260004FF47A706061012020766076DFF8FC030D
:103270007F21018048F2FE0028800020688068607D
:1032800000224021284600F056F8284600F0FEF9BA
:1032900003220021284600F097F840F2FF20288002
:1032A000002068806860A860A8814FF48070E88181
:1032B000284600F0E7F80020607131BD10B5DFF856
:1032C000A84348F2FE002080002060806060DFF8A4
:1032D000A0030288DFF89C03418A204600F0E1F950
:1032E000042200212046BDE810406DE02DE9F047A2
:1032F0000546884691469A46089C099E0020306003
:103300002F4601E037604F4409FB085087420BD23B
:1033100038780028F6D0E2085146B81C01F0F2FADD
:103320000028F0D1376004E03068002814BF012085
:103330000220BDE8F087F0B583B007460C4616467C
:10334000DFF8245305F11800019000943B461C223D
:10335000032105F11C00FFF7C9FF01281ED1A86950
:1033600001210170A869801C394600F048F9A8695C
:103370008474701E8041C00FA9690876DFF8F86276
:103380003078032804D30021A869801C01F077FB62
:103390003078032824BF204601F06CFB0020FEBDDE
:1033A0001CB5DFF8C44204F11802019200910346F3
:1033B0001C22032104F11C00FFF798FF002801D113
:1033C000A06916BD002016BDF0B583B004460E46B8
:1033D0001746A54D05F1100001908020009023466E
:1033E00000F04CF801282AD12869012101702869D0
:1033F00000F003F92869C774286901218174701EDF
:103400008041C00F296908759B4E3078032804D38A
:1034100000212869801C01F032FB3078032803D397
:103420002869C07C01F026FB00F00BF8607B687314
:10343000E089E881284600F025F82869FEBD0020D3
:10344000FEBDFF202870022169700021698069603B
:103450002981A9720121E972287370471CB5824C39
:1034600004F11001019180210091034600F006F85B
:10347000002801D1206916BD002016BD1C220421A0
:103480007E4833E730B583B00546774C04F114002D
:103490000190802000902B4600F026F8616920B949
:1034A000887C401C887460693EBD01280AD1087080
:1034B0006069801C294600F0A2F86069817C491C83
:1034C0008174F0E700203EBD1CB5674C04F1140187
:1034D000019180210091034600F006F8002801D1F7
:1034E000606916BD002016BD142205216448FDE662
:1034F0001CB5644C019480210091034600F006F84D
:10350000002801D1206816BD002016BD122201211D
:103510005D48EBE638B50446534D05F21C0002E069
:10352000A86900F21C00A861A86905F17001884231
:103530000CD201780029F3D0817CCA082146801C76
:1035400001F0E0F90028EBD1012032BD002032BDAE
:103550002DE9F04704460D464FF00008C246287892
:10356000FE280BD1687880280FD1287AC0F340005C
:1035700001280EBF03210421012027E0FF2804D1E8
:10358000687800F00E000E28EFD1374EDFF8D490A7
:1035900009F21C003061376909F18C00874218D2AA
:1035A000387880B1B87C01280DD1B878FE2802D1D6
:1035B000F878802807D0B91C284600F084F84045E8
:1035C000A4BF8046BA4607F21C00E3E700F01AF8F1
:1035D0008246BAF1000F09D1002020806080A080CF
:1035E000E08020816081A081E08104E020460AF132
:1035F000020100F004F8BDE8F087801C214610228B
:1036000001F048B930B500F027F801E002F21C02E1
:1036100000F01CF818D21578002DF7D04FF0FF35C8
:10362000A84202D0957C8542F0D14FF0FF35A942E7
:1036300002D0D57C8D42E9D19578FE2DE6D1D578A2
:10364000802DE3D1104630BD002030BD1A611A69CB
:1036500004F18C05AA427047034B024C04F21C0291
:103660007047000030240020002800209C2A002001
:103670007C2A00207C260020B02A00204C24002038
:10368000CE240020A42A0020BC24002010B504462B
:1036900004F10800FEF77CFE207A80F00200207220
:1036A00010BD0B0A0372417200218172FF21C172A9
:1036B000FE21017300214173110A8173C27303F06B
:1036C000FD010172704730B50022002304E008328A
:1036D000D2B25B1C102B10DA1C5C5D5CAC42F6D0E5
:1036E0002046294648400021030606D4521CD2B287
:1036F0004006000E491C0829F6DB104630BD0000CC
:1037000079480021017001710121417148F2FE01E7
:10371000C18000218160818100227449498A801D15
:10372000FFF7BFBF002070477FB50899099C0A9832
:103730006F4D00222A7000F0E7F86E48427B8A70D5
:10374000521C4273827BCA70511C8173E020287224
:103750004FF2B0062E8605F1100000A9102201F0EC
:10376000A6F86E86AC71286820F0010028607FBD45
:103770007FB584B0FEF7D3FD5F4C04F270050120E5
:10378000A8735A4EB07D687304F17500FEF700FE11
:10379000308A2871000AE870707DA8705748008848
:1037A0006870000A84F870000F2002904020019099
:1037B0006420009004A80FC8FFF7B6FF08B070BDE2
:1037C0003FB583B04E480021484C4A421219D27B83
:1037D00000F8012D491C0829F7DB451E208A05F851
:1037E0000109208A000A05F80109A07D05F80809E9
:1037F0002846FEF7CDFD607D05F8010D3F480188A4
:1038000005F8011D0088000A05F8010C1620029039
:10381000402001906520009003A80FC8FFF784FFA7
:1038200007B030BD3748C06D0078012818BF0020B0
:1038300070473448C06D0078012818BF00207047D9
:103840003048C06D0078012818BF0020704780B54F
:10385000FEF799FF284901F2780290710012507129
:10386000022010710020D070012090702020507034
:10387000012081F87800072002BDF8B5214C94F8AA
:10388000290006282FD1E06D407801282BD1FFF7C1
:10389000DEFF40B3164D0021297094F8291000F086
:1038A00033F804F22906F07888701248827BCA70D7
:1038B000511C8173B07828724FF2B0072F8605F142
:1038C000100004F10C01102200F0F1FF6F860020BF
:1038D000A871707900F0030040F00400A871286816
:1038E00020F001002860F1BD142A00207C26002071
:1038F00098250020A0290020042700207C2A0020F1
:10390000832700203425002085F8381005F238017F
:10391000087470477047704710B5664C06212170D7
:103920000021617061606449097E21813A21A172A0
:1039300062490979E1721022014604F11C0000F08D
:10394000A9FF04F11C0104F10C00BDE81040FFF7D1
:10395000FFBD38B50446584D594868610020002124
:1039600006E01170FF29A8BF0021401C491CC9B204
:103970006A69521EA0426A61F3DB00201070686918
:10398000401E6861002101706869401E6861FEF791
:10399000CFFC6969087069694A4811F80129828079
:1039A000696166220A70818801F5CC41818069696C
:1039B000491E6961002200F013F800F011F800F0D0
:1039C0000FF880220A7004F1080129760021C180D5
:1039D0003D49498A018104F130003C49088031BDEC
:1039E0000A706969491E696170473948417A0068FF
:1039F0000818001D10F8011B10F8012B12EB012113
:103A000089B2304A938899420CD1017810F8013F6D
:103A100013EB0120D18880B2884203D1106840F0B6
:103A2000020010607047F0B52949487A0A6880188A
:103A3000021D1078537843EA002012F8023F5478B0
:103A400044EA0323941C098A083989B21A4A1C4D96
:103A5000556100250C1905E06F42274417F8017CD9
:103A600037706D1C5669761E8D425661F4DB3370DB
:103A70005469641E54611B12237053695B1E5361A9
:103A8000187053695B1E5361001218705069401E14
:103A90005061002300F01EF800F01CF800F01AF846
:103AA0008123037001F10800107601F1300007490D
:103AB0000880F0BDBC270020C02900203024002051
:103AC0008327002000290020E0280020FC28002077
:103AD0008427002003705069401E50617047000029
:103AE00030B50488DFF89021DFF87431984210D0A7
:103AF00090420ED0B0F1804F0BD0DFF86851A84251
:103B000007D0DFF86451A84203D0DFF86051A84223
:103B100004D14FF68F752C404D882C43DFF850515F
:103B2000A84208D0DFF84C51A84204D04FF6FF4518
:103B30002C40CD882C4304808C8884850C88048597
:103B400098420DD090420BD0DFF83021904207D040
:103B5000DFF82C21904203D0DFF82821904201D1D8
:103B6000097A01860121818230BD30B5028C22F0B4
:103B7000010200F041F8038B00F038F84FF6FD75B4
:103B80002C400D892C434D882C4300F02BF80ED08F
:103B900000F024F80BD0DFF8E450A84207D0DFF89B
:103BA000E050A84203D0DFF8DC50A84210D14FF615
:103BB000F7752C404D892C434FF6FB752C408D88B2
:103BC0002C434FF6FF452A408D892A43CD892A434D
:103BD00082800383C9888186048430BDDFF89850D1
:103BE000A8427047DFF87850A84270474FF68C75AE
:103BF0002B400D882B4370470284048C82887047C9
:103C00000029018814BF41F0010121F00101018068
:103C10007047002A828914BF114322EA0101818181
:103C20007047018582827047028B4FF6F7731A4006
:103C300011430183704781867047808E7047808C66
:103C40007047028A808908400A4202D010B10120E0
:103C500000E00020C0B270470000C94301827047F5
:103C6000002C01400004004000080040000C00400F
:103C700000100040001400400034014000400140AA
:103C8000004401400048014080B5402000F082FD22
:103C900000F012F88DF8020001208DF8030007E013
:103CA00080B5402000F076FD00F006F8ADF8020087
:103CB00000A800F07CFD01BD17208DF80000012058
:103CC0008DF801000020704738B504464B4D0221A5
:103CD000284600F0D4FD0028F9D02146284600F0FF
:103CE000C1FD0121284600F0CAFD0028F9D0284670
:103CF00000F0BAFDC0B232BD38B504463E4D0221D7
:103D0000284600F064FB0221284600F062FB00F028
:103D10002DF80128FBD02046FFF7D6FF04460221EC
:103D2000284600F054FB204632BDFF2140F0C00081
:103D3000FFE770B504460D462F4E0221304600F0D5
:103D400046FB0221304600F044FB00F00FF801284A
:103D5000FBD02046FFF7B8FF2846FFF7B5FF044623
:103D60000221304600F033FB204670BD402121483F
:103D700000F01FBB0A460146FF202DE9F041044632
:103D80000D4616460027DFF870800221404600F0FD
:103D90001EFB0221404600F01CFB06E002214046CB
:103DA00000F017FB0127F6B2DEB1FFF7DFFF0128B5
:103DB000FBD02046FFF788FF200604D5FF20FFF741
:103DC00083FF287002E02878FFF77EFF761E6D1CC7
:103DD0000221404600F0F4FA0128DFD0F6B2002EAE
:103DE000EAD10221404600F0F2FA3846BDE8F081FF
:103DF0000000000000080140000C014000300140BC
:103E00005048514901F27E024261002281F87E2031
:103E10004169491E416101F80129416101F8012907
:103E2000416101F80129416101F80129416101F86D
:103E30000129416101F80129416185220A700821A7
:103E40000176424A0621117000215170516008200C
:103E500010813A209072FF20D07240F2FF209083B0
:103E6000D1831162516211854FF40070508502F1C7
:103E70001C0102F10C00FFF76BBB2DE9F84F344C2D
:103E8000607A216845180526DFF8C8B0DFF8C880D9
:103E9000DFF8C890DFF8C8A002E00020AAF8000010
:103EA000208A86424CDA751968788019C600F6B205
:103EB00028780328F1D12F1D3878FE2802D1787890
:103EC0008028EDD0E87800060FD5A9783846FFF7AE
:103ED00067FA50B90022A9783846FFF72CFAC9F8DA
:103EE0001000A9783846FEF711FFE8784006D7D5CC
:103EF000A8784028D4D148463946102200F0CAFCA0
:103F000098F81900012807D1BBF800201548418A0C
:103F10004846FFF7C6FB02E04846FFF7B7FB4846B6
:103F2000FFF79CFA0028BBD198F81900012805D1A9
:103F3000042200214846FFF747FAB1E70322F8E7D9
:103F4000BDE8F18FC029002004270020BC270020F5
:103F5000842700207C2A002030240020442A0020CE
:103F6000FC2800207C26002030B585B004460D4694
:103F7000208A4CF6FF710840E98808432082A08916
:103F80004EF6F3110840A988084329890843698936
:103F90000843A081A08A4FF6FF410840A989084341
:103FA000A08200A800F0ADFA144884420CBF039828
:103FB0000298296819225043A28912044CBF490073
:103FC0008900B0FBF1F16422B1FBF2F000010309BA
:103FD00002FB1311A3891B0406D5C9003231B1FBC2
:103FE000F2F101F0070105E009013231B1FBF2F114
:103FF00001F00F010843208105B030BD00380140B9
:104000000029818914BF41F4005121F400518181BC
:10401000704710B50B065B0F012401F01F0104FA75
:1040200001F1012B08BF0C3003D0022B0CBF103064
:104030001430002A026814BF114322EA0101016012
:1040400010BD8088C005C00D704700880140080081
:1040500018BF0120C0B2704721E010B50A06520F08
:10406000012301F01F0403FA04F4012A08BF828926
:1040700003D0022A0CBF028A828A2240090A03FA6C
:1040800001F10088084012B110B1012000E00020C9
:10409000C0B210BD0122090A02FA01F189B2C94376
:1040A000018070477047FEE7FEE7FEE7FEE77047D6
:1040B00070477047704780B5402000F05DFB20B12D
:1040C000FEF798FA402000F065FB01BD70B5394C51
:1040D00000F037F890B138480178491C0170C9B236
:1040E000962904BF0021017006782046FFF7A9FF3A
:1040F0003249705429462046FFF7CCFF082120465C
:10410000FFF7A3FF012806D108212046FFF7A4FFEF
:104110002046FFF796FF70BD38B5294C00F011F826
:10412000012803D129462046FFF7B4FF0821204685
:10413000FFF78BFF012803D108212046FFF78CFFF2
:1041400031BD40F2255529462046FFF786BF80B590
:1041500001214FF08040FFF774FD70B101214FF055
:104160008040FFF77AFD17480178491C0170C9B2F9
:10417000FF291ED10021017001BD02214FF08040B6
:10418000FFF75FFD002814D002214FF08040FFF7B9
:1041900064FD4FF08040FFF750FD0B49088040F66A
:1041A000DC31411A89B24FF08040FFF744FDFEF741
:1041B000BBFD01BD00380140AC2A0020E4250020F1
:1041C00000440040B12A0020AA2A0020FEF78ABF3E
:1041D000FEF788BF0178407801EB00204004400CD6
:1041E000704700F8011B027802F0800212EB1121E7
:1041F0000170704710B53E4C4FF40051204600F05E
:104200009DFC607840F08000607041F6FE712046B1
:10421000BDE81040E5E7F8B5050001D10020F2BD8A
:10422000122D38BF1225324E3446002709E02046B1
:10423000FFF7D0FF3818871CBFB2B7F5005FEDDA83
:10424000BC1960780006F2D52046FFF7C3FFA842EC
:10425000EDD32046FFF7BEFF461BB6B2122E0DD39C
:1042600029462046FFF7BDFF2819801C417841F000
:1042700080014170B11E89B2FFF7B3FF607800F092
:104280007F006070A01CF2BD2DE9F04168B3801E74
:10429000417841F0800141700024154D2E460BE01D
:1042A00000F028F880463846FFF794FF4044811C10
:1042B00089B23046FFF795FF707800060BD500F005
:1042C00019F82018801C80B2B0F5005F0DDA47198C
:1042D00078780006E4D400F00DF82018841CA4B20D
:1042E000B4F5005FB8BF6619E6DBBDE8F0810000F9
:1042F0003004002030466DE72DE9F041CB7803F023
:104300000F02DB0644BF8B781A430B8801240F256C
:10431000DEB216B3D0F800C0002604FA06F707EAAA
:104320000308B84514D14FEA860E05FA0EF82CEAB8
:10433000080C02FA0EFE4EEA0C0C91F803E0BEF1F6
:10434000280F08BF476103D0BEF1480F08BF0761BF
:10435000761C082EE1D3C0F800C04FF48076B3423B
:1043600025D3D0F804C0002606F1080704FA07F7A1
:1043700007EA0308B84515D14FEA860E05FA0EF88C
:104380002CEA080C02FA0EFE4EEA0C0C91F803E03F
:10439000BEF1280F08BF476191F803E0BEF1480F56
:1043A00008BF0761761C082EDED3C0F804C0BDE844
:1043B000F08180680140080018BF0120C0B270473A
:1043C000C0680140080018BF0120C0B270470161F9
:1043D00070474161704730B501F0030292008910C7
:1043E000074B53F821400F259540AC4343F821403B
:1043F00053F821409040204343F8210030BD000095
:104400000800014082B03648016841F001010160B6
:104410004168344A114041600168334A11400160EB
:10442000016821F480210160416821F4FE014160AE
:104430004FF41F018160002101910091016841F456
:1044400080310160016801F4003100910199491C3B
:104450000191009919B90199B1F5A06FF2D10168E4
:1044600011F4003118BF0121C9B20091009901294E
:1044700030D11E490A6842F010020A600A689208A8
:1044800092000A600A6842F002020A6041684160D4
:1044900041684160416841F480614160416821F4B4
:1044A0007C114160416841F4E8114160016841F0CC
:1044B0008071016001688901FCD541688908890023
:1044C0004160416841F002014160416801F00C0126
:1044D0000829FAD106484FF00061016002B0704728
:1044E000001002400000FFF8FFFFF6FE002002402F
:1044F00008ED00E02A490A6822F4E06210430860EF
:10450000704730B526490A68264B12F00C0203D0DA
:10451000042A01D0082A20D003600B68224A0468CC
:10452000C3F303139B5C24FA03F343600C68C4F3E6
:104530000224A45CE34083600B684468C3F3C22395
:104540009B5C24FA03F3C3600968C1F381318918C5
:10455000097CB3FBF1F1016130BD0A680C68C2F35C
:104560008342921C114D5543E40301D42B46D3E7FB
:104570000C68A403FAD45343CEE70D4A002911680E
:1045800014BF084321EA000010607047094A00295F
:10459000116814BF084321EA000010607047000052
:1045A0000410024000127A000004002000093D00BF
:1045B000181002401C10024080B5FFF71BFE2A486D
:1045C00000210177017301BD70472748C16841F0A0
:1045D0000101C16070472DE9F041244C224D287F34
:1045E00000283FD002282BD03CD22078012802D0CE
:1045F000022806D036E0626869782878FDF7F9FE6F
:104600002DE0E86820F00100E8606E690027DFF81F
:10461000608009E098F80000032824BF307800F09B
:1046200028FA761C7F1CBFB2287E8742F2DB6969BC
:10463000FDF729FF2072002814BF0020022010E09F
:10464000287BC00748BF00200BD4FDF768FE29690E
:10465000401A0002000AB0F5967F03D906202072A6
:1046600000202877BDE8F081C0290020882A00209A
:10467000B02A002026484FF6FF71018070471CB514
:10468000044600A8FDF784FE214600A800F01DF8AE
:1046900013BD30B51E4B1C884FF6FF75AC4212D0CF
:1046A0008C4210D1991C002310F8014B11F8015BCA
:1046B000AC4202D15B1C082BF6DB082B03D1002097
:1046C0001070012030BD002030BDF8B507460E4601
:1046D0000A240F4D00AAFFF7DCFF002805D09DF843
:1046E000000004FB00500088F2BD8DF800004FF67A
:1046F000FF70298881420AD108223946A81CFDF79B
:10470000A7FD9DF8000004FB005006800020F2BDCC
:104710007C2A002030B50168CB43204982792AB336
:104720000A4614682340136053680468A343536027
:104730000379CC18236805682B43236093680468C9
:10474000A3439360D3680468A343D36043790568A7
:10475000102B07D1916829439160D1680068084304
:10476000D06030BDCC182068284303E000790C18D5
:1047700020681840206030BD08490A680240496935
:10478000014203D0100002D0012000E00020C0B29E
:1047900070470000024908607047000000040140B3
:1047A000140401401849084318490860704770B55F
:1047B00003781A460121C478ECB1144B1B6803F44A
:1047C000E063C3F5E0631B0A4478C3F10405AC4021
:1047D00085780F2626FA03F32B4023431B010C4C4C
:1047E0001355007842110B4B00F01F0001FA00F046
:1047F00043F8220070BD5011074A03F01F0399408F
:1048000042F8201070BD00000000FA050CED00E039
:1048100000E400E000E100E080E100E0028802F452
:1048200041520B881A434B881A438B881A43CB8812
:104830001A430B891A434B891A438B891A43CB8934
:104840001A430280828B22F400628283098A0182E9
:1048500070470029018814BF41F0400121F0400158
:104860000180704781817047808970470029818865
:1048700014BF41F0040121F00401818070470089D8
:104880000140080018BF0120C0B27047FFE7C943CC
:10489000018170474AB38B0707D011F8013B00F83C
:1048A000013B521E21D08B07F7D183071ED1103A4E
:1048B00007D330B4B1E83810103AA0E83810F9D274
:1048C00030BC530724BFB1E80810A0E8081044BF6B
:1048D00051F8043B40F8043BD20724BF31F8022BC7
:1048E00020F8022B44BF0B7803707047083A07D3B7
:1048F000B1E80810083A40F8043B40F804CBF7D27E
:104900005307E4E70300002013F0030F09D0521E01
:1049100022BF13F8010B11F801CBB0EB0C00F3D060
:104920007047121F22BF53F8040B51F804CB6045A7
:10493000F7D0121D0AD200BA9CFA8CFCB0EB0C0026
:1049400038BF6FF0000088BF01207047521E22BFA1
:1049500013F8010B11F801CBB0EB0C00F6D0521C90
:1049600008BF10467047000038B50446DFF84050D5
:1049700002212846FFF783FF0028F9D02146284668
:10498000FFF770FF02212846FFF780FF012128462C
:10499000FFF775FF0028F9D02846BDE83240FFF741
:1049A00063BF002100E0491C8142FCD37047000036
:1049B0000030014062F30F2262F31F4200B5130082
:1049C00096469446103928BFA0E80C50FAD85FEA02
:1049D000417C28BF0CC048BF40F8042BC90728BF42
:1049E00020F8022B48BF00F8012B00BD10B40FE0E7
:1049F00001680918001D50F8042BD40744BFA9F121
:104A00000104A21851F8044B42F8044B1B1FF9D1C2
:104A100050F8043B002BEBD110BC704710B508498F
:104A200079441C31074C7C441A34A14206D0081D3D
:104A30000A68511888470146A142F8D110BD00BF4D
:104A40007C0000009C00000038B500F073F8020004
:104A5000022300240025ED431068A84203D0110072
:104A60000220ABBE1460121D5B1EF5D131BD0000EB
:104A70007047704770477047FDE77047704701B94E
:104A8000FBE7FBE700B583B000A8FDF781FC00A8B9
:104A9000FFF7F1FF07BD0BE050F8041BCB0744BF45
:104AA000A9F101035918002341F8043B121FFAD160
:104AB00050F8042B002AEFD170470000DBFFFFFF06
:104AC00084260000300400200000000021FFFFFFCA
:104AD0003000000048010000000400200000000039
:104AE00000F09AF8002801D0FFF798FF0020FDF7AA
:104AF0009CFF00F026F8000080B5FFF7A5FF024AF2
:104B000011001820ABBEFBE72600020001488047D9
:104B100001480047054400081D4B0008C046C04638
:104B2000C046C046FFF7DCFF07463846FFF7E4FF04
:104B3000FBE7000000487047280400200022FFF730
:104B40003DBF80B5FFF7F0BFFFF7ACBAFFF7ABBAD8
:104B5000FFF7AABAFFF7A9BAFFF7A8BAFFF7A7BAF3
:104B6000FFF7A6BAFFF7A5BAFFF7A4BAFFF7FEBF93
:104B7000FFF7FEBFFFF7FEBFFFF7FEBFFFF7FEBF69
:104B8000FFF7FEBFFFF722BBFFF7FEBFFFF7FEBF39
:104B9000FFF7FEBFFFF7FEBFFFF7FEBFFFF7FEBF49
:104BA000FFF7FEBFFFF7FEBFFFF7FEBFFFF7FEBF39
:104BB000FFF7FEBFFFF7FEBFFFF7FEBFFFF7FEBF29
:104BC000FFF7FEBFFFF7FEBFFFF775BAFFF7FEBFA7
:104BD000FFF7FEBFFFF7FEBFFFF7FABAFFF7B7BA5E
:104BE000FFF7FEBFFFF7FEBFFFF7FEBFFFF7FEBFF9
:104BF000FFF7FEBFFFF7FEBFFFF7FEBFFFF7FEBFE9
:104C0000FFF764BAFFF788BAFFF7FEBFFFF7FEBFF2
:104C1000FFF7FEBFFFF7FEBF012070470000000056
:104C2000010203040102030406070809020406083E
:104C3000000000000000000001020304060708094C
:0C4C400000A24A04FFFFFFFFFFFFFFFF80
:0400000508004B1D87
:00000001FF
