:020000040800F2
:1000000000040020E5960008497B00084B7B0008AF
:100010004D7B00084F7B0008517B0008000000006A
:10002000000000000000000000000000537B0008FA
:10003000557B000800000000577B0008597B000832
:10004000399800083D980008419800084598000834
:10005000499800084D980008737C000855980008DE
:10006000599800085D980008619800086598000894
:10007000699800086D980008719800087598000844
:10008000799800087D9800088198000885980008F4
:10009000899800088D980008919800085B7B0008FB
:1000A000999800089D980008A19800087B7C00089A
:1000B000017C0008AD980008B1980008B5980008C8
:1000C000B9980008BD980008C1980008C5980008B4
:1000D000C9980008737B0008D17B0008D5980008F8
:1000E000D9980008DD980008E198000880B5DFF88D
:1000F000C40A00210170DFF8C00A00210170DFF896
:10010000BC0A00210182DFF8B40A00214160DFF857
:10011000AC0A002180F82C10DFF8A00A002180F83A
:100120002D10DFF8980A41F247314182DFF88C0A3E
:100130000321C17505F0D2FEDFF8800A0021417568
:10014000DFF8780AFF2180F82410DFF8700A002118
:100150008175DFF8680A807D50F00200DFF85C1AD4
:100160008875DFF8580A807D50F00400DFF84C1ADB
:100170008875DFF8480A807D50F00800DFF83C1AE7
:100180008875DFF8380A807D50F08000DFF82C1A7F
:10019000887501BD80B5DFF82C0A02210170DFF8F7
:1001A000240A01214170DFF81C0A40780B2805D28F
:1001B000DFF8080A4FF41671016004E0DFF8FC096B
:1001C0004FF416710160DFF8E40C01210170DFF8D3
:1001D000DC0C416821F001014160DFF8D00C40687F
:1001E00050F00200DFF8C41C4860DFF8C00C0221A8
:1001F0000172DFF8CC090121017007F007FC41F220
:10020000473000F008F84FF6FF7004F095FCDFF877
:100210009C0C007A02BD80B5DFF8A0194882DFF897
:100220009C09408A04F087FC01BD80B5DFF8941971
:100230004870C0B204F055FC01BD10B504002000A8
:1002400080B205F05BFE200080B204F075FC10BDAA
:1002500010B5DFF85C0C0078002805D1DFF85C09E8
:100260004FF41671016004E0DFF850094FF4167185
:10027000016007F0CBFBDFF844090079000601D5E7
:1002800000F019FC00F01CFEDFF8280C00780028B4
:1002900021D0FFF77FFFDFF81C0C002101701AE06E
:1002A000DFF82009007B10F002004008002840F031
:1002B0007783DFF81009C06850F00200DFF80419F6
:1002C000C860DFF8F00809210170DFF8F008416824
:1002D00021F480614160DFF8DC080078002819D043
:1002E000022800F08482C0F09880042800F0A782E1
:1002F000C0F08E82062800F03B82C0F004820828FD
:1003000000F0C881C0F09A810A2800F0FB82C0F09A
:10031000C48245E3DFF8A4084068400540F140830B
:10032000DFF8940B807EDFF8901B09680968405C59
:10033000C0B2012836D0062819D007285DD1DFF8D1
:10034000700B0078032803D3DFF8700B06F038FD3C
:10035000DFF86808007910F00100C0B200289FD1D2
:10036000DFF85808416821F48061416018E3DFF844
:100370005408007B10F002004008002812D1DFF87A
:100380004408C06850F00200DFF83818C860DFF891
:10039000240804210170DFF82408416821F48061F9
:1003A000416098E7DFF81408007910F00100C0B24E
:1003B00000281BD0DFF80C08007B10F0020040087A
:1003C000002840F0ED82DFF8FC07C06850F0020022
:1003D000DFF8F017C860DFF8DC070A210170DFF8EA
:1003E000DC07416821F48061416074E7DFF8CC07E5
:1003F000416821F480614160D2E2DFF8B40A0078FC
:10040000012803D3DFF8A80C06F0DAFCDFF8AC070C
:10041000416821F480614160C2E2DFF8980C007805
:10042000032816D0C0F00981052800F0C18017D339
:10043000072834D071D3082840F0FF80DFF8740C0F
:10044000DFF8701C89780171DFF8680700210170FE
:10045000A6E200F0BBFBDFF85C07022101709FE21F
:10046000DFF85807406850F08000DFF85017486008
:10047000DFF8440C0A210170DFF8300A0221017014
:10048000DFF8280A02210172DFF834070121017028
:1004900007F0BCFADFF81C070221017080E2DFF8E8
:1004A0002407C068C0F34000012800F07982DFF81B
:1004B0001407C06850F00200DFF80817C860DFF8C2
:1004C0002C0D03218173DFF8240DC821C173DFF8DF
:1004D0001C0D4FF6FF714180DFF8100D4FF6FF71D4
:1004E0000180DFF8080D4FF6FF71418101F037F808
:1004F000DFF8C806416821F400514160DFF8BC060E
:10050000406850F48040DFF8B416486000F05EFBAD
:10051000DFF8A0060521017042E2DFF8A00641687D
:1005200021F480714160DFF89C06C068C0F3400090
:10053000012800F03582DFF88C06C06850F0020018
:10054000DFF88016C860DFF8740640684FF4007169
:100550000843DFF868164860DFF8580B807804F02D
:10056000C0FADFF86006DFF8881C4161DFF8540646
:10057000406907210170DFF84C0601210176DFF8A0
:100580006C0C43218173DFF8640C0821C173DFF820
:100590005C0C4FF6FF714180DFF8500C41F247319F
:1005A000018000F013FBDFF80C0603210170F7E176
:1005B000DFF81006C068C0F34000012800F0F081A9
:1005C000DFF80006C06850F00200DFF8F815C860D8
:1005D000DFF8E00A807804F084FADFF8E00541688B
:1005E00021F40061416000F09BFFDFF8000C232143
:1005F0008173DFF8F80BC821C173DFF8F00BDFF867
:10060000BC15C98C4180DFF8B405008DDFF8DC1B18
:100610000880DFF8A805406850F48050DFF89C158A
:100620004860DFF8C80B4FF6FF71418100F0CEFA49
:10063000DFF8800507210170B2E1B1E1DFF87C0548
:100640000079000600F1AC81DFF87805C16821F07F
:100650000201C160DFF8600A0078002810D0DFF8DE
:10066000540ADFF8541A09780171DFF8500541681F
:1006700021F480514160DFF83C05002101708FE1D9
:1006800004F0EBF9DFF86C1B0860DFF8280508219F
:10069000017085E1DFF82405406800050ED5DFF81C
:1006A000140A00210171DFF81405416821F480511A
:1006B0004160DFF800050021017071E104F0CDF91F
:1006C000DFF8301B0968401A0002000A43F271018A
:1006D0008842C0F06581DFF8DC090D210171DFF887
:1006E000D0070078032803D3DFF8A00C06F068FBDE
:1006F000DFF8C804416821F480514160DFF8B40498
:10070000002101704CE1DFF8B4040079000600F12B
:100710004781DFF8B004C16821F00201C160DFF851
:1007200098090078002819D0DFF88407007803289A
:1007300003D3DFF85C0C06F043FBDFF8800441686C
:1007400021F480414160DFF86C09DFF86C19097809
:100750000171DFF860040021017021E104F07DF9EE
:10076000DFF8901A0860DFF84C040621017017E1E9
:10077000DFF848044068800414D5DFF83809002108
:100780000171DFF83804416821F480414160DFF8ED
:100790002C04416821F400514160DFF81804002165
:1007A0000170FDE004F059F9DFF8481A0968401AB1
:1007B0000002000A43F271018842C0F0F180DFF8C4
:1007C000F4080E210171DFF8E8060078032803D34E
:1007D000DFF8C00B06F0F4FADFF8E003416821F41B
:1007E00080414160DFF8CC0300210170D8E0DFF8E0
:1007F000CC030079000600F1D380DFF8B808DFF8F9
:10080000B81809780171DFF8AC0300210170C7E066
:10081000DFF8A8030079000600F1C280DFF8940831
:10082000DFF8941809780171DFF88803002101705E
:10083000DFF89003C16821F00201C160B0E0DFF889
:10084000580B05F03DFC0400002C13D1DFF86006C6
:100850000078032803D3DFF8C00C06F0B1FADFF804
:10086000540300210170DFF85C03C16821F002012C
:10087000C16095E0DFF838060078032803D3DFF87D
:100880009C0C06F09DFA20780A21DFF83C2301FB3E
:100890000020008800F076FE3FE0DFF814060078C4
:1008A000032803D3DFF8D00C06F08AFADFF800063D
:1008B0000078032803D3C148408A06F0C0FADFF865
:1008C000F0050078032803D3DFF8B00C06F078FABF
:1008D00000F092FCDFF8140900218173DFF80C09A5
:1008E0008021C173DFF80409B74909888181DFF8E5
:1008F000FC08B249498A418100F068F9AD480321FA
:1009000001704DE0DFF8A8050078032803D3DFF875
:10091000700C06F055FA00F08BFEDFF8D0082321AA
:100920008173DFF8C808CC21C173DFF8C008DFF895
:100930008815897C8170DFF8B408DFF87C15C97CE4
:10094000C170DFF8A808DFF87015097D0171DFF8C4
:100950009C08DFF86415497D4171DFF89008DFF8E5
:100960005815897D8171DFF88408DFF84C15C97D41
:10097000C171DFF87808DFF84015097E0172DFF8F1
:100980006C08DFF83415497E41728C48408ADFF8E4
:100990005C18088000F01AF9864803210170FFE70F
:1009A00010BD70470278052A0FD1427812F0030279
:1009B000022A0AD1C0788149097D884224D17F4822
:1009C000416821F0400141601EE07C4A92F82D20F0
:1009D000521C7A4B83F82D20784A92F82D200B2A4E
:1009E00003D1764A002382F82D30744A92F82D20E4
:1009F000724B13EBC2021063704890F82D006F4ADF
:100A000012EBC00080F8341070476C4890F82D004D
:100A1000401CC0B20B2800D10020684991F82C106E
:100A2000C0B2884201D1012000E00020C0B270476E
:100A3000624890F82C00614991F82D10884201D14C
:100A4000012000E00020C0B270475C4890F82C0004
:100A50005A4991F82D10884201D100200CE05748E6
:100A600090F82C00401CC0B20B2800D10020C0B26E
:100A7000524911EBC0003030704780B54F4991F8B2
:100A80002C10491C4D4A82F82C104C4991F82C101E
:100A90000B2903D14949002281F82C20C0B200283B
:100AA00008D0464890F82C00444911EBC000006B78
:100AB00006F0A9FE01BD80B540480079000677D553
:100AC0003F480078002873D1DFF8E003007A00285F
:100AD00028D03A4890F82B00002806D0374890F8E4
:100AE0002B00401E354981F82B00344890F82B002C
:100AF000002807D03148416821F04001416000F0F2
:100B000065F855E02D48416821F0400141602B48CF
:100B1000416821F080014160E448007ADFF89815CF
:100B2000087045E025480079400609D4234841680B
:100B300021F080014160DFF880050021017037E07D
:100B400003F08BFF1D4909681C4AD269801A000214
:100B5000000A81422CD2DFF82C0C06F031F917483C
:100B600090F82B00002806D0144890F82B00401E67
:100B7000124981F82B00114890F82B00002811D160
:100B8000DFF834050B2101700C48416821F0800129
:100B90004160C748007801280AD3DFF88C0C06F0C2
:100BA0000FF905E0DFF8840C06F00AF900F00EF802
:100BB00001BD0000BC2F0020BB2F00203C2B0020DB
:100BC000C22F0020A02E00202024002038B5DFF8FE
:100BD000000D0079000600F15C81DFF81006C47B8F
:100BE000C4F38104DFF80406C07BC0B28509DFF8D6
:100BF000E00C408A4FF6FE71884213D1EDB2022D0F
:100C000010D10325DFF8E405C07B10F03F00DFF8CA
:100C1000DC15C873DFF8D405C07B50F0C000DFF8E6
:100C2000CC15C873EDB22800002804D0022803D0E8
:100C3000032827D03BE03AE0DFF8F40B4069401E80
:100C4000DFF8EC1B4861DFF8A405808980B2000A58
:100C5000DFF8DC1B49690870DFF8D40B4069401EDF
:100C6000DFF8CC1B4861DFF8C80B4069DFF87C1562
:100C700089890170DFF8B80B007E801CDFF8B01B9B
:100C8000087614E0DFF8A80B4069083803F041FF4C
:100C9000DFF89C0B007E0830DFF8941B0876DFF845
:100CA000900B40690838DFF8881B4861FFE7DFF8E0
:100CB0003C05807B400627D4EDB2002D24D0DFF820
:100CC000700B4069401EDFF8681B4861DFF81C05A7
:100CD000408980B2000ADFF8581B49690870DFF8C4
:100CE000500B4069401EDFF8481B4861DFF8400B9D
:100CF0004069DFF8F81449890170DFF8340B007E91
:100D0000801CDFF82C1B0876E4B22000002804D0F9
:100D1000022803D0032827D045E044E0DFF8100B79
:100D20004069401EDFF8081B4861DFF8C0044088B6
:100D300080B2000ADFF8F81A49690870DFF8F00A93
:100D40004069401EDFF8E81A4861DFF8E40A4069AC
:100D5000DFF8981449880170DFF8D40A007E801CFF
:100D6000DFF8CC1A08761EE0002011E0DFF8C01A88
:100D70004969491EDFF8B82A5161C0B24142DFF823
:100D80006C248918497ADFF8A82A52691170401C2E
:100D9000C0B20828EAD3DFF8980A007E0830DFF8EE
:100DA000901A0876FFE7E4B2002C24D0DFF8800A1E
:100DB0004069401EDFF8781A4861DFF8740A40691C
:100DC000DFF82814098889B2090A0170DFF8600A7F
:100DD0004069401EDFF8581A4861DFF8540A40693C
:100DE000DFF8081409880170DFF8440A007E801CCF
:100DF000DFF83C1A087603F03DFEDFF8D41A0875D8
:100E0000DFF82C0A4069401EDFF8241A4861DFF839
:100E1000200A4069DFF8B81A097D0170DFF8100A6E
:100E20004069401EDFF8081A4861DFF8040A40698B
:100E3000DFF8B813C97B0170DFF8F4094069401E80
:100E4000DFF8EC194861DFF8E8094069DFF89C1326
:100E5000897B0170DFF8D809007EC01CDFF8D0194B
:100E60000876DFF86C0A416821F040014160DFF844
:100E7000600A406850F08000DFF8541A4860DFF8DC
:100E8000500ADFF84C1AC97D80F82B108A480A21D5
:100E90000170064802210170044802210172DFF846
:100EA000340A0121017006F0B1FD31BD5C2F002034
:100EB000B62F0020AE2F0020842E0020D08B0008FB
:100EC00010B508E003F0C9FDDFF8041A0862DFF886
:100ED000080A01210170DFF8000A0078002805D017
:100EE000022800F0D680C0F0C680DFE0FFF7A0FD4A
:100EF000002840F0DB80FFF7A8FD04002068407860
:100F00000321084211D1DFF8C809406880050CD4DC
:100F1000DFF8C8090078032803D3DFF8C40905F017
:100F20004FFF0120FFF7A9FDC0E02068407810F0D6
:100F3000030002280CD1DFF8A4090078032803D3AA
:100F4000DFF8A00905F03CFF0120FFF796FDADE0BA
:100F5000DFF89409046000F0B1F8206840780321BC
:100F600008420ED1DFF874090078032803D3DFF8B4
:100F70007C0905F025FF00F011FA0120FFF77DFD47
:100F800094E000F057FC002803D10120FFF775FD25
:100F90008CE02068407810F00300012810D100F0A8
:100FA000F3FB00288ED1DFF834090078032803D33F
:100FB000DFF83C0905F004FF0120FFF75EFD75E056
:100FC000DFF818090078032803D3DFF8280905F0B3
:100FD000F7FEDFF81409807EDFF80C19096809684C
:100FE000445CE4B22000012810D0022806D0062874
:100FF0000CD007280AD0082804D014E00120FFF7FD
:101000003CFD53E00120FFF738FD4FE0DFF8C0085A
:10101000406850F48060DFF8B8184860DFF8B8081E
:101020000221017042E0DFF8B4080078032803D3FE
:10103000DFF8C40805F0C4FEDFF8A0080078032834
:1010400003D3DFF8B80805F0BBFEDFF8900800789E
:10105000032803D32000C0B205F0E7FEDFF87C08C8
:101060000078032803D3DFF8980805F0A9FE0120D3
:10107000FFF703FD1AE002F0B3FF002816D102F0DB
:10108000B9FF0020FFF7F9FCDFF84C0800210170E0
:101090000CE0DFF83C084068400507D40120FFF76A
:1010A000ECFCDFF8340800210170FFE710BD000000
:1010B00090850008682F0020BD2F002030B4DFF895
:1010C0002808006801680120491CDFF81C280B78FB
:1010D0001371491CDFF810280B785371491CDFF895
:1010E00008285379C3F38103DFF8FC275279D2B281
:1010F0009209491CC01CDBB2002B0FD0DFF8E84777
:101100000D78E580491CDFF8E047E4880D7814EBA2
:101110000524DFF8D457EC80491C801CDBB2022B7D
:1011200010D1DFF8C4370C781C81491CDFF8B837C0
:101130001B890C7813EB0423DFF8AC472381491C8F
:10114000801C10E0DBB2032B0DD1002307E0DBB2E3
:10115000DFF894471C190D782572491C5B1CDBB223
:10116000082BF4D30830DFF880371B795B0612D4E4
:10117000D2B2002A0FD0DFF870370C781C82491CDD
:10118000DFF864371B8A0C7813EB0423DFF8584729
:101190002382491C801CD2B2022A10D1DFF84827D2
:1011A0000B785382491CDFF84027528A0B7812EBE8
:1011B0000322DFF834375A82491C801C10E0D2B277
:1011C000032A0DD1002307E0DBB2DFF81C279A18B1
:1011D0000C789474491C5B1CDBB2082BF4D30830E8
:1011E000DFF80417887630BC704700001C2F002001
:1011F0004A2C0020902F0020DFF83406DFF8041777
:101200004161DFF82C064069401EDFF82416486172
:10121000DFF81C06406900210170DFF81406406900
:10122000401EDFF80C164861DFF804064069002113
:101230000170DFF8FC054069401EDFF8F4154861D5
:10124000DFF8EC05406900210170DFF8E405406932
:10125000401EDFF8DC154861DFF8740690F88C005A
:10126000242805D1DFF8C80540690021017004E099
:10127000DFF8BC05406901210170DFF8B405406961
:10128000401EDFF8AC154861DFF8A4054069DFF8BF
:101290004016497D0170DFF898054069401EDFF86F
:1012A00090154861DFF8280690F88D00042805D1D4
:1012B000DFF87C0540690021017004E0DFF870056B
:1012C000406901210170DFF868054069401EDFF8C0
:1012D00060154861DFF85805406900210170DFF8AA
:1012E00050054069401EDFF848154861DFF84005A9
:1012F000406900210170DFF838054069401EDFF8C1
:1013000030154861DFF82805406900210170DFF8D9
:1013100020054069401EDFF818154861DFF8100508
:10132000406900210170DFF808054069401EDFF8C0
:1013300000154861DFF8F804406900210170402081
:10134000DFF88C15097911F00101C9B2002901D02B
:1013500050F08000DFF8D8144969491EDFF8D02426
:101360005161DFF8CC1449690870DFF8C4044069A2
:10137000401EDFF8BC144861DFF8B4044069FF2167
:101380000170DFF8AC040D21017670477C920008F3
:101390009892000824940008962E002080B5DFF86B
:1013A0004805006800680078DFF83C15897E401A1F
:1013B000C01E0D2840F0AE80DFF82C05807EDFF8DF
:1013C00028150968096840184178090640F1A2808B
:1013D000001D0178002940F09D80401C0178002903
:1013E00040F09880401C0178002940F09380401C18
:1013F0000178002900F08E80401C0178401C401CC0
:1014000000F20300DFF8C82492F82420FF2A09D054
:10141000DFF8BC0490F82A00DFF8CC2412681279B7
:1014200090426ED2DFF8A80480F82410DFF8A00400
:10143000DFF8B4140968097980F82A10DFF89004FD
:10144000DFF8A414498AC184DFF88404DFF8981413
:10145000098A0185DFF884040078032803D3DFF8C4
:10146000A80405F0ADFCDFF874040078032804D369
:10147000DFF85C04008D05F0E2FCDFF86004007822
:10148000032803D3DFF8840405F09AFCDFF84C044A
:101490000078032804D3DFF83804C08C05F0CFFCB3
:1014A000DFF838040078032803D3DFF8640405F07C
:1014B00087FCDFF828040078032805D3DFF8100440
:1014C00090F82A0005F0B1FCDFF81004007803283A
:1014D00003D3DFF8400405F073FCDFF80004007864
:1014E000032805D3DFF8E80390F8240005F09DFCFD
:1014F000DFF8E8030078032803D3DFF81C0405F0C5
:101500005FFCDFF8CC0340684FF480710843DFF8DC
:10151000C013486001BD000014870008FC8B000860
:10152000DFF80C03DFF8DC134161DFF804034069E6
:10153000401EDFF8FC124861BD484069DFF8901397
:10154000897D0170BA484069401EB9494861B84870
:10155000406901210170B648022101767047B44804
:10156000DFF8B8134161B248406906210170B04804
:10157000012101767047000004910008F6980008E8
:1015800024910008AA49DFF894234A61A8494969CF
:1015900080B2020A0A70A6494969491EA44A5161EB
:1015A000A34949690870A2484069401EA0494861A2
:1015B0009F4840699E49497801709D484069401E96
:1015C0009B4948619A484069DFF85413098889B2F9
:1015D000090A017096484069401E9549486194483F
:1015E0004069DFF83C130988017091484069401E4A
:1015F0008F494861B648408A80B2000A8C494969DF
:1016000008708B484069401E894948618848406994
:10161000AF49498A017086484069401E8449486143
:10162000834840690821017081480821017670478C
:1016300038B54FF6FF740225AB48006800680078A3
:10164000A949897E401AC01EA74909680968097816
:10165000A54A927E891AC91E022907D09F480078A0
:10166000032802D3AF4805F0ABFB44E0AE4804F0DA
:1016700027FD002807D000780A21A94A01FB002095
:101680000488002537E09848807E974909680968F2
:10169000401845782900C9B2A34805F040FE00284B
:1016A00001D1022527E0A80704D5894890F88D00CC
:1016B000042806D0A80706D4854890F88C00242872
:1016C00001D1012517E02900C9B2974804F04EFD69
:1016D00004004FF6FF70A4B2844201D101250AE054
:1016E0007E480078032802D3904805F069FB002566
:1016F0008D4805F016FEEDB2002D07D17748007831
:10170000032819D38A4805F05BFB15E0734800787D
:10171000032802D3874805F053FB7048007803285C
:1017200003D32800C0B205F080FB6C480078032882
:1017300002D3814805F044FB3D48784941613C486B
:10174000406905703A484069401E39494861384847
:101750004069A4B2210A017035484069401E3449ED
:10176000486133484069047031484069401E30493F
:1017700048612F484069022101702D4804210176FB
:1017800031BD00007496000880B557484079C0F319
:101790008100C0B2032801D1012043E052484079C2
:1017A000C0B28009C0B2022807D14F49498A484ACD
:1017B000128A914219D1012034E0C0B2032814D119
:1017C000002100E0491CC9B2082909D2C9B2464A21
:1017D0008A18927CC9B23E4BCB181B7A9A42F1D040
:1017E000C9B2082901D101201CE0C0B2022807D1EA
:1017F0003D48408A04F047FC00280BD0012011E04E
:10180000C0B2032806D1484804F05AFC002801D091
:10181000012007E031480078032802D3474805F04B
:10182000CFFA002002BD00003C9400088496000816
:10183000A02E002080B52C484079C0F38100C0B2B2
:1018400003282AD12848007A00281BD12648407A4C
:10185000512817D12448807A502813D12248C07AC1
:1018600040280FD12048007B30280BD11E48407BF8
:10187000202807D11C48807B102803D11A48C07B40
:10188000002808D015480078032802D32C4805F01A
:1018900097FA00201BE0012019E0C0B2022816D1FF
:1018A000114800891E49098888420ED00E480089D7
:1018B0004FF6FF71884208D008480078032802D309
:1018C000204805F07DFA002001E00120FFE702BD7D
:1018D0003C2B0020C22F0020BB2F0020B62F002061
:1018E000148F00085C840008842E002054940008A3
:1018F00018860008288C0008048400087C970008DB
:10190000F89800084B2C00206C9400088897000879
:10191000D097000894970008FA9800084A2C0020F5
:1019200020240020FC870008962E0020FC8D000853
:10193000248E000844910008FC9800086488000880
:1019400094880008C488000880B5DFF8EC090021FD
:101950000170DFF8EC0900210170DFF8E8090021CF
:101960008176DFF8E0090021C176DFF8D80900218F
:101970000177DFF8D00900210173DFF8C8090021E1
:101980004173DFF8C00900218173DFF8B809002135
:101990000180DFF8B00943F270010161DFF8A409AA
:1019A0000A218182DFF89C0903210176DFF894097E
:1019B0000021017106F018F8FEF798FB01F0B6FF60
:1019C00001F02FF804F0B2FC01BD00B585B001F0C4
:1019D00038F8DFF870090078000701D500F006FF3D
:1019E00000F0B6FC03E0DFF8500909210170DFF8D0
:1019F0004809007800281BD0012800F0F480022854
:101A000000F0D181032800F07582042800F09D8247
:101A1000052800F0D182092800F093810A2800F0FF
:101A2000E2810B2800F00C820C2800F03682D1E213
:101A3000DFF8100900784007D5D4DFF83C0C0078B7
:101A400010F00100C0B2002800F0C482DFF8280CBA
:101A50000079012805D0022864D0032800F08F8087
:101A6000BAE0DFF8180C90F82E0010F003000128FF
:101A700012D104F0CDFD002804D0DFF8BC080A2103
:101A80000170B4E7DFF8F80B0078032843D3DFF8E0
:101A9000F40B05F095F93EE0DFF8E00B90F82E002E
:101AA00010F00300022812D104F0C3FD002804D076
:101AB000DFF884080B21017099E7DFF8C40B007888
:101AC000032828D3DFF8C00B05F07AF923E0DFF80C
:101AD000AC0B90F82E0010F00300032812D104F094
:101AE000B9FD002804D0DFF850080C2101707EE712
:101AF000DFF88C0B007803280DD3DFF8580C05F0C5
:101B00005FF908E0DFF8780B0078032803D3DFF8EB
:101B1000480C05F055F9DFF8600B016821F0010170
:101B2000016057E2DFF8B80C007B10F002004008BB
:101B3000002840F04F82DFF8A80CC06850F0020087
:101B4000DFF89C1CC86000A8DFF8101C102206F00B
:101B50008BFB00A80FC804F0D9FCDFF81C0B016850
:101B600021F001010160DFF8780C002101760020EE
:101B700000F032FADFF8C0070221017037E7DFF822
:101B8000600C007B10F002004008002840F0228228
:101B9000DFF84C0CC06850F00200DFF8441CC8604D
:101BA00000A8DFF8B81B102206F05EFB00A80FC8E3
:101BB00004F0E8FCDFF8C00A016821F001010160CF
:101BC000DFF81C0C00210176002000F005FADFF898
:101BD0006807022101700AE7DFF89C0A016821F01A
:101BE00001010160F6E1DFF854070078122805D002
:101BF000132800F09080142852D0A1E0DFF84407A9
:101C0000016821F010010160DFF83C07007810F056
:101C10000100C0B2002804D0DFF81C070E210170BB
:101C2000E5E6DFF8BC0B007B10F00200400800285E
:101C300040F0D081DFF8A80BC06850F00200DFF858
:101C4000A01BC860DFF8980B00210176012000F08E
:101C5000C3F9DFF8F006006850F01000DFF8E41672
:101C60000860DFF8E4060068C0F38000012812D1A4
:101C7000DFF8D006016821F020010160DFF8C4061A
:101C8000006850F04000DFF8BC160860DFF8A806D6
:101C9000032101709EE1DFF8A0060221017099E1A5
:101CA000DFF83C0B007B10F002004008002840F0F9
:101CB0009181DFF82C0BC06850F00200DFF8201B88
:101CC000C860DFF878068078642802D065280BD0D9
:101CD00015E000A8DFF80C1B102206F0D2FA00A8CD
:101CE0000FC804F013FC0AE000A8DFF8F81A10226D
:101CF00006F0C7FA00A80FC804F044FCFFE7DFF8BD
:101D0000E00A00210176002000F066F9DFF82806DD
:101D1000022101705EE1DFF8D80B0078002840F066
:101D20005981DFF8C80B13210175DFF8C40B0121BD
:101D3000017000F086FEDFF800060521017049E120
:101D400048E1DFF89C0AC068C0F34000012800F0B9
:101D50004181DFF88C0AC06850F00200DFF8801A79
:101D6000C86000F0FDFCDFF8780A00210176DFF89A
:101D7000D805006850F00200DFF8CC15086001209B
:101D800000F02AF9DFF8C005016821F002010160C6
:101D9000DFF8B005016821F004010160DFF8980563
:101DA0000221017016E1DFF89C050078000700F1C0
:101DB0001181DFF88805DFF83C1B09788175DFF8B1
:101DC000200AC16821F00201C160DFF86C05002122
:101DD0000170DFF87005007810F00100C0B2002833
:101DE00000F0F88003E6DFF8F809C068C0F34000AF
:101DF000012800F0EF80DFF8E809C06850F0020029
:101E0000DFF8DC19C860DFF878080078032803D30E
:101E1000DFF8E40A04F0D4FF04F04EFCDFF85808C1
:101E2000016821F001010160DFF8B40900210176A9
:101E3000002000F0D1F8DFF8000502210170C9E0B0
:101E4000DFF89C09C068C0F34000012800F0C280A0
:101E5000DFF88C09C06850F00200DFF88419C86010
:101E6000DFF81C080078032803D3DFF8900A04F099
:101E7000A7FF04F047FCDFF80008016821F001012A
:101E80000160DFF85C0900210176002000F0A4F871
:101E9000DFF8A404022101709CE0DFF84409C06867
:101EA000C0F34000012800F09580DFF83409C068D5
:101EB00050F00200DFF82819C860DFF8C407007886
:101EC000032803D3DFF8380A04F07AFF04F01DFC7E
:101ED000DFF8A407016821F001010160DFF80009C3
:101EE00000210176002000F077F8DFF84C04022191
:101EF00001706FE0DFF84C04007800076AD4DFF867
:101F0000E008C16821F00201C160DFF8E80900784B
:101F1000002810D0DFF82404DFF8D819097881757B
:101F2000DFF82004016821F040010160DFF80804B7
:101F3000002101704EE002F090FDDFF8C819086042
:101F4000DFF8F4030421017044E0DFF8F8030078BF
:101F500080060ED5DFF8E40300218175DFF8E40385
:101F6000016821F040010160DFF8CC03002101701D
:101F700030E002F072FDDFF88C190968401A0002A7
:101F8000000ADFF88419884224D3DFF8B0031D214A
:101F90008175DFF8EC060078032803D3DFF86C09BD
:101FA00004F00EFFDFF89C03016821F0400101609E
:101FB000E148002101700DE0DFF8340900780028C5
:101FC00008D1DE48DFF82419097D8175DA4800213F
:101FD0000170FFE705B000BD80B5DFF80418097E89
:101FE000002940F09781C0B200282AD0DFF8F0071E
:101FF000DFF81C194161D44890F84800D249496C77
:102000004018DFF8DC17D04A92F848200A76DFF84B
:10201000D017097E002920D0401EDFF8C417496977
:10202000491EDFF8BC275161DFF8B417097E491E4D
:10203000DFF8AC271176DFF8A817496902780A7033
:10204000E5E7C14890F848004042DFF8C81840185A
:1020500000F27F00DFF888174861DFF88407BA498B
:1020600091F848100176DFF878074069401EDFF8E4
:1020700070174861DFF868074069B34991F8381074
:102080000170DFF85C07007E401CDFF8541708760B
:10209000DFF84C074069401EDFF844174861DFF85D
:1020A00040074069A849097A0170DFF83407007ECB
:1020B000401CDFF82C170876DFF824074069401E23
:1020C000DFF81C174861DFF8180740699E4991F84E
:1020D0003A100170DFF80807007E401CDFF8001797
:1020E0000876DFF8FC064069401EDFF8F416486108
:1020F000DFF8EC064069944991F83B100170DFF875
:10210000E006007E401CDFF8D8160876DFF8D0061F
:102110004069401EDFF8C8164861DFF8C406406910
:10212000894989790170DFF8B806007E401CDFF824
:10213000B0160876DFF8A8064069401EDFF8A01642
:102140004861DFF89C06406900210170DFF89006C5
:102150004069401EDFF888164861DFF88406406950
:1021600000210170DFF87806007E801CDFF8701611
:102170000876DFF86C064069401EDFF86416486197
:10218000DFF85C06007E801DDFF854164969087090
:10219000DFF84C064069401EDFF844164861DFF85E
:1021A0004006007E801D80B2000ADFF834164969BF
:1021B0000870DFF82C06007E801CDFF824160876F5
:1021C000DFF81C064069401EDFF814164861DFF88E
:1021D000100640695C49098E0170DFF80406406909
:1021E000401EDFF8FC1548615748008E80B2000A97
:1021F000DFF8EC1549690870DFF8E405007E801C03
:10220000DFF8DC150876DFF8D8054069401EDFF8F6
:10221000D0154861DFF8C80540694B49498E017007
:10222000DFF8BC054069401EDFF8B4154861464838
:10223000408E80B2000ADFF8A81549690870DFF8FF
:10224000A005007E801CDFF8981508763E480078CF
:1022500010F00100C0B200285CD1DFF8BC060621F6
:102260000170DFF8B40600214170DFF8AC060021F0
:102270004160DFF8A406DFF86815097E0181DFF808
:10228000980611218172DFF89006DFF8901609791F
:10229000C172DFF88C062D49102205F0F2FFDFF83D
:1022A0008016DFF8800603F0D9F9DFF840060C212C
:1022B000017025488079C0060ED52248006850F08C
:1022C00002002049086002F0C8FB1E4988601D48D2
:1022D0001C49898AC18204E01A48016821F0020180
:1022E00001601848006850F0080016490860154859
:1022F0001449097E4176DFF8FC0519210170124866
:10230000DFF8DC14097E80F83C100F48DFF8D014A9
:10231000496901640C48007810F00100C0B200283F
:1023200009D1DFF8C80513210175DFF8C4050121C3
:10233000017000F086FB01BDB32F0020D42E0020D9
:10234000B42F0020BC2900201C2D00202C2D0020A3
:1023500010B5DFF8D4050078002808D0012807D090
:10236000032800F00581042800F0F88010E10FE157
:10237000C248007AC1490968401800F087F9BF488F
:1023800090F82E00C0B24009032831D1DFF89C0537
:102390000078800708D4BA48007803281FD3DFF8F4
:1023A000900504F00DFD1AE000F0F3F800280ED0BF
:1023B000B3480078032803D3DFF8780504F000FD64
:1023C000DFF86805016821F00201016007E0AC4810
:1023D0000078032803D3DFF8600504F0F1FCA74878
:1023E000006805F010FADFF8400500210170CFE029
:1023F000A24890F82E00C0B2400900281ED19F4884
:1024000090F82E008010C00718D5DFF8200500785E
:10241000400645D500F0E4F8002830D09848007810
:10242000032803D3DFF8140504F0CAFCDFF8FC042A
:10243000006850F02000DFF8F41408608F48808BAB
:10244000DFF8FC140818002867D18D4800780328AD
:1024500003D3DFF8F00404F0B3FC884890F82E00B2
:10246000C0B24009012806D0844890F82E00C0B2BE
:102470004009022825D103F080FF04004CE0804889
:102480000078032803D3DFF8C00404F099FC7B48EC
:10249000006805F0B8F9DFF890040021017077E0DA
:1024A00077480078032803D3DFF8A00404F088FC01
:1024B0007248006805F0A7F9DFF86C04002101708C
:1024C00066E06E4890F82E00C0B2400900281BD18B
:1024D0006A4890F82E0040070DD467480121017129
:1024E0006548006850F0010063490860DFF838046F
:1024F000032101704CE06248007803280CD3DFF818
:10250000500404F05DFC07E05D480078032803D325
:10251000DFF8400404F054FC02E004F0E7FE04009D
:102520005648006805F06FF9544890F82E00C00630
:102530000FD5E4B2002C0CD1DFF8F003006850F0A6
:102540000400DFF8E8130860DFF8DC030421017001
:102550001EE0DFF8D4030021017019E0DFF8CC039E
:102560000078400714D4DFF8C003002101700FE0A9
:102570004148007810F00100C0B2002808D13F485F
:10258000006805F040F9DFF8A00300210170FFE7C3
:1025900010BD3A4890F82B00DFF8BC13097A884246
:1025A0001CD1364890F82900DFF8AC1391F83810A8
:1025B000884213D1314890F82C00DFF89C1391F831
:1025C0003A1088420AD12D4890F82D00DFF8881380
:1025D00091F83B10884201D1012000E000207047B3
:1025E000264890F82C00DFF8701391F83A108842D2
:1025F00001D1012000E000207047DFF82C030078B3
:10260000002801D0012000E00020C0B2704700B5D2
:102610001A48DFF84813096801601848DFF83C13CE
:10262000097901711548DFF83413497A0172DFF82E
:102630003003DFF83013102205F023FEDFF81C030F
:10264000008A08380D4908840C48DFF81013C98E39
:1026500081860A48007A094909684018007A0749C2
:1026600081F857000548002180F82410DFF8B802EF
:102670000121017000BD0000EC2E0020B82C0020CC
:10268000B62F00209C9100080490000801780902F0
:10269000DFF8D422D183401CDFF8CC12C98B02783A
:1026A0005118DFF8C422D183401C01780902DFF8F9
:1026B000B8229183401CDFF8B012898B0278511840
:1026C000DFF8A4229183401C01780902DFF89822E8
:1026D0001184401CDFF89012098C02785118DFF841
:1026E00088221184401CDFF88012098C0839DFF839
:1026F00078221184801CDFF87012027881F82E2075
:10270000401CDFF86412027881F82D20401CDFF8AD
:102710005812027881F82C20401CDFF84C12027805
:1027200081F82920401CDFF84012027881F82B2024
:10273000401CDFF834120D228A72DFF82C12098C4B
:10274000491FDFF8242282F86010DFF81C12C865E8
:10275000704700002490000844900008F22E0020EA
:1027600080B52148002180F848101F4800214164AD
:102770001D48002181711C48807950F060001A4981
:1027800088711948784991F82D1080F83B10164847
:10279000754991F82C1080F83A101348724991F855
:1027A0002B1001721048704991F8291080F83810E8
:1027B0000D486D49C98B01866C486949102205F0A6
:1027C00060FD09486849898B4186074800210170EE
:1027D00067480078032802D3664804F0F1FA01BD87
:1027E000A02E0020D82E00201C2D002080B54F48A0
:1027F0000078000779D53E480078002875D13B481D
:10280000007D00280ED04948016821F002010160D6
:102810004648016821F0080101603448007D3549CF
:10282000087062E041480078800708D43F4801689A
:1028300021F0080101602F480021017055E002F0ED
:102840000CF93A490969394A9268801A0002000A6B
:1028500081424AD23548C08A002804D03348C08A11
:10286000401E3249C8823148C08A002804D002F094
:10287000F4F82E49886038E03D480078012802D3FA
:102880003D4804F09DFA2948407E401E274948767D
:102890002648407E00280CD12448016821F0080118
:1028A00001603348007801281FD3344804F088FAC7
:1028B0001BE03348284991F83C10017630482649FE
:1028C000096C416102F0C9F8184988601748174936
:1028D000898AC1822A4840690021C171284840691B
:1028E000002181710120FFF777FB01BD042F00203B
:1028F000BE2F0020B52F0020B8910008D491000809
:1029000064900008782F002091D60200C88A000841
:102910004B2C0020CC2B0020682D0020802800208C
:10292000842D0020742D0020B42F0020BC2900200D
:10293000F48A0008C4930008208B0008848D0008E6
:10294000500FFFFFF0910008D88500084885000867
:102950004C8B00080C9200081C2D0020E82D002054
:10296000C42C0020FC2D0020B82C00202C2D002091
:10297000B62F00203C95000804960008DC93000860
:10298000A02E002010B492B25218531E0AE00A780A
:102990004C7814EB0222101880B292B2904200D20E
:1029A000401C891C9942F2D3994207D109780A0246
:1029B000101880B292B2904200D2401C80B210BC7B
:1029C000704738B50C00DFF8EC1C0978551AC0B216
:1029D0004019202214F1080180B2FFF7D3FF2A002A
:1029E00092B2DFF8D01C09780919283180B2FFF7BC
:1029F000C9FF80B2002802D14FF6FF70FFE780B216
:102A000032BD80B50A0092B201003A20FFF7D9FF2B
:102A100002BD80B50A0092B201001120FFF7D1FF7C
:102A200002BD80B502F04EFBDFF84C0B00210180A7
:102A3000DFF8480B00210170DFF87C0C00210170E9
:102A400001BD10B5002400F08EFF00F09DFA13E0E8
:102A5000DFF8680C007B10F002004008002849D124
:102A6000DFF8580CC06850F00200DFF8501CC86056
:102A7000DFF8080B0B210170DFF8000B007800284D
:102A800026D001286AD0022800F0D281032800F065
:102A9000E681042800F0F181052800F00082062874
:102AA00000F0F880072800F02381082800F0598101
:102AB000092800F084810A2800F002820B2800F027
:102AC00010820C2800F02C820F2800F045825AE278
:102AD000DFF8A40A0078C00740F15582DFF8E00B68
:102AE000407ADFF8DC1B0968405CC0B28028AFD0B8
:102AF00085281DD1DFF8CC0B0078032803D3DFF83D
:102B0000140B04F05DF9DFF8B40B007B10F0020049
:102B1000400800280CD1DFF8A40BC06850F0020078
:102B2000DFF8981BC860DFF8540A0C210170A3E796
:102B3000DFF8900B0078012803D3DFF88C0B04F04A
:102B40003FF9DFF8340A016821F001010160DFF884
:102B5000280A016821F0010101608DE7DFF86C0BA4
:102B600000780C2806D00D2810D00E287BD00F2816
:102B700046D08EE0DFF8580B00892830DFF8541B70
:102B80000880DFF8F8090221017075E7DFF8340BDF
:102B90000078032803D3DFF8400B04F011F9DFF8C5
:102BA0001C0BC068C0F34000012800F0EC81DFF886
:102BB0000C0BC06850F00200DFF8001BC860DFF8A3
:102BC000B809016821F002010160DFF8000B408ABA
:102BD00003F0A1FFDFF8040B03F07EFF00F088FD97
:102BE000DFF89409006850F00400DFF88C190860E1
:102BF000002000F0B4FBDFF8840906210170C2E177
:102C0000DFF8C00A0078032803D3DFF8D40A04F001
:102C1000D7F8DFF8A80AC068C0F34000012800F028
:102C2000B281DFF8980AC06850F00200DFF88C1A11
:102C3000C860DFF84409016821F00801016003F071
:102C40008DFD00F055FDDFF83009006850F01000F0
:102C5000DFF824190860002000F081FBDFF81C0970
:102C6000082101708FE1DFF8240C0078002840F083
:102C70008A81DFF8700A0F2180F83010DFF80C0C21
:102C80000121017000F06FFEDFF8F0080A210170E9
:102C900079E178E1DFF8F40B0078002840F07381E7
:102CA000DFF8180AC16821F00201C160DFF8340AB8
:102CB00090F83000002811D0DFF8100ADFF8241A4D
:102CC00091F830100175DFF8B008016821F00401B7
:102CD0000160DFF8A8080021017054E101F0BDFE99
:102CE000DFF8041A0860DFF89408072101704AE150
:102CF000DFF88408007880070ED5DFF8D0090021BE
:102D00000175DFF87408016821F004010160DFF843
:102D10006C080021017036E101F09FFEDFF8C81950
:102D20000968401A0002000A4FF231218842C0F0BF
:102D30002A81DFF8980917210175DFF888090078E2
:102D4000032803D3DFF8A40904F03AF8DFF82808D1
:102D5000016821F004010160DFF820080021017002
:102D600011E1DFF8280B0078002840F00C81DFF833
:102D70004C09C16821F00201C160DFF8680990F8D0
:102D80003000002811D0DFF84409DFF8581991F815
:102D900030100175DFF8E007016821F010010160D3
:102DA000DFF8D80700210170EDE001F056FEDFF8F2
:102DB00038190860DFF8C40709210170E3E0DFF883
:102DC000B807007800070ED5DFF80009002101756B
:102DD000DFF8A407016821F010010160DFF89C070B
:102DE00000210170CFE001F038FEDFF8FC1809681F
:102DF000401A0002000A4FF231218842C0F0C3801D
:102E0000DFF8C80818210175DFF8B8080078032832
:102E100003D3DFF87C0A03F0D3FFDFF85C07016817
:102E200021F010010160DFF8540700210170AAE0D1
:102E3000002400F05DFC002000F091FADFF8380774
:102E40000068C0F34010012804D1DFF830070421E6
:102E5000017003E0DFF82407052101700CE6DFF8BC
:102E600064080078032803D3DFF8280A03F0A8FFDA
:102E7000DFF808070021017085E0DFF8100A00780C
:102E8000002840F08080DFF84408DFF8581891F8F7
:102E900030100175DFF8E4060221017073E0DFF8FD
:102EA000EC09007800286ED1DFF82008DFF834182C
:102EB00091F830100175DFF8C4060021017062E05E
:102EC000DFF8C809007800285DD1DFF80008DFF8D6
:102ED000141891F830100175DFF8A0060021017078
:102EE00051E0DFF8E0070078032803D3DFF8A809F2
:102EF00003F066FF03F0C8FEDFF8A00903F0ECFD65
:102F0000DFF87406016821F00101016000F0F0FBB8
:102F1000002000F024FADFF864060F21017032E08F
:102F2000DFF8A0070078032803D3DFF8740903F063
:102F300047FF002003F0C8FCDFF83C06016821F0E1
:102F40000101016000F0D4FB002000F008FADFF876
:102F50002C060F21017016E0DFF8300900780028F8
:102F600011D1DFF86807DFF87C1791F83010017590
:102F7000DFF8080600210170DFF84007C16821F082
:102F80000201C160FFE710BD38B53BE0DFF8340750
:102F90000078032803D3DFF80C0903F011FFDFF8F2
:102FA00024070078032803D3280080B203F047FFEA
:102FB000DFF810070078032803D3DFF8EC0803F0EC
:102FC000FFFEDFF80007007803280ED3DFF8F006D5
:102FD000018ADFF8EC06007ADFF8E4261268801830
:102FE000FFF717FD80B203F02AFFDFF8D406006870
:102FF00004F009FCDFF8DC0600210180DFF8B806E8
:1030000000210170DFF8B0060078002807D0022800
:1030100000F0848104D3032800F08F819EE19DE1BC
:10302000DFF89C06807A00283DD1DFF89406007A0C
:10303000DFF88C16096844182078C0B20009062809
:1030400012D0DFF880060078032803D3DFF85C088D
:1030500003F0B6FEDFF86806006804F0D4FBDFF882
:1030600058060021017079E1200000F0D5FADFF860
:103070005006007DFF2838D1DFF848060078032885
:1030800003D3DFF82C0803F09BFEDFF8340600685A
:1030900004F0B9FBDFF83C0600210180DFF81806D8
:1030A000002101705AE1DFF81806807A012809D161
:1030B000DFF8100600780328D9D3DFF8F80703F00B
:1030C0007FFED4E7DFF8FC050078032803D3DFF8A0
:1030D000E80703F075FEDFF8E805006804F093FBED
:1030E000DFF8D4050021017038E1DFF8D00702F0E5
:1030F00012FA002822D1DFF8C40702F05FFA002894
:103100001CD1DFF8B80702F06EFA002816D1DFF8FC
:10311000B4050078032803D3DFF8A40703F050FEBA
:10312000DFF89C05006804F06EFBDFF8A8050021BD
:103130000180DFF88405002101700FE1DFF88005D0
:10314000407ADFF87C1509684418DFF87807DFF863
:1031500078170160DFF85C0500210170DFF86C076B
:1031600000210170DFF85805807C112802D03A2830
:1031700022D0BCE0DFF84805807A002817D1A0797A
:103180000502E0794519ADB2002D10D0DFF8300509
:10319000018ADFF82C05007ADFF8242512688018F0
:1031A000FFF737FC4FF6FF7188427FF4EFAEDFF890
:1031B00008050221017025E7DFF80405807A002860
:1031C0002FD1DFF8FC04018ADFF8F404007ADFF87D
:1031D000F02412688018FFF714FC4FF6FF71884244
:1031E0001FD0DFF8E0040078032803D3DFF8E006FF
:1031F00003F0E6FDDFF8CC040078032803D3DFF802
:10320000D40603F0DDFDDFF8B804006804F0FBFA33
:10321000DFF8C00400210180DFF89C040021017068
:10322000F0E62078802819D081283ED0852850D11A
:10323000DFF890040078032803D3DFF89C0603F03E
:10324000BFFDDFF83403006850F00100DFF82813F9
:103250000860DFF8640403210170D3E6DFF860043E
:10326000008A502816D3DFF85C040078032803D3C3
:10327000DFF8680603F0A4FDDFF84404006804F0FA
:10328000C2FADFF8500400210180DFF82C0400218D
:103290000170B7E6B848006850F00100B649086010
:1032A000DFF8140403210170ACE6B348007840074E
:1032B00001D503F0AEFCDFF80804006804F0A3FABF
:1032C000DFF8100400210180DFF8EC030021017019
:1032D00098E6DFF8EC03006804F095FADFF8F403F1
:1032E00000210180DFF8D003002101708AE6DFF8B9
:1032F000D4030078032803D3DFF8E40503F060FD6E
:10330000DFF8BC03006804F07EFADFF8C803002190
:103310000180DFF8A403002101701FE0FFF76DF9C1
:1033200000281BD1FFF773F9DFF88C03002101702F
:10333000DFF8A0030021018010E08F48007810F032
:103340000100C0B2002809D1DFF87403006804F05E
:103350005AFADFF8640300210170FFE731BD80B540
:10336000C0B2002840F0CF80002012E0DFF84C13FC
:103370004969491EDFF844235161C0B24142DFF878
:103380005023891891F82B10DFF8302352691170FF
:10339000401CC0B21028E9D3002011E0DFF81C1354
:1033A0004969491EDFF814235161C0B24142DFF878
:1033B00020238918C97EDFF8042352691170401C4C
:1033C000C0B21028EAD3BD484069401EBB494861DD
:1033D000BA484069BE49C97A0170B8484069401E80
:1033E000B6494861B5484069B949897A0170B3481E
:1033F0004069401EB1494861B0484069B4490989F3
:103400000170AE484069401EAC494861B04800892F
:1034100080B2000AA94949690870A8484069401E5D
:10342000A6494861A5484069A94949680170A3486F
:103430004069401EA1494861A0484069A4494968C3
:10344000C1F3072101709D484069401E9B494861B6
:103450009F484068C0F307409D49497809010F31F2
:10346000084096494969087094484069401E93494C
:10347000486197484078C0B295490978090111EB35
:1034800010108E49496908708C48007E28308B499D
:10349000087600208E49897A112916D18C48018935
:1034A00086484069FFF7B5FAC04380B2002801D1D1
:1034B0004FF6FF708149496981F82F007F494969BA
:1034C00080B2000A81F82E001DE08148807A3A28F7
:1034D00011D17F48018979484069FFF792FAC043CA
:1034E0007649496981F82B007449496980B2000A1C
:1034F00081F82A0007E073480078032803D3DFF837
:10350000E40303F05DFC7348002101807548092144
:10351000017074486E49C97A417372486C49897A5E
:10352000017370486A49497801716E486849496871
:103530008160DFF8B403DFF8B413102204F094FEC6
:10354000DFF8AC03DFF8AC13102204F08DFE654801
:103550000F2180F83010DFF834030121017000F0F2
:1035600002FA01BD54480078002801D0012000E093
:103570000020C0B270470000502F0020BE2F002056
:1035800000B54F48DFF87013096801604C48DFF858
:103590006813097901714A48DFF85C13497A0172AE
:1035A000DFF85403407A2830454948724448DFF830
:1035B0004813897C81724248DFF83C138989C186AF
:1035C000DFF83403807C012820D13D48DFF8281340
:1035D000C97CC1723A48DFF820134969C160384894
:1035E000DFF81413098B01823548C349897E817441
:1035F000AA48C249102204F044FEB048C049102233
:1036000004F03FFE2E48BC49497A41722A48012104
:10361000017000BDB492000801784278D2B212095C
:1036200052EA0111264AD172401C017811F00F01B3
:103630000904234AD160401C2149C968027811EB72
:1036400002211F4AD160401C1D49C96802785118E7
:103650001B4AD160401C01780902194A1182401CA2
:103660001749098A02785118154A1182401C1449D9
:1036700002788A74401C12490278CA74401C0021E6
:1036800006E0C9B20E4A8A1803781375401C491C1B
:10369000C9B21029F5D3002107E0C9B2084A8A1837
:1036A000037882F82430401C491CC9B21029F4D395
:1036B00070470000C12F0020BF2F0020A02E002047
:1036C000E82D0020B62F0020FC840008042F0020E5
:1036D000682D0020AA2F0020D0920008062F00207D
:1036E000B4960008202E0020982F0020789500081E
:1036F00080B58448007FFF2841D18248007FFF28A1
:1037000031D18048407F02282DD17E48C08B0028CF
:1037100029D17C48008C002825D17A48408C00288B
:1037200021D17848808C00281DD17648C08C002893
:1037300019D17448008D002815D1724890F82A00DC
:10374000002810D16F4890F82B0002280BD16E484A
:103750000078032802D36D4803F032FB6C484FF623
:10376000FF71018091E068480078032802D369481E
:1037700003F026FB66484FF6FF71018085E05D4847
:1037800001F044FF012876D15E4890F82700FF2819
:1037900017D15C4890F82800FE2812D1594890F8BB
:1037A000240010F00200401000280AD1554890F87B
:1037B0002A00544991F82B1051EA002054490880FE
:1037C00063E0504890F82400C0F34000C0B20128E4
:1037D00046D14F484FF6FE7101804A4890F82400C8
:1037E00090F002004A4908724948464991F825106C
:1037F00041724748434991F8261081724448414933
:1038000091F82710C17242483E4991F8281001737F
:103810003F483C4991F8291041733D48394991F896
:103820002A1081733A48374991F82B10C1733848F0
:103830003949416034480078032802D3374803F0FF
:10384000BFFA31480078032802D3334803F02EFB37
:103850002D480078032818D3314803F0B1FA14E05A
:103860002B48002101802848007803280DD32D48DB
:1038700003F0A6FA09E024480078032802D32A4876
:1038800003F09EFA22480021018001BDB12F0020E3
:103890008C95000854890008EC920008FC2D00204B
:1038A000A095000850870008089300088489000844
:1038B00030880008748E0008B48900080C2E00209F
:1038C000E48900089C2F0020FA2D0020C02F002042
:1038D000D88C000824930008B49500089C8E00083A
:1038E000048D00088C8700082E2E0020742D0020E7
:1038F0003E2E0020842D0020AC2D0020C82D00205D
:10390000D82D0020682D0020B62F002098860008B2
:10391000BC2E002040930008C42E0020C89500084B
:10392000FE9800089C940008C48E0008DFF8800808
:1039300000210170DFF8340B00210170DFF82C0B3F
:1039400000210171DFF86C0800210170DFF86808C0
:1039500000210170DFF8140B00214171DFF80C0B1E
:1039600000218171704780B5FCF772FC00F010FAFD
:1039700003E0DFF8400803210170DFF83808007821
:1039800000280FD001282DD0022869D0032800F08C
:10399000B180062800F08580072800F09A800E2864
:1039A0006FD0D3E000F0BEFB002840F0CF80DFF8FE
:1039B000C00A007B10F002004008002840F0C680DA
:1039C000DFF8AC0AC06850F00200DFF8A41AC86043
:1039D00000F048FB012000F0BAF8DFF8D8070E210C
:1039E0000170B3E0DFF88C0A0078092802D00A28B9
:1039F00015D034E0DFF8A80B0021C175DFF86C0AA0
:103A00000079012801D000F03DFD00F0DDFD00202F
:103A100000F09DF8DFF89C070221017020E003F020
:103A2000E3FFFCF763FB02F074FBFCF7B3FBDFF88A
:103A3000441A81F83000DFF83C0A90F83000002882
:103A400097D0DFF8600B0078012803D3DFF8280A4D
:103A500003F0B6F9DFF85C070021017000E0FFE732
:103A6000DFF8440B0078002870D1DFF8080ADFF88F
:103A70000C1A097980F83010DFF83807002101703E
:103A800064E0DFF8240B007800285FD1DFF8E0095C
:103A9000C16821F00201C160DFF818070021017040
:103AA00054E0DFF8040B007800284FD1DFF8CC0990
:103AB00007210170DFF8FC0607210170DFF8BC095F
:103AC0000A210171DFF8E00A01210170FCF7C0FB57
:103AD0003CE0DFF8D40A0078002837D1DFF89409F9
:103AE000DFF89819097980F83010DFF8C80600214E
:103AF00001702BE00120FCF798FB0020FCF79DFBF8
:103B000002F015FBDFF86409006850F00100DFF8EF
:103B10005C190860DFF86809406850F40060DFF85D
:103B200060194860DFF85809406850F00100DFF87C
:103B300050194860DFF83C09002180F8301001F08E
:103B40006CFBDFF8700600210170FFE701BD10B5C6
:103B5000DFF82C194968090508D4DFF82009092184
:103B60008170DFF818090821017006E1DFF8301ACA
:103B7000497D0F22114211D1DFF8280A007801286F
:103B800003D3DFF8280A03F01BF9DFF8F00812214D
:103B90008170DFF8E80808210170EEE0C0B200286B
:103BA00054D1DFF8CC084069401EDFF8C4184861E2
:103BB000DFF8BC084069DFF8E81909880170DFF810
:103BC000B0084069401EDFF8A8184861DFF8A00877
:103BD0004069DFF8CC19098889B2090A0170DFF859
:103BE00090084069401EDFF888184861DFF88008B7
:103BF0004069DFF8AC19098A0170DFF87408406980
:103C0000401EDFF86C184861DFF89409008A80B222
:103C1000000ADFF85C1849690870DFF85408406949
:103C2000401EDFF84C184861DFF87409407D401EE3
:103C3000DFF86C194875DFF8381849690870DFF843
:103C40003008007E401DDFF828180876DFF83008BD
:103C5000408ADFF85C190880DFF85409DFF8201883
:103C6000498A4181DFF8380900884FF6FE718842A1
:103C70000CD1DFF83C09CC21C1730822DFF8200900
:103C80004168DFF8300900F07BFE5AE0DFF81009E8
:103C90000488DFF810090078032803D3DFF8180937
:103CA00003F08EF8DFF8FC080078032803D3200027
:103CB00080B203F0C4F8DFF8E80800884FF6FF711F
:103CC000884237D0DFF8D808008802F0D3FA040021
:103CD000DFF8D0080078032803D3DFF8E00803F00A
:103CE0006FF8DFF8C0080078032803D3200080B203
:103CF00003F0A5F84FF6FF70A4B2844211D1DFF8AB
:103D0000A4080078032803D3DFF8B40803F058F8B8
:103D1000DFF8680711218170DFF860070821017062
:103D20002BE0DFF880080078032803D3DFF894083D
:103D300003F046F8DFF87808C821C173DFF870088F
:103D40004480DFF86C08C07B801010F0030002286C
:103D50000BD1DFF85C0840884FF6FF71884204D130
:103D6000DFF84C084121817303E0DFF8440861214A
:103D70008173DFF8080703210170DFF800070A21CB
:103D80000171DFF8240801210170FCF761FA10BD10
:103D900080B503E0DFF8200403210170DFF8180488
:103DA0000078002805D0022850D003D3032859D02A
:103DB00015E114E1DFF8680A007ADFF8641A09688F
:103DC0004018017811F0C00180290DD10178491106
:103DD00011F00101C9B2002906D00178091111F0D2
:103DE0000101C9B2002912D1DFF8B8070078032811
:103DF00003D3DFF8280A02F0E3FFDFF8240A0068A3
:103E000003F001FDDFF8B00300210170E7E000F0EE
:103E100009F9DFF80C0A40894FF6FF7188420ED08D
:103E2000DFF8FC0940894FF6FE71884207D0DFF8C1
:103E3000F0094089DFF8F41909888842AAD100F016
:103E4000BDF9DFF8740302210170A7E7FFF78AFBD1
:103E5000002840F0C480FFF793FBDFF85C030021EB
:103E60000170BCE0DFF8B809007ADFF8B41909681E
:103E7000405C0F21084225D1DFF82807007803288D
:103E800003D3DFF8A00902F09BFFDFF818070078E2
:103E9000032804D3DFF88809408902F0D0FFDFF857
:103EA00004070078032803D3DFF87C0902F088FFB9
:103EB000DFF86C09006803F0A6FCDFF8FC020021C3
:103EC00001708CE0DFF8DC060078032803D3DFF80C
:103ED000600902F075FFDFF8CC060078032804D3F0
:103EE000DFF83C09408902F0AAFFDFF8B806007845
:103EF000032803D3DFF83C0902F062FF00F0FFF86B
:103F0000002841D0DFF89C060078032803D3DFF8AF
:103F1000280902F055FFDFF88C060078032803D348
:103F2000DFF8180902F04CFFDFF878060078032864
:103F300004D3DFF88002007802F077FFDFF8640630
:103F40000078032803D3DFF8F80802F039FFDFF820
:103F500054060078032804D3DFF84C06007802F0FA
:103F600064FFDFF840060078032803D3DFF8D408A5
:103F700002F026FFDFF8A808006803F044FCDFF831
:103F80003802002101702AE0DFF8E0048079401C4B
:103F9000DFF8D8148871DFF8D4048079052803D1BC
:103FA000DFF8C80400218171DFF8C0048079DFF8F0
:103FB000BC1411EBC000DFF8681809688160DFF8F5
:103FC000AC048079DFF8A41411EBC000DFF85018BE
:103FD000097A0173DFF8E00100210170FFE701BDFC
:103FE000DFF8D4010078002801D0012000E0002093
:103FF000C0B27047DFF82808DFF84C180968096874
:104000000160DFF81C08DFF84018096809790171C0
:10401000DFF80C08DFF83018897E0172664801214C
:1040200001707047401C01780902DFF8F427918184
:10403000401CDFF8EC17898902785118DFF8E02777
:104040009181401C01780902DFF8D4275181401C7E
:10405000DFF8CC17498902785118DFF8C42751815D
:10406000401C704780B5DFF80804DFF8E0174161B5
:1040700000F065F801680A780079101AC01E0A7805
:104080005118C91EDFF8E8231076491EDFF8E02337
:104090005269521EDFF8D8335A61DFF8D4235269CF
:1040A0000B781370401EC0B20028EED1012000F042
:1040B0005FF8DFF8BC034069C0780002DFF8E01465
:1040C0000880DFF8DC040088DFF8A4134969097967
:1040D0000818DFF8CC140880DFF8940340690078F2
:1040E000401EDFF88C1349690870DFF884034069CB
:1040F000007810F00F00DFF8A814887401BDDFF815
:104100006C038079401CC0B2052800D10020DFF884
:104110005C134979C0B2884201D1012000E000203F
:10412000C0B27047DFF844034079DFF84013897963
:10413000884201D1012000E00020C0B27047DFF8C2
:104140002C034079DFF824138979884201D10020BB
:104150000DE0DFF818034079401CC0B2052800D1FB
:104160000020C0B2DFF8041311EBC0000830704724
:1041700080B5DFF8F8124979491CDFF8F022517157
:10418000DFF8E8124979052903D1DFF8E0120022AF
:104190004A71C0B2002809D0DFF8D0024079DFF8B8
:1041A000CC1211EBC000806803F02DFB01BD0000B4
:1041B000B22F0020B12F0020B02F002038B5DFF83B
:1041C0006006007ADFF858160968401800F2050505
:1041D000DFF84C06297801746D1C0124DFF84006D5
:1041E000007C412802D0422816D029E1DFF8B40330
:1041F0000078032803D3DFF8580602F0E1FDDFF86A
:104200002006007A2018401DDFF814164872DFF8E7
:1042100010060021817427E1DFF888030078032865
:1042200003D3DFF8300602F0CBFDDFF8F405297880
:1042300041746D1CDFF8E8052978C1766D1CA41C5B
:10424000DFF8DC05407C00060ED4002007E0C0B299
:10425000DFF8CC1541182A780A776D1C401CC0B2D3
:104260000828F4D3083410E0DFF8B40548F2FE0162
:104270008183DFF8AC050021C183DFF8A4050021AC
:104280000184DFF89C0500214184DFF89405407C1F
:1042900040060FD4002008E0C0B2DFF884154118B2
:1042A0002A7881F824206D1C401CC0B20828F3D362
:1042B000083408E0DFF8680582897148418ADFF830
:1042C000980501F0C0FADFF85805407C80060FD44D
:1042D000002008E0C0B2DFF8481541182A7881F8BC
:1042E0002C206D1C401CC0B20828F3D3083410E009
:1042F000DFF82C0548F2FE018185DFF82405002156
:10430000C185DFF81C0500210186DFF814050021B6
:104310004186DFF80C05407CC0060FD4002008E081
:10432000C0B2DFF8FC1441182A7881F834206D1CE3
:10433000401CC0B20828F3D3083408E0DFF8E004DA
:1043400042894F48418ADFF8140501F07CFADFF812
:10435000D004407C00071FD4DFF8C4042978C1745E
:104360006D1C28780004DFF8B81448616D1CDFF874
:10437000B0044069297810EB0120DFF8A4144861EB
:104380006D1CDFF89C04406929780818DFF8901448
:1043900048616D1C241D07E0DFF884040021C1740E
:1043A000DFF87C0400214161DFF87404407CC0F335
:1043B0004100C0B2002806D1DFF864042978817674
:1043C0006D1C641C16E0C0B2012804D1DFF8500453
:1043D000112181760EE0C0B2022804D1DFF840043A
:1043E0003A21817606E0C0B2032803D1DFF8300419
:1043F00006218176DFF82804407CC00707D569488C
:104400000078032803D3DFF8580402F0D9FCDFF862
:104410001004007A2018401DDFF804144872DFF8F9
:10442000000400680078DFF8F813497A401A401E4B
:10443000DFF8EC130883DFF8E8030121817413E04F
:1044400058480078032803D3DFF8180402F0B8FCBA
:10445000DFF8CC03007A2018401DDFF8C41348723F
:10446000DFF8BC030021817431BD0000542E002010
:10447000A02E0020202E002094930008682F0020FA
:104480003C2B002080B5DFF8E003007B112806D12B
:104490004348C07D50F002004149C87516E0DFF87E
:1044A000C803007B3A2806D13D48C07D50F0040087
:1044B0003B49C8750AE0DFF8B003007B062805D148
:1044C0003748C07D50F006003549C875DFF89803BD
:1044D000007900280AD1DFF890038068002805D110
:1044E0002F48C07D50F008002D49C875DFF87803CB
:1044F000807FFF280CD12A48C07D50F080002849D9
:10450000C8752748C07D50F040002549C87545E072
:10451000DFF8580301F07AF801283FD1DFF84803AB
:10452000807FFE2810D1DFF84003C07F80280BD1A8
:104530001B48C07D50F080001949C8751848C07DDF
:1045400050F020001649C8751548C07D50F0400055
:104550001349C875DFF8100390F82900FF280ED121
:10456000DFF8040390F82A00FE2808D1DFF8F802EB
:1045700090F8260010F002004010002808D0DFF864
:10458000E80290F82600C0F34000C0B2012805D12F
:104590000348C07D50F010000149C87501BD0000FE
:1045A000BC2E0020B62F0020BC2F0020448A00081B
:1045B0001C2F00201E2F00201495000804970008CF
:1045C000AC930008E8980008DFF8A402C07D00283A
:1045D00004D1DFF89C0241218175F5E0DFF89002FB
:1045E00042218175DFF88C02406900F22800DFF873
:1045F00084124861DFF87C02007E2838DFF87412EC
:104600000876DFF86C02C07DC0F34100C0B200281C
:1046100014D1DFF860024069401EDFF8581248618B
:10462000DFF850024069DFF84012097B0170DFF8C3
:104630004402007E401CDFF83C120876DFF83002AE
:10464000C07D000730D48B484069401E89494861CD
:104650008848406984498968017086484069401EDD
:1046600084494861834840697F498968C1F30721CB
:10467000017080484069401E7E4948617D4840691C
:1046800079498968C1F3034101707A484069401E45
:1046900078494861774840697349097901707548DC
:1046A000007E001D734908767148C07DC00618D48D
:1046B00000200EE06F494969491E6E4A5161C0B23F
:1046C0004142694A891891F82D106A4A526911705D
:1046D000401CC0B20828EDD36648007E083065490A
:1046E00008766348C07D800618D400200EE061493A
:1046F0004969491E5F4A5161C0B241425A4A89180C
:1047000091F825105B4A52691170401CC0B208280C
:10471000EDD35848007E0830564908765448C07D8D
:10472000400617D400200DE052494969491E514AFC
:104730005161C0B241424C4A8918497F4D4A526981
:104740001170401CC0B20828EED34A48007E0830E1
:10475000484908764648C07D000617D400200DE081
:1047600044494969491E434A5161C0B241423E4AE7
:104770008918497D3F4A52691170401CC0B208280F
:10478000EED33C48007E08303A4908763948406903
:10479000401E38494861374840693349497B0170B8
:1047A0003448007E401C3349087632484069401E38
:1047B000304948612F4840692D49C97D01702D4815
:1047C000007E401C2B4908762A484069401E294932
:1047D0004861284840692649897D01702548007E46
:1047E000401C244908762248104909880182204843
:1047F000802141751E48407D50F020001C494875BD
:104800001B48407D50F01000194948751848407DFC
:1048100050F00A001649487570470000B08400083F
:10482000AC2D0020708A0008289500082024002064
:10483000C48F0008EA9800085C8D000810970008F3
:104840001C970008EC980008842E00204B2C0020B8
:104850009C8A0008E48F0008C82D0020D82D002075
:1048600080910008C8870008202E00203E2E0020DE
:10487000BC2E0020A02E002080B5DFF80408002107
:1048800001704FF4C06003F0ADFC00F007F800F0D9
:1048900081F800F0CCFB00F050F901BD00B587B005
:1048A0000121052003F0C0FB01214FF4804003F0FB
:1048B000BBFB25208DF8040001208DF805000720A2
:1048C0008DF8060001208DF8070001A803F08FFC89
:1048D000DFF8B00700210170DFF8AC07002101709C
:1048E0004FF48060ADF8000004208DF8030000A9AB
:1048F000DFF8980703F0D6F94FF40070ADF8000028
:1049000003208DF8020018208DF8030000A9DFF8BD
:104910007C0703F0C7F95FF4E13002900020ADF8A6
:104920000C000020ADF80E000020ADF810000020B3
:10493000ADF814000C20ADF8120002A9DFF8500702
:1049400002F040FB012240F22551DFF8440702F05B
:10495000A8FB0121DFF8380702F096FB07B000BD85
:1049600080B540B2010089B2DFF8240702F0C2FB33
:104970004021DFF81C0702F0C5FB0028F8D001BD7C
:1049800004E00B780370401C491C521ED2B2002A6E
:10499000F7D1704710B588B04FF4A06003F0DAFA91
:1049A0000121012003F050FB1C208DF800000020A5
:1049B0008DF8010000208DF8020001208DF8030021
:1049C00000A803F014FCDFF8CC060068C000DFF894
:1049D000C816B0FBF1F0441E4FF6FF70ADF80800AA
:1049E0000020ADF804000020ADF80A000020ADF86A
:1049F000060001A95FF0804002F0D0FC01222100F6
:104A000089B25FF0804002F073FD0020ADF8100025
:104A10000120ADF812004FF22440ADF8160000203E
:104A2000ADF8180004A95FF0804002F001FD0021FC
:104A30005FF0804002F05FFD012203215FF08040C3
:104A400002F04AFDDFF854060021017001215FF0F9
:104A5000804002F034FD08B010BD80B55FF08040AA
:104A600002F055FDDFF83416097810EB0140000222
:104A7000000A02BD80B55FF0804002F048FDC0B280
:104A800002BD10B50C00C0B2022801D0012027E001
:104A9000E4B2042C01D3012022E0032300221F21D1
:104AA000022001F032F805E0032300221F2102203A
:104AB00001F02BF8012000F0CBFF10F00F000828C8
:104AC000F2D1E4B2600010F10B01C9B2132000F082
:104AD000DEFF0421142000F0DAFF01F04EF900207F
:104AE00010BD80B50100C9B20220FFF7CAFF02BDA8
:104AF0000021017010214170202181703021C1708E
:104B00004021017150214171512181710021C171F8
:104B10007047002101705121417050218170402166
:104B2000C17030210171202141711021817100215A
:104B3000C171704770477047704780B500F0C8FE7C
:104B400000F0EDFE00F014FF01F03AF800F045FF30
:104B500001BD70B504000D00160001F031F8290008
:104B6000C9B22000C0B2FFF78CFF0400E4B2002CF1
:104B70000BD0DFF830050078032803D3DFF82805D1
:104B800002F01EF92000C0B214E001F0F6F8DFF8E0
:104B9000100503210170DFF8E8040660FFF7CAFF83
:104BA000DFF800050078032803D3DFF8000502F0E2
:104BB00007F9002070BDF8B500240025E4B2002CF0
:104BC0001CD02000012601E07600401EC0B2002863
:104BD000FAD1FFF74FFF711E0840002601E014369E
:104BE000401EC0B20028FAD1FFF737FF0700FFF7D9
:104BF00034FFC01B0002000AB042F8D301F009F9EB
:104C0000002801D0012009E06D1C641CE4B2062CD0
:104C100000D30524EDB2052DD0D30020F2BDF8B5A8
:104C200004000D0000272600DFF878040078032830
:104C300003D3DFF8800402F0C3F8DFF868040078DB
:104C4000032803D32000C0B202F0EFF8DFF85404C9
:104C50000078032803D3DFF8600402F0B1F8E4B26F
:104C60003E2C01D304203DE001F0AFF805E009231C
:104C700000221F21022000F048FF012000F0E8FE82
:104C800010F00F000928F2D1FFF795FF002821D07E
:104C900001F09BF82900B01CC0B200F06CFF0223A9
:104CA00000221F21022000F030FF012000F0D0FE82
:104CB00010F00F000928F8D1DFF8E8030078042885
:104CC00002D32620FFF74CFE02F099FEFBF769FEA7
:104CD000002700E00727002000F0BCF901F04DF8A4
:104CE0003800C0B2F2BD2DE9FC4180460027002506
:104CF000002400F02DFF0600F6B2802E80F0AC807C
:104D00005FFA88F8B8F1FF0F0ED05FFA88F8B8F1B3
:104D1000C90F09D05FFA88F8B8F18F0F04D05FFA95
:104D200088F8B8F1190F0ED15FF0000804E0FF20F9
:104D300003F038FB18F101085FFA88F8F6B2B01CEE
:104D40008045F4DB88E0DFF874030088401CDFF85E
:104D50006C130880012000F07DF9FBF756FE002857
:104D600008D1F6B2F01C80B202F0FDFC0400002C69
:104D700001D171E070E02500B01C28706D1C5FF05F
:104D8000000806E0FF2003F00DFB28706D1C18F1F1
:104D900001085FFA88F8F6B2B01C8045F2DB1021FA
:104DA000DFF8E80202F0FAFFF6B2002E50D037002A
:104DB000FFB2052F28D18DF800705FF001080AE0DE
:104DC0005FFA88F818F804005FFA88F800A908F874
:104DD000010018F101085FFA88F8FFB2781C8045DD
:104DE000EEDB9DF804009DF8011011F0030102298B
:104DF0002ED1F6B2301940788DF804009DF80410D9
:104E000000A8FBF7CFFD23E060788DF80000A078C4
:104E10008DF801009DF80100C0B280098DF80300F3
:104E20009DF80100C0F381008DF802009DF8030099
:104E3000002803D19DF80200002809D0FBF7E5FD0A
:104E4000060002F0DBFD15F8011C2000FBF7AAFDAF
:104E500002F0A3FA02F08CFBBDE8F38170B584B0D8
:104E600000208DF80000002502F096FB3B2002F0A8
:104E7000DCFB06003B2002F0D8FBF6B2C0B2864253
:104E8000F7D1F6B2002E00F0A280012100A802F0B6
:104E9000F5FBF6B29DF80000C01C864240F09780FA
:104EA0009DF800003E2880F092809DF80000801C54
:104EB0008DF800009DF80000052823D19DF8000022
:104EC0008DF8040004210DF1050002F0D7FB01214B
:104ED0000DF1010002F0D2FB9DF80100000676D52D
:104EE0009DF8050010F00300022870D19DF808001D
:104EF00000F081F88DF808009DF8081001A8FBF774
:104F000051FD64E0012101A802F0B8FB01210DF17F
:104F1000050002F0B3FB5A48007810F00100C0B25F
:104F2000002813D19DF80500C0B280098DF8070054
:104F30009DF80500C0F381008DF806009DF807007C
:104F4000002803D19DF80600002840D0FBF75DFD46
:104F5000002807D19DF80000401C80B202F003FC3D
:104F600004002500002D32D09DF8000028706D1C33
:104F70009DF8040028706D1C9DF80000401E8DF8FF
:104F800000009DF8050028706D1C9DF80000401E73
:104F90008DF800009DF80010280002F06FFB9DF8CE
:104FA0000000451915F8010C00060DD515F8020C86
:104FB00000F021F805F8020C02F020FD15F8021CA3
:104FC0002000FBF7EFFC02E0200002F01CFC362082
:104FD00002F00FFB3D2002F00CFBF0210842F9D15A
:104FE0003A2002F006FB342002F003FB02F0D5F970
:104FF00002F0BEFA7FBDC0B2802808D3C0B2B0F5BF
:10500000807000B2022190FBF1F04A3804E0C0B297
:10501000022190FBF1F04A387FF07F0100B2884214
:1050200001DA7FF07F0040B270470020704780B502
:105030000121102002F0F8FF3020ADF80000102010
:105040008DF8030003208DF8020000A9184802F033
:1050500029FE01BDC0B2002802D0012807D00DE012
:105060001748006890F010001549086006E01448E1
:10507000006890F0200012490860FFE770470000C8
:105080008C2F0020B82F0020B92F002000080140ED
:10509000003801401C04002040420F00B72F0020C0
:1050A000BA2F0020B62F0020AC8D0008788B0008A6
:1050B0000010014060920008F4980008A82F00201A
:1050C0000C10014000B583B0DFF80007007803281A
:1050D00003D3DFF8FC0601F073FE4FF49E7200214B
:1050E000DFF8F00604F084FA6C220021DFF8E8060D
:1050F00004F07EFADFF8DC067F210160DFF8D406D9
:1051000040210171DFF8CC0647F23051C160DFF871
:10511000C4064FF47A714161DFF8B80601210176C7
:10512000DFF8B00601214176DFF8B006DFF8A416FB
:1051300009680180DFF8A80648F2FE010180DFF867
:10514000A00600214180DFF8980600218180DFF869
:1051500090060021C18000200190002000900023D3
:1051600000224021DFF8780600F0B8F8DFF870067A
:1051700000F05EFB03220021DFF8640600F02CF94A
:10518000DFF85C0640F2FF210180DFF854060021C1
:105190004180DFF84C0600218180DFF844060021C1
:1051A000C180DFF83C0600210181DFF834060021D0
:1051B0004181DFF82C0600218181DFF824064FF4BD
:1051C0008071C181DFF8180600F0BBF9DFF8100626
:1051D00040F2FF210180DFF8080600214180DFF85E
:1051E000000600218180DFF8F8050021C180DFF88A
:1051F000F00500210181DFF8E80500214181DFF899
:10520000E00500218181DFF8D8054FF40071C181EC
:10521000DFF8CC0500F095F907BD80B5DFF8AC05E7
:105220000078032803D3DFF8BC0501F0C9FDDFF8DF
:10523000B00548F2FE010180DFF8A405002141809D
:10524000DFF89C0500218180DFF894050021C180F2
:10525000DFF894050288DFF89405418ADFF88005BD
:1052600000F0F1FA04220021DFF8740500F0B4F830
:1052700001BD2DE9F04705000E0017009846089C77
:10528000DDF824900020C9F80000AA4604E0C9F81F
:1052900000A0BFB217EB0A0AF6B2BFB207FB065076
:1052A000824511D29AF800000028F0D0E4B2E2085A
:1052B000D2B241461AF1020003F042F80028E8D1C8
:1052C000C9F800A0002007E0D9F80000002801D0AC
:1052D000012000E00220C0B2BDE8F0872DE9F043D4
:1052E00083B004000D0016001F00DDF82880DDF8F3
:1052F0002C90DFF8FC040190EDB2009523002422ED
:105300000321DFF8D404FFF7B4FF012858D1DFF8F8
:10531000E004006801210170DFF8D4040068801CFB
:105320002100102202F0A0FFDFF8C4040068857499
:10533000DFF8BC040068C674DFF8B404006880F8C5
:105340002070DFF8AC040068C0F81C80DFF8A0040F
:105350000068C0F81890DFF874040078032803D3BD
:10536000DFF8900401F02CFDDFF8600400780328DA
:1053700006D30021DFF878040068801C01F0BFFD2F
:10538000DFF848040078032803D3DFF86C0401F049
:1053900017FDDFF838040078032804D3EDB22800A5
:1053A00080B201F04CFDDFF824040078032803D319
:1053B000DFF8480401F004FDDFF83404006809E078
:1053C000DFF808040078032803D3DFF8340401F081
:1053D000F7FC0020BDE8FE837CB504000D0016003C
:1053E000DFF8200401908020009023001C2204217B
:1053F000DFF81404FFF73DFF012840F08A80DFF852
:105400000404006801210170DFF8F8030068801CC3
:105410002100102202F028FFDFF8E8030068C674BC
:10542000DFF8E003006801218174002D05D1DFF869
:10543000D40300680121017504E0DFF8C8030068A7
:1054400000210175DFF884030078032803D3DFF817
:10545000BC0301F0B5FCDFF874030078032806D321
:105460000021DFF8A0030068801C01F048FDDFF890
:105470005C030078032803D3DFF8940301F0A0FC59
:10548000DFF848030078032806D3DFF878030068C4
:10549000C07C80B201F0D3FCDFF830030078032831
:1054A00003D3DFF8700301F08BFCDFF83403FF2136
:1054B0000170DFF82C0302214170DFF82403002182
:1054C0004180DFF81C0300218180DFF814030021F4
:1054D000C180DFF80C0300210181DFF80403002103
:1054E0008172DFF8FC020121C172DFF8F402FF21B2
:1054F0000173DFF8EC02617B4173DFF8E402E189BC
:10550000C181DFF8DC0200F01CF8DFF8F802006867
:1055100000E0002076BD00B583B0DFF8E81201910D
:105520008021009103001C220421DFF8DC02FFF738
:10553000A0FE002803D1DFF8CC02006800E00020C4
:105540000EBD1CB50400DFF8D00201908020009051
:10555000230014220621DFF8C402FFF78AFEC0B23E
:1055600000280CD1DFF8B0020068807C401CDFF816
:10557000A81209688874DFF8A00200681DE0C0B2B4
:10558000012819D1DFF89002006801210170DFF8CD
:1055900088020068801C2100102202F065FEDFF8FE
:1055A00078020068807C401CDFF86C1209688874FF
:1055B000DFF86402006800E0002016BD00B583B08B
:1055C000DFF854120191802100910300142206217A
:1055D000DFF84802FFF74DFE002802D18E48006830
:1055E00000E000200EBD00B583B08D4901918021FF
:1055F00000910300122203218A48FFF73AFE002897
:1056000002D18748006800E000200EBD10B50400FC
:1056100077487149016005E07548006800F2240090
:1056200073490860724800687F49884214D2704804
:10563000006800780028EFD06D480068807CC0B218
:10564000C208D2B221006A480068801C02F078FECD
:105650000028E1D1012000E0002010BDF8B50400D1
:105660000D000026002000272978FE2902D1687845
:10567000802802D02878FF2807D12878FF2834D145
:10568000687810F00E000E282FD15E485E49016048
:105690005C4800686349884238D25A4800680078FC
:1056A00000281BD057480068807C012816D1554837
:1056B00000688078FE2804D152480068C0788028AD
:1056C0000CD050480068811C280000F0D1F8C0B20E
:1056D000F6B2B04202D306004A480768494800685B
:1056E00000F21C0047490860D2E7287AC0F3400066
:1056F000C0B2012805D10321012000F027F80700DE
:1057000004E00421012000F021F80700002F17D148
:105710002E480078032802D3444801F051FB0020B2
:105720002080002060800020A0800020E0800020F9
:105730002081002060810020A0810020E08104E021
:105740002000B91C102202F08FFDF1BD2D4A2E4B16
:10575000136005E02B4A126802F21C02294B1A6002
:10576000284A12682F4B9A422DD2264A1268127884
:10577000002AEFD05FF0FF3240B2904208D0214AB9
:105780001268927C03005BB212B21BB29A42E1D162
:105790005FF0FF3249B2914208D01A4A1268D27CB7
:1057A0000B005BB212B21BB29A42D3D1154A1268F7
:1057B0009278FE2ACED1134A1268D278802AC9D1B3
:1057C0001048006800E0002070470000B62F00205D
:1057D00070970008802800204C2C0020702F00209B
:1057E000302F0020A4900008202400203C2B002013
:1057F000882F00204496000854960008F09800086E
:10580000C49000087C2F00209C280020649600088B
:10581000C8970008F2980008802F00204229002035
:10582000842F00200C290020B82C0020D8860008E6
:1058300010B5040014F10800FFF75AF9207A90F02F
:105840000200207210BD89B20B0A0372417200215E
:105850008172FF21C172FE2101730021417392B256
:10586000110A8173C273017A11F0FD010172704750
:1058700030B40022002301E008325B1CDBB2102BA5
:1058800014D2DBB21C5CDBB25D5CAC42F4D0DBB2A8
:10589000185CDBB2595C4140002002E0521C490018
:1058A000401CC0B2082801D20B06F7D51000C0B2C8
:1058B00030BC704706E0491C4FF4487289B29142EF
:1058C000F9D3401EC0B2012801D30021F4E770478C
:1058D00080B50121042002F0A7FB4FF48070ADF8E1
:1058E000000003208DF8020010208DF8030000A9AD
:1058F000DFF8C40502F0D6F90121082002F094FB7C
:105900000120ADF8000003208DF8020010208DF872
:10591000030000A9DFF8A40502F0C4F901BD80B5B9
:105920000121042002F080FB01214FF4805002F09D
:105930007BFBE020ADF8000018208DF80300032069
:105940008DF8020000A9DFF8700502F0ABF9012123
:10595000DFF86C0502F02AFC1020ADF800001020E2
:105960008DF8030000A9DFF8500502F09BF901BD96
:1059700000B585B001214FF4805002F055FB0021A5
:10598000DFF83C0502F001FC0020ADF800004FF408
:105990008270ADF802000020ADF804000020ADF8E0
:1059A00006000020ADF808004FF40070ADF80A00C2
:1059B0001820ADF80C000020ADF80E000720ADF85F
:1059C000100000A9DFF8F80402F0C0FB0121DFF8A5
:1059D000F00402F0DAFB05B000BD00B585B001218E
:1059E000042002F021FB0120ADF8040048208DF8CE
:1059F000070003208DF8060001A9DFF8BC0402F0BF
:105A000051F90121012002F00FFB0021002002F0DA
:105A1000CBF90120029000208DF80C0008208DF8B1
:105A20000D0001208DF80E0002A802F02BFB0620CD
:105A30008DF8000001208DF8010000208DF8020093
:105A400001208DF8030000A802F0D1FB05B000BDD5
:105A500010B504001021DFF8600402F0A2F9DFF8AD
:105A6000640400684006FAD454F08004E4B22000D4
:105A700080B202F097FCFF2002F094FC0400102199
:105A8000DFF8340402F08AF92000C0B210BD38B546
:105A900004000D001021DFF8200402F082F9DFF885
:105AA000240400684006FAD454F0C004E4B2200094
:105AB00080B202F077FCEDB2280080B202F072FCF6
:105AC0001021DFF8F40302F069F931BD70B504006C
:105AD0000D0016001021DFF8E00302F062F9DFF894
