:020000040800F2
:1000000088300020E5960008099300080B9300084B
:1000100017930008239300082F93000800000000A6
:100020000000000000000000000000003B930008FA
:100030003D930008000000003F9300084193000832
:1000400025970008299700082D9700083197000888
:1000500035970008399700087994000841970008FF
:1000600045970008499700084D97000851970008E8
:1000700055970008599700085D9700086197000898
:1000800065970008699700086D9700087197000848
:1000900075970008799700087D970008439300083A
:1000A00085970008899700088D97000881940008BB
:1000B000EF930008999700089D970008A197000802
:1000C000A5970008A9970008AD970008B197000808
:1000D000B59700085B930008BF930008C19700081C
:1000E000C5970008C9970008CD9700080EB42DE900
:1000F000F04FC0B00700519C529DDDF84C81549EDA
:1001000020A8802101F064FE00A8802101F060FE9B
:10011000FFB217F07F00012840F095819DF834016F
:10012000202840F090819DF83501022840F08B8115
:10013000002082461FFA8AFA20A860210AF80010DF
:100140001AF1010A1FFA8AFA20A800210AF8001001
:100150001AF1010A1FFA8AFA20A800210AF80010F1
:100160001AF1010A1FFA8AFA20A800210AF80010E1
:100170001AF1010AF6B216F1080080B2000A1FFA5D
:100180008AFA20A90AF801001AF1010A1FFA8AFA6C
:1001900020A816F108010AF800101AF1010A1FFA46
:1001A0008AFA20A811210AF800101AF1010A1FFA90
:1001B0008AFA20A840210AF800101AF1010A38062C
:1001C00040F181801FFA8AFA20A82F210AF8001036
:1001D0001AF1010A1FFA8AFA20A8FE210AF8001073
:1001E0001AF1010A1FFA8AFA20A800210AF8001061
:1001F0001AF1010A1FFA8AFA20A800210AF8001051
:100200001AF1010A1FFA8AFA20A800210AF8001040
:100210001AF1010A1FFA8AFA20A800210AF8001030
:100220001AF1010A1FFA8AFA20A800210AF8001020
:100230001AF1010A1FFA8AFA20A800210AF8001010
:100240001AF1010A1FFA8AFA20A800210AF8001000
:100250001AF1010A1FFA8AFA20A800210AF80010F0
:100260001AF1010A1FFA8AFA20A800210AF80010E0
:100270001AF1010A1FFA8AFA20A800210AF80010D0
:100280001AF1010A1FFA8AFA20A800210AF80010C0
:100290001AF1010A1FFA8AFA20A800210AF80010B0
:1002A0001AF1010A1FFA8AFA20A800210AF80010A0
:1002B0001AF1010A1FFA8AFA20A860210AF8001030
:1002C0001AF1010A15E0002083461FFA8BFBBBF1EF
:1002D000100F0ED21FFA8AFA20A81FFA8BFB49A929
:1002E0001BF801100AF800101AF1010A1BF1010BAA
:1002F000EBE7002083461FFA8BFBBBF1100F0ED2F9
:100300001FFA8AFA20A81FFA8BFB4DA91BF80110CF
:100310000AF800101AF1010A1BF1010BEBE71FFAB2
:100320008AFA20A8ADB2290A0AF800101AF1010AC7
:100330001FFA8AFA20A80AF800501AF1010A1FFAD7
:100340008AFA20A8A4B2210A0AF800101AF1010AB8
:100350001FFA8AFA20A80AF800401AF1010AF6B238
:1003600016F1080080B2000A1FFA8AFA20A90AF8DA
:1003700001001AF1010A1FFA8AFA20A816F10801F1
:100380000AF800101AF1010A1FFA8AFA20A80021BF
:100390000AF800101AF1010A1FFA8AFA20A80021AF
:1003A0000AF800101AF1010A002083463000C0B29A
:1003B0001FFA8BFB80B283450DD21FFA8BFB1BF813
:1003C00008001FFA8AFA20A90AF801001AF1010AA6
:1003D0001BF1010BEAE71FFA8AFA20A800210AF8AC
:1003E0000010002081469DF85401112819D1F6B261
:1003F00016F1300189B220A800F028FCC0438146E4
:100400001FFA89F9B9F1000F02D14FF6FF7081464A
:1004100048468DF8AF001FFA89F95FEA19208DF878
:10042000AE000022F6B216F1300189B220A801F028
:1004300022FDDFF8E00D406830F00200DFF8D41D47
:1004400048600020A2E3FFB217F07F00022840F0CE
:1004500095819DF83401FE2840F090819DF835018A
:10046000802840F08B81002082461FFA8AFA00A87B
:1004700060210AF800101AF1010A1FFA8AFA00A88E
:1004800000210AF800101AF1010A1FFA8AFA00A8DE
:1004900000210AF800101AF1010A1FFA8AFA00A8CE
:1004A00000210AF800101AF1010AF6B216F108004C
:1004B00080B2000A1FFA8AFA00A90AF801001AF1AC
:1004C000010A1FFA8AFA00A816F108010AF80010BA
:1004D0001AF1010A1FFA8AFA00A811210AF800107D
:1004E0001AF1010A1FFA8AFA00A840210AF800103E
:1004F0001AF1010A380640F181801FFA8AFA00A831
:100500002F210AF800101AF1010A1FFA8AFA00A82E
:10051000FE210AF800101AF1010A1FFA8AFA00A84F
:1005200000210AF800101AF1010A1FFA8AFA00A83D
:1005300000210AF800101AF1010A1FFA8AFA00A82D
:1005400000210AF800101AF1010A1FFA8AFA00A81D
:1005500000210AF800101AF1010A1FFA8AFA00A80D
:1005600000210AF800101AF1010A1FFA8AFA00A8FD
:1005700000210AF800101AF1010A1FFA8AFA00A8ED
:1005800000210AF800101AF1010A1FFA8AFA00A8DD
:1005900000210AF800101AF1010A1FFA8AFA00A8CD
:1005A00000210AF800101AF1010A1FFA8AFA00A8BD
:1005B00000210AF800101AF1010A1FFA8AFA00A8AD
:1005C00000210AF800101AF1010A1FFA8AFA00A89D
:1005D00000210AF800101AF1010A1FFA8AFA00A88D
:1005E00000210AF800101AF1010A1FFA8AFA00A87D
:1005F00060210AF800101AF1010A15E00020834674
:100600001FFA8BFBBBF1100F0ED21FFA8AFA00A85B
:100610001FFA8BFB49A91BF801100AF800101AF108
:10062000010A1BF1010BEBE7002083461FFA8BFB4D
:10063000BBF1100F0ED21FFA8AFA00A81FFA8BFB2B
:100640004DA91BF801100AF800101AF1010A1BF15C
:10065000010BEBE71FFA8AFA00A8ADB2290A0AF8E3
:1006600000101AF1010A1FFA8AFA00A80AF80050CD
:100670001AF1010A1FFA8AFA00A8A4B2210A0AF89C
:1006800000101AF1010A1FFA8AFA00A80AF80040BD
:100690001AF1010AF6B216F1080080B2000A1FFA38
:1006A0008AFA00A90AF801001AF1010A1FFA8AFA67
:1006B00000A816F108010AF800101AF1010A1FFA41
:1006C0008AFA00A800210AF800101AF1010A1FFA9C
:1006D0008AFA00A800210AF800101AF1010A002085
:1006E00083463000C0B21FFA8BFB80B283450DD227
:1006F0001FFA8BFB1BF808001FFA8AFA00A90AF8F8
:1007000001001AF1010A1BF1010BEAE71FFA8AFA4C
:1007100000A800210AF80010002081469DF854012D
:10072000112819D1F6B216F1300189B200A800F0F3
:100730008DFAC04381461FFA89F9B9F1000F02D141
:100740004FF6FF70814648468DF82F001FFA89F951
:100750005FEA19208DF82E000022F6B216F1300162
:1007600089B200A801F087FBDFF8A80A406830F0E2
:100770000200DFF8A01A4860002007E2FFB217F07D
:100780007F00032840F0F981002082461FFA8AFA90
:1007900000A860210AF800101AF1010A1FFA8AFA6B
:1007A00000A800210AF800101AF1010A1FFA8AFABB
:1007B00000A800210AF800101AF1010A1FFA8AFAAB
:1007C00000A800210AF800101AF1010AF6B216F189
:1007D000080080B2000A1FFA8AFA00A90AF801008C
:1007E0001AF1010A1FFA8AFA00A816F108010AF89C
:1007F00000101AF1010A1FFA8AFA00A811210AF85A
:1008000000101AF1010A1FFA8AFA00A840210AF81A
:1008100000101AF1010A380640F181801FFA8AFAA5
:1008200000A82F210AF800101AF1010A1FFA8AFA0B
:1008300000A8FE210AF800101AF1010A1FFA8AFA2C
:1008400000A800210AF800101AF1010A1FFA8AFA1A
:1008500000A800210AF800101AF1010A1FFA8AFA0A
:1008600000A800210AF800101AF1010A1FFA8AFAFA
:1008700000A800210AF800101AF1010A1FFA8AFAEA
:1008800000A800210AF800101AF1010A1FFA8AFADA
:1008900000A800210AF800101AF1010A1FFA8AFACA
:1008A00000A800210AF800101AF1010A1FFA8AFABA
:1008B00000A800210AF800101AF1010A1FFA8AFAAA
:1008C00000A800210AF800101AF1010A1FFA8AFA9A
:1008D00000A800210AF800101AF1010A1FFA8AFA8A
:1008E00000A800210AF800101AF1010A1FFA8AFA7A
:1008F00000A800210AF800101AF1010A1FFA8AFA6A
:1009000000A800210AF800101AF1010A1FFA8AFA59
:1009100000A860210AF800101AF1010A15E0002071
:1009200083461FFA8BFBBBF1100F0ED21FFA8AFA17
:1009300000A81FFA8BFB49A91BF801100AF8001048
:100940001AF1010A1BF1010BEBE71FFA8AFA00A862
:100950003F210AF800101AF1010A1FFA8AFA00A8CA
:10096000FE210AF800101AF1010A1FFA8AFA00A8FB
:1009700000210AF800101AF1010A1FFA8AFA00A8E9
:1009800000210AF800101AF1010A1FFA8AFA00A8D9
:1009900000210AF800101AF1010A1FFA8AFA00A8C9
:1009A00000210AF800101AF1010A1FFA8AFA00A8B9
:1009B00000210AF800101AF1010A1FFA8AFA00A8A9
:1009C00000210AF800101AF1010A1FFA8AFA00A899
:1009D00000210AF800101AF1010A1FFA8AFA00A889
:1009E00000210AF800101AF1010A1FFA8AFA00A879
:1009F00000210AF800101AF1010A1FFA8AFA00A869
:100A000000210AF800101AF1010A1FFA8AFA00A858
:100A10009DF834110AF800101AF1010A1FFA8AFA37
:100A200000A89DF835110AF800101AF1010A1FFA02
:100A30008AFA00A89DF836110AF800101AF1010A86
:100A40001FFA8AFA00A89DF837110AF800101AF167
:100A5000010A1FFA8AFA00A8ADB2290A0AF80010A2
:100A60001AF1010A1FFA8AFA00A80AF800501AF1CE
:100A7000010A1FFA8AFA00A8A4B2210A0AF8001093
:100A80001AF1010A1FFA8AFA00A80AF800401AF1BE
:100A9000010AF6B216F1080080B2000A1FFA8AFABB
:100AA00000A90AF801001AF1010A1FFA8AFA00A83F
:100AB00016F108010AF800101AF1010A1FFA8AFA61
:100AC00000A800210AF800101AF1010A1FFA8AFA98
:100AD00000A800210AF800101AF1010A002083463C
:100AE0003000C0B21FFA8BFB80B283450DD21FFAD3
:100AF0008BFB1BF808001FFA8AFA00A90AF801000C
:100B00001AF1010A1BF1010BEAE71FFA8AFA00A8A1
:100B100000210AF80010002081469DF85401112898
:100B200019D1F6B216F1300189B200A800F08EF8A2
:100B3000C04381461FFA89F9B9F1000F02D14FF67F
:100B4000FF70814648468DF82F001FFA89F95FEA49
:100B500019208DF82E000022F6B216F1300189B26C
:100B600000A801F088F9DFF8AC06406830F0020018
:100B7000DFF8A0164860002008E0DFF8980640681B
:100B800030F00200DFF88C164860002040B0BDE86D
:100B9000F00F5DF810FBF0B40C0092B25618761E00
:100BA0003500AC420CD22678677817EB0626330066
:100BB000181880B29BB2984200D2401CA41CF0E7E7
:100BC000AC4208D1267836023300181880B29BB2A6
:100BD000984200D2401C80B2F0BC70472DE9F04131
:100BE00004000D001600DFF8600D0078301A0700D1
:100BF000E4B2E0198046202215F10801404680B297
:100C0000FFF7C9FF80463A0092B2DFF83C0D00784A
:100C1000401910F12801404680B2FFF7BCFF804622
:100C20001FFA88F8B8F1000F02D14FF6FF78FFE7FE
:100C3000404680B2BDE8F08138B504000D002A00BE
:100C400092B221003A20FFF7C9FF32BD38B5040047
:100C50000D002A0092B221001120FFF7BFFF32BD24
:100C600080B501F081FBDFF82C0C00210180DFF85A
:100C7000280C00210170DFF8740D0021017001BD06
:100C800038B5002401F033FF00F0C6FADFF8080C95
:100C9000007800282AD0012800F09780022800F070
:100CA000EE81032800F01282042800F01482052847
:100CB00000F02382062800F01481072800F0438109
:100CC000082800F07581092800F0A4810A2800F0A6
:100CD00047820B2800F055820C2800F06A820D280C
:100CE00000F01D820F2800F0798290E2DFF8A40B5B
:100CF000007810F00100C0B2002847D0DFF8F00CF7
:100D0000407ADFF8EC1C0968405C0500EDB2280071
:100D1000802802D0852814D027E0DFF8A40DC06811
:100D2000C0F34000C0070CD4DFF8940DC06850F049
:100D30000200DFF88C1DC860DFF85C0B0B2101702E
:100D4000A4E7DFF87C0DC068C0F34000C0070CD4F6
:100D5000DFF86C0DC06850F00200DFF8641DC86059
:100D6000DFF8340B0C21017090E7DFF8280B0068E6
:100D700040084000DFF81C1B0860DFF8180B006813
:100D800040084000DFF80C1B08607FE7DFF8040B29
:100D90000068C0F38010C00716D5DFF8240DC068C6
:100DA000C0F34000C00700F13282DFF8140DC068C4
:100DB00050F00200DFF8081DC86000F0DDFEDFF82B
:100DC000D80A0221017061E721E2DFF8280C0078DF
:100DD0000C2807D0C0F084800E286CD00ED30F28CA
:100DE0003ED07DE0DFF8DC0C00892830DFF8D81C2D
:100DF0000880DFF8A40A0221017047E7DFF8C00C81
:100E0000C068C0F34000C0076AD4DFF8B40CC06803
:100E100050F00200DFF8A81CC860DFF8780A00680C
:100E200030F00200DFF86C1A0860DFF8C80B408A67
:100E300002F02EFDDFF8940C02F00AFD00F0FAFE3D
:100E4000DFF8500A006850F00400DFF8481A086024
:100E5000002000F0F3FBDFF8400A062101703FE0BC
:100E6000DFF85C0CC068C0F34000C00738D4DFF87E
:100E7000500CC06850F00200DFF8441CC860DFF876
:100E8000140A006830F00800DFF8081A086002F061
:100E90003FFE00F0CFFEDFF8FC09006850F01000C4
:100EA000DFF8F0190860002000F0C8FBDFF8E8095F
:100EB0000821017014E0DFF8740D007800280FD1CC
:100EC000DFF8100D0F2180F83010DFF8600D0121E0
:100ED000017001F00CFEDFF8C0090A210170FFE784
:100EE00095E1DFF8480D0078002840F09081DFF8A8
:100EF000D00BC06830F00200DFF8C41BC860DFF818
:100F0000D40C90F83000002813D0DFF8E80ADFF89E
:100F1000C41C91F830100175DFF87809006830F0D2
:100F20000400DFF870190860DFF86C090021017017
:100F30006DE103F0C3F8DFF83C1C0860DFF85809E6
:100F40000721017063E1DFF84C090068C0F340003D
:100F5000C00710D5DFF89C0A00210175DFF83409BD
:100F6000006830F00400DFF82C190860DFF8280969
:100F7000002101701BE003F0A1F8DFF8F81B0968FD
:100F8000401A0002000A4FF2312188420FD3DFF8E5
:100F9000640A17210175DFF8FC08006830F00400CE
:100FA000DFF8F0180860DFF8F008002101702EE18A
:100FB000DFF8780C0078002840F02981DFF8000B7A
:100FC000C06830F00200DFF8F81AC860DFF8040CDF
:100FD00090F83000002813D0DFF8180ADFF8F41B6F
:100FE00091F830100175DFF8AC08006830F010009F
:100FF000DFF8A0180860DFF8A0080021017006E102
:1010000003F05CF8DFF86C1B0860DFF88C0809213E
:101010000170FCE0DFF87C080068C0F3C000C00786
:1010200010D5DFF8D00900210175DFF868080068E5
:1010300030F01000DFF85C180860DFF85C08002171
:1010400001701BE003F03AF8DFF8281B0968401A2A
:101050000002000A4FF2312188420FD3DFF89409D1
:1010600018210175DFF82C08006830F01000DFF857
:1010700024180860DFF8200800210170C7E0002074
:10108000040000F0D7FDDFF80C080068C0F3801002
:10109000C00707D5012000F0D1FADFF8FC070D21C9
:1010A0000170F3E5002000F0C9FADFF8E8070068F6
:1010B000C0F34010C00704D5DFF8DC07042101703D
:1010C00003E0DFF8D40705210170DFE5DFF8C8078A
:1010D000002101709BE0DFF8540B0078002840F0FD
:1010E0009680DFF81009DFF8EC1A91F830100175DE
:1010F000DFF8A4070221017089E0DFF8300B0078E7
:10110000002840F08480DFF8EC08DFF8C81A91F876
:1011100030100175DFF880070021017077E0DFF8FB
:101120000C0B0078002872D1DFF8040BDFF8A41A4A
:1011300091F830100171DFF85C07006830F0400072
:10114000DFF850170860DFF87809C06830F0020057
:10115000DFF86C19C860DFF840070021017056E025
:10116000DFF8C80A0078002851D1DFF88808DFF8D6
:10117000641A91F830100175DFF81C070021017026
:1011800045E002F02CFCDFF8F00B02F061FBDFF829
:101190000407006840084000DFF8F816086000F017
:1011A00049FD002000F04AFADFF8EC060F2101703B
:1011B0002DE0002002F052FDDFF8D806006840085C
:1011C0004000DFF8D016086000F034FD002000F089
:1011D00035FADFF8C4060F21017018E0DFF84C0A79
:1011E0000078002813D1DFF80C08DFF8E81991F82F
:1011F00030100175DFF8A00600210170DFF8C0088B
:10120000C06830F00200DFF8B818C860FFE731BDF1
:1012100000000000102C002038B5DFF8D00700785F
:10122000002809D0022800F097812ED3042800F06E
:10123000A281C0F0B18100E2DFF858060068C0F377
:10124000C010C00720D500F0C7FC002810D1DFF87F
:10125000E00900210171DFF83C06006830F08000F1
:10126000DFF830160860DFF8840701210170D4E749
:10127000DFF8BC091E210171DFF81806006830F0A4
:101280008000DFF810160860D7E1DFF86407807A85
:1012900000281AD1DFF85807007ADFF854170968D8
:1012A000401804002078C0B20009062809D0DFF8F1
:1012B0004007006803F0A7FADFF83007002101704B
:1012C000BBE1200000F042FB0EE0DFF82407807A4B
:1012D000012809D0DFF81807006803F094FADFF856
:1012E0000C0700210170A8E1DFF80407007DFF284A
:1012F0000DD1DFF8FC06006803F085FADFF8C807B7
:1013000000210180DFF8E4060021017095E1DFF89B
:101310006C0A01F000FA00282AD1DFF8600A01F017
:101320004FFA002824D1DFF8540A01F05CFA0028B3
:101330001ED1DFF84C0A007A02280BD1DFF8B00684
:10134000807A012801D100F057FBDFF8A0060321C5
:10135000017062E7DFF89806006803F054FADFF8DE
:10136000680700210180DFF884060021017064E134
:10137000DFF87C06407ADFF8781609684018040028
:10138000DFF8000ADFF8001A0160DFF8BC05002171
:101390000170DFF8F80900210170DFF85406807C45
:1013A000112802D03A284DD0C8E0DFF84406807AF0
:1013B000002842D1A07900020500E0794519ADB2BC
:1013C000002D3AD0DFF82806018ADFF82406007ADB
:1013D000DFF81C2612688018FFF738FC4FF6FF7103
:1013E00088422AD0DFF8A8090078032803D3280010
:1013F00080B203F06DFADFF89809007803280ED365
:10140000DFF8EC05018ADFF8E805007ADFF8E0256F
:1014100012688018FFF71AFC80B203F059FADFF85F
:10142000D005006803F0EFF9DFF89C060021018089
:10143000DFF8B80500210170EFE6DFF8B005022102
:101440000170EAE6DFF8A805807A00281DD1DFF8F0
:10145000A005018ADFF89805007ADFF89425126864
:101460008018FFF7E9FB4FF6FF7188420DD0DFF8D7
:101470008005006803F0C7F9DFF84C060021018001
:10148000DFF8680500210170C7E62078802810D0B9
:1014900081282ED0852843D1DFF8F803006850F06A
:1014A0000100DFF8F0130860DFF840050421017047
:1014B000B3E6DFF83C05008A50280DD3DFF830058D
:1014C000006803F0A0F9DFF8000600210180DFF8D2
:1014D0001C0500210170A0E6DFF8B803006850F099
:1014E0000100DFF8B0130860DFF800050421017087
:1014F00093E6DFF8A0030068C0F38000C00701D5C1
:1015000002F047FADFF8E804006803F07CF9DFF83E
:10151000B80500210180DFF8D404002101707CE6C9
:10152000DFF8CC04006803F06EF9DFF89C050021B9
:101530000180DFF8B804002101706EE6DFF8B00426
:10154000006803F060F9DFF8800500210180DFF812
:101550009C040021017070E004F009FB00286CD1AC
:1015600004F014FBDFF8840400210170DFF8580553
:101570000021018061E0C748007810F00100C0B28E
:1015800000285AD1DFF86804006803F03CF9DFF85E
:101590005C040021017050E0DFF8E4074068C0F30C
:1015A0004000C00749D4DFF8D807406850F0020077
:1015B000DFF8CC174860C02002F0D1FCDFF830041F
:1015C000807A012813D103222821DFF8C80700F010
:1015D00052FC0122DFF81804018ADFF81404407A73
:1015E000DFF80C341B68C01800F045FC0FE0012246
:1015F000DFF8FC03008A10F1280189B2DFF8F0035C
:10160000007ADFF8EC331B68C01800F034FCDFF818
:101610007007406830F00200DFF864174860DFF8B8
:10162000D003006803F0EFF8DFF89C04002101808C
:10163000DFF8B80300210170FFE731BD70B5040089
:10164000E4B2002C40F0E78000200500EDB2102D40
:1016500013D2DFF86C044069401EDFF8641448615F
:10166000EDB26842DFF85C14401890F82B00DFF808
:101670005014496908706D1CE8E700200500EDB2C0
:10168000102D12D2DFF838044069401EDFF8301404
:101690004861EDB26842DFF82C144018C07EDFF8D4
:1016A0002014496908706D1CE9E7DFF814044069EB
:1016B000401EDFF80C144861DFF804044069DFF8CD
:1016C0000414C97A0170DFF8F8034069401EDFF89E
:1016D000F0134861DFF8E8034069DFF8E813897A1E
:1016E0000170DFF8DC034069401EDFF8D413486165
:1016F000DFF8CC034069DFF8CC1309890170DFF80B
:10170000C0034069401EDFF8B8134861DFF8B40336
:10171000008980B2000ADFF8A81349690870DFF871
:10172000A0034069401EDFF898134861DFF890037A
:101730004069DFF8901349680170DFF8840340695D
:10174000401EDFF87C134861DFF878034068000A28
:10175000DFF86C1349690870DFF864034069401EC4
:10176000DFF85C134861DFF85C034068000CDFF8C9
:101770005413497809010F310840D149496908706B
:10178000CF484069401ECE494861CE484078C0B23B
:10179000CC490978090111EB1010C9494969087051
:1017A000C748007E2830C649087600200600C54894
:1017B000807A112818D1C3480189C1484069FFF7D0
:1017C00045FAC0430600B6B2002E02D14FF6FF70B4
:1017D0000600BB48406980F82F60B9484069B6B23E
:1017E000310A80F82E1016E0B648807A3A2812D1D5
:1017F000B4480189B2484069FFF71EFAC0430600A9
:10180000AF48406980F82B60AD484069B6B2310AF4
:1018100080F82A10FFE7AC4800210180DFF8B4030C
:1018200009210170DFF8AC03A649C97A4173DFF8DA
:10183000A403A449897A0173DFF89803A149497880
:101840000171DFF890039F4949688160DFF848051E
:10185000DFF84815102204F017FBDFF84405DFF825
:101860004415102204F010FBDFF868030F2180F804
:101870003010DFF8B8030121017001F038F970BDB4
:101880005A480078002801D0012000E00020C0B2B2
:1018900070470000F82B00207A2C002000B5544837
:1018A000DFF80415096801605148DFF8FC14097974
:1018B00001714F48DFF8F014497A0172DFF8E8044B
:1018C000407A28304A4948724948DFF8DC14897C5C
:1018D00081724748DFF8D0148989C1864448DFF80F
:1018E000C814C97EC174DFF8C004807C012826D1E9
:1018F0003F48DFF8B414C97CC1723D48DFF8A81432
:101900004969C1603A48DFF8A014098B0182384860
:10191000DFF89414897E8174DFF85C04DFF88C149E
:10192000102204F0BEFADFF85404DFF88414102209
:1019300004F0B7FA2E48DFF87014497A41722B4848
:101940000121017000BD00007D2C00200278437849
:10195000DBB21B0953EA0212254BDA72401C0278F3
:1019600012F00F021204224BDA60401C204AD268A7
:10197000037812EB03221E4BDA60401C1C4AD2682B
:1019800003789A181A4BDA60401C02781202184B3E
:101990001A82401C164A128A03789A18144B1A822B
:1019A000401C134A03789374401C114A0378D37483
:1019B000401C00221100C9B2102907D2C9B20C4A3A
:1019C0008A1803781375401C491CF4E700221100A3
:1019D000C9B2102908D2C9B2054A8A18037882F818
:1019E0002430401C491CF3E7704700007B2C00208A
:1019F000442A0020AC2B002000210800C0B2282877
:101A000006D2C0B2DFF88C1300224254401CF5E726
:101A1000DFF8A013C97AC9B209096031DFF874236D
:101A20001170DFF89013C968090CDFF88823D27AA7
:101A300012010F321140DFF85C235170DFF874138C
:101A4000C968090ADFF84C239170DFF84813DFF802
:101A50006423D268CA70DFF85C13098A89B2090A64
:101A6000DFF830231171DFF82C13DFF84823128AD6
:101A70004A71DFF82013DFF83C23927C8A71DFF88B
:101A80001413DFF83023D27CCA7100210800C0B2E1
:101A9000102813D2C0B2BF494118C0B2DFF81423D6
:101AA0008218127D0A72C0B2BA494118C0B2C14A46
:101AB000821892F824200A76401CE8E7704700005C
:101AC000482B0020C4290020662C0020AE2B0020CB
:101AD000B94A0623137002784378DBB21B0953EA34
:101AE0000212B54B5A70401C027812F00F02120419
:101AF000B14B5A60401CB04A5268037812EB032283
:101B0000AD4B5A60401CAC4A526803789A18AA4BF5
:101B10005A60401C02781202A74B1A81401CA64A48
:101B2000128903789A18A44B1A81401CA24A0378A0
:101B30009372401CA04A0378D372401C002211000B
:101B4000C9B2102907D2C9B29B4A8A180378137305
:101B5000401C491CF4E700221100C9B2102907D229
:101B6000C9B2954A8A1803781377401C491CF4E7D8
:101B700070470000542C002010B59048FFF7A8FFD4
:101B80008F48904941618C4800898C49401800F287
:101B90002800040088480089283089490876884848
:101BA000007E00280FD0641E85484069401E84498D
:101BB00048618348007E401E81490876804840691C
:101BC00021780170EBE77C48008928307C49087651
:101BD00010BD00007C2A002010B5784800797749B4
:101BE000497951EA002028300400200080B202F038
:101BF000B3FD704908606F480068002801D10120DA
:101C000013E02200D2B26D496A48006802F0E8F998
:101C10006848002101726748282141726548002107
:101C200081726448FF210171002010BD6D2C0020DD
:101C30002C2C002080B56048007FFF2833D15E48FF
:101C4000007FFF282AD15C48407F022826D15A48CD
:101C5000C08B002822D15848008C00281ED156483D
:101C6000408C00281AD15448808C002816D1524844
:101C7000C08C002812D15048008D00280ED14E484B
:101C800090F82A00002809D14B4890F82B00022830
:101C900004D14D484FF6FF7101806BE04A484FF682
:101CA000FF71018066E03F4800F0B0FD01285ED181
:101CB000414890F82700FF2814D13F4890F82800A9
:101CC000FE280FD13C4890F8240080070AD43A48F7
:101CD00090F82A00384991F82B1051EA00203A492F
:101CE000088047E0344890F82400C0F34000C0B2B8
:101CF000002838D034484FF6FE7101802E4890F805
:101D0000240090F00200304908722F482A4991F8C7
:101D1000251041722C48284991F8261081722A48D2
:101D2000254991F82710C1722748234991F82810B6
:101D300001732548204991F82910417322481E4912
:101D400091F82A10817320481B4991F82B10C17318
:101D50001D481E4941600E480078032802D31B48E5
:101D600002F0EFFD06E018480021018002E016486D
:101D70000021018001BD0000582A0020682A0020AF
:101D8000102C0020582C0020562A00207C2C0020EB
:101D9000722C0020E02A00208A2A0020D02900206E
:101DA0009A2A0020E0290020082A0020242A002066
:101DB000342A0020442A0020C429002014290020AD
:101DC000482B002043280020642B00206C2B00208F
:101DD000002204F095B810B450F8041B81B10268D9
:101DE0001218001D50F8043BDC0744BFA9F10104A0
:101DF000E31852F8044B43F8044B091FF9D1EBE701
:101E000010BC704738B5040002F0DBF8002804D09D
:101E100002F0B6F82070012017E002F04FF905003B
:101E200002F0CFF8002804D002F0AAF820700120B8
:101E30000BE002F043F9401B0002000A46F2E00109
:101E40008842EDD300202070002032BD80B5DFF83D
:101E5000EC0400210171DFF8E40402210172DFF8D3
:101E6000DC0401214172642000F088F8DFF8D0041E
:101E70000021017001BD70B504000D001600ADB267
:101E8000812D34D2F6B2042E01D300200600F6B222
:101E9000002E02D0F6B2022E02D1C02002F05FF86E
:101EA0002800451E80B2002818D02078C02802D013
:101EB000DB2807D00DE0DB2002F051F8DC2002F037
:101EC0004EF809E0DB2002F04AF8DD2002F047F886
:101ED00002E0207802F043F8641CE1E7F6B2002E3D
:101EE00002D0F6B2012E02D1C02002F038F870BD47
:101EF00038B5002502F0E2F8040000A8FFF782FFE1
:101F000001282BD19DF80000C02802D0DB2806D084
:101F100016E0002D02D0280080B22DE01EE000A8BF
:101F2000FFF770FF9DF80000DC2802D0DD2804D008
:101F300006E0C0208DF8000002E0DB208DF80000F4
:101F4000642D06DADFF8FC039DF8001029546D1C9F
:101F500004E0632000F012F800200DE002F0AEF87B
:101F6000001B0002000ADFF8E0138842C5D32800F6
:101F700080B200F003F8002032BD7047002211004B
:101F800089B280B2814206D289B2DFF8B823002339
:101F90008B54491CF4E7704770B596B0DFF8A00386
:101FA000007800280AD0022800F0A181C0F0B18199
:101FB000042800F0C880C0F08A81BCE102F001F87A
:101FC000002800F0BF80FFF793FF0400A4B2002CAC
:101FD00000F0B880DFF86C0300783F2804D0DFF809
:101FE00064030078212804D1200080B2FFF7C5FFE8
:101FF000A8E0DFF850030078C0B2000906285AD1E3
:10200000DFF840030079DFF83C13497951EA0020FA
:102010002830A4B2A04204D0200080B2FFF7AEFF67
:1020200089E1A4B2652C04D3200080B2FFF7A6FF9B
:1020300081E100200500EDB2102D10D2EDB2DFF8E5
:1020400004032818007AEDB212A96854EDB2BD4815
:102050002818007EEDB20AA968546D1CEBE79DF8C4
:102060004800FF2804D1200080B2FFF787FF62E11B
:102070000AA800F050FB002813D10AA800F0A0FB2A
:1020800000280ED10AA800F0AEFB002809D1AF4805
:10209000006850F04000AD490860A9480121017076
:1020A00049E1AA48006850F08000A8490860A448A7
:1020B0000221017072E7A3480078A12831D1A1481C
:1020C0004078A2282DD19F488078012804D0200094
:1020D00080B2FFF753FF2EE19A48C07F994991F8EB
:1020E000201051EA00202130A4B2A04204D02000E8
:1020F00080B2FFF743FF1EE19248C078022803D167
:102100008F480421017049E78E48C078012803D127
:102110008B480421017041E7200080B2FFF72EFFB9
:1021200009E188480078B72808D186484078B8285F
:1021300004D1200080B2FFF721FF03E0200080B22D
:10214000FFF71CFFF7E082480078002840F0F3809A
:102150007C48C07EFF2808D17E48407B06007D4831
:10216000407B401C7B49487302E07648C07E0600F5
:102170007448007900286BD0022835D080F0A28006
:102180000EA87549102203F07FFE6E4890F82000DB
:102190000790724806906B48007F0590F6B204964F
:1021A0006848807E03906748007E6649497E51EA10
:1021B000002080B202906348C07D01906148407D5C
:1021C0006049897D51EA002080B200900EA80FC8B6
:1021D00002F047FC6248192181755D4801210170B8
:1021E000574803210170D9E60EA85B49102203F07D
:1021F0004BFE544890F820000790584806905148EC
:10220000007F0590F6B204964E48807E03904D48BC
:10221000007E4C49497E51EA002080B20290494834
:10222000C07D01904748407D4649897D51EA0020A4
:1022300080B200900EA80FC802F083FC4848192114
:1022400081754348012101703D4803210170A5E6D5
:102250000EA84149102203F017FE3A48807F0990EA
:102260003848407F0890374890F8200007903B4856
:1022700006903448007F0590F6B204963148807E7F
:1022800003903048007E2F49497E51EA002080B2F9
:1022900002902C48C07D01902A48407D2949897DC3
:1022A00051EA002080B200900EA80FC802F0B9FCDD
:1022B0002B481921817526480121017020480321EE
:1022C00001706BE6200080B2FFF758FE33E0204833
:1022D000007800282FD12248807D002803D118489B
:1022E0000021017002E016480021017023E0174828
:1022F0000068C0F3C010C0071DD41A480079002838
:1023000003D10F480021017002E00D480021017047
:1023100011E00E480068C0F38010C0070BD41148CC
:102320000079002803D106480021017002E004482A
:1023300000210170FFE716B070BD0000102C0020D6
:102340007F2C002014290020E1750900F82B0020C3
:102350006F2C0020B42500201929002035290020E9
:102360007C2B00202C2C002000B583B04FF49E72F3
:102370000021DFF8580603F0DBFD6C220021DFF8B6
:10238000500603F0D5FDDFF844067F210160DFF839
:102390003C0640210171DFF8340647F23051C1603C
:1023A000DFF828064FF47A714161DFF82006012139
:1023B0000176DFF8180601214176DFF81806DFF80C
:1023C0000C1609680180DFF8100648F2FE01018052
:1023D000DFF8040600214180DFF8FC050021818040
:1023E000DFF8F4050021C18000200190002000905A
:1023F000002300224021DFF8E00500F0AFF8DFF80D
:10240000D80500F001FB03220021DFF8CC0500F025
:10241000FFF8DFF8C40540F2FF210180DFF8B805BE
:1024200000214180DFF8B00500218180DFF8A80598
:102430000021C180DFF8A00500210181DFF89805A7
:1024400000214181DFF8900500218181DFF88805B6
:102450004FF48071C181DFF8800500F072F9DFF878
:10246000780540F2FF210180DFF86C0500214180F2
:10247000DFF8640500218180DFF85C050021C18060
:10248000DFF8540500210181DFF84C05002141816E
:10249000DFF8440500218181DFF83C054FF400712D
:1024A000C181DFF8340500F04CF907BD80B5DFF8D5
:1024B000280548F2FE010180DFF81C05002141805B
:1024C000DFF8140500218180DFF80C050021C180B0
:1024D000DFF808050288DFF80805418ADFF8F8040C
:1024E00000F09DFA04220021DFF8EC0400F090F8DF
:1024F00001BD2DE9F04705000E0017009846089C25
:10250000DDF824900020C9F80000AA46F6B2BFB258
:1025100007FB0650824517D29AF8000000280DD01C
:10252000E4B2E208D2B241461AF1020003F00CFD17
:10253000002805D1C9F800A000200DE0C9F800A0CE
:10254000BFB217EB0A0AE1E7D9F80000002801D072
:10255000012000E00220C0B2BDE8F0872DE9F04381
:1025600083B004000D0016001F00DDF82880DDF8A0
:102570002C90DFF870040190EDB200952300242226
:102580000321DFF84C04FFF7B4FF01283DD1DFF849
:102590005404006801210170DFF848040068801CC1
:1025A0002100102203F070FCDFF838040068857405
:1025B000DFF830040068C674DFF82804006880F88B
:1025C0002070DFF820040068C0F81C80DFF81404D5
:1025D0000068C0F81890DFF810040078032806D3CC
:1025E0000021DFF800040068801C02F0D2F9DFF857
:1025F000F8030078032804D3EDB2280080B202F07B
:1026000067F9DFF8E003006800E00020BDE8FE8322
:102610007CB504000D001600DFF8D0030190802087
:10262000009023001C220421DFF8C403FFF761FFA0
:1026300001286ED1DFF8B403006801210170DFF8D2
:10264000AC030068801C2100102203F01DFCDFF8A1
:102650009C030068C674DFF894030068012181744C
:10266000002D05D1DFF8840300680121017504E025
:10267000DFF87803006800210175DFF86C0300784B
:10268000032806D30021DFF864030068801C02F0F1
:1026900080F9DFF854030078032806D3DFF84C03F1
:1026A0000068C07C80B202F013F9DFF82C03FF2130
:1026B0000170DFF8240302214170DFF81C030021C0
:1026C0004180DFF8140300218180DFF80C03002132
:1026D000C180DFF8040300210181DFF8FC02002142
:1026E0008172DFF8F4020121C172DFF8EC02FF21F0
:1026F0000173DFF8E402617B4173DFF8DC02E189FA
:10270000C181DFF8D40200F01CF8DFF8E0020068B5
:1027100000E0002076BD1CB50400DFF8D002019077
:102720008020009023001C220421DFF8C402FFF760
:10273000E0FE002803D1DFF8B402006800E00020CA
:1027400016BD30B583B00400DFF8A80201908020E8
:102750000090230014220621DFF89C02FFF7C9FE37
:102760000500EDB2002D0CD1DFF888020068807CF6
:10277000401CDFF8801209688874DFF8780200686E
:102780001DE0EDB2012D19D1DFF8680200680121CA
:102790000170DFF860020068801C2100102203F045
:1027A00073FBDFF850020068807C401CDFF84412A5
:1027B00009688874DFF83C02006800E000203EBD34
:1027C0001CB504008B480190802000902300142247
:1027D00006218948FFF78DFE002802D18548006850
:1027E00000E0002016BD1CB5040084480190802044
:1027F00000902300122203218148FFF77AFE00286F
:1028000002D17E48006800E0002016BD10B504002B
:1028100074486F490160734800687A4988421BD246
:1028200070480068007800280FD06E480068807CEF
:10283000C0B2C208D2B221006A480068801C03F00E
:1028400083FB002801D1012007E06648006800F200
:10285000240064490860DEE7002010BD2DE9F04146
:1028600004000D00002600275FF000082878FE28ED
:1028700002D16878802802D02878FF2807D12878EC
:10288000FF2836D1687810F00E000E2831D1574855
:102890005749016055480068594988423AD253481F
:1028A0000068007800281DD050480068807C01280E
:1028B00018D14E4800688078FE2804D14B48006843
:1028C000C07880280ED049480068811C280000F09C
:1028D000BBF80700FFB2F6B2B74203D33E0043484D
:1028E000006880464148006800F21C003F490860CB
:1028F000D0E7287AC0F34000C0B2002805D00321F9
:10290000012000F023F8804604E00421012000F0BB
:102910001DF88046B8F1000F10D100202080002063
:1029200060800020A0800020E08000202081002026
:1029300060810020A0810020E08105E0200018F1E6
:102940000201102203F0A0FABDE8F081020027483E
:10295000274B036025480068294B984234D223480E
:1029600000680078002828D05FF0FF3052B2824221
:1029700008D01E480068807C13005BB200B21BB216
:1029800098421AD15FF0FF3049B2814208D017480F
:102990000068C07C0B005BB200B21BB298420CD145
:1029A000124800688078FE2807D110480068C07877
:1029B000802802D10D48006807E00C48006800F24A
:1029C0001C000A4B1860C5E70020704778240020DF
:1029D00044280020242C0020D82B00201820002080
:1029E00034270020442C0020722C0020382C00209A
:1029F000942400203C2C00203A250020402C00206C
:102A000004250020B028002010B5040014F10800AF
:102A100001F0A2FB207A90F00200207210BD89B272
:102A20000B0A0372417200238372FF23C372FE23D9
:102A300003730023437392B2130A8373C273037A3E
:102A400013F0FD0303727047F0B40200002000266B
:102A50003300DBB2102B19D2DBB29E5CDBB25F5CC1
:102A6000BE4202D108305B1CF3E7DBB29E5CDBB2F6
:102A70005F5C7E40350000263400E4B2082C05D2AD
:102A80002E0603D4401C6D00641CF6E7C0B2F0BCF7
:102A9000704750F8041B61B150F8042BD30744BFB2
:102AA000A9F101039A18002342F8043B091FFAD147
:102AB000EFE77047DFF8FC0900210170DFF8E80A52
:102AC00000210170DFF8E00A00210171DFF8DC0A63
:102AD00000210170DFF8D80A00210170DFF8C80A70
:102AE00000214171DFF8C00A00218171704780B573
:102AF00003F013FB00F0DCF9DFF8B00A00780028DF
:102B00000FD001282AD0022861D0032800F0AB8022
:102B1000062800F07F80072800F094800E2867D0F8
:102B2000CDE000F043FB002817D1DFF8880AC06829
:102B3000C0F34000C00710D4DFF8780AC06850F036
:102B40000200DFF8701AC86000F0CBFA012000F034
:102B5000B7F8DFF8580A0E210170B0E0DFF8580A24
:102B60000078092802D00A2815D030E0DFF84C0A96
:102B70000021C175DFF8300A0079012801D000F08A
:102B80009BFC00F023FD002000F09AF8DFF81C0AFF
:102B9000022101701BE004F071FD03F007FA04F05C
:102BA0001EFF03F057FADFF8101A81F83000DFF843
:102BB000080A90F83000002804D0DFF8F00900215E
:102BC000017004E0DFF8E4090321017094E7DFF805
:102BD000F0090078002872D1DFF8DC09DFF8E41989
:102BE000097980F83010DFF8C4090021017066E02F
:102BF000DFF8CC090078002861D1DFF8B809C06897
:102C000030F00200DFF8AC19C860DFF8A00900213D
:102C1000017054E0DFF8A809007800284FD1DFF8F0
:102C2000A40907210170DFF8840907210170DFF88A
:102C300094090A210171DFF888090121017003F06C
:102C40006CFA3CE0DFF878090078002837D1DFF82B
:102C50006809DFF87019097980F83010DFF84C093D
:102C6000002101702BE0012003F042FA002003F064
:102C700049FA04F0C4FEDFF83009006850F00100A2
:102C8000DFF824190860DFF84009406850F400605C
:102C9000DFF834194860DFF83009406850F001006F
:102CA000DFF824194860DFF81009002180F830109F
:102CB000FFF7FCFBDFF8F40800210170FFE701BD1E
:102CC00038B50400DFF800094068C0F3C020C00731
:102CD00008D4DFF8F00809218170DFF8E80808213E
:102CE0000170DAE0DFF8D408407D0F21084208D1F6
:102CF000DFF8D00812218170DFF8C80808210170C0
:102D0000CBE0E4B2002C54D1DFF8A8084069401EA3
:102D1000DFF8A0184861DFF89C084069DFF89C18CC
:102D200009880170DFF88C084069401EDFF88418BC
:102D30004861DFF880084069DFF88018098889B2A7
:102D4000090A0170DFF86C084069401EDFF864185A
:102D50004861DFF860084069DFF86018098A01708F
:102D6000DFF850084069401EDFF848184861DFF876
:102D70004C08008A80B2000ADFF8381849690870E8
:102D8000DFF830084069401EDFF828184861DFF896
:102D90002C08407D401EDFF824184875DFF8141811
:102DA00049690870DFF80C08007E401DDFF8041840
:102DB0000876DFF81408408ADFF8601A0880DFF828
:102DC0005C0ADFF80418498A4181DFF8F0070088BF
:102DD0004FF6FE7188420CD1DFF8400ACC21C17356
:102DE0000822DFF8D8074168DFF8340A01F0F8F864
:102DF00037E0DFF8C80700880500DFF8280A007808
:102E0000032803D3280080B201F062FDDFF8AC078D
:102E100000884FF6FF7188421CD0DFF8A0070088B9
:102E200004F09BFE0500DFF8FC090078032803D3BB
:102E3000280080B201F04CFD4FF6FF70ADB2854224
:102E400008D1DFF8800711218170DFF878070821A9
:102E5000017022E0DFF8C409C821C173DFF8BC09A2
:102E60004580DFF8B809C07BC0F38100C0B20228FA
:102E70000BD1DFF8A80940884FF6FF71884204D1D2
:102E8000DFF898094121817303E0DFF8900961219F
:102E90008173DFF8300703210170DFF828070A216A
:102EA0000171DFF81C070121017003F036F931BD13
:102EB00010B5DFF8FC060078002805D002284CD0B9
:102EC00003D3032854D0C8E0C7E0DFF85C09007AD8
:102ED000DFF85419096840180400207810F0C00089
:102EE00080280BD12078C0F34010C0B2C00705D5B0
:102EF0002078C0F30010C0B2C00709D4DFF8280959
:102F0000006801F080FCDFF8A80600210170A4E051
:102F1000200000F0C6F8DFF8100940894FF6FF7175
:102F200088420ED0DFF8000940894FF6FE718842D2
:102F300007D0DFF8F4084089DFF8F01809888842E4
:102F400006D100F07BF9DFF868060221017003E08A
:102F5000DFF85C0603210170ABE7FEF791FC002867
:102F60007BD1FEF79BFCDFF848060021017074E07E
:102F7000DFF8B408007ADFF8B0180968405C0F2168
:102F8000084213D1DFF89C080078032804D3DFF847
:102F90009808408901F09CFCDFF88C08006801F07B
:102FA00032FCDFF80C060021017056E0DFF87408EF
:102FB0000078032804D3DFF87008408901F088FC0A
:102FC00000F0DFF800281DD0DFF85808007803284B
:102FD00004D3DFF8D805007801F073FCDFF844086B
:102FE0000078032804D3DFF8D805007801F069FCE5
:102FF000DFF83408006801F006FCDFF8B4050021B2
:10300000017029E0DFF8A0058079401CDFF89815F1
:103010008871DFF894058079052803D1DFF88805E9
:1030200000218171DFF880058079DFF87C1511EBD4
:10303000C000DFF8F41709688160DFF86C0580795B
:10304000DFF8641511EBC000DFF8DC17097A0173B3
:10305000DFF85C0500210170FFE710BDDFF85005C7
:103060000078002801D0012000E00020C0B27047A5
:10307000DFF8B407DFF8B817096809680160DFF8FE
:10308000A807DFF8AC17096809790171DFF898071C
:10309000DFF89C17897E0172DFF8140501210170A9
:1030A0007047401C01780902DFF87C279181401CA1
:1030B000DFF87417898902785118DFF86C2791813D
:1030C000401C01780902DFF860275181401CDFF8BD
:1030D0005817498902785118DFF84C275181401C54
:1030E000704770B5DFF8CC04DFF84817416100F095
:1030F0006AF806003068040020783179401A401ED2
:10310000050020780019441EDFF8A8040576641E27
:10311000DFF8A0044069401EDFF898144861DFF82A
:1031200094044069217801706D1EEDB2002DEED13E
:10313000012000F063F8DFF87C044069C0780002E9
:10314000DFF878140880DFF874040088DFF864146E
:10315000496909790818DFF864140880DFF8540415
:1031600040690078401EDFF84C1449690870DFF8A8
:1031700044044069007810F00F00DFF840148874B0
:1031800070BDDFF824148979491C0800C0B20528F5
:1031900001D100210800DFF810144979C0B288423B
:1031A00001D1012000E00020C0B27047DFF8F80331
:1031B0004079DFF8F4138979884201D1012000E0D9
:1031C0000020C0B27047DFF8E0034079DFF8D82371
:1031D0009279904201D100200FE0DFF8CC034079D2
:1031E000401C0100C9B2052901D100200100C9B26B
:1031F000DFF8B40310EBC1000830704710B50400CD
:10320000DFF8A4034079401CDFF89C134871DFF815
:1032100098034079052803D1DFF88C030021417120
:10322000E4B2002C09D0DFF880034079DFF878138E
:1032300011EBC000806801F0E6FA10BDF8B5DFF8C8
:10324000E805007ADFF8E0150968401800F205008B
:103250000600DFF8D40531780174761C01200400E3
:10326000DFF8C405007C412802D042280DD013E1CC
:10327000DFF8B405007A2018401DDFF8AC1548725D
:10328000DFF8A4050021817412E1DFF89C05317894
:103290004174761CDFF890053178C176761CA41C49
:1032A000DFF88405407C00060FD400200700FFB241
:1032B000082F08D2FFB2DFF870053818317801778F
:1032C000761C7F1CF3E7083410E0DFF85C0548F259
:1032D000FE018183DFF850050021C183DFF8480536
:1032E00000210184DFF8400500214184DFF8380522
:1032F000407C400610D400200700FFB2082F09D2FE
:10330000FFB2DFF824053818317880F82410761CD5
:103310007F1CF2E7083408E0DFF80C058289AA4830
:10332000418ADFF81405FFF77AFBDFF8FC04407CE4
:10333000800610D400200700FFB2082F09D2FFB288
:10334000DFF8E4043818317880F82C10761C7F1CE4
:10335000F2E7083410E0DFF8D00448F2FE0181857E
:10336000DFF8C4040021C185DFF8BC040021018618
:10337000DFF8B40400214186DFF8AC04407CC006CD
:1033800010D400200700FFB2082F09D2FFB2DFF8E7
:1033900098043818317880F83410761C7F1CF2E7D6
:1033A000083408E0DFF8800442898748418ADFF862
:1033B0008C04FFF734FBDFF87004407C00071FD457
:1033C000DFF864043178C174761C30780004DFF8CB
:1033D00058144861761CDFF850044069317810EBCE
:1033E0000120DFF844144861761CDFF83C04406992
:1033F00031780818DFF830144861761C241D07E086
:10340000DFF824040021C174DFF81C0400214161AD
:10341000DFF81404407CC0F341000500EDB2002D3C
:1034200006D1DFF8040431788176761C641C16E03E
:10343000EDB2012D04D1DFF8F003112181760EE009
:10344000EDB2022D04D1DFF8E0033A21817606E0E7
:10345000EDB2032D03D1DFF8D00306218176DFF82A
:10346000C803407CC007DFF8C003007A2018401D65
:10347000DFF8B4134872DFF8B00300680078DFF8B3
:10348000A813497A401A401EDFF89C130883DFF81E
:103490009803012181740BE0DFF88C03007A201877
:1034A000401DDFF884134872DFF87C03002181742B
:1034B000F1BD00006E2C002080B53F48007B112834
:1034C00006D13E48C07D50F002003C49C87514E06A
:1034D0003948007B3A2806D13848C07D50F00400B6
:1034E0003649C87509E03448007B062805D13348C1
:1034F000C07D50F006003149C8752F48007900287A
:1035000009D12D488068002805D12C48C07D50F095
:1035100008002A49C8752848807FFF280CD1274811
:10352000C07D50F080002549C8752448C07D50F00A
:1035300040002249C87536E0DFF80403FFF766F95A
:10354000012830D11C48807FFE280FD11A48C07F47
:1035500080280BD11948C07D50F080001749C875EC
:103560001648C07D50F020001449C875124890F8E4
:103570002900FF2809D1104890F82A00FE2804D11C
:103580000D4890F82600800707D50B4890F82600D4
:10359000C0F34000C0B2002805D00848C07D50F0FC
:1035A00010000649C87501BDB02A00206D2C00200E
:1035B0006C2C0020482B00207C2A0020642B00204B
:1035C000782C00201C2C002034270020DFF87412F7
:1035D000C97D002904D1DFF86C1241228A75F3E01D
:1035E000DFF8601242228A75DFF85C12496901F245
:1035F0002801DFF854225161DFF84C12097E283986
:10360000DFF844221176DFF83C12C97DC1F3410195
:10361000C9B200290FD1DFF830124969491E8A4A20
:10362000516189494969894A127B0A708649097E34
:10363000491C854A11768349C97D090730D48249DE
:103640004969491E804A51617F4949697F4A9268A8
:103650000A707D494969491E7B4A51617B498968E5
:10366000090A794A5269117077494969491E764AAF
:10367000516176498968090C11F00F01724A52694B
:10368000117071494969491E6F4A51616E49496912
:103690006E4A12790A706C49097E091D6A4A1176D0
:1036A0006849C97DC90619D400210800C0B208289C
:1036B0000FD265494969491E634A5161C0B241420E
:1036C000624A891891F82D105F4A52691170401CA6
:1036D000ECE75D49097E08315B4A11765949C97D9D
:1036E000890619D400210800C0B208280FD2564913
:1036F0004969491E544A5161C0B24142534A89182E
:1037000091F82510504A52691170401CECE74E495F
:10371000097E08314C4A11764A49C97D490618D4B8
:1037200000210800C0B208280ED247494969491E45
:10373000454A5161C0B24142444A8918497F424AD0
:1037400052691170401CEDE73F49097E08313E4A3D
:1037500011763C49C97D090618D400210800C0B281
:1037600008280ED238494969491E374A5161C0B20A
:103770004142364A8918497D334A52691170401CCA
:10378000EDE73149097E08312F4A11762E49496902
:10379000491E2D4A51612C4949692C4A527B0A70B5
:1037A0002949097E491C284A117627494969491E39
:1037B000254A516124494969224AD27D0A70224929
:1037C000097E491C204A11761F494969491E1E4A33
:1037D00051611D4949691B4A927D0A701A49097E47
:1037E000491C194A11761749104A12880A8215494C
:1037F00080224A751349497D51F02001114A5175C3
:103800001049497D51F010010E4A51750D49497D0D
:1038100051F00A010B4A517570470000C42B00207B
:10382000C62B0020722C0020082A0020182000201F
:103830002C2B002043280020242A0020342A00209A
:103840009A2A0020642B0020482B00207C2A00208C
:1038500010B50400A44806210170A348002141705E
:10386000A14800214160A048A049097E01819E48ED
:103870003A2181729C489E490979C1721022210027
:103880009C4804F0C9F99B499B48FEF7E7FF10BD2F
:1038900070B5040095489949416100200500002059
:1038A0000600ADB2A4B2A5420FD290484069401EB6
:1038B0008E4948618D4840690670F6B2FF2E01D3EB
:1038C000002006006D1C761CEBE788484069401E0E
:1038D00086494861854840690021017083484069F4
:1038E000401E8249486181484069002101707F483B
:1038F0004069401E7D49486100F0EEFB7B49496903
:1039000008707F487949496909788180774840691A
:10391000401E7649486175484069662101707848C3
:10392000808810F5CC407649888070484069401EF8
:103930006E4948616D484069002101706B484069DB
:10394000401E6A4948616948406900210170674822
:103950004069401E65494861644840690021017022
:1039600062484069401E6149486160484069802161
:10397000017014F108005D49087661480021C1809A
:103980005F486049498A018114F130005E4908802E
:1039900070BD5E4A527A5D4B1B68D2181000001D44
:1039A000027812021100401C02785118401C544A3F
:1039B000928889B2914211D1027812021100401C02
:1039C00002785118401C4E4AD28889B2914205D1E2
:1039D0004B4A126852F00202494B1A60704770B4A9
:1039E0004A4D6D7A494E3668AD192C00241D257854
:1039F000667856EA05252800A41C2578667856EADC
:103A000005252900A41C414D2D8A083D2A00374D6B
:103A10003A4E6E6100252B009BB292B2934210D2B7
:103A2000324D6D696D1E314E75619BB25D4292B231
:103A30001619AD1915F8015C2C4E766935705B1CB2
:103A4000EAE72A4D6D696D1E284E7561274D6D6937
:103A50002970264D6D696D1E244E7561234D6D696B
:103A600089B20E0A2E70214D6D696D1E1F4E756153
:103A70001E4D6D6928701D4D6D696D1E1B4E756163
:103A80001A4D6D6980B2060A2E70184D6D696D1E53
:103A9000164E7561154D6D6900262E70134D6D69BA
:103AA0006D1E124E7561114D6D6900262E700F4D01
:103AB0006D696D1E0D4E75610C4D6D6900262E7081
:103AC0000A4D6D696D1E094E7561084D6D6981263F
:103AD0002E7012F10805054E357612F130050A4EAA
:103AE000358070BC70470000C4290020482B00209E
:103AF00078240020E0290020D0290020432800203D
:103B0000F82B0020AC2B0020662C0020442A00203B
:103B100080B5DFF81803DFF818134161DFF80C03F4
:103B20004069401EDFF804134861DFF80003406974
:103B300000210170DFF8F4024069401EDFF8EC124A
:103B40004861DFF8E802406900210170DFF8DC021B
:103B50004069401EDFF8D4124861DFF8D0024069A6
:103B600000210170DFF8C4024069401EDFF8BC127A
:103B70004861DFF8B802406900210170DFF8AC024B
:103B80004069401EDFF8A4124861DFF8A0024069D6
:103B900000210170DFF894024069401EDFF88C12AA
:103BA0004861DFF88802406900210170DFF87C027B
:103BB0004069401EDFF874124861DFF87002406906
:103BC00000210170DFF864024069401EDFF85C12DA
:103BD0004861DFF85802406985210170DFF84C0226
:103BE00008210176DFF84C0206210170DFF844025B
:103BF00000214170DFF83C0200214160DFF834020F
:103C0000DFF82812097E0181DFF828023A2181724B
:103C1000DFF82002FF21C172DFF8180240F2FF2115
:103C20008183DFF810020021C183DFF80802002140
:103C300001848048002141847E48002181847D48A0
:103C40000021C1847B48002101857A484FF400712E
:103C5000418579497948FEF701FE01BD30B5040080
:103C60007248734941617148002101767448754971
:103C70000160734800687449884253D270480068F4
:103C80000078002847D06E480068C07C002842D0E9
:103C900000200500EDB2102D0FD264484069401E8F
:103CA00062494861EDB26842654909684018407C44
:103CB0005E49496908706D1CECE75C484069401E2C
:103CC0005A494861594840695D49096891F820108E
:103CD000017056484069401E544948615348406944
:103CE00057490968897C017050484069401E4F4916
:103CF00048614E484069042101704C484069401EAB
:103D00004A49486149484069032101704748007E9B
:103D10001430464908764A48006800F224004849B1
:103D20000860A6E741484069401E404948613F4855
:103D300040694649097901703C484069401E3B4949
:103D400048613A4840690021017038484069401E86
:103D5000364948613548406900210170334840695F
:103D6000401E3249486131484069002101702F48A6
:103D70004069401E2D4948612C48406986210170E8
:103D80002A48007E401D294908762A4806210170EC
:103D900028480021417027480021416025482349D7
:103DA000097E018123483A2181722248FF21C17294
:103DB000E4B2012C1AD11F4840F2FF2181831D4833
:103DC0000021C1831B48002101841A48002141843D
:103DD00018480021818417480021C184154800211A
:103DE000018514484FF48071418504E01248184958
:103DF000102202F056F80F4848F2FE0181810D486A
:103E00000021C1810B48002101820A480021418222
:103E100008480021818207480021C182054800210D
:103E2000018304480021418330BD0000482B00205D
:103E300043280020C4290020E0290020D0290020A8
:103E4000502C002044280020B02800207824002096
:103E5000582A002080B5DFF87408002101704FF463
:103E6000C06003F0E5FE00F007F800F0C3F800F0D2
:103E700004FC00F096F901BD00B587B001210520D2
:103E800003F092FF01214FF4804003F08DFF2520C5
:103E90008DF8040001208DF8050007208DF806003C
:103EA00001208DF8070001A803F0C7FEDFF8200805
:103EB00000210170DFF81C08002101704FF48060C0
:103EC000ADF8000004208DF8030000A9DFF8080811
:103ED00003F096FF4FF40070ADF8000003208DF85A
:103EE000020018208DF8030000A9DFF8EC0703F0AA
:103EF00087FF5FF4E13002900020ADF80C00002055
:103F0000ADF80E000020ADF810000020ADF8140050
:103F10000C20ADF8120002A9DFF8C00704F056F833
:103F2000012240F22551DFF8B40704F0CFF8012157
:103F3000DFF8A80704F0BCF807B000BD10B5040016
:103F400064B2210089B2DFF8940704F0EAF8402156
:103F5000DFF8880704F0EDF80028F8D010BD10B5A0
:103F6000040064B2210089B2DFF8700704F0D9F8C8
:103F70004021DFF8680704F0DCF80028F8D010BD15
:103F8000DFF84C0700780100DFF848070078C9B275
:103F90008842F5D0DFF83C070078401CDFF8342772
:103FA0001070DFF830070078962803D1DFF8240777
:103FB00000220270DFF81C070078DFF82427805CFD
:103FC0007047DFF80C1709780800DFF80817097840
:103FD000C0B2814201D0012000E00020C0B2704791
:103FE000D2B2002A05D00B780370401C491C521E27
:103FF000F6E7704710B588B04FF4A06003F05CFEA0
:104000000121012003F0DFFE1C208DF800000020BC
:104010008DF8010000208DF8020001208DF80300CA
:1040200000A803F00AFEDFF8BC060068C000DFF855
:10403000B816B0FBF1F0401E04004FF6FF70ADF86B
:1040400008000020ADF804000020ADF80A000020B0
:10405000ADF8060001A95FF0804004F0C9F8012224
:10406000210089B25FF0804004F072F90020ADF8C1
:1040700010000120ADF812004FF22440ADF81600F8
:104080000020ADF8180004A95FF0804004F0FAF8B1
:1040900000215FF0804004F05EF9012203215FF00F
:1040A000804004F04AF9DFF8440600210170012144
:1040B0005FF0804004F033F908B010BD10B55FF038
:1040C000804004F055F90400DFF82006007814EB76
:1040D00000442002000A10BD80B55FF0804004F06B
:1040E00047F9C0B202BD38B504000D00E4B2022C9D
:1040F00001D0012027E0EDB2042D01D3012022E000
:10410000032300221F21022004F094FA012004F06E
:1041100034FA10F00F00082806D0032300221F21D4
:10412000022004F087FAF1E7EDB2680010F10B010C
:10413000C9B2132004F040FA0421142004F03CFA20
:1041400004F0C0FB002032BD10B504002100C9B24C
:104150000220FFF7C8FF10BD00210170102141703F
:10416000202181703021C1704021017150214171A5
:10417000002181710021C17170470021017000216F
:104180004170502181704021C17030210171202186
:104190004171102181710021C171704770477047D2
:1041A000704780B504F029F904F04EF904F075F970
:1041B00004F09FFA04F0A6F901BDF8B504000D0063
:1041C000160004F096FA2900C9B22000C0B2FFF729
:1041D0008AFF0700FFB2002F02D03800C0B20BE008
:1041E00004F070FBDFF8080503210170DFF8DC0440
:1041F0000660FFF7D3FF0020F2BD2DE9F843002051
:10420000040000200500E4B2002C23D02600012089
:104210008046F6B2002E03D05FEA4808761EF8E723
:10422000FFF75AFF4146491E08400700002080461C
:10423000FFB2002F03D018F114087F1EF8E7FFF734
:104240003DFF8146FFF73AFFB0EB09000002000A8C
:104250004045F7D304F082FB002801D001200AE09A
:104260006D1C641CE4B2062C01D305200400EDB2E1
:10427000052DC8D30020BDE8F283F8B504000D0079
:1042800000262700DFF870040078032803D32000FD
:10429000C0B200F016FBE4B2802C01D3042037E05A
:1042A00004F038FB012004F068F910F00F00092831
:1042B00006D0092300221F21022004F0BBF9F1E7F8
:1042C000FFF79BFF00281AD004F024FB2900B81C3C
:1042D000C0B204F0ECF9022300221F21022004F0F6
:1042E000A9F9012004F049F910F00F000928F8D1CC
:1042F00003F0CFF902F095FA0020060001E0072054
:104300000600002000F0CCF904F0DCFA3000C0B266
:10431000F2BD2DE9F04F83B0040000255FF00009E5
:10432000002604F0AFF980465FFA88F8B8F1800FF4
:1043300080F0B380E4B2FF2C08D0E4B2C92C05D0E1
:10434000E4B28F2C02D0E4B2192C10D100208246A6
:104350005FFA8AFA5FFA88F818F10200824505DAF6
:10436000FF2004F04BFB1AF1010AF1E795E0DFF8BA
:104370008C030088401CDFF884130880012000F0C3
:104380008FF902F08EFA00280AD15FFA88F818F146
:10439000030080B200F0E0F90600002E02D100E038
:1043A0007BE07AE0B14689F8008019F1010900202C
:1043B00082465FFA8AFA5FFA88F818F102008245AD
:1043C00009DAFF2004F01AFB89F8000019F101094D
:1043D0001AF1010AEDE71021DFF8FC0203F0C6FD37
:1043E0005FFA88F8B8F1000F53D04546EDB2052DBD
:1043F0002BD18DF80050012082465FFA8AFAEDB287
:10440000681C82450BDA5FFA8AFA1AF806005FFA2E
:104410008AFA00A90AF801001AF1010AEDE79DF8ED
:10442000040007009DF8010010F00300022830D1BD
:104430005FFA88F818EB060040788DF804009DF8C4
:10444000041000A802F0EEF923E070788DF8000067
:10445000B0788DF801009DF80100C0B280098DF898
:1044600003009DF80100C0F381008DF802009DF863
:104470000300002803D19DF80200002809D002F0B3
:1044800010FA834603F004F919F8011C300002F019
:10449000C9F904F09AFB04F099FBBDE8F78FFEB56B
:1044A00000208DF80000002404F0A4FB3B2004F061
:1044B000EAFB07003E003B2004F0E5FB0700F6B2F4
:1044C000FFB2BE42F6D1F6B2002E00F0A28001216A
:1044D00000A804F002FCF6B29DF80000C01C864261
:1044E00040F097809DF80000802880F092809DF831
:1044F0000000801C8DF800009DF80000052823D1E5
:104500009DF800008DF8040004210DF1050004F071
:10451000E4FB01210DF1010004F0DFFB9DF8010037
:10452000000676D59DF8050010F00300022870D132
:104530009DF8080000F081F88DF808009DF808103B
:1045400001A802F06FF964E0012101A804F0C5FBA5
:1045500001210DF1050004F0C0FB5C48007810F06B
:104560000100C0B2002813D19DF80500C0B2800937
:104570008DF807009DF80500C0F381008DF8060056
:104580009DF80700002803D19DF80600002840D0C0
:1045900002F087F9002807D19DF80000401C80B286
:1045A00000F0DAF805002C00002C32D09DF8000055
:1045B0002070641C9DF804002070641C9DF80000AD
:1045C000401E8DF800009DF805002070641C9DF8C9
:1045D0000000401E8DF800009DF80010200004F03F
:1045E0007CFB9DF80000041914F8010C00060DD5A1
:1045F00014F8020C00F021F804F8020C03F048F85B
:1046000014F8021C280002F00DF902E0280000F066
:10461000FAF8362004F01BFB3D2004F018FBF021D3
:104620000842F9D13A2004F012FB342004F00FFBC9
:1046300004F0CBFA04F0CAFAF7BD0100C9B2802930
:1046400009D3C9B2B1F5807212B2022392FBF3F220
:104650004A3A100005E0C9B2022291FBF2F24A3A4E
:1046600010007FF07F0200B2904202DA7FF07F02FA
:10467000100040B270470020704780B50121102023
:1046800003F092FB3020ADF8000010208DF80300FD
:1046900003208DF8020000A9164803F0B1FB01BD0C
:1046A000C0B2002802D0012807D00DE014490968E3
:1046B00091F01001124A116006E01149096891F069
:1046C00020010F4A1160FFE770470000482C0020CE
:1046D000742C0020752C0020000801400038014097
:1046E0009C2600201400002040420F00732C002064
:1046F000762C002000100140722C0020642C002039
:104700000C10014001000A78100080B24A7810EBCA
:1047100002204004400C80B270470170401C0278B7
:1047200012F080020270027889B20B0A9A180270A5
:10473000704780B54FF400520021574801F0F8FB54
:104740005548407850F080005349487041F6FE715A
:104750005148FFF7E2FF01BD2DE9F0410400A4B28A
:10476000002C01D100204CE0A4B2122C01D2122066
:10477000040049480500002007006878000610D5AD
:104780002800FFF7BFFFA4B2A0420AD32800FFF71A
:10479000B9FF001B80461FFA88F8B8F1120F18D233
:1047A00011E0BFB22800FFF7ADFFC019801C070061
:1047B000BFB2B7F5005F01D3002022E0BFB2364898
:1047C00038180500D9E7687810F07F006870A81CD9
:1047D00017E0210089B22800FFF79FFFA4B26019FB
:1047E000801C0600707850F080007070B8F10201F3
:1047F00089B23000FFF791FF687810F07F00687091
:10480000A81CBDE8F0812DE9F0410400002C40D047
:10481000A01E0500687850F0800068700020060037
:104820001D4805006878000623D5B6B22800FFF7BA
:1048300069FF8019801C0700BFB2B7F5005F28D25E
:10484000BFB21548381804006078000611D528005A
:10485000FFF758FF80462000FFF754FF1FFA88F843
:1048600080B210EB0800811C89B22800FFF755FFC9
:10487000D8E7B6B22800FFF745FF8019801C060074
:10488000B6B2B6F5005F04D2B6B2034830180500E0
:10489000C8E7BDE8F08100001800002010B5040052
:1048A000207800280AD020780A2802D10D20FFF7AE
:1048B00045FB2078FFF742FB641CF1E710BD704711
:1048C000704710B504002000C0B2FFF7F8FF10BD1C
:1048D00038B50400A4B2200A05002800C0B2FFF7D2
:1048E000EEFF200005002800C0B2FFF7E8FF31BD51
:1048F00038B50400200E05002800C0B2FFF7DFFF26
:10490000200C05002800C0B2FFF7D9FF200A0500DF
:104910002800C0B2FFF7D3FF200005002800C0B276
:10492000FFF7CDFF31BD38B5040000200500EDB222
:10493000082D05D2EDB2285DFFF7C1FF6D1CF6E72B
:1049400031BD38B5040025002800FFF7ECFF31BD6C
:1049500038B5040000200500EDB2102D05D2EDB2EF
:10496000285DFFF7ACFF6D1CF6E731BD38B50400DC
:1049700000200500EDB2102D0AD2EDB2285DFFF740
:104980009EFFEDB228194078FFF799FFAD1CF1E7C3
:1049900031BD70B504000D002600EDB2002D03D12D
:1049A0003000FFF7D5FF02E03000FFF7DFFF70BDFA
:1049B00000B583B0FFF784FF00A8FFF7CDFB00A888
:1049C000FFF7B1FFFFF77CFF41F24730FFF790FFA1
:1049D0000120FFF776FFFFF773FFFFF771FF07BDB9
:1049E00080B5DFF89C0C00210170DFF89C0C0021E1
:1049F0000170DFF8980C00218176DFF8900C00211F
:104A0000C176DFF8880C00210177DFF8800C0021E7
:104A10000173DFF8780C00214173DFF8700C00217E
:104A20008173DFF8680C00210180DFF8600C43F22D
:104A300070010161DFF8540C0A218182DFF84C0C0F
:104A400003210176DFF8440C0021017102F016FE0B
:104A500001F0ACFAFEF72EF8FCF702F904F08CF93D
:104A600001BD2DE9FF4F81B00E9C0F9D109E119F3F
:104A7000DDF84880DDF84C90DDF850B0DDF854A04A
:104A8000DFF8FC0B0078002802D000F061F9F7E7AE
:104A9000DFF8F00B12210170DFF8F40B0021017038
:104AA000DFF8EC0B80F83870DFF8E40B80F848A0F2
:104AB000DFF8DC0BC0F844B0DFF8D40B80F83A80A4
:104AC000DFF8CC0BDFF8C41B897B80F83B10DFF8E4
:104AD000BC0B807B401CDFF8B41B8873DFF8B00B85
:104AE0000572DFF8AC0B0486DFF8A80B01A91022D1
:104AF00001F0D7F9DFF8980B4686DFF8940B002118
:104B00008171DFF88C0B807950F02000DFF8801B7A
:104B10008871DFF87C0B006840084000DFF8701BEC
:104B200008605FFA89F9B9F1000F07D0DFF8600B70
:104B3000807950F01000DFF8581B887105B0BDE88F
:104B4000F08F2DE9FF4F81B00E9C0F9D109E119F9D
:104B5000DDF84880DDF84C90DDF850B0DDF854A069
:104B6000DFF81C0B0078002802D000F0F1F8F7E71E
:104B7000DFF8100B12210170DFF8140B0021017017
:104B8000DFF80C0B80F83870DFF8040B80F848A0D1
:104B9000DFF8FC0AC0F844B0DFF8F40A80F83A8085
:104BA000DFF8EC0ADFF8E41A897B80F83B10DFF8C5
:104BB000DC0A807B401CDFF8D41A8873DFF8D00A47
:104BC0000572DFF8CC0A0486DFF8C80A01A91022B2
:104BD00001F067F9DFF8B80A4686DFF8B40A002169
:104BE0008171DFF8AC0A807950F04000DFF8A01A3C
:104BF0008871DFF89C0A006840084000DFF8901ACE
:104C000008605FFA89F9B9F1000F07D0DFF8800A70
:104C1000807950F01000DFF8781A887105B0BDE88F
:104C2000F08F2DE9FF4F81B0109C119D129E139FB4
:104C3000DDF850B0DDF85480DDF85890DDF85CA068
:104C4000DFF83C0A0078002802D000F081F8F7E78E
:104C5000DFF8300A12210170DFF8340A00210170F8
:104C6000DFF82C0A80F83850DFF8240A80F84880F2
:104C7000DFF81C0AC0F844B0DFF8140A80F83A6084
:104C8000DFF80C0ADFF8041A897B80F83B10DFF8A4
:104C9000FC09807B401CDFF8F4198873DFF8F00909
:104CA0009DF83C100172DFF8E809BDF83810018664
:104CB000DFF8E00901A9102201F0F3F8DFF8D009CC
:104CC0004486DFF8CC0900218171DFF8C409DFF8E0
:104CD000C01989798171DFF8B80980795AEA000032
:104CE000DFF8AC1988715FFA89F9B9F1010F07D1C2
:104CF000DFF89C09807950F00400DFF8941988717E
:104D0000FFB2002F07D0DFF88809807950F010003B
:104D1000DFF87C1988715FFA89F9B9F1000F0CD1BD
:104D20005FFA8AFABAF1000F07D0DFF86409006869
:104D300050F00400DFF858190860DFF854090068E3
:104D400040084000DFF84819086005B0BDE8F08F62
:104D500000B585B0FBF794FFDFF830090068C0F3B9
:104D6000C000C00701D500F0E7FF00F095FCDFF8B8
:104D70001009007800281BD0012800F0DD800228EF
:104D800000F0BE81032800F05182042800F07F82E9
:104D9000052800F0B082092800F07C810A2800F084
:104DA000D3810B2800F0F6810C2800F01982B0E2C4
:104DB000DFF8D8080068C0F38000C00704D5DFF82A
:104DC000C00809210170D2E7DFF8800C007810F0EC
:104DD0000100C0B2002800F0AE80DFF8700C00794E
:104DE000012805D0C0F09F8003286ED03FD39AE001
:104DF000DFF85C0C90F82E0010F00300012809D1B8
:104E000004F01DF9002804D0DFF874080A210170AD
:104E1000ADE723E0DFF8380C90F82E0010F0030027
:104E2000022809D104F015F9002804D0DFF8500851
:104E30000B2101709BE711E0DFF8140C90F82E00B5
:104E400010F00300032809D104F00DF9002804D064
:104E5000DFF82C080C21017089E7FFE7DFF8EC0B85
:104E6000006840084000DFF8E41B086063E0DFF8FA
:104E7000140DC068C0F34000C00725D4DFF8040D4E
:104E8000C06850F00200DFF8FC1CC86000A8DFF822
:104E9000F81C102200F0F8FF00A80FC804F047F833
:104EA000DFF8A80B006840084000DFF8A01B08608E
:104EB000DFF8D00C00210176002000F02CFADFF89A
:104EC000C0070221017052E735E0DFF8B80CC06876
:104ED000C0F34000C00725D4DFF8A80CC06850F02C
:104EE0000200DFF8A01CC86000A8DFF89C1C10229C
:104EF00000F0CAFF00A80FC804F059F8DFF84C0B07
:104F0000006840084000DFF8441B0860DFF8740CBC
:104F100000210176002000F0FEF9DFF8640702218D
:104F2000017024E707E0DFF8240B00684008400028
:104F3000DFF8181B0860ECE1DFF84807007812285A
:104F400006D0C0F0A680142856D0C0F08E80A0E015
:104F5000DFF83807006830F01000DFF8301708601D
:104F6000DFF82C07007810F00100C0B2002804D050
:104F7000DFF80C070E210170F9E6DFF8080CC068B5
:104F8000C0F34000C00736D4DFF8F80BC06850F01B
:104F90000200DFF8F01BC860DFF8E80B00210176A3
:104FA000012000F0B8F9DFF8E406006850F01000C6
:104FB000DFF8D8160860DFF8D8060068C0F3800074
:104FC000C00714D5DFF8C406006830F02000DFF811
:104FD000BC160860DFF8B406006850F04000DFF847
:104FE000AC160860DFF898060321017003E0DFF8D3
:104FF0009006022101704CE0DFF8880BC068C0F316
:105000004000C00730D4DFF87C0BC06850F00200CD
:10501000DFF8701BC860DFF86C068078642802D067
:1050200065280BD015E000A8DFF8841C102200F0E2
:1050300038FF00A80FC803F07AFF0AE000A8DFF8E5
:10504000701C102200F02DFF00A80FC803F0AFFF66
:10505000FFE7DFF8300B00210176002000F05BF95C
:10506000DFF81C060221017013E0DFF8C00C0078A5
:1050700000280ED1DFF8B80C13210175DFF8AC0C55
:1050800001210170FBF7FCFDDFF8F405052101703B
:10509000FFE73EE1DFF8EC0AC068C0F34000C0075C
:1050A00000F13781DFF8DC0AC06850F00200DFF859
:1050B000D41AC86000F000FEDFF8C80A00210176AB
:1050C000DFF8CC05006850F00200DFF8C415086076
:1050D000012000F020F9DFF8B805006830F0020088
:1050E000DFF8AC150860DFF8A405006830F00400B4
:1050F000DFF898150860DFF888050221017008E1E3
:10510000DFF888050068C0F3C000C00700F1018126
:10511000DFF87005DFF81C1C09788175DFF8640A78
:10512000C06830F00200DFF85C1AC860DFF8500594
:1051300000210170DFF85405007810F00100C0B2C2
:1051400000287FF414AEE4E0DFF8380AC068C0F34A
:105150004000C00700F1DD80DFF8280AC06850F089
:105160000200DFF8201AC86003F0AAFFDFF8DC08AD
:10517000006840084000DFF8D4180860DFF8040A2F
:1051800000210176002000F0C6F8DFF8F4040221C7
:105190000170BEE0DFF8EC09C068C0F34000C00752
:1051A00000F1B780DFF8DC09C06850F00200DFF8DA
:1051B000D419C86003F0A1FFDFF890080068400828
:1051C0004000DFF888180860DFF8B8090021017690
:1051D000002000F0A0F8DFF8A8040221017098E098
:1051E000DFF8A009C068C0F34000C00700F191805B
:1051F000DFF89009C06850F00200DFF88819C86035
:1052000003F07FFFDFF84408006840084000DFF843
:105210003C180860DFF86C0900210176002000F0DE
:105220007AF8DFF85C040221017072E0DFF85C04B8
:105230000068C0F3C000C0076BD4DFF84809C0683D
:1052400030F00200DFF83C19C860DFF8E80A0078A7
:10525000002812D0DFF82C04DFF8D81A09788175FD
:10526000DFF82804006830F04000DFF82014086000
:10527000DFF80C04002101704BE0FEF71FFFDFF8A0
:10528000AC1B0860DFF8F8030421017041E0DFF88F
:10529000FC030068C0F34010C00710D5DFF8E4033A
:1052A00000218175DFF8E403006830F04000DFF88A
:1052B000DC130860DFF8C803002101701AE0FEF774
:1052C000FDFEDFF8681B0968401A0002000ADFF8DB
:1052D000601B88420ED3DFF8AC031D218175DFF817
:1052E000AC03006830F04000DFF8A0130860E44829
:1052F000002101700DE0DFF8340A0078002808D1A1
:10530000E048DFF82C1A097D8175DD480021017025
:10531000FFE705B000BD38B50400DFF86808007E7F
:10532000002840F09981E4B2002C2BD0DFF854081B
:10533000DFF8001B4161D64890F84800D449496C19
:1053400040180500DFF83C08D14991F84810017673
:10535000DFF83008007E002820D06D1EDFF824081A
:105360004069401EDFF81C184861DFF81808007E0D
:10537000401EDFF810180876DFF808084069297821
:105380000170E5E7C24890F848004042DFF8A81AEB
:10539000401800F27F00DFF8EC174861DFF8E407FF
:1053A000BB4991F848100176DFF8D8074069401EE4
:1053B000DFF8D0174861DFF8CC074069B44991F8AD
:1053C00038100170DFF8BC07007E401CDFF8B4170E
:1053D0000876DFF8B0074069401EDFF8A81748617B
:1053E000DFF8A0074069AA49097A0170DFF894073D
:1053F000007E401CDFF88C170876DFF888074069CC
:10540000401EDFF880174861DFF878074069A0493F
:1054100091F83A100170DFF86C07007E401CDFF84D
:1054200064170876DFF85C074069401EDFF8541700
:105430004861DFF850074069954991F83B100170C9
:10544000DFF84007007E401CDFF838170876DFF8E9
:1054500034074069401EDFF82C174861DFF8240745
:1054600040698B4989790170DFF81807007E401C7C
:10547000DFF810170876DFF80C074069401EDFF8E8
:1054800004174861DFF8FC06406900210170DFF86D
:10549000F4064069401EDFF8EC164861DFF8E406C8
:1054A000406900210170DFF8DC06007E801CDFF817
:1054B000D4160876DFF8CC064069401EDFF8C41623
:1054C0004861DFF8C006007E801DDFF8B816496924
:1054D0000870DFF8B0064069401EDFF8A816486182
:1054E000DFF8A006007E801D80B2000ADFF8941667
:1054F00049690870DFF88C06007E801CDFF884168E
:105500000876DFF880064069401EDFF878164861AB
:10551000DFF8700640695E49098E0170DFF86406A5
:105520004069401EDFF85C1648615948008E80B221
:10553000000ADFF8501649690870DFF84806007E57
:10554000801CDFF840160876DFF838064069401EF8
:10555000DFF830164861DFF82C0640694C49498E67
:105560000170DFF820064069401EDFF81816486118
:105570004748408E80B2000ADFF808164969087073
:10558000DFF80006007E801CDFF8F815087640483A
:10559000007810F00100C0B200285DD1DFF89C084F
:1055A00006210170DFF8940800214170DFF88C08B3
:1055B00000214160DFF88408DFF8C815097E018109
:1055C000DFF8780811218172DFF87008DFF87018B1
:1055D0000979C172DFF86C082E49102200F061FCD5
:1055E000DFF86018DFF86008FDF738F9DFF84007EA
:1055F0000C21017026488079C0060ED5234800682A
:1056000050F0020021490860FEF758FD1F498860EC
:105610001E481E49898AC18205E01C48006830F096
:1056200002001A4908601948006850F0080017493C
:10563000086016481549097E4176DFF8F8061921F9
:1056400001701348DFF83C15097E80F83C101048C3
:10565000DFF83015496901640D48007810F0010049
:10566000C0B2002809D1DFF8C80613210175DFF8A0
:10567000BC0601210170FBF703FB31BD00000000F7
:105680006F2C00207C2B0020702C0020B4250020E3
:10569000782900208829002070B5B2B0DFF8AC0767
:1056A000007800280BD001280AD0032800F0DA8007
:1056B000042800F0E880052800F0C78094E193E119
:1056C000DFF88C03007ADFF888130968401800F0CF
:1056D0009AFADFF87C0390F82E00C0B24009032844
:1056E0001CD1DFF86C070068C0F34000C0070CD580
:1056F00000F07CF9002808D0DFF85407006830F08B
:105700000200DFF84C170860FFE7D1480068FFF798
:105710007AF8DFF838070021017065E1CC4890F88D
:105720002E00C0B2400900282DD1C94890F82E00A3
:10573000C0F38000C0B2002825D0DFF8140700684D
:10574000C0F38010C00715D500F073F9002808D009
:10575000DFF8FC06006850F02000DFF8F41608605F
:1057600011E0BB480068FFF74EF8DFF8E0060021C3
:10577000017039E1B6480068FFF745F8DFF8CC065C
:105780000021017030E1DFF8CC06407A012806D113
:1057900000F060F9DFF8B406042101707EE7AC4840
:1057A000808BDFF8B416081800282DD1A84890F88F
:1057B0002E00C0B24009012806D0A54890F82E005E
:1057C000C0B24009022803D103F0FDFA06001AE036
:1057D0009F4890F82E00C0B24009002813D19C4881
:1057E00090F82E0040070DD4984801210171974888
:1057F000006850F0010095490860DFF85006032169
:105800000170F1E0FFE702E003F0B8F9060090480C
:105810000068FEF7F8FF8E4890F82E00C0060FD5FE
:10582000F6B2002E0CD1DFF82806006850F0040014
:10583000DFF81C160860DFF8140605210170D3E0BC
:10584000DFF8080600210170CEE0DFF804060068EA
:10585000C0F38000C00700F1C780DFF8F005002129
:105860000170C1E07948007810F00100C0B2002852
:1058700040F0BA8076480068FEF7C5FFDFF8CC0537
:1058800000210170B0E0DFF8CC054068C0F34000B3
:10589000C00700F1A980DFF8BC05406850F00200A5
:1058A000DFF8B015486000200400212C06DA12A8A9
:1058B000DFF8A815615C2154641CF6E7644890F891
:1058C0006000152810D362480068FEF79CFFDFF8DF
:1058D0007C0500210170DFF87C05406830F0020093
:1058E000DFF8701548607FE000200500584890F808
:1058F0006000854207DA5648C06D285C12A96054E2
:10590000641C6D1CF2E712A800212154FE208DF8C2
:10591000280080208DF8290000208DF82A00002022
:105920008DF82B0000208DF82C0000208DF82D0024
:1059300000208DF82E0000208DF82F0000208DF81B
:10594000300000208DF8310000208DF8320000205A
:105950008DF83300AC208DF8340016208DF835001A
:105960008C208DF8360060208DF83700652C10DB18
:1059700037480068FEF747FFDFF8D00400210170C8
:10598000DFF8D004406830F00200DFF8C814486047
:105990002AE0112009902000C0B2089012A80790B8
:1059A0004FF2B30006904FF2B40005900AA801AA86
:1059B0000AC80AC20AC80AC21038103A0EA883B030
:1059C00069460CC80CC10CC80CC1103810390EBC8B
:1059D0008220FAF78BFB1E480068FEF714FFDFF801
:1059E0006C0400210170FFE732B070BD184890F8D8
:1059F0002B00B049097A884219D1154890F829003E
:105A0000AC4991F83810884211D1114890F82C0017
:105A1000A84991F83A10884209D10D4890F82D0014
:105A2000A44991F83B10884201D1012000E00020F8
:105A30007047074890F82C009E4991F83A10884228
:105A400001D1012000E0002070470000942B0020CD
:105A5000B0280020DFF80414A1220A70DFF8FC133C
:105A6000A2224A70DFF8F41300228A70DFF8F013E4
:105A7000898BDFF8E4235118002904D1DFF8DC1307
:105A80000122CA7003E0DFF8D4130222CA70DFF8E3
:105A9000D01391F82E10C9B24909DFF8C023117153
:105AA00000210800C0B210280BD2C0B2DFF8AC133E
:105AB0004118C0B2DFF8A8238218127B4A71401C3B
:105AC000F0E7DFF89C13C98B89B2090ADFF88C2351
:105AD0005175DFF88813DFF88823D28B8A75DFF8D9
