:020000040000FA
:060000000200FC023EA913
:03001300023DD8D3
:03005300023E2842
:10008300023EE100000080FB12010BB900030200F5
:10009300F6E490E1FF7856790D8002F0A3D8FCD9FD
:1000A300FA90EE54AA82AB83907B7A7859790180D7
:1000B30015E493A3AC82AD838A828B83F0A3AA82D7
:1000C300AB838C828D83D8E9D9E790E1FFAA82AB19
:1000D30083907B7A780179018015E493A3AC82AD98
:1000E300838A828B83F0A3AA82AB838C828D83D88D
:1000F300E9D9E71273A112008675D0007581C07526
:1001030010FF7511E102008B790122181818E066BF
:10011300701008A3E066700A08A3E066700408A3E1
:10012300E06622181818C3E7960809E7960809E756
:10013300960809E79622181818C3E09608A3E096D4
:1001430008A3E09608A3E09622080808EAC0E0EBBB
:10015300C0E086F0E7A4FA180986F0E7A42AFA18A3
:100163000986F0E7A42AFA180986F0E7A42AFA19FF
:1001730086F0E7A4FBE5F02AFA190886F0E7A42B3A
:10018300FBE5F03AFA190886F0E7A42BFBE5F03A11
:10019300FA18180986F0E7A4C5F02BFBE43AFA191C
:1001A30008E7C5F0C6A426F6E5F03BFBE43AFA18E7
:1001B30086F0E7A4F6E5F00826F6E43B08F6E43A11
:1001C30008F6D0E0FBD0E0FA22E4CFC0E0E4CEC0F2
:1001D300E0E4CDC0E0E4CCC0E075F020C3E633F644
:1001E30008E633F608E633F608E633F6181818EC93
:1001F30033FCED33FDEE33FEEF33FFC3EC9709ED34
:100203009709EE9709EF97191919400FFFEC97FC1F
:1002130009ED97FD09EE97FE191906D5F0BEECF727
:1002230009EDF709EEF709EFF7191919D0E0FCD03A
:10023300E0FDD0E0FED0E0FF22700918181822601C
:1002430017080808C6A2E713C618C613C618C613AC
:10025300C618C613C6D5E0E922700918181822601B
:1002630016080808C6C313C618C613C618C613C68D
:1002730018C613C6D5E0EA227009080808226016DA
:10028300181818C6C333C608C633C608C633C6080B
:10029300C633C6D5E0EA22181818E627F60809E699
:1002A30037F60809E637F60809E637F6221818186C
:1002B300E026F608A3E036F608A3E036F608A3E046
:1002C30036F622181818E026F008A3E036F008A343
:1002D300E036F008A3E036F022181818C3E697F6C4
:1002E3000809E697F60809E697F60809E697F6225D
:1002F300181818C3E0C696F608A3E0C696F608A336
:10030300E0C696F608A3E0C696F622181818E0563B
:10031300F608A3E056F608A3E056F608A3E056F65F
:1003230022181818E647F60809E647F60809E647CB
:10033300F60809E647F622E0F608A3E0F608A3E08C
:10034300F608A3E0F622E58224FDF5824002158338
:10035300181818E6F008A3E6F008A3E6F008A3E6E9
:10036300F022CAC0E0E6F0A308DAFAD0E0FA22CA23
:10037300C0E0E0A3C582CCC582C583CDC583F0A30D
:10038300C582CCC582C583CDC583DAE6D0E0CA2257
:1003930070051822600D08C6A2E713C618C613C657
:1003A300D5E0F322700422600D18C6C333C608C615
:1003B30033C6D5E0F418222510C0A8C2AF400215F9
:1003C30011F510D0A822C0D02510C0A8C2AF50028A
:1003D3000511F510D0A8D0D0222510F582C0A8C2EF
:1003E300AF40021511F510D0A8851183222510F511
:1003F30082E43511F583222510C582C0E0E511346E
:10040300FFC583C0E0E510C3958224F9C0A8C2AF3D
:10041300858311858210D0A8CEF0A3E520F0A378C0
:1004230008E608F0A3DEFAEFF0A3E58124FBF8E683
:1004330008F0A3E608F0A30808E608F0A3E608F02E
:10044300A315811581D0E0FED0E0F815811581E870
:10045300C0E0EEC0E022851183851082E0A3FEE0B8
:10046300A3F5207808E0A3F608DFFAE0A3FFE0A3F2
:10047300C0E0E0A3C0E0E0A3C0E0E0A3C0E085A843
:10048300F0C2AF85821085831185F0A8D083D08216
:1004930022C0D02510C582C0E0E51134FFC583C05A
:1004A300E0E510C3958224F3C0A8C2AF858311850C
:1004B3008210D0A8C8F0A3E9F0A3EAF0A3EBF0A35D
:1004C3007908E709F0A3D8FAECF0A3EDF0A3EEF076
:1004D300A3EFF0A3D0E0F0A3D0E0F0A3D0E0F0A32B
:1004E300E520F0A3E5F0F0A322851183851082E0D7
:1004F300C0E0A3E0F9A3E0FAA3E0FBA37808E0F6E9
:1005030008A3DFFAE0FCA3E0FDA3E0FEA3E0FFA362
:10051300E0C0E0A3E0C0E0A3E0F5D0A3E0F520A3B2
:10052300E0A3F5F0E5A8C2AF858210858311F5A895
:10053300D082D083D0E0F8D0E0327404800A740310
:100543008006740280027401C0E0F4041203DCD05C
:10055300E0120365227404800A7403800674028027
:10056300027401CCC0E0EDC0E0E510C39CCCAD113A
:1005730050011DC0A8C2AF8C108D11D0A8120372F8
:10058300D0E0FDD0E0FC22D083D082C5F0E493A379
:10059300C5F0C395F0F5F0E493A3C395F04005E5EA
:1005A300F0048001E475F002A42582F582E5F035BC
:1005B30083F583E493A3C0E0E493C0E022D083D027
:1005C30082CCC0E0E493A360061205EA1470FAE457
:1005D30093A360061206091470FAD0E0FCE493A317
:1005E300C0E0E493C0E022C0E0E493A3D39C5010A6
:1005F300E493A3C39C400AD0E0D0E0D0E00205DD41
:10060300A3A3A3D0E022C0E0E493A36C7009D0E0DD
:10061300D0E0D0E00205DDA3A3D0E022C082C083F6
:10062300740090E261F0740090E262F0740090E272
:1006330064F0740090E229F0740090E1FFF0D0833D
:10064300D0822274F11203FA124892120ADF801246
:1006530090E47CE054FFF0A3E054F7F0740690E2DA
:1006630029F090E229E012058A010CAD088A06E21E
:1006730006AD083D07AD08FC06230764078B07B0EA
:10068300075E086D08900890E200E012058A0902EF
:10069300E2069B06E206BC06740090E27CF090E260
:1006A30064E06401600312125F12132979001208D7
:1006B300B2740290E229F0802690E208E07091740F
:1006C3000490E229F0126FF612474F1247C5E990E2
:1006D300E228F090E228E06089740090E229F0902B
:1006E300E4B6E060030208AD90E4B5E090E228F0E0
:1006F300740090E229F00208AD90E4B6E0600302D2
:1007030008AD740790E4B2F0740790E229F0740A1C
:1007130090E4B5F0740190E4B6F01248920208AD8B
:1007230090E4B6E060030208AD90E4B5E090E228FF
:10073300F0740090E229F00208AD90E47CE054FEEE
:10074300F0A3E054FFF0741490E4B3F0740390E268
:1007530069F074FF90E49AF0740890E229F00206BD
:100763006590E4B6E060030208AD740690E4B2F06D
:10077300740990E229F0740A90E4B5F0740190E4EE
:10078300B6F01248920208AD90E4B6E060030208A6
:10079300AD1239DE8A088B098C0A8D0B90E26578DD
:1007A30008120356740A90E229F00208AD90E47C23
:1007B300E05400F8A3E05401F97400687003740076
:1007C30069600F90E47CE054FFF0A3E054FEF00274
:1007D30008AD1239DE8A088B098C0A8D0B90E2650D
:1007E30078081202F690EE54780812031190EE582E
:1007F300780C12033A780C79081201295003020885
:10080300AD90E269E0600790E269E024FFF090E2D6
:1008130069E06009740890E229F002066590E49AA1
:10082300E064FF6010740C90E229F090E4B3E09070
:10083300E4B3F0800C741090E228F0740090E22985
:10084300F090E47CE054FFF0A3E054FEF090E47CED
:10085300E054FFF0A3E054FDF0804F741490E4B330
:10086300F0740C90E229F002066590E4B6E0703A69
:10087300740590E4B2F0740D90E229F0740A90E4E8
:10088300B5F0740190E4B6F0124892801D90E4B67E
:10089300E0701790E4B5E090E228F090E228E07071
:1008A30003122D36740090E229F07F08020459C028
:1008B30082C08390E47CE05400FAA3E05408FB7404
:1008C300006A700374006B700F740990E4B3F074E2
:1008D3000890E4B2F0020ACBE96003020A3E90ED0D
:1008E300A5E024FFF8A3E034FFF990EDA5E8F0A319
:1008F300E9F090E261E0C0E090EDA5E0F8A3E0F557
:10090300838882D0E0F090E261E02401F090EDA5CD
:10091300E024FFF8A3E034FFF990EDA5E8F0A3E9A4
:10092300F090E278E024FFFAEA90E278F0EAC0E09F
:1009330090EDA5E0F8A3E0F5838882D0E0F090ED98
:10094300A5E024FFF8A3E034FFF990EDA5E8F0A3B8
:10095300E9F090E276A3E0F9E9C0E090EDA5E0F8D4
:10096300A3E0F5838882D0E0F090EDA5E024FFF8C2
:10097300A3E034FFF990EDA5E8F0A3E9F090E27667
:10098300E0C0E090EDA5E0F8A3E0F5838882D0E035
:10099300F090EDA5E024FFF8A3E034FFF990EDA576
:1009A300E8F0A3E9F090E26AA3E0F9E9C0E090ED92
:1009B300A5E0F8A3E0F5838882D0E0F090EDA5E010
:1009C30024FFF8A3E034FFF990EDA5E8F0A3E9F0E4
:1009D30090E26AE0C0E090EDA5E0F8A3E0F583883B
:1009E30082D0E0F090EDA5E024FFF8A3E034FFF916
:1009F30090EDA5E8F0A3E9F090E27AE0C0E090ED95
:100A0300A5E0F8A3E0F5838882D0E0F090EDA5E0BF
:100A130024FFF8A3E034FFF990EDA5E8F0A3E9F093
:100A230090E279E0C0E090EDA5E0F8A3E0F58388DB
:100A330082D0E0F090EDA7E02408F090E48AE0F89B
:100A4300A3E0F990E4B7E8F0A3E9F090E48AE0F8D2
:100A5300A3E0F990E4C1E8F0A3E9F090E26AE0646E
:100A6300FE7004A3E064FF701974CC90E4C6F079BF
:100A73000890E26CE0FCA3E0FD7AB97BE4123998BC
:100A8300801674C890E4C6F090E488E0F8A3E0F917
:100A930090E4B9E8F0A3E9F090E4C6E01313543FFF
:100AA30054036402701690E4B9E064FF7004A3E099
:100AB30064FF7008744190E4C5F08006746190E4AB
:100AC300C5F0740390E4B2F0740A90E4B5F07401D5
:100AD30090E4B6F0124892D083D08222C082C083C1
:100AE3008009120EF6740290E1FFF090E1FFE0122C
:100AF300058A01028F0BFF0A6D0B7E0B90E22DE03E
:100B0300F8790090E22AE028F8A3E039F98882898D
:100B130083E054036401701390E22AE0FAA3E0FB3C
:100B2300125CD0740090E1FFF08061AA82AB831263
:100B33000BF290E22FE064FF7004A3E064FF60A275
:100B430090E22FE064FE7004A3E064FF609490E2FF
:100B53002FE0F8A3E0F990E445E0687003A3E069AF
:100B63006080740390E1FFF08081126CE5E9701CF2
:100B7300126CFA740090E1FFF0801190E22AE0FA1F
:100B8300A3E0FB125CD0740090E1FFF0D083D0822D
:100B930022C082C08390E1FFE06004790180027982
:100BA30000D083D08222C082C08390E4C9E0F8A33E
:100BB300E0F5838882E0F8A3E0F990E22AE8F0A365
:100BC300E9F090E4C9E0F8A3E0F5838882A3A3E009
:100BD30090E22CF090E4E1E090E22DF090E4E1E08B
:100BE30090E22DF0740190E1FFF0D083D08222C017
:100BF30082C083EA2402FAEB3400FB8A828B83E00F
:100C0300790090E22FF0A3E9F08A828B83A3AA8272
:100C1300AB838A828B83E0F8E4C8F990E22FE02863
:100C2300F0A3E039F08A828B83A3AA82AB838A8202
:100C33008B83E0790090E231F0A3E9F08A828B8321
:100C4300A3AA82AB838A828B83E0F8E4C8F990E29B
:100C530031E028F0A3E039F0D083D0822274F1127E
:100C630003FA8A0E8B0F750801750C00750D00755C
:100C7300090080020509E509C394045059E5097088
:100C83000C7401250CFE7400350DFF8011A90812A8
:100C930064058A0A8B0BEE250AFEEF350BFFEE6522
:100CA3000E7003EF650F7006EEFAEFFB80397401E7
:100CB3002508F9EEFAEFFB12646A8A0A8B0BA80A7D
:100CC300A90BC3EE950EEF950F50A9C3E50A950E38
:100CD300E50B950F409E05088E0C8F0DE508C39418
:100CE30004408C7A007B007F0802045974F11203DC
:100CF300FA74FE1203BA851082851183EAF0A3EB1E
:100D0300F0750E01750F00750A0090E445E064006C
:100D13007004A3E064007003020DEF90E445E0F873
:100D2300A3E0F9851082851183E0687003A3E0696D
:100D330070077A017B00020EEC90E488E0F508A3CB
:100D4300E0F50990E48DE024FFF50A8006750800BC
:100D5300750900851082851183E065087004A3E09E
:100D630065097007AA0EAB0F020EEC7400650870DC
:100D7300047400650960757401250AF9AA08AB09B2
:100D830012646A8A0C8B0DA80CA90D85108285113B
:100D930083E0FAA3E0FBC3E5089AE5099B501485B9
:100DA3001082851183E0FAA3E0FBC3E50C9AE50DFD
:100DB3009B5039150AE50E2401F50EE50F3400F5B5
:100DC3000FE50A6088AA08AB09120C608A0C8B0D28
:100DD300850C08850D0974006508700474006509A5
:100DE3006003020D567A0A7B00020EEC050AE50E3B
:100DF3002401F50EE50F3400F50FA90AAA08AB0983
:100E030012646A8A0C8B0DA80CA90D74F328FC7468
:100E1300FF39FD851082851183E0FAA3E0FBC3EC63
:100E23009AED9B5015851082851183E0FAA3E0FBB0
:100E3300C3E89AE99B4003020ED7750B00800205B5
:100E43000BE50BC394045070E50B700C740125087B
:100E5300FE74003509FF8011A90A1264058A0C8B00
:100E63000DEE250CFEEF350DFF851082851183E015
:100E73006E7003A3E06F7006EEFAEFFB806B7401F4
:100E8300250AF9EEFAEFFB12646A8A0C8B0DA80CA3
:100E9300A90D851082851183E0FAA3E0FBC3EE9AC6
:100EA300EF9B509B851082851183E0FAA3E0FBC37F
:100EB300E50C9AE50D9B40877404650B7006AA0E3A
:100EC300AB0F8025050A8E088F09E50AC3940450E9
:100ED30003020DF1C3E50E940BE50F940040067574
:100EE3000E09750F00AA0EAB0F74021203C97F0817
:100EF30002045974F41203FA90E22DE0F879009099
:100F0300E22AE028F8A3E039F9740828FE740039CE
:100F1300FF8E828F83E090E235F08E828F83A3AEC3
:100F230082AF83750C0190E235E012058A410148D6
:100F330012380F4D0F90E22DE0250C240890E22E7D
:100F4300F0740090E237F002125A8E828F83E090A1
:100F5300E236F08E828F83A3AE82AF838E828F833D
:100F6300E090E240F08E828F83A3AE82AF83050CC4
:100F7300050C90E236E0A2E740377A0080258E82A6
:100F83008F83E0C0E08A08750900E5082441F582F3
:100F9300E50934E2F583D0E0F08E828F83A3AE823D
:100FA300AF830AEAC3940840D57408250CF50C8076
:100FB3002890E24174FEF0A37480F090E243740041
:100FC300F0A37400F090E2457400F0A37400F09075
:100FD300E2477400F0A37400F090E236E0A2E6402A
:100FE3003F7A00802D8E828F83E0C0E08A087509E6
:100FF3000074082508F874003509F9E82441F582DE
:10100300E934E2F583D0E0F08E828F83A3AE82AF22
:10101300830AEAC3940840CD7408250CF50C801AA2
:1010230090E23112056090E48AE0FCA3E0FD7A418E
:101033007BE212353674021203C990E236E0A2E570
:1010430040377A0080258E828F83E0C0E08A08755E
:101053000900E5082451F582E50934E2F583D0E07F
:10106300F08E828F83A3AE82AF830AEAC3940840D3
:10107300D57408250CF50C802890E25174FEF0A37A
:101083007480F090E2537400F0A37400F090E25582
:101093007400F0A37400F090E2577400F0A374009E
:1010A300F090E236E0A2E4403F7A00802D8E828FFA
:1010B30083E0C0E08A0875090074082508F8740005
:1010C3003509F9E82451F582E934E2F583D0E0F0FB
:1010D3008E828F83A3AE82AF830AEAC3940840CD86
:1010E3007408250CF50C801A90E22F12056090E429
:1010F3008AE0FCA3E0FD7A517BE2123536740212DA
:1011030003C990E236E0A2E350030211A78E828F57
:1011130083E090E238F08E828F83A3AE82AF838E1A
:10112300828F83E0F508E4F509F50AF50B7410786E
:101133000812027BAA08AB09AC0AAD0B90E239E5B1
:1011430008F0A3E509F0A3E50AF0A3E50BF08E820E
:101153008F83A3AE82AF838E828F83E0F508E4F59D
:1011630009F50AF50B7408780812027B90E23978C6
:10117300081202C98E828F83A3AE82AF838E828FC1
:1011830083E0F508E4F509F50AF50B90E2397808F0
:101193001202C98E828F83A3AE82AF837404250C9F
:1011A300F50C8028740090E238F090EE5C78081219
:1011B300033AAA08AB09AC0AAD0B90E239E508F093
:1011C300A3E509F0A3E50AF0A3E50BF090E236E00E
:1011D3001313543F5403FAEA700D8E828F83E09009
:1011E300E23FF0050C802574016A7008741190E2E7
:1011F3003FF0801874106A7008743A90E23FF080F0
:101203000B74116A7006740690E23FF090E22DE0D1
:10121300250C240890E22EF090E22AE0F8A3E0F5F2
:10122300838882E0F8790090E22EE0FA7B00E8C33D
:101233009AF8E99BF990E23DE8F0A3E9F074019094
:10124300E237F0801290E22DE0250C240890E22E84
:10125300F0740090E237F07F0502045974F512032D
:10126300FA90E206E06411700990E27CE0D2E2F0C9
:10127300802090E206E0643A700990E27CE0D2E2DA
:10128300F0800F90E206E06406700790E27CE0D203
:10129300E2F090E201E0702190E202C082C083900C
:1012A300EE5C780812033AD083D0827808120111D9
:1012B300700790E27CE0D2E3F090E218E064FF7004
:1012C3001090E27CE0D2E7F090E27CE0D2E6F0809E
:1012D300507A187BE212322EE96401704490E218CE
:1012E300E064FE701690E219E06480700E90E27C78
:1012F300E0D2E7F090E27CE0D2E5F090E27CE0D24D
:10130300E6F090E223E064FF701790E224E064FECD
:10131300700F90E220E05402700790E27CE0D2E488
:10132300F07F0402045974F51203FA90E27CE07032
:1013330009744190E27BF0021624744290E27BF040
:1013430090EDA5E02428F8A3E03400F990EDA5E89A
:10135300F0A3E9F090EDA7E024D8F090E27CE0134D
:1013630013543F5403702F90EDA5E024FFF8A3E03E
:1013730034FFF990EDA5E8F0A3E9F090E206E0C0B0
:10138300E090EDA5E0F8A3E0F5838882D0E0F0904B
:10139300EDA7E02401F090E27CE0A2E35003021405
:1013A3006290EDA5E024FFF8A3E034FFF990EDA5EA
:1013B300E8F0A3E9F090E202780812033A90EDA571
:1013C300E0F8A3E0F5838882E508F090EDA5E0243A
:1013D300FFF8A3E034FFF990EDA5E8F0A3E9F0905E
:1013E300E202780812033AE509F50890EDA5E0F862
:1013F300A3E0F5838882E508F090EDA5E024FFF8EB
:10140300A3E034FFF990EDA5E8F0A3E9F090E20240
:10141300780812033A74107808120262E508540F30
:10142300C0E090EDA5E0F8A3E0F5838882D0E0F07A
:1014330090EDA5E024FFF8A3E034FFF990EDA5E8D3
:10144300F0A3E9F090E201E0C0E090EDA5E0F8A39D
:10145300E0F5838882D0E0F090EDA7E02404F090DB
:10146300E27CE0A2E440517A00804090EDA5E024C4
:10147300FFF8A3E034FFF990EDA5E8F0A3E9F08AC3
:1014830008750900740FC39508F874009509F9E805
:101493002418F582E934E2F583E0C0E090EDA5E09D
:1014A300F8A3E0F5838882D0E0F00AEAC394084009
:1014B300BA90EDA7E02408F090E27CE0A2E5405169
:1014C3007A00804090EDA5E024FFF8A3E034FFF913
:1014D30090EDA5E8F0A3E9F08A087509007407C345
:1014E3009508F874009509F9E82418F582E934E2BF
:1014F300F583E0C0E090EDA5E0F8A3E0F5838882F2
:10150300D0E0F00AEAC3940840BA90EDA7E02408BB
:10151300F090E27CE0A2E640517A00804090EDA595
:10152300E024FFF8A3E034FFF990EDA5E8F0A3E988
:10153300F08A08750900740FC39508F874009509BB
:10154300F9E82408F582E934E2F583E0C0E090EDA0
:10155300A5E0F8A3E0F5838882D0E0F00AEAC3941B
:101563000840BA90EDA7E02408F090E27CE0A2E7FF
:1015730040517A00804090EDA5E024FFF8A3E034C9
:10158300FFF990EDA5E8F0A3E9F08A087509007466
:1015930007C39508F874009509F9E82408F582E96A
:1015A30034E2F583E0C0E090EDA5E0F8A3E0F58335
:1015B3008882D0E0F00AEAC3940840BA90EDA7E02D
:1015C3002408F090EDA5E024FFF8A3E034FFF990A0
:1015D300EDA5E8F0A3E9F090E207E0C0E090EDA507
:1015E300E0F8A3E0F5838882D0E0F090EDA7E02453
:1015F30001F090EDA5E024FFF8A3E034FFF990EDAE
:10160300A5E8F0A3E9F090E27CE0C0E090EDA5E06E
:10161300F8A3E0F5838882D0E0F090EDA7E0240101
:10162300F090EDA5E024FFF8A3E034FFF990EDA5D9
:10163300E8F0A3E9F090E27BE0C0E090EDA5E0F8EC
:10164300A3E0F5838882D0E0F090EDA7E02401F0D9
:1016530090E445E0F8A3E0F990E276E8F0A3E9F03E
:10166300740A90E278F0740090E279F07F04020447
:101673005974F51203FA8A088B098C0A8D0BAA0890
:10168300AB09AC0AAD0B123A3D7F0402045974F561
:101693001203FA740090E296F0740090E302F0747F
:1016A3000090E284F0740090E27DF090EE607808A0
:1016B30012033A90E285780812035690E289740186
:1016C300F0A37400F0740390E28DF0740090E27F55
:1016D300F0126FF612474F12061F12649E12771F05
:1016E3007F0402045974F21203FAEAFEEBFF890A3B
:1016F3008C0B8D0C74201203F0E0F508A3E0F509C0
:1017030074221203F0E0F50E74231203F0E0F50DDA
:10171300800312179790E296E070F7741290E28FAD
:10172300F0740090E29DF0E50C90E2CEF0E50E90AF
:10173300E2D5F090E2D3E508F0A3E509F0E50D90DA
:10174300E2CFF0E50B90E2CDF0E50A90E2A1F09054
:10175300E2C7EEF0A3EFF0740E1203F07CA77DE274
:101763007410120372741E1203F0E0F8A3E0F990F0
:10177300E2C9E8F0A3E9F0742190E2A0F090E29DC1
:10178300E054FEF0A3E054FFF0740090E29FF07F7A
:1017930007020459C082C0831264C090E27DE05402
:1017A30008600312287A122397127734801290E28A
:1017B3007DE0F854047003021847740690E296F033
:1017C30090E296E012058A00084718B117E017283F
:1017D30019641947184718EE1847187E1990E28FB5
:1017E300E012058A12024718F117CD184C1890E23F
:1017F3007DE054EFF0A3E054FFF090E29DE054014C
:10180300F8A3E05400F9E8A2E05008740890E296C7
:10181300F080AD90ED9FE05402702990ED9FE0447D
:1018230002F0A3E04400F0740090EDA7F0790112F8
:101833001E2C90E27DE04410F0A3E04400F074021B
:1018430090E296F0D083D0822290ED9FE054027014
:10185300F390ED9FE04402F0A3E04400F090E290A7
:10186300E01205C00002FF7E18137118B91890E248
:1018730092E0FAA3E0FB127923803B90E291E0121D
:10188300058A0102B9189C188F18A91890E292E0F2
:10189300FAA3E0FB12797E801D90E292E0FAA3E0C6
:1018A300FB1278B4801090E294E0F990E292E0FAAF
:1018B300A3E0FB1278F8740090EDA7F07900121AF8
:1018C3009F740290E296F002184790ED01E06003E6
:1018D300021847741390ED16F0740190ED01F012A5
:1018E30064C0740390E296F002184790ED9FE054B1
:1018F30002600302184790ED9FE04402F0A3E04426
:1019030000F01227C4740090EDA7F07901121A9F1A
:1019130090E27DE054FBF0A3E054FFF0740290E208
:1019230096F002184790E27DE054086003021847DE
:1019330090E303E090E295F090ED9FE054FDF0A377
:10194300E054FFF0740090E296F090E27DE05401E1
:10195300F8A3E05400F9E8A2E050030217C3021809
:101963004790ED01E0600302184790ED16E090E226
:1019730095F0740090E296F002184790E302E0605D
:101983000302184779001219A190E27DE04410F098
:10199300A3E04400F0740090E296F00217C374F8D9
:1019A3001203FAE9FE90E2D5E0602C90E2D5E0F56F
:1019B30008AA087B00125BA290E2D6EAF0A3EBF040
:1019C30090E2D6E064007004A3E06400700974211F
:1019D30090E295F0021A9A90E2D6E0F8A3E0F9902B
:1019E300E2D5E090E301F0803590E2D3E0FAA3E0A2
:1019F300F5838A82E088828983F090E2D3E0240130
:101A0300FAA3E03400FB90E2D3EAF0A3EBF0888280
:101A13008983A3A882A98390E2D5E024FFF090E212
:101A2300D5E070C590E2CDE090E2F5F090E2A0E061
:101A330090E2FCF090E2CEE090E2F4F090E2CBE0B2
:101A4300F8A3E0F990E2FAE8F0A3E9F090E2D6E037
:101A5300F8A3E0F990E2FFE8F0A3E9F090E2A1E057
:101A630090E2F3F074FF90E2D8F0EE702490E2F38A
:101A7300E0701012779F90E2D6E0FAA3E0FB125CCD
:101A8300D0800E1275E090E2D6E0FAA3E0FB125C80
:101A9300D0740090E295F07F0102045974F51203AB
:101AA300FA90EDA7E06003021E0EE9606390EDA5D6
:101AB300742CF0A374EEF090E2D5E0F8790090E294
:101AC300D3E028F8A3E039F990E2D5E090EDA7F050
:101AD30090EDA7E06058E824FFF8E934FFF990EDB2
:101AE300A5E024FFFAA3E034FFFB90EDA5EAF0A301
:101AF300EBF090EDA7E024FFF088828983E0C0E05B
:101B030090EDA5E0FAA3E0F5838A82D0E0F080C0EF
:101B130090E2D5E0F87900C3E498F8E499F9E82471
:101B23002CF8E934EEF990EDA5E8F0A3E9F090E2A2
:101B3300D5E090EDA7F090E29FE054036003021B11
:101B4300D190EDA5E024FFF8A3E034FFF990EDA5D3
:101B5300E8F0A3E9F090EDA7E02401F090E2D5E0EE
:101B6300C0E090EDA5E0F8A3E0F5838882D0E0F033
:101B730090EDA5E024FFF8A3E034FFF990EDA5E88C
:101B8300F0A3E9F090EDA7E02401F090E2CFE0C0EC
:101B9300E090EDA5E0F8A3E0F5838882D0E0F09033
:101BA300EDA5E024FFF8A3E034FFF990EDA5E8F0FC
:101BB300A3E9F090EDA7E02401F090E2A0E0C0E0FB
:101BC30090EDA5E0F8A3E0F5838882D0E0F090E201
:101BD3009FE0540C6404701390ED497400F0A374F7
:101BE30000F090E29FE0D2E4F0802090E2A3E0F8DE
:101BF300A3E0F990ED49E8F0A3E9F090E2A5E0F85D
:101C0300A3E0F990ED4BE8F0A3E9F090E29FE054F4
:101C13001C6404602F90EDA5E024FFF8A3E034FFDB
:101C2300F990EDA5E8F0A3E9F090EDA7E02401F029
:101C330090E2CEE0C0E090EDA5E0F8A3E0F5838864
:101C430082D0E0F090E29FE05403600A90E29FE0CC
:101C530054036402705A90EDA5E024FFF8A3E03426
:101C6300FFF990EDA5E8F0A3E9F090EDA7E02401DA
:101C7300F074FFC0E090EDA5E0F8A3E0F58388825F
:101C8300D0E0F090EDA5E024FFF8A3E034FFF99055
:101C9300EDA5E8F0A3E9F090EDA7E02401F074FFCF
:101CA300C0E090EDA5E0F8A3E0F5838882D0E0F0F2
:101CB30090E29FE05403702F90EDA5E024FFF8A37A
:101CC300E034FFF990EDA5E8F0A3E9F090EDA7E08B
:101CD3002401F090E2CDE0C0E090EDA5E0F8A3E0B0
:101CE300F5838882D0E0F090E29FE0541C64146096
:101CF3002F90EDA5E024FFF8A3E034FFF990EDA5C4
:101D0300E8F0A3E9F090EDA7E02401F090E2A1E070
:101D1300C0E090EDA5E0F8A3E0F5838882D0E0F081
:101D230090EDA5E024FFF8A3E034FFF990EDA5E8DA
:101D3300F0A3E9F090EDA7E02401F090E29FE0C06A
:101D4300E090EDA5E0F8A3E0F5838882D0E0F09081
:101D5300E29DE05401A2E05006122306021E0E90FB
:101D6300E2CBE0F8A3E0F990ED55E8F0A3E9F074D5
:101D73000A90ED57F0740090ED58F0740C90ED0359
:101D8300F090E29FE0A2E6504490E27DE04402F04E
:101D9300A3E04400F01239DE8A088B098C0A8D0B0C
:101DA30090E280780812035690ED49E0FAA3E0FB35
:101DB300120CEF90E289EAF0A3EBF090E289E0F8ED
:101DC300A3E0F990E28BE8F0A3E9F0800C90E27DC8
:101DD300E054FDF0A3E054FFF090E27DE04408F00E
:101DE300A3E04400F090E28DE090E28EF07419904D
:101DF300E303F090EDA7E090E2D0F090EDA5E0F8DA
:101E0300A3E0F990E2D1E8F0A3E9F090E29DE05479
:101E130001A2E04006741390ED16F0740190ED01F9
:101E2300F01264C07F0402045974F51203FA90EDB2
:101E3300A7E060030222F2E9606390EDA5742CF041
:101E4300A374EEF090E2D5E0F8790090E2D3E028B5
:101E5300F8A3E039F990E2D5E090EDA7F090EDA773
:101E6300E06058E824FFF8E934FFF990EDA5E02499
:101E7300FFFAA3E034FFFB90EDA5EAF0A3EBF090AB
:101E8300EDA7E024FFF088828983E0C0E090EDA510
:101E9300E0FAA3E0F5838A82D0E0F080C090E2D537
:101EA300E0F87900C3E498F8E499F9E8242CF8E918
:101EB30034EEF990EDA5E8F0A3E9F090E2D5E090D7
:101EC300EDA7F090E29FE054036003021F5E90EDE4
:101ED300A5E024FFF8A3E034FFF990EDA5E8F0A313
:101EE300E9F090EDA7E02401F090E2D5E0C0E090A6
:101EF300EDA5E0F8A3E0F5838882D0E0F090EDA5AE
:101F0300E024FFF8A3E034FFF990EDA5E8F0A3E99E
:101F1300F090EDA7E02401F090E2CFE0C0E090ED77
:101F2300A5E0F8A3E0F5838882D0E0F090EDA5E08A
:101F330024FFF8A3E034FFF990EDA5E8F0A3E9F05E
:101F430090EDA7E02401F090E2A0E0C0E090EDA5C1
:101F5300E0F8A3E0F5838882D0E0F090E29FE054BC
:101F63000C6404600C90E2A77C397DED74101203BD
:101F73007290E29FE0541C6404602F90EDA5E0246E
:101F8300FFF8A3E034FFF990EDA5E8F0A3E9F090A2
:101F9300EDA7E02401F090E2CEE0C0E090EDA5E0F3
:101FA300F8A3E0F5838882D0E0F090E29FE0540349
:101FB300600A90E29FE054036402705A90EDA5E03A
:101FC30024FFF8A3E034FFF990EDA5E8F0A3E9F0CE
:101FD30090EDA7E02401F074FFC0E090EDA5E0F8D8
:101FE300A3E0F5838882D0E0F090EDA5E024FFF82C
:101FF300A3E034FFF990EDA5E8F0A3E9F090EDA795
:10200300E02401F074FFC0E090EDA5E0F8A3E0F553
:10201300838882D0E0F090E29FE05403702F90ED2C
:10202300A5E024FFF8A3E034FFF990EDA5E8F0A3C1
:10203300E9F090EDA7E02401F090E2CDE0C0E0905C
:10204300EDA5E0F8A3E0F5838882D0E0F090E29F6D
:10205300E0541C6414602F90EDA5E024FFF8A3E086
:1020630034FFF990EDA5E8F0A3E9F090EDA7E024A3
:1020730001F090E2A1E0C0E090EDA5E0F8A3E0F567
:10208300838882D0E0F090EDA5E024FFF8A3E0344C
:10209300FFF990EDA5E8F0A3E9F090EDA7E02401A6
:1020A300F090E29FE0C0E090EDA5E0F8A3E0F583B7
:1020B3008882D0E0F090EDA5E024FFF8A3E034FFA0
:1020C300F990EDA5E8F0A3E9F07400C0E090EDA568
:1020D300E0F8A3E0F5838882D0E0F090EDA5E0245A
:1020E300FFF8A3E034FFF990EDA5E8F0A3E9F0745D
:1020F30000C0E090EDA5E0F8A3E0F5838882D0E08E
:10210300F090EDA7E02402F090EDA5E024FFF8A302
:10211300E034FFF990EDA5E8F0A3E9F090EDA7E036
:102123002406C0E090EDA5E0F8A3E0F5838882D013
:10213300E0F090EDA5E024FFF8A3E034FFF990ED83
:10214300A5E8F0A3E9F090EDA7E0F879007406287C
:10215300740039F9E9C0E090EDA5E0F8A3E0F58358
:102163008882D0E0F090EDA7E02402F090EDA5E0A6
:1021730024FFF8A3E034FFF990EDA5E8F0A3E9F01C
:1021830090E2C7E0C0E090EDA5E0F8A3E0F5838816
:1021930082D0E0F090EDA5E024FFF8A3E034FFF94E
:1021A30090EDA5E8F0A3E9F090E2C7A3E0F9E9C058
:1021B300E090EDA5E0F8A3E0F5838882D0E0F0900D
:1021C300EDA7E02402F090EDA5E024FFF8A3E034AE
:1021D300FFF990EDA5E8F0A3E9F090E2C9E0C0E0D3
:1021E30090EDA5E0F8A3E0F5838882D0E0F090EDD0
:1021F300A5E024FFF8A3E034FFF990EDA5E8F0A3F0
:10220300E9F090E2C9A3E0F9E9C0E090EDA5E0F8B8
:10221300A3E0F5838882D0E0F090EDA7E02402F0FC
:1022230090E29DE05401A2E050061223060222F23E
:10223300740690ED1FF0740090ED20F090EE5C7842
:102243000812033A90ED21780812035690EDA7E0A7
:10225300790090ED25F0A3E9F0741190ED27F0904B
:10226300E309E090ED28F07C397DED7A297BED12CE
:1022730032C5740C90ED03F090E29FE0A2E650317A
:1022830090E27DE04402F0A3E04400F01239DE8ADC
:10229300088B098C0A8D0B90E28078081203569004
:1022A300E289E0F8A3E0F990E28BE8F0A3E9F0809B
:1022B3000C90E27DE054FDF0A3E054FFF090E27D4A
:1022C300E04408F0A3E04400F090E28DE090E28E59
:1022D300F0741990E303F090EDA7E090E2D0F09052
:1022E300EDA5E0F8A3E0F990E2D1E8F0A3E9F074FA
:1022F3001390ED16F0740190ED01F01264C07F04A9
:1023030002045974F81203FA90EDA7E0F508AA083D
:102313007B00125BA290E2D6EAF0A3EBF07400908C
:10232300E2D9F090E2D6E064007004A3E0640070A8
:1023330008742190E303F0805690EDA7E0F990ED47
:10234300A5E0FCA3E0FD90E2D6E0FAA3E0FB12399E
:102353009890E29FE090E2FDF090E2FDE0C2E6F0AB
:1023630090E2FDE0C0E090E2D6E0F8A3E0F58388D8
:1023730082D0E0F074FF90E2D8F0740090E2F1F0C4
:10238300740190E302F0122397740090E303F07F4B
:102393000102045974F81203FA90E302E012058A69
:1023A3000102EB24AD23EB24DD2490E2FDE0540392
:1023B3006403701490E2D6E0FAA3E0FB125CD074DD
:1023C3000090E302F00224EB90E2FDE0540C640879
:1023D300600A90E2FDE0540C640C701490E2D6E0C5
:1023E300FAA3E0FB125CD0740090E302F00224EB4A
:1023F30090E2FDE054036401701490E2D6E0FAA386
:10240300E0FB125CD0740090E302F00224EB90E254
:10241300D9E0F8790090E2D6E028FAA3E039FB127C
:1024230025FC90E2FDE054036402702E90E27DE00F
:10243300540260121224F0E9600C90E27DE054FD36
:10244300F0A3E054FFF090E2D6E0FAA3E0FB125CC5
:10245300D0740090E302F00224EB90E2F1E0540226
:10246300701390E2D6E0FAA3E0FB125CD074009004
:10247300E302F0807390E2F3E0700712779FE9FEC6
:10248300802690E2F6E064FF7004A3E064FF60132B
:1024930090E2D6E0FAA3E0FB125CD0740090E30272
:1024A300F080451275E0E9FE90E2D6E0FAA3E0FB86
:1024B300125CD090E2FDE0A2E65017EE701490E2B9
:1024C3007DE04404F0A3E04400F0740390E302F0E1
:1024D3008016740090E302F0800E90E27DE05404D5
:1024E3007006740090E302F07F01020459C082C0B9
:1024F3008390E2F1E05403F8A3E05400F974036815
:102503007003740069701C90E2F4E0FA90E2A1E0B9
:102513006A704490E2F3E0FA90E2CEE06A703879B0
:1025230001803690E2F1E0F85402601090E2F3E0AB
:10253300FA90E2CEE06A701F7901801D90E2F1E02B
:102543005401F8A2E0501090E2F4E0FA90E2A1E026
:102553006A7004790180027900D083D08222C0821C
:10256300C08390E302E06004790180027900D083A4
:10257300D08222C082C08390ED5AE0F8A3E0F990A4
:10258300E2D6E8F0A3E9F090ED5CE090E2D8F090B9
:10259300ED5EE090E2D9F090ED697CDB7DE27410B2
:1025A30012037290ED65E024F8F8A3E034FFF9908C
:1025B300E2EFE8F0A3E9F090ED8BE0F8A3E0F99007
:1025C300E2FAE8F0A3E9F090E2D9E0F8790090E2CA
:1025D300D6E028FAA3E0398A82F583A3A3A3A3A3B1
:1025E300A3A3A3E090E2FDF0740090E2F1F0740184
:1025F30090E302F0D083D08222C082C0838A828B90
:1026030083E0F8E4C8F990E2EDE8F0A3E9F08A8208
:102613008B83A3AA82AB838A828B83E0F8790090B1
:10262300E2EDE028F0A3E039F08A828B83A3AA824B
:10263300AB838A828B83E0F8E4C8F990E2EBE8F09D
:10264300A3E9F08A828B83A3AA82AB838A828B83DA
:10265300E0F8790090E2EBE028F0A3E039F08A8219
:102663008B83A3AA82AB838A828B83E0F8E4C8F9C5
:1026730090E2EFE8F0A3E9F08A828B83A3AA82AB0E
:10268300838A828B83E0F8790090E2EFE028F0A35D
:10269300E039F08A828B83A3AA82AB8390E2EFE0D6
:1026A30024F8F0A3E034FFF0EA2402FAEB3400FB51
:1026B3008A828B83E090E2FDF08A828B83A3AA82D5
:1026C300AB837C0190E2FDE0541C6414601F90E234
:1026D300F1E04402F0A3E04400F08A828B83E090AF
:1026E300E2F3F08A828B83A3AA82AB830C90E2FD90
:1026F300E0540370128A828B83E090E2F5F08A82C1
:102703008B83A3AA82AB8390E2FDE05403600A901B
:10271300E2FDE05403640270338A828B83E0790024
:1027230090E2F6F0A3E9F08A828B83A3AA82AB83BB
:102733008A828B83E0F8E4C8F990E2F6E028F0A3FC
:10274300E039F08A828B83A3AA82AB8374032CFCC7
:1027530090E2FDE0541C6404601F90E2F1E0440148
:10276300F0A3E04400F08A828B83E090E2F4F08AE5
:10277300828B83A3AA82AB830CEC90E2DAF08A8289
:102783008B83E090E2FCF08A828B83A3AA82AB83E3
:102793008A828B83E090E2FEF08A828B83A3AA82F3
:1027A300AB838A828B83E090E301F08A828B83A3DD
:1027B300AA82AB8390E2FFEAF0A3EBF0D083D0824E
:1027C30022C082C083740090E2D5F090E2D37400FB
:1027D300F0A37400F0740290E29FF090E445E0F8F7
:1027E300A3E0F990E2CBE8F0A3E9F090E2FAE0F895
:1027F300A3E0F990E2A3E8F0A3E9F0740090E29D6E
:10280300F090E2F1E05403F8A3E05400F974036894
:102813007003740069702290E29FE090E29FF09051
:10282300E2F4E090E2A1F090E2F3E090E2CEF090E7
:10283300E2F5E090E2CDF0803990E2F1E0540260FD
:102843001890E29FE0D2E2F090E2F3E090E2CEF063
:1028530090E29FE0D2E4F0801990E2F1E05401A20B
:10286300E0500F90E29FE0D2E2F090E2F4E090E2D9
:10287300A1F0D083D0822274F51203FA90E27DE0B6
:10288300F8540870030229A390ED01E060030229C4
:10289300A390ED16E0602390E27DE054FDF0A3E009
:1028A30054FFF090E27DE054F7F0A3E054FFF09082
:1028B300ED16E090E303F00229A390E27DE0F854E3
:1028C30002701590E27DE054F7F0A3E054FFF0743A
:1028D3000090E303F00229A390E285C082C0831233
:1028E30039DE8A088B098C0A8D0B90E280780812F6
:1028F30002F690EE547808120311D083D082780840
:1029030012013C40030229A390E28BE064007004AF
:10291300A3E06400600C90E28BE024FFF0A3E034BA
:10292300FFF090E28BE064007004A3E064006015A4
:102933001239DE8A088B098C0A8D0B90E2807808A5
:10294300120356805B90E28EE024FFF090E28EE06B
:10295300700E90E27DE054F7F0A3E054FFF0804066
:1029630090E2D0E090EDA7F090E2D1E0F8A3E0F997
:1029730090EDA5E8F0A3E9F01239DE8A088B098C03
:102983000A8D0B90E280780812035690E289E0F8F2
:10299300A3E0F990E28BE8F0A3E9F07901121A9F22
:1029A3007F040204597AD27B7B1229B022C082C0F1
:1029B300838A828B838012E493640A7005790D12F3
:1029C3003A78E493F9123A78A3E49370EAD083D087
:1029D3008222EEC0E0E9FEEEC4540FFAEAC3940A81
:1029E300400974372AF9123A78800774302AF912A9
:1029F3003A78740F5EFAEAC3940A400974372AF9E5
:102A0300123A78800774302AF9123A78D0E0FE221D
:102A1300EEC0E0E9FE7AD47B7B1229B0EEF91229ED
:102A2300D5D0E0FE2274F81203FAEAFEEBFF7AD760
:102A33007B7B1229B0EFF9E9F91229D5EEF91229B6
:102A4300D57F0102045974F11203FA8A0C8B0D8CA1
:102A53000E8D0F7ADA7B7B1229B0850C08850D0960
:102A6300850E0A850F0B74187808120262A90812E2
:102A730029D5850C08850D09850E0A850F0B741061
:102A83007808120262A9081229D5850D09E509F50E
:102A930008A9081229D5A90C1229D57F08020459BF
:102AA30074F51203FAEAFEEBFF750800801E850831
:102AB3000A750B00EE250AF582EF350BF583E0F975
:102AC3001229D57ADD7B7B1229B00508E508C3946A
:102AD3000840DB7F04020459122AA32274F512036F
:102AE300FAEAFEEBFF750800801E85080A750B00E5
:102AF300EE250AF582EF350BF583E0F91229D57A35
:102B0300E17B7B1229B00508E508C3941040DB7F05
:102B13000402045974F51203FAEAFEEBFF75080088
:102B2300803685080A750B00EE250AF582EF350B12
:102B3300F583E0F91229D585080A750B00EE250AFD
:102B4300F582EF350BF583A3E0F91229D57AE57BFE
:102B53007B1229B005080508E508C3941040C37F1C
:102B630004020459E97004122ADF22122B1722747B
:102B7300F51203FA74F81203BA7AE97B7B1229B0CF
:102B83007A017B7C1229B01229A87A077B7C12294F
:102B9300B07A0D7B7C1229B0851082851183AA82BD
:102BA300AB83123AE7851082851183AA82AB831225
:102BB3002AA31229A87A177B7C1229B090EE647895
:102BC3000812033AAA08AB09AC0AAD0B122A497AD8
:102BD300257B7C1229B07914122A131229A81229F1
:102BE300A874081203C97F0402045974F51203FA86
:102BF3007508E375090078081205457C007D007AA5
:102C0300057BE3127B4B74021203C97508457509F2
:102C13000078081205457C007D007AE87BE3127B8F
:102C23004B74021203C990EE68780812033A90E3DA
:102C3300057808120356744090E309F090EE6C781F
:102C43000812033A90E30F780812035690EE707857
:102C53000812033A90E3177808120356740190E3BD
:102C63001BF0740090E31CF090E305780812033A1C
:102C730090ED8DE508F0A3E509F090E42D74FEF0E6
:102C8300A37480F090E42F7400F0A37400F090E438
:102C9300317400F0A37400F090E4337400F0A37473
:102CA30000F090EE5C12055879407A2D7BE4122EE9
:102CB3009674041203C97A2D7BE412351090EE5CEE
:102CC30012055879037A2D7BE4122FC97404120379
:102CD300C990E42D74FFF0A37402F090E42F740004
:102CE300F0A37400F090E4317400F0A37400F0904A
:102CF300E4337400F0A37400F090E4357400F0A39F
:102D03007400F090E4377400F0A37400F090E43999
:102D13007400F0A37400F090E43B7400F0A374011A
:102D2300F07A2D7BE412317B740090E30AF07F0488
:102D3300020459C082C08390E42D74FEF0A3748012
:102D4300F090E42F7400F0A37400F090E431740069
:102D5300F0A37400F090E4337400F0A37400F090D7
:102D6300E44512056090E48AE0FCA3E0FD7A2D7B44
:102D7300E412353674021203C990EE5C12055879D9
:102D8300047A2D7BE4122FC974041203C9D083D0B3
:102D9300822274F11203FA74FE1203BA851082853B
:102DA3001183EAF0A3EBF089088C0E8D0F741312D4
:102DB30003F0E0F50974141203F0E0F50AA3E0F55B
:102DC3000B850A82850B837400F0A37400F08510D1
:102DD30082851183E0FEA3E0FF8013850A82850BC1
:102DE30083EEF0A3EFF0EE250EFEEF350FFF85081F
:102DF3000C750D00A80EE8850CF0A4C8AAF0850D8B
:102E0300F0A42AFA850CF0E50FA42AF9851082852F
:102E13001183E028F8A3E039F9C3EE98EF995052F3
:102E23008E828F83E060B4E509131313541FF50CEE
:102E3300750D00780C12054574131203F0E0FCA322
:102E4300E0FD8E828F83A3AA82AB83127AAA7402D7
:102E53001203C98A0C8B0D7400650C700474006531
:102E63000D7083850A82850B83EEF0A3EFF0790062
:102E73008017850A82850B83E064007004A3E064F5
:102E830000600479018002790274021203C97F0889
:102E930002045974F11203FA8A0E8B0FE9FE740FC0
:102EA3001203F0780812033A750C41750DE4780C9F
:102EB300120545EEF50C780C120549780E120545FE
:102EC3007C177D0079037AE87BE3122D9574051254
:102ED30003C9E964016003022F777401C0E090E441
:102EE30041E0F8A3E0F5838882D0E0F0850E828587
:102EF3000F83C082C08390E441E02401FCA3E0344B
:102F030000FDD083D0827410120372EEC0E090E40F
:102F130041E02411F8A3E03400F988828983D0E0EA
:102F2300F090EE5C78081201116032780812053DCA
:102F330090E441E02412FAA3E03400FB1241E97467
:102F4300041203C97400C0E090E441E02416F8A31E
:102F5300E03400F988828983D0E0F080177401C0DF
:102F6300E090E441E02416F8A3E03400F988828974
:102F730083D0E0F07A007B007F0802045974F712D3
:102F830003FA7508417509E47808120545E9F5085F
:102F930078081205498A088B0978081205457C17B9
:102FA3007D0079037AE87BE3122D9574051203C93A
:102FB300E9700A90E441E0FAA3E0FB80047A007B25
:102FC300007F0202045974F11203FA8A088B09E99B
:102FD300FE740F1203F0780C12033A750A3D750B59
:102FE300E4780A120545750A80780A1205497808BB
:102FF3001205457C187D0079047A1D7BE3122D951B
:1030030074051203C9E9640160030231297401C024
:10301300E090E43DE0F8A3E0F5838882D0E0F0851A
:103023000882850983C082C08390E43DE02401FCCB
:10303300A3E03400FDD083D0827410120372EEC07B
:10304300E090E43DE02412F8A3E03400F98882899B
:1030530083D0E0F07401C0E090E43DE02411F8A3D4
:10306300E03400F988828983D0E0F090EE5C780C3C
:1030730012011170197401C0E090E43DE02413F8CB
:10308300A3E03400F988828983D0E0F080177400CC
:10309300C0E090E43DE02413F8A3E03400F9888213
:1030A3008983D0E0F074FF90E42DF0740290E42E55
:1030B300F090E42F7400F0A37400F090E4317400F6
:1030C300F0A37400F090E4337400F0A37400F09064
:1030D300E4357400F0A37400F0740090E437F074E6
:1030E3000190E438F074FF90E439F0E508240DF51D
:1030F30082E5093400F583E090E43AF0E508240E14
:10310300F582E5093400F583E0F8A3E0F990E43BA8
:10311300E8F0A3E9F07A2D7BE412317B90E43DE003
:10312300FAA3E0FB80047A007B007F080204597451
:10313300F71203FA75083D7509E478081205457519
:10314300088078081205498A088B09780812054512
:103153007C187D0079047A1D7BE3122D957405128A
:1031630003C9E9700A90E43DE0FAA3E0FB80047A26
:10317300007B007F0202045974F51203FA8A088B5C
:1031830009750A3F750BE4780A120545750A8078BC
:103193000A12054978081205457C127D0079057AE3
:1031A3008E7BE3122D9574051203C9E9FAEA701EAA
:1031B30090E43FE02411F8A3E03400F98882898386
:1031C300E02401F090E43FE0FAA3E0FB80587401AF
:1031D3006A704F7401C0E090E43FE0F8A3E0F58328
:1031E3008882D0E0F0850882850983C082C08390FD
:1031F300E43FE02401FCA3E03400FDD083D08274DB
:103203001012037290E43FE02411F8A3E03400F9B4
:1032130088828983E02401F090E43FE0FAA3E0FB95
:1032230080047A007B007F0402045974F71203FAC6
:10323300EAFEEBFF90E44174E8F0A374E3F080143A
:1032430090E441E02417F8A3E03400F990E441E866
:10325300F0A3E9F090E441C3E0942DA3E094E4509B
:103263005A90E441E0F8A3E0F5838882E060D190CE
:10327300E441E02411F8A3E03400F988828983E073
:10328300131313541FF5087509007808120545EE4A
:10329300FCEFFD90E441E02401FAA3E03400FB12CB
:1032A3007AAA74021203C98A088B0974006508702C
:1032B300047400650970897901800279007F020234
:1032C300045974F31203FAEAFEEBFF8C088D0975B7
:1032D3000A00750C00750D00850882850983E0647A
:1032E300FE700C850882850983A3E06480600B85EA
:1032F3000882850983E064FF701F8508828509833E
:10330300E064FF60030233BA850882850983A3E082
:10331300540E640E60030233BA90E43D741DF0A3AF
:1033230074E3F090E43DC3E0947DA3E094E34003B1
:103333000233CB90E43DE0F8A3E0F5838882E060BC
:103343005F90E43DE02411F8A3E03400F98882891A
:1033530083E06401704A90E43DE0F8A3E0F58388DC
:1033630082A3E064FE701290E43DE0F8A3E0F583ED
:103373008882A3A3E06480602790E43DE02401FCFD
:10338300A3E03400FDAA08AB091235DFE9FAEAC36A
:10339300950A400C8A0A90E43DE0F50CA3E0F50D94
:1033A30090E43DE02418F8A3E03400F990E43DE80C
:1033B300F0A3E9F00233267A0479011234738A0800
:1033C3008B0985080C85090DE50C64007004E50D77
:1033D3006400600302345E8E828F837400F0A374F2
:1033E30000F08E828F83A3A37400F0A37400F08E89
:1033F300828F83A3A3A3A37400F0A37400F08E822F
:103403008F83A3A3A3A3A3A37400F0A37400F08EDC
:10341300828F83A3A3A3A3A3A3A3A37400F0A37482
:1034230000F08E828F83A3A3A3A3A3A3A3A3A3A329
:103433007400F0A37400F0EE240CF582EF3400F571
:10344300837400F0A37400F0EE240EF582EF3400D1
:10345300F5837400F0A37400F08010850C82850D51
:1034630083A3EEFCEFFD74101203727F060204596E
:10347300C082C08390E43D741DF0A374E3F0801414
:1034830090E43DE02418FCA3E03400FD90E43DEC1F
:10349300F0A3EDF090E43DC3E0947DA3E094E3500A
:1034A3006390E43DE0F8A3E0F5838882E060D19087
:1034B300E43DE02411FCA3E03400FD8C828D83E025
:1034C3006970BD90E43DE02412FCA3E03400FD8C60
:1034D300828D83E06A70A990E43DE0F8A3E0F58370
:1034E3008882A3E064FE709890E43DE0F8A3E0F5E1
:1034F300838882A3A3E06480708690E43DE0FAA30E
:10350300E0FB80047A007B00D083D08222C082C09B
:10351300838A828B83E5822408FAE5833400FB12D5
:103523003AE7A3A3A3A3A3A3A3A3E06402F0D083D6
:10353300D0822274F81203FA74081203F0E0FEA397
:10354300E0FFEDF9E98A828B83A3A3A3A3A3A3A33B
:10355300A3F0EC8A828B83A3A3A3A3A3A3A3A3A314
:10356300F074008A828B83A3A3A3A3A3A3A3A3A31F
:10357300A3F074FFC0E0EA240BF582EB3400F5837B
:10358300D0E0F074FEC0E0EA240CF582EB3400F5E1
:1035930083D0E0F07400C0E0EA240DF582EB340040
:1035A300F583D0E0F0EFF9E9C0E0EA240EF582EB11
:1035B3003400F583D0E0F0EEC0E0EA240FF582EBAF
:1035C3003400F583D0E0F08A828B83A3A3A3A3A363
:1035D300A3A3A3E0C2E1F07F0102045974F512032F
:1035E300FA7900750A008006740829F9050AE50AC4
:1035F300C394105061850A08750900EA2508F5820D
:10360300EB3509F583E0FE850A08750900EC25080A
:10361300F582ED3509F583E06E60CD850A087509FD
:1036230000EC2508F582ED3509F583E0C0E0750B64
:1036330000EA250AF582EB350BF583D0E0FAE06A60
:10364300FB7A00800609EBC333FB0AEAC3940850F4
:1036530005EBA2E750EF7F0402045974F81203FA52
:1036630074FE1203BA7E00801E7400C0E0EEF833CD
:1036730095E0F9851082851183E58228F582E5833B
:1036830039F583D0E0F00EEEC39402A2D265D033B5
:10369300400302377B7B067A007980124148EAFABD
:1036A300EAC39429A2D265D033501F7404C0E0EE5C
:1036B300F83395E0F9851082851183E58228F58238
:1036C300E58339F583D0E0F080BCEAC39450A2D2FD
:1036D30065D033501F7401C0E0EEF83395E0F985EF
:1036E3001082851183E58228F582E58339F583D03D
:1036F300E0F08092EAC39445A2D265D0335020749F
:1037030000C0E0EEF83395E0F9851082851183E57A
:103713008228F582E58339F583D0E0F0023689EA21
:10372300C39435A2D265D03350207402C0E0EEF8C2
:103733003395E0F9851082851183E58228F582E5CA
:103743008339F583D0E0F0023689EAC39420A2D20C
:1037530065D033400302366C7403C0E0EEF8339552
:10376300E0F9851082851183E58228F582E58339A6
:10377300F583D0E0F0023689851082851183E0FA63
:1037830074011203F0E06A700A851082851183E0E8
:10379300F98002790074021203C97F0102045922DD
:1037A300C082C08312392D53FDBF740090E443F0EF
:1037B300D29043FE0153F4FED29343FE0853F5F730
:1037C300D083D08222C082C083E912058A0101EC32
:1037D30037D837E337EA6004C290800DD29080096E
:1037E300EA6004C2938002D293D083D08222C08243
:1037F300C083E912058A01011C3801380A38A290F6
:10380300B3E492E0F98014A2934004D2F08002C2A0
:10381300F0A2F0E492E0F980027900D083D0822212
:1038230074F71203FA12365EE9FAEA701A90E44367
:10383300E054FEF0A3E054FFF090E443E054F7F0CB
:10384300A3E054FFF0802474036A700E90E443E015
:103853004401F0A3E04400F0801174046A700C90FA
:10386300E443E04408F0A3E04400F090E443E05470
:1038730002C313A2E092F090E443E0A2E020F0013F
:10388300B3400C90E443E04404F0A3E04400F09020
:10389300E443E05410C4540FA2E092F090E443E0F8
:1038A3005408131313541FA2E020F001B3400C90EB
:1038B300E443E04420F0A3E04400F090E443E05408
:1038C300FDFAA3E054FFFB90E443E0F8A3E0F9E83A
:1038D300C333F8E933F9740258F8740059F9E84A24
:1038E300F8E94BF990E443E8F0A3E9F090E443E00E
:1038F30054EFFAA3E054FFFB90E443E01313135493
:103903001FF508750900740478081203A77410558D
:1039130008F874005509F9E84AF8E94BF990E443CB
:10392300E8F0A3E9F07F02020459C082C083740067
:1039330090E44FF053BEFBE5BEA2E650FA0053C637
:10394300B8E5C643BE0412397CE5F1A2E050074353
:10395300F430E5F4800543F30CE5F3740755C6240E
:103963000AF5C575C2D843868043C482E5C443863D
:10397300401239C4D083D08222C082C08353F1FE67
:10398300D2E9740090E471F0740090E472F0D2AA6A
:10399300D083D0822274F81203FA801D8C828D8327
:1039A300E08A828B83F08A828B83A3AA82AB838C87
:1039B300828D83A3AC82AD8319E970E07F01020499
:1039C3005975C30075A50275A400759C6A759D1889
:1039D300759E2075C303C2C2D2BA2274F11203FAD0
:1039E300A2AFE492E0FAC2AFE5A1F508E4F509F568
:1039F3000AF50BE5A2F50CE4C50CF50DE4F50EF59F
:103A03000F7808790C12029D85A30CE4F50DF50ED1
:103A1300F50F90EE74780C1203117410780C1202E7
:103A23007B7808790C12029DEAA2E092AFAA08AB58
:103A330009AC0AAD0B7F0802045974F11203FA8A28
:103A4300088B098C0A8D0B90EE78780C12033A7868
:103A530008790C1201CC90EE7C780C12033A7808AA
:103A6300790C12014CAA08AB09AC0AAD0B7F080212
:103A73000459A9A122A2E950FCC2E989C122C0824A
:103A8300C08374036960047901804CEAC3940B40DA
:103A930006EAC3941B40047901803CEAF87900E804
:103AA30075F005A4C8AAF075F000A42AFA75F0050C
:103AB300E9A42AF9742E28F8740139F9E890DF1182
:103AC300F0E9F85403C0E090DF10E054FCFAD0E0D2
:103AD3004A90DF10F07900D083D08222E9FA79038B
:103AE300123A8122C082C08374008A828B83F0746D
:103AF300008A828B83A3F074008A828B83A3A3F052
:103B030074008A828B83A3A3A3F074008A828B83BD
:103B1300A3A3A3A3F074008A828B83A3A3A3A3A369
:103B2300F074008A828B83A3A3A3A3A3A3F07400DE
:103B33008A828B83A3A3A3A3A3A3A3F0D083D0825E
:103B430022C082C08374F81203BA85108285118360
:103B5300AA82AB83123AE7851082851183E090DF56
:103B630043F074011203F0E090DF44F07402120397
:103B7300F0E090DF45F074031203F0E090DF46F0CD
:103B830074041203F0E090DF47F074051203F0E0D1
:103B930090DF48F074061203F0E090DF49F07407F9
:103BA3001203F0E090DF4AF074081203C9D083D007
:103BB3008222C082C083EA90DF4CF0EB90DF4BF0AF
:103BC300D083D08222C082C083EA90DF4EF0EB9094
:103BD300DF4DF0D083D08222C082C083123A81E9C4
:103BE300F9E96003023CA2740490DF17F090DF1739
:103BF300E0A2E440F8851082851183E05401A2E03D
:103C0300501090DF02E0C2E3F090DF03E0C2E4F083
:103C1300800E90DF02E0D2E3F090DF03E0D2E4F025
:103C23008510828511837C4F7DE4740212037290A8
:103C3300DF03E0D2E5F0851082851183E054026052
:103C43000990DF02E0D2E4F0800790DF02E0C2E4F3
:103C5300F090DF54E054F3440190DF54F090DF54CC
:103C6300E0C2E5F0747F90DF4FF075E1C275E1C704
:103C730075E1C675E1C675E1C175E1FE75E1C9126D
:103C83003B4475E90075910074FC559BFA8A9B745B
:103C930001459AFC8C9AC289D2A84391207900D01D
:103CA30083D0822274F11203FA74FC1203BA7E00E9
:103CB3007F00EE6079EEFA90EE78780812033A808E
:103CC300087401780812027B1AEA70F5E50824FFEC
:103CD300C0E0123A75E9FAD0E05AFA90EE5C78083F
:103CE30012033A800990EE8078081202B31AEA7040
:103CF300F41239DE8A0C8B0D8C0E8D0F85108285A4
:103D03001183780C1203561239DE8A0C8B0D8C0E3C
:103D13008D0F851082851183780C1202F690EE5474
:103D2300780C1203117808790C12012940D990DF1D
:103D330062E0A2E040130F0EEEC3940640027E053C
:103D4300EFC394055003023CB574041203C97F0802
:103D530002045974F81203FA740229FCECC3948028
:103D630040047904806A90DF39E06406700F90DFC5
:103D730053E0C39401400675E1E675E1E653E9BFFC
:103D830074FC559BFD8D9B8CD980118A828B83E0BB
:103D9300F5D98A828B83A3AA82AB8319E970EC904D
:103DA300DF07E06480700875E1E279011240C81210
:103DB3003CA775E1E490DF39E0C3941F400A127019
:103DC3000F7900439140800875E1E779075391BF6C
:103DD3007F01020459C0E0C0D0EAC0E0C008C009B6
:103DE300C082C08390E471E02401F090E471E06448
:103DF300207006740090E471F090E471E0F508E53A
:103E0300C1C0E0750900E5082451F582E50934E4F1
:103E1300F583D0E0F0D083D082D009D008D0E0FA87
:103E2300D0D0D0E032C0E074EB120494C2AFC2C26F
:103E3300E5A1F50CE4F50DF50EF50FE5A2F508E4A3
:103E4300C508F509E4F50AF50B780C790812029D0B
:103E530085A308E4F509F50AF50B90EE74780812CA
:103E630003117410780812027B780C790812029DF2
:103E730090EE84780C1202B3E50CF59C850D09E5F0
:103E830009F508E508F59D7410780C120262E50C3B
:103E9300540F4420F59E75C30312382312771DD2A5
:103EA300AF7F080204ECC0E0C0D0C082C083C2AFC1
:103EB30090DF39E06411700E75E1E575E1E675E1B7
:103EC300E675E1E2800B90DF39E06438700375E159
:103ED300E7C289D2AFD083D082D0D0D0E032C0E065
:103EE30074ED12049474FB1203BAC2AFE5E9F50B47
:103EF30075E90074FC559BFA8A9BE591520BE50B1F
:103F0300A2E540030240AA7E007F00747F55D9F5E5
:103F13000A7405650A705A851082851183E50AF0D3
:103F2300E5D9C0E074011203F0D0E0F0E5D9C0E0B8
:103F330074021203F0D0E0F0E5D9C0E07403120379
:103F4300F0D0E0F0E5D9C0E074041203F0D0E0F063
:103F5300E5D9FAA2E7400302409774041203F0E0A4
:103F6300F9851082851183AA82AB83124D3B0240EF
:103F730097E5D9851082851183F0E5D9C0E07401F6
:103F83001203F0D0E0F090E44FE05401F8A2E040D7
:103F93003E74011203F0E0C413135403C0E074032E
:103FA3001203F0D0E0F074011203F0E01313543F56
:103FB3005403C0E074021203F0D0E0F07403120360
:103FC300F0E0700B74021203F0E0700302409712EA
:103FD3004DE4E97021850A0875090074012508FA82
:103FE30074003509FB125BA28A0C8B0D850C0885C6
:103FF3000D09AE08AF09EE64007003EF64007003AF
:104003000240978E828F83E50AF08E828F83A3AE60
:1040130082AF83851082851183E08E828F83F08E39
:10402300828F83A3AE82AF83150A74011203F0E07B
:104033008E828F83F08E828F83A3AE82AF83150A25
:104043008012E5D98E828F83F0150A8E828F83A327
:10405300AE82AF83E50A70EAEE24FFF582EF34FF08
:10406300F583E0A2E75026EE24FEF582EF34FFF558
:1040730083E02480F012700EEE24FEF582EF34FF0D
:10408300F583E0F9AA08AB09124D3B8007AA08ABF8
:1040930009125CD075E1E675E1E675E90074FC553B
:1040A3009BFA8A9B439120E50BA2E6500912702CE0
:1040B300124D025391BF12771ED2AF74051203C97A
:1040C3007F060204EC74F11203FAE9607389087540
:1040D3000900740778081203A7E4F50AF50BE9F55C
:1040E3000C750D00E50C75F072A4C50CAAF075F003
:1040F30000A42AFA75F072E50DA42AF50DE50D3337
:1041030095E0F50EF50F7808790C12029D740755AA
:10411300C6780812026285080C85090D850A0E858A
:104123000B0F850C08850D09850E0A850F0B90EE84
:104133008878081202B390EE5C780C12011170D6E5
:104143007F0802045974F51203FA74FF1203BAE5E7
:10415300BB851082851183F0E5BA851082851183B2
:10416300F0750801750900EB78081203A7E5084507
:10417300F2F5F243B430E5B4EA494BF5B6E5B4A23F
:10418300E750FA750801750900EB78081203A7E5F3
:1041930008F455F2F5F2E5BBF508E4C508F509E5C1
:1041A300BA750B004508F508E50B4509F509EA134F
:1041B3001313541FFA7408C39A7808120397AA08B2
:1041C300AB0974011203C97F0402045974F5120385
:1041D300FA90E473780812033AAA08AB09AC0AAD63
:1041E3000B7F0402045974F11203FAEAFEEBFF7425
:1041F3000F1203F0780812033A90EE5C780812016C
:1042030011601D1241CF8A0C8B0D8C0E8D0F780C13
:10421300790812029D8E828F83780C1203568011C7
:1042230090EE5C780812033A8E828F83780812032B
:10423300567F0802045974F51203FA740690ED1FB1
:10424300F0740090ED20F090EE5C780812033A9041
:10425300ED21780812035690EDA7E0790090ED2543
:10426300F0A3E9F0743A90ED27F090E309E090EDC4
:1042730028F07508107509007808120545EAFCEB6B
:10428300FD7A397BED127B0374021203C97C397DFD
:10429300ED7A297BED1232C57F0402045974F812BA
:1042A30003FAEAFEEBFF90EDA5742CF0A374EEF095
:1042B300780079007C00803690EDA5E024FFFAA316
:1042C300E034FFFB90EDA5EAF0A3EBF0ECC0E09047
:1042D300EDA5E0FAA3E0F5838A82D0E0F0ECC39485
:1042E300FF40027C00E82401F8E93400F90CC3E83C
:1042F3009EE99F40C390EDA5E024FFF8A3E034FFBF
:10430300F990EDA5E8F0A3E9F07400C0E090EDA505
:10431300E0F8A3E0F5838882D0E0F090EDA5E024F7
:10432300FFF8A3E034FFF990EDA5E8F0A3E9F074FA
:1043330000C0E090EDA5E0F8A3E0F5838882D0E02B
:10434300F090EDA5E024FFF8A3E034FFF990EDA58C
:10435300E8F0A3E9F0123A75E9C0E090EDA5E0F8C2
:10436300A3E0F5838882D0E0F090EDA5E0F8A3E028
:10437300F5838882E0790090ED19F0A3E9F090EDE0
:10438300A5E024FFF8A3E034FFF990EDA5E8F0A33E
:10439300E9F07466C0E090EDA5E0F8A3E0F583884A
:1043A30082D0E0F090ED19E02400F0A3E03466F051
:1043B30090EDA5E024FFF8A3E034FFF990EDA5E824
:1043C300F0A3E9F07400C0E090EDA5E0F8A3E0F5F8
:1043D300838882D0E0F090EDA5E024FFF8A3E034D9
:1043E300FFF990EDA5E8F0A3E9F07400C0E090EDCB
:1043F300A5E0F8A3E0F5838882D0E0F090EDA5E096
:1044030024FFF8A3E034FFF990EDA5E8F0A3E9F069
:104413007400C0E090EDA5E0F8A3E0F5838882D0B6
:10442300E0F090EDA5E024FFF8A3E034FFF990ED70
:10443300A5E8F0A3E9F07480C0E090EDA5E0F8A34F
:10444300E0F5838882D0E0F0EE240890EDA7F090A9
:10445300ED1B7400F0A37400F090ED14E0F8A3E0FA
:10446300F990ED1DE8F0A3E9F074302EF874003FE5
:10447300F990ECFFE8F0A3E9F07F01020459C08250
:10448300C08390ED5EE0F8790090ED5AE028F8A340
:10449300E039F9E82404F8E93400F988828983E0F3
:1044A300FAE4CAFB88828983A3A882A983888289C4
:1044B30083E0FC7D00EA2CFAEB3DFB88828983A331
:1044C300A882A98390ED19E06A7003A3E06B7038AA
:1044D30088828983E0FAE4CAFB88828983A3A8825D
:1044E300A98388828983E0FC7D00EA2CFAEB3DFBFB
:1044F30090ED1BE06A7003A3E06B700C90ED17E086
:104503004402F0A3E04400F0D083D0822274F3127B
:1045130003FA90ED5EE0F8790090ED5AE028F50893
:10452300A3E039F509E5082404F508E5093400F5A5
:1045330009850882850983E0F50A750B00850882E1
:10454300850983A3E02408780A1203A7AA0AAB0B00
:10455300E5082402F508E5093400F5098508828594
:104563000983E0F50A750B00850882850983A3E0BA
:104573002408780A1203A7AC0AAD0BE5082402F558
:1045830008E5093400F50990ED65E024F8F8A3E0A7
:1045930034FFF990EDA5742CF0A374EEF0750A00C6
:1045A300750B00805690EDA5E024FFFEA3E034FFD9
:1045B300FF90EDA5EEF0A3EFF0C3E4950AF50CE44C
:1045C300950BF50DE50828FEE50939FFE50C2EFEF0
:1045D300E50D3FFF74FF2EF58274FF3FF583E0C0C6
:1045E300E090EDA5E0FEA3E0F5838E82D0E0F0E558
:1045F3000A2401F50AE50B3400F50BC3E50A98E537
:104603000B9940A190EDA5E024FFFEA3E034FFFF4A
:1046130090EDA5EEF0A3EFF0ECC0E090EDA5E0FE89
:10462300A3E0F5838E82D0E0F090EDA5E024FFFEB9
:10463300A3E034FFFF90EDA5EEF0A3EFF0EDC0E0B3
:1046430090EDA5E0FCA3E0F5838C82D0E0F090ED43
:10465300A5E024FFFCA3E034FFFD90EDA5ECF0A35F
:10466300EDF0EAC0E090EDA5E0FCA3E0F5838C82D9
:10467300D0E0F090EDA5E024FFFCA3E034FFFD9033
:10468300EDA5ECF0A3EDF0EBC0E090EDA5E0FAA30F
:10469300E0F5838A82D0E0F090EDA5E024FFFAA351
:1046A300E034FFFB90EDA5EAF0A3EBF07400C0E06B
:1046B30090EDA5E0FAA3E0F5838A82D0E0F090EDD7
:1046C300A5E024FFFAA3E034FFFB90EDA5EAF0A3F5
:1046D300EBF07400C0E090EDA5E0FAA3E0F5838A67
:1046E30082D0E0F090EDA5E024FFFAA3E034FFFBD5
:1046F30090EDA5EAF0A3EBF07400C0E090EDA5E027
:10470300FAA3E0F5838A82D0E0F090EDA5E024FFE0
:10471300FAA3E034FFFB90EDA5EAF0A3EBF074807D
:10472300C0E090EDA5E0FAA3E0F5838A82D0E0F043
:10473300E8240890EDA7F0743028F8740039F99054
:10474300ECFFE8F0A3E9F07F0602045974F51203C5
:10475300FA740090E4B6F0740090E477F090E48883
:104763007400F0A37400F090EE5C780812033A90A2
:10477300E47C7808120356740090E4A1F07400906E
:10478300E4A2F090E48A7447F0A37413F0740390E6
:10479300E48FF0126160740190E48DF074FF90E493
:1047A3009AF0740090E48EF090E48EE0D2E2F09000
:1047B300E48EE0D2E3F090E48EE0D2E7F07F0402EF
:1047C300045974F51203FA740390ED97F07414907E
:1047D300ED98F090ED98E0C3940B501290EE8C7826
:1047E3000812033A90E4787808120356801090EE8A
:1047F30090780812033A90E478780812035674010B
:1048030090EDA8F090EDA9E054FEF0A3E054FFF082
:1048130090EDA9E054FDF0A3E054FFF0740290ED95
:10482300ABF0740190EDACF01270417A477B131238
:104833003BB57AFE7BFF123BC890EDABE0F97F04FA
:10484300020459C082C08390E48AEAF0A3EBF0909B
:10485300E48AE0FAA3E0FB123BB5D083D08222C006
:1048630082C083E990ED98F0123ADFD083D08222A0
:1048730074F81203FAEAFEEBFF126160EEFAEFFB43
:1048830012619EEEFAEFFB123BC87F0102045974DA
:10489300F11203FA12704190E47CE0548060031239
:1048A3004EBC12529490E4B6E012058A0008FD4C07
:1048B300C5484549C14CDA4CFD4CE74B3E4C154BC2
:1048C3006C4B90E47CE05400F8A3E05404F97400CA
:1048D3006870037400697003024CFD90E4E1E0F832
:1048E300790090E4C9E0FAA3E0F5838A82E028FA2C
:1048F300A3E0398A82F583E0FA1205C00003012799
:1049030049061B49070C49364990E47CE054FFF003
:10491300A3E054FBF0024CFD90E47CE054FFF0A3D1
:10492300E054FBF090E47CE054FFF0A3E054FBF090
:10493300024CFD90E47CE054FFF0A3E054FBF00252
:104943004CFD90E4B2E012058A0305FD4C6D4979F4
:1049530049984A124AA9495C4990E4B3E090E4B506
:10496300F0740090E4B6F0024CFD124F777402909D
:10497300E4B6F0024CFD90E47CE04480F0A3E04414
:1049830000F0740A90E4E2F0740290EDA8F074026F
:1049930090EDABF0740190EDACF0127041740290A5
:1049A300E4B6F0024CFD90ED9FE0F8540260030280
:1049B3004CFD90ED9FE04402F0A3E04400F074034B
:1049C30090E4C5F074C890E4C6F090E4B974FFF0C5
:1049D300A374FFF090E4B774FFF0A374FFF090E4C6
:1049E300C174FFF0A374FFF0125A4790E47CE054C3
:1049F300FFF0A3E054DFF090E47CE04400F0A3E098
:104A03004440F0124F77740590E4B6F0024CFD90E9
:104A1300E47CE054FFF0A3E054FEF090ED9FE0F857
:104A230054026003024CFD90ED9FE04402F0A3E0CA
:104A33004400F090E47CE04400F0A3E04402F090F2
:104A4300E4B3E0F9123ADF90EDA5742BF0A374EE12
:104A5300F07407C0E090EDA5E0F8A3E0F583888249
:104A6300D0E0F0740190EDA7F0744390E4C5F074C6
:104A73000890E4C6F090E4B974FFF0A374FFF090DB
:104A8300E4B77447F0A37413F0124F77740390E400
:104A9300B6F0024CFD90ED9FE0F854026003024C27
:104AA300FD90ED9FE04402F0A3E04400F090E4B3F6
:104AB300E0F9123ADF90E47CE054FFF0A3E054F70E
:104AC300F012575D742390E4C5F074C890E4C6F007
:104AD30090E49BE0F8A3E0F990E4B9E8F0A3E9F0EF
:104AE30090E49DE0F8A3E0F990E4B7E8F0A3E9F0DF
:104AF30090E47CE04400F0A3E04410F090E4C1743F
:104B0300FFF0A374FFF0124F77740790E4B6F0023E
:104B13004CFD90E47CE0F854806003024CFD90ED82
:104B23009FE054FDF0A3E054FFF090E4E2E0601D49
:104B330090E4E2E090E4B5F090E47CE054FFF0A36D
:104B4300E054EFF0740090E4B6F0024CFD1239DE4D
:104B53008A088B098C0A8D0B90E4E37808120356BC
:104B6300740890E4B6F0024CFD90E47CE05400F845
:104B7300A3E05408F97400687003740069601B743F
:104B83000090E4B5F090E47CE054FFF0A3E054EF30
:104B9300F0740090E4B6F0024CFD1239DE8A088B03
:104BA300098C0A8D0B90E4E378081202F690EE5418
:104BB300780812031190EE94780C12033A780C796A
:104BC300081201295003024CFD740D90E4B5F090D6
:104BD300E47CE054FFF0A3E054EFF0740090E4B6FB
:104BE300F0024CFD90E47CE0F854806003024CFD3D
:104BF30090ED9FE054FDF0A3E054FFF090E4E2E079
:104C0300601D90E47CE054FFF0A3E054BFF090E417
:104C1300E2E090E4B5F0740090E4B6F0024CFD12CB
:104C230039DE8A088B098C0A8D0B90E4E37808122D
:104C33000356740690E4B6F0024CFD90E47CE05415
:104C430000F8A3E05420F9740068700374006960ED
:104C530027740090E4B5F090E47CE054FFF0A3E007
:104C630054BFF090E47CE054FFF0A3E054DFF07411
:104C73000090E4B6F0024CFD1239DE8A088B098CF1
:104C83000A8D0B90E4E378081202F690EE5478084C
:104C930012031190EE94780C12033A780C790812EF
:104CA30001294056740E90E4B5F090E47CE054FF83
:104CB300F0A3E054BFF0740090E4B6F0803C90E4BD
:104CC3007CE0F85480703390E4E2E090E4B5F07453
:104CD3000090E4B6F0802390E47CE0F85480701AEE
:104CE30090E4E2E090E4B5F0740090E4B6F090ED67
:104CF3009FE054FDF0A3E054FFF07F0802045974D1
:104D0300F51203FA90EDA5E0F8A3E0F5838882E0BD
:104D1300A2E5501F90E47CE04440F0A3E04400F09F
:104D23001239DE8A088B098C0A8D0B90E49278087D
:104D33001203567F0402045974F81203FA8A828B11
:104D430083E06405702A8A828B83A3E054036402A0
:104D5300701E8A828B83A3A3A3E0FA90E48CE06A9B
:104D6300707A90E47CE054BFF0A3E054FFF0806CD1
:104D730090E4A2E02401F090E4A2E06405700674DC
:104D83000090E4A2F090E4A2E0FC7D00EC75F00357
:104D9300A4CCAEF075F000A42EFE75F003EDA42EA6
:104DA300FDEC24A3F582ED34E4F583EAF0A3EBF004
:104DB300E9C0E090E4A2E0F87900E875F003A4C844
:104DC300AAF075F000A42AFA75F003E9A42AF9E819
:104DD30024A5F582E934E4F583D0E0F07F010204F1
:104DE30059C082C08390E4A2E02401FA74056A707A
:104DF300027A0090E4A1E06A7004790180027900EC
:104E0300D083D08222C082C08390E4A1E0FA90E4F0
:104E1300A2E06A7004790180027900D083D08222F3
:104E2300C082C08390E4A1E0FA90E4A2E06A700635
:104E33007A007B00802F90E4A1E02401FA74056AD4
:104E430070027A00EAF87900E875F003A4C8AAF0C2
:104E530075F000A42AFA75F003E9A42AF9E824A35B
:104E6300FAE934E4FBD083D08222C082C08390E489
:104E7300A1E02401F090E4A1E064057006740090C1
:104E8300E4A1F0E9602E90E4A1E0F87900E875F080
:104E930003A4C8AAF075F000A42AFA75F003E9A4E4
:104EA3002AF9E824A3F582E934E4F583E0FAA3E0E0
:104EB300FB125CD0D083D0822274F51203FA90E403
:104EC3007CE0F854807003024F7290EDACE0600315
:104ED300024F7290EDABE0602290E47CE054BFF0AF
:104EE300A3E054FFF090E47CE0547FF0A3E054FF90
:104EF300F090EDABE090E4E2F0807490E47CE0F8B5
:104F03005440701490E47CE0547FF0A3E054FFF02D
:104F1300740090E4E2F0805790E478C082C083127A
:104F230039DE8A088B098C0A8D0B90E4927808127B
:104F330002F690EE547808120311D083D0827808D9
:104F430012013C502A90E4A0E0600790E4A0E02422
:104F5300FFF090E4A0E07014740B90E4E2F090E4AE
:104F63007CE0547FF0A3E054FFF08003124F777F7F
:104F73000402045974F71203FA90E47CE0F85480B5
:104F8300600302527A90E4C6E01313543F5403FEC5
:104F930090E4C6E0C413135403FF90E48AE064FE74
:104FA3007004A3E064FF701574026F70107F0390A8
:104FB300E4C6E0543FF090E4C6E044C0F0EF1205CD
:104FC3008A02015250CC4F285090EDA5E024FFF8FF
:104FD300A3E034FFF990EDA5E8F0A3E9F090E4C372
:104FE300A3E0F9E9C0E090EDA5E0F8A3E0F583883C
:104FF30082D0E0F090EDA5E024FFF8A3E034FFF9C0
:1050030090EDA5E8F0A3E9F090E4C3E0C0E090EDF3
:10501300A5E0F8A3E0F5838882D0E0F090EDA7E067
:105023002402F0802A90EDA5E024F8FAA3E034FFEF
:10503300FB123AE790EDA7E02408F090EDA5E024F9
:10504300F8F8A3E034FFF990EDA5E8F0A3E9F090B8
:10505300E4C5E0A2E6405DEF605A90EDA5E024FFD1
:10506300F8A3E034FFF990EDA5E8F0A3E9F090E4AC
:10507300C1A3E0F9E9C0E090EDA5E0F8A3E0F58372
:105083008882D0E0F090EDA5E024FFF8A3E034FFA0
:10509300F990EDA5E8F0A3E9F090E4C1E0C0E09059
:1050A300EDA5E0F8A3E0F5838882D0E0F090EDA7CA
:1050B300E02402F0EE12058A02017051C3501F5121
:1050C30090EDA5E024FFF8A3E034FFF990EDA5E807
:1050D300F0A3E9F090E4B9A3E0F9E9C0E090EDA50D
:1050E300E0F8A3E0F5838882D0E0F090EDA5E0241A
:1050F300FFF8A3E034FFF990EDA5E8F0A3E9F09001
:10510300E4B9E0C0E090EDA5E0F8A3E0F583888280
:10511300D0E0F090EDA7E02402F080517A008040C7
:1051230090EDA5E024FFF8A3E034FFF990EDA5E8A6
:10513300F0A3E9F08A087509007407C39508F874A9
:10514300009509F9E824B9F582E934E4F583E0C070
:10515300E090EDA5E0F8A3E0F5838882D0E0F00AC3
:10516300EAC3940840BA90EDA7E02408F0EE605A31
:1051730090EDA5E024FFF8A3E034FFF990EDA5E856
:10518300F0A3E9F090E4B7A3E0F9E9C0E090EDA55E
:10519300E0F8A3E0F5838882D0E0F090EDA5E02469
:1051A300FFF8A3E034FFF990EDA5E8F0A3E9F09050
:1051B300E4B7E0C0E090EDA5E0F8A3E0F5838882D2
:1051C300D0E0F090EDA7E02402F0123A75E990E404
:1051D3008CF090EDA5E024FFF8A3E034FFF990ED07
:1051E300A5E8F0A3E9F090E48CE0C0E090EDA5E041
:1051F300F8A3E0F5838882D0E0F090EDA5E024FFEA
:10520300F8A3E034FFF990EDA5E8F0A3E9F090E40A
:10521300C6E0C0E090EDA5E0F8A3E0F5838882D076
:10522300E0F090EDA5E024FFF8A3E034FFF990ED62
:10523300A5E8F0A3E9F090E4C5E0C0E090EDA5E0B7
:10524300F8A3E0F5838882D0E0F090EDA7E0240393
:10525300F090E47CE054BFF0A3E054FFF090E47CD2
:10526300E04480F0A3E04400F090E48FE090E4A0F9
:10527300F0740A90E4E2F0740290EDA8F0740290E6
:10528300EDABF0740190EDACF01270417F020204BB
:105293005974F51203FA802BE0F9122A137A527B20
:1052A3007C1229B0A3EE2401FEEF3400FFC3EE9479
:1052B3005AEF940040E27A567B7C1229B074019035
:1052C300E477F090E477E012058A00026254D75243
:1052D3002B544154124E08E96003025462124E23C8
:1052E3008A088B09AE08AF098E828F83E0F8A3E0AA
:1052F300F5838882A3E05403701E90E47CE054009D
:10530300F8A3E05402F9740068700374006970082C
:105313007901124E6D0254628E828F83E0F8A3E00E
:10532300F5838882A3E05403640270087901124E66
:105333006D025462EEF8EFF990E4C9E8F0A3E9F0E6
:105343001254678E828F83E0F8A3E0F5838882A3EB
:10535300E05403700B12562E7901124E6D02546203
:105363008E828F83E0F8A3E0F5838882A3E0540361
:1053730064017043125A72E970087901124E6D028A
:1053830054621239DE8A088B098C0A8D0B90E496DD
:1053930078081203567A387B7C1229B090E4C9E06E
:1053A300F8A3E0F5838882E0F8A3E0F98882898393
:1053B3007E007F000252B090E4E1E0F8790090E4CF
:1053C300C9E0FAA3E0F5838A82E028FAA3E0398AE8
:1053D30082F583E01205C0000202E453080454245A
:1053E3005490E47CE05400F8A3E05410F97400688E
:1053F300700374006960031257C47901124E6D8003
:105403005E90E47CE05400F8A3E05440F974006833
:10541300700374006960031258E97901124E6D80BC
:105423003E7901124E6D8037120B94E97031120BE5
:10543300A97900124E6D740090E477F0802190E416
:105443007CE05400F8A3E05404F97400687003741A
:105453000069700B7901124E6D740090E477F07F50
:105463000402045974F71203FA90E4C9E0F8A3E0C4
:10547300F5838882E0F8A3E0F97A0188828983A31F
:10548300A882A98388828983E090E4CBF08882890B
:1054930083A3A882A98388828983E090E4CCF088DF
:1054A300828983A3A882A98390E4CCE01313543F99
:1054B3005403FB90E4CCE0C413135403FE888289A5
:1054C30083A3A882A98374032AFAEB6035888289AF
:1054D30083E07D0090E4CDF0A3EDF088828983A37F
:1054E300A882A98388828983E0FCE4CCFD90E4CD83
:1054F300E02CF0A3E03DF088828983A3A882A983EE
:105503000A0A74026B703788828983E07D0090E415
:10551300CFF0A3EDF088828983A3A882A983888230
:105523008983E0FCE4CCFD90E4CFE02CF0A3E03DE4
:10553300F088828983A3A882A9830A0A8038740326
:105543006B70337B00802588828983E0C0E08B0801
:10555300750900E50824CFF582E50934E4F583D025
:10556300E0F088828983A3A882A9830BEBC3940804
:1055730040D574082AFA90E4CBE0A2E64038EE6006
:105583003588828983E07D0090E4D7F0A3EDF0882D
:10559300828983A3A882A98388828983E0FCE4CCDF
:1055A300FD90E4D7E02CF0A3E03DF088828983A34B
:1055B300A882A9830A0A74026E702E88828983E006
:1055C3007D0090E4D9F0A3EDF088828983A3A882BB
:1055D300A98388828983E0FCE4CCFD90E4D9E02CA4
:1055E300F0A3E03DF00A0A803874036E70337B0049
:1055F300802588828983E0C0E08B08750900E5086F
:1056030024D9F582E50934E4F583D0E0F088828972
:1056130083A3A882A9830BEBC3940840D574082AFB
:10562300FAEA90E4E1F07F02020459C082C0839059
:10563300E4C9E0F8A3E0F5838882E0F8A3E0F5830A
:105643008882E0F8790090E4E1E0FA7B00E8C39A0D
:10565300F8E99BF974FF28F874FF39F9740D687041
:1056630003740069600302575890E4E1E0F879009D
:1056730090E4C9E0FAA3E0F5838A82E028F8A3E086
:1056830039F988828983A3E0A2E74003025758E8E7
:105693002404F8E93400F988828983E0600302571F
:1056A3005888828983A3A882A98388828983E0603A
:1056B3000302575888828983A3A882A98388828991
:1056C30083E0600302575888828983A3A882A98351
:1056D30088828983A3A882A98388828983E0FB883F
:1056E300828983A3A882A98388828983E0606690E4
:1056F300E49AE064FF601B90E49FE0C0E090E4C99B
:10570300E0F8A3E0F5838882A3A3E0FAD0E0C39A8C
:105713005037EB90E49AF090E4C9E0F8A3E0F58306
:105723008882A3A3E090E49FF090E4D9E0F8A3E09B
:10573300F990E49BE8F0A3E9F090E4D7E0F8A3E064
:10574300F990E49DE8F0A3E9F090E47CE04400F0F4
:10575300A3E04401F0D083D08222C082C08390EDC5
:10576300A5742CF0A374EEF090EDA5E024FFF8A34C
:10577300E034FFF990EDA5E8F0A3E9F090E48EE0C2
:10578300C0E090EDA5E0F8A3E0F5838882D0E0F0D7
:1057930090EDA5E024FFF8A3E034FFF990EDA5E830
:1057A300F0A3E9F07401C0E090EDA5E0F8A3E0F503
:1057B300838882D0E0F0740290EDA7F0D083D0828A
:1057C3002274F81203FA90E4C9E0F8A3E0F58388A1
:1057D30082E0F8A3E0F5838882E0F8790090E4E1C1
:1057E300E0FA7B00E8C39AF8E99BF974FF28F874A0
:1057F300FF39F9740468700374006960030258E4A4
:1058030090E4E1E0F8790090E4C9E0FAA3E0F583DD
:105813008A82E028FEA3E039FF8E828F83A3A3A3AD
:10582300E0540360030258E48E828F83A3AE82AFF9
:10583300838E828F83E0FA7B008E828F83A3AE8276
:10584300AF838E828F83E0F8E4C8F9EA28FAEB3954
:10585300FB12487390E4D7E0F8A3E0F990E48AE8F8
:10586300F0A3E9F090E4D7E0FAA3E0FB123BB59094
:10587300E49BE0F8A3E0F990E488E8F0A3E9F09072
:10588300E49AE0240190E48DF090E4D9E090E48080
:10589300F090E4DAE090E481F090E4DBE090E482DD
:1058A300F090E4DCE090E483F090E4DDE090E484C5
:1058B300F090E4DEE090E485F090E4DFE090E486AD
:1058C300F090E4E0E090E487F090E47CE04400F0C2
:1058D300A3E04408F090E47CE054BFF0A3E054FF5D
:1058E300F07F0102045974F81203FA90E4C9E0F856
:1058F300A3E0F5838882E0F8A3E0F5838882E0F8EB
:10590300790090E4E1E0FA7B00E8C39AF8E99BF9B7
:1059130074FF28F874FF39F9740868700374006918
:105923006003025A4290E4E1E0F8790090E4C9E0B0
:10593300FAA3E0F5838A82E028FEA3E039FF90E42E
:105943007CE04400F0A3E04420F090E47CE04400D9
:10595300F0A3E04408F090E47CE054BFF0A3E054EB
:10596300FFF08E828F83A3AE82AF838E828F83E01C
:10597300FA7B008E828F83A3AE82AF838E828F8366
:10598300E0F8E4C8F9EA28FAEB39FB8E828F83A3A7
:10599300AE82AF831248468E828F83E0790090E413
:1059A30088F0A3E9F08E828F83A3AE82AF838E82C9
:1059B3008F83E0F8E4C8F990E488E028F0A3E039A5
:1059C300F08E828F83A3AE82AF838E828F83E08E2D
:1059D300828F83A3AE82AF83F912486290E4D9E049
:1059E30090E480F090E4DAE090E481F090E4DBE08E
:1059F30090E482F090E4DCE090E483F090E4DDE076
:105A030090E484F090E4DEE090E485F090E4DFE05D
:105A130090E486F090E4E0E090E487F08E828F8358
:105A2300E0FA7B008E828F83A3AE82AF838E828F58
:105A330083E0F8E4C8F9EA28FAEB39FB1248737FEC
:105A430001020459C082C08390EDA5742BF0A374A6
:105A5300EEF07406C0E090EDA5E0F8A3E0F58388CE
:105A630082D0E0F0740190EDA7F0D083D08222744D
:105A7300F71203FA90E47CE05400F8A3E05408F929
:105A8300740068700374006970047900807E90E488
:105A9300CCE01313543F5403FA74036A700479017E
:105AA300806A90E4CCE0C413135403FA74026A705E
:105AB3001890E4D9E0F8A3E0F990E488E068700373
:105AC300A3E06970457901804374036A703C7B00ED
:105AD30080010BEBC3940850288B08750900E50877
:105AE30024D9F582E50934E4F583E0FA8B087509D6
:105AF30000E5082480F582E50934E4F583E06A6073
:105B0300D174086B70047901800279007F0202046A
:105B130059C082C0838A828B83E0F879008A828BA2
:105B230083A3E0FAE4CAFBE82AF8E93BF974FF58D7
:105B3300F8747F59F9E8FAE9FBD083D0822274F82C
